:020000040000FA
:06000000020AD00201F625
:03001300020219CD
:03002B0002090BBC
:03003B0002026E50
:0300530002012780
:1000830002018B0101FF01010503010F10FEFF5A5D
:10009300135A135A135A1310120A125A13D921005E
:1000A3000000009D22000000000C0000000C000175
:1000B300060A1010000076150000000000002A1642
:1000C30000000000000000000000FFFF0000AC186B
:1000D30000000000F100000000000000000000002C
:1000E300000000000000000000000000000200000B
:1000F30000000000000000000100010200520500A2
:100103000000C50564000202001000000502070597
:100113001E02051E0A0A03B80B02803E01021200EA
:1001230014020206C0E074F21204B6A2AFE433FE76
:10013300D2AFE5A7FFE5A1F5085F54106006121CD6
:100143009675A1EFE5085F54086008121C9C75A121
:10015300F7802BEFA2E0C0D0E508A2E092F0120AEC
:100163000D158182F05017906198E0F8900796E0A2
:10017300C398A2D265D0335002E8F075A1FEEEA277
:10018300E092AF7F0102056DC0E074F21204B6A2E3
:10019300AFE433FED2AF9061A4E0F8759B00E59124
:1001A30058540860087591F7121CDE802AE59158AF
:1001B300541060087591EF121CE4801BE8A2E0C0A4
:1001C300D0E591A2E092F0120A0D158182F050075A
:1001D300E0C2E0F0121E229061A3E0F8E5E9585472
:1001E30004600E121DF875E9FB906193E0A2E640EE
:1001F300F2808BC0E074F21204B6A2AFE433FED2F5
:10020300AF9061A5E0F8E5BF585404600675BFFBE5
:10021300121E3A020181C0E0C0D0E8C0E0E9C0E0AC
:10022300C082C083E5C1C0E0900702E0F874812872
:10023300F58274063400F583D0E0F0900701E0F80E
:10024300A3E0687006E595900704F0900702E004C8
:10025300F0C394804002E4F0A374C6F0D083D0824C
:10026300D0E0F9D0E0F8D0D0D0E032C0E0C0D0E8A0
:10027300C0E0C008C009C082C083900785E0F8A32E
:10028300E0687008539AFBA374018026C2E99007C3
:1002930085E0F50874012508F074052508F58274D6
:1002A300073400F583E0F5C1900785E0C3948040EF
:1002B30002E4F0D083D082D009D00880A6C3E498AA
:1002C300F8E499F91203018026C3E49AFAE49BFB4C
:1002D300E920E7E9120301E498F8E499F922C3E479
:1002E30098F8E499F9120301E498F8E499F9C3E45E
:1002F3009AFAE49BFB22EB20E7CFE920E7E0B90081
:1003030010BB0008E88AF084F8AAF022E4FBC8FADC
:1003130022EB70227B10C833C8C933C9335007C3DB
:100323009AC3DBF280069A50012ADBEAC833F4C889
:10033300C933F4C9FA2275F008E4C833C8C933C90C
:1003430033C99AC99B5004C92AC93BD5F0ECFBC8F1
:1003530033F4C8E4C9FA22080808EAC0E0EBC0E0B5
:1003630086F0E7A4FA180986F0E7A42AFA180986A2
:10037300F0E7A42AFA180986F0E7A42AFA1986F006
:10038300E7A4FBE5F02AFA190886F0E7A42BFBE5BE
:10039300F03AFA190886F0E7A42BFBE5F03AFA18CD
:1003A300180986F0E7A4C5F02BFBE43AFA1908E72D
:1003B300C5F0C6A426F6E5F03BFBE43AFA1886F04E
:1003C300E7A4F6E5F00826F6E43B08F6E43A08F677
:1003D300D0E0FBD0E0FA22E4CFC0E0E4CEC0E0E41A
:1003E300CDC0E0E4CCC0E075F020C3E633F608E608
:1003F30033F608E633F608E633F6181818EC33FC40
:10040300ED33FDEE33FEEF33FFC3EC9709ED9709B0
:10041300EE9709EF97191919400FFFEC97FC09EDB7
:1004230097FD09EE97FE191906D5F0BEECF709ED15
:10043300F709EEF709EFF7191919D0E0FCD0E0FD41
:10044300D0E0FED0E0FF222518C582C0E0E51934D4
:10045300FFC583C0E0E518C3958224F810AF088573
:1004630083198582188008858319858218D2AFCEB7
:10047300F0A3E520F0A37808E608F0A3DEFAEFF096
:10048300A3E58124FAF8E608F0A3E608F0A3E6085A
:10049300F0A30808E608F0A3E608F0A31581158188
:1004A300D0E0FED0E0F8158115811581E8C0E0EEBB
:1004B300C0E022C0D02518C582C0E0E51934FFC5CD
:1004C30083C0E0E518C3958224F310AF0885831930
:1004D3008582188008858319858218D2AFC8F0A356
:1004E300E9F0A3EAF0A3EBF0A37908E709F0A3D8B6
:1004F300FAECF0A3EDF0A3EEF0A3EFF0A3D0E0F05D
:10050300A3D0E0F0A3D0E0F0A3E520F0A3E5F0F062
:10051300A322120B32B90003020557E490030178BA
:1005230054790B8002F0A3D8FCD9FA900D54AA8217
:10053300AB8390008678A279018015E493A3AC8203
:10054300AD838A828B83F0A3AA82AB838C828D8353
:10055300D8E9D9E775825B758382740412088375C1
:1005630082E07583207400120883851983851882BD
:10057300E0C0E0A3E0F9A3E0FAA3E0FBA37808E07E
:10058300F608A3DFFAE0FCA3E0FDA3E0FEA3E0FF8F
:10059300A3E0C0E0A3E0C0E0A3E0F5D0A3E0F52032
:1005A300A3E0A3F5F010AF088583198582188008AE
:1005B300858319858218D2AFD082D083D0E0F8D05A
:1005C300E0320E000975F0108E1A8F1B85821F858D
:1005D300831E851882851983E0CEA3E0CF851F8211
:1005E300851E83EBC9EAC8EDCBECCAC3E833C8E97F
:1005F30033C9EA33CAEB33CBC3EA9EF51DEB9FF550
:100603001CB35004AB1CAA1DEC33CCED33CDD5F099
:10061300DAAE1AAF1B22D083D082ECC0E0EDC0E08B
:10062300E493A3FCE493A3FDED4C600D1206F1ECFF
:1006330024FFFCED34FFFD80EFE493A3FCE493A3DC
:10064300FDED4C600D12078EEC24FFFCED34FFFD35
:1006530080EFD0E0FDD0E0FCE493A3C0E0E493C0DE
:10066300E022851983851882E0A3FEE0A3F52078B4
:1006730008E0A3F608DFFAE0A3FFE0A3C0E0E0A3ED
:10068300C0E0E0A3C0E0E0A3C0E0E0A3C0E010AF9F
:10069300088582188583198008858218858319D275
:1006A300AFD083D082020889D083D082E9C0E0E44E
:1006B30093A3C386F0C5F095F0F908E493A386F0FD
:1006C300C5F095F0700BE493A3C3994005E904804A
:1006D30002A3E475F002A42582F582E5F03583F5E3
:1006E30083D0E0F9E493A3C0E0E493C0E022C0E048
:1006F300C3E49396087401939618400FE4936670CD
:100703000808740193661870007019A3A3C3E493D7
:1007130096087401939618A3A3400DD0E0D0E0D0BF
:10072300E0020655A3A3A3A3A3A3D0E022740480ED
:100733000474028000CCC0E0EDC0E0E518C39CCC9B
:10074300AD1950011D10AF068C188D1980068C1839
:100753008D19D2AF120805D0E0FDD0E0FC2274025F
:100763008000CCC0E0EDC0E0E518C39CCCAD1950CF
:10077300011D10AF068C188D1980068C188D19D2A7
:10078300AF1207E3D0E0FDD0E0FC22C0E0C0F08868
:10079300F0E4936670080874019366187000A8F07B
:1007A300A3A3700BD0F0D0E0D0E0D0E0020655A3B5
:1007B300A3D0F0D0E022D083D082CCC0E0E493A3D6
:1007C30060061208261470FAE493A3600612095512
:1007D3001470FAD0E0FCE493A3C0E0E493C0E022F9
:1007E300CAC0E0E493A3C582CCC582C583CDC583CB
:1007F300F0A3C582CCC582C583CDC583DAE5D0E03D
:10080300CA22CAC0E0E0A3C582CCC582C583CDC5D8
:1008130083F0A3C582CCC582C583CDC583DAE6D078
:10082300E0CA22C0E0E493A3D39C5010E493A3C393
:100833009C400AD0E0D0E0D0E00207D6A3A3A3D027
:10084300E022C008C3E096F50808A3E09642080832
:10085300A3E096420808A3E09645087001D3D008A8
:10086300227009080808226016181818C6C333C670
:1008730008C633C608C633C608C633C6D5E0EA225F
:10088300C09FF59FE473D09F22D083D082C09FE4A2
:1008930093C0E0740193C0E0740293F59F2225187E
:1008A300F58210AF08F518400215198008F51840B5
:1008B300021519D2AF851983227404800A74038048
:1008C30006740280027401C0E0F4041208A1D0E0AF
:1008D300120B0D22BB0102E722C082C08389828AE8
:1008E30083BB0003E08002E493D083D08222C0D094
:1008F300251810AF08F518500205198008F518508F
:10090300020519D2AFD0D022C0E0C0D0E8C0E0E5E4
:10091300A8D2AFC2C7A2E792AFD0E0F8D0D0D0E060
:10092300326016080808C6C313C618C613C618C60D
:1009330013C618C613C6D5E0EA22C3E0C696F60866
:10094300A3E0C696F608A3E0C696F608A3E0C6960B
:10095300F622C0E0E493A36C7009D0E0D0E0D0E0CD
:100963000207D6A3A3D0E022251810AF08F518403C
:100973000215198008F51840021519D2AF22E7664F
:1009830070100809E766700A0809E7667004080929
:10099300E76622C3E09608A3E09608A3E09608A3BF
:1009A300E096A2D265D03322E066701008A3E06619
:1009B300700A08A3E066700408A3E06622C3E09609
:1009C300F008A3E096F008A3E096F008A3E096F001
:1009D30022E026F008A3E036F008A3E036F008A3EF
:1009E300E036F022E627F60809E637F60809E63787
:1009F300F60809E637F622E026F608A3E036F608FD
:100A0300A3E036F608A3E036F622C0E0E8C0E0E54E
:100A13008124FCF8E6A2E7D0E0F8D0E022700422BB
:100A2300600D18C6C333C608C633C6D5E0F4182212
:100A3300E657F60809E657F60809E657F60809E601
:100A430057F622E056F608A3E056F608A3E056F65A
:100A530008A3E056F622E056F008A3E056F008A3F8
:100A6300E056F008A3E056F022E647F60809E64709
:100A7300F60809E647F60809E647F622E4C396F6C0
:100A830008E496F608E496F608E496F622C3E79699
:100A93000809E7960809E7960809E79622C6F4C607
:100AA30008C6F4C608C6F4C608C6F4C622600D0814
:100AB300C6A2E713C618C613C6D5E0F322C3E09651
:100AC30008A3E09608A3E09608A3E0962275D00059
:100AD30075814075180175190300020515E0F608C4
:100AE300A3E0F608A3E0F608A3E0F622600C08C62C
:100AF300C313C618C613C6D5E0F422E6F008A3E66E
:100B0300F008A3E6F008A3E6F022CAC0E0E6F0A3EB
:100B130008DAFAD0E0FA22E0FAA3E0FBA3E0FCA3B0
:100B2300E0FD22EAF0A3EBF0A3ECF0A3EDF022E565
:100B3300C754F84401F5C77901222518F582E43535
:100B430019F58322C2AF75D69F0200002212088CCA
:100B530000E30212088C34E40212088C52E40212FD
:100B6300088CF6240012088C08250012088C5A25DC
:100B73000012088CBB250012088C45260012088C35
:100B8300E9260012088C3D270012088C5627001214
:100B9300088C7C270012088CB7270012088CFB27CF
:100BA3000012088C22280012088C73280012088C6B
:100BB30023290012088CDB290012088CA32A0012B7
:100BC300088C632B0012088CA72B0012088CCC2BEB
:100BD3000012088C0F2C0012088C5C2C0012088C5D
:100BE300D22D0012088C582E0012088C762E00127B
:100BF300088CA02E0012088CBA2E0012088CC92E65
:100C03000012088CD42E0012088C942F0012088C2A
:100C1300ED2F0012088CAF300012088CB730001291
:100C2300088C4B310012088CB7310012088CE23269
:100C33000012088C07330012088C8C330012088CC6
:100C43001B340012088C73340012088C37350012E1
:100C5300088C56350012088C65360012088C7736DE
:100C63000012088CE1360012088C36380012088C0A
:100C730068380012088CF4380012088C2D390012E1
:100C8300088C79390012088C8C3A0012088CB03C1D
:100C93000012088CBB3C0012088CC63C0012088C66
:100CA300D13C0012088CDB3C0012088CE63C00129D
:100CB300088C003D0012088C0A3D0012088C143D7C
:100CC3000012088C1F3D0012088C473D0012088C4F
:100CD300A23D0012088CAC3D0012088CD03D0012DE
:100CE300088CF43D0012088C523E0012088C963E8C
:100CF3000012088CB23E0012088C293F0012088CA7
:100D0300613F0012088CAD3F0012088C0A400012AC
:100D1300088CC4400012088CA8420012088C0143BE
:100D23000012088C31440012088C57440012088CBE
:100D3300D1450012088C5C490012088C2E4B00121E
:100D4300088CF74C0012088CA44D0012088C184F25
:100D53000012088CB74F0012088CFC4F0012088C4D
:100D630066500012088C75500012088CF552001260
:100D7300088C9E540012088C0B550012088CEA55FF
:100D83000012088C0D570012088C75580012088C3D
:100D930094580012088CE9580012088CEE5900127E
:100DA300088C165A0012088C6E5A0012088C4D5B80
:100DB3000012088C915B0012088CDC5B0012088C1B
:100DC300475C0012088C8C5D0012088CF05D0012E9
:100DD300088C3E5F0012088CA5610012088CD66156
:100DE3000012088C8E630012088CE3630012088CD7
:100DF300E7640012088C84650012088CDD6500121C
:100E0300088C90660012088C32670012088CD26737
:100E13000012088C77680012088C44810112088C38
:100E230083810112088CCA830112088C1484011275
:100E3300088C2F850112088C97850112088CCC85AC
:100E43000112088C40870112088CC3890112088C97
:100E5300EC8A0112088C9F8B0112088CFB93011200
:100E6300088C90940112088C77970112088C709863
:100E73000112088CDE980112088C249A0112088C46
:100E8300039B0112088CE89C0112088CF99E011245
:100E9300088C519F0112088C23A00112088C51A0C9
:100EA3000112088C0EA10112088CE5A10112088C15
:100EB300ACA20112088C50A30112088C79A3011271
:100EC300088C9BA30112088CF1A50112088CC9A6FA
:100ED3000112088C0DA70112088C75A70112088C4A
:100EE3002DA80112088C5FA80112088CA3A8011277
:100EF300088CD9A80112088C25A90112088C7AA99B
:100F03000112088C7FA90112088CD2A90112088C46
:100F1300F7A90112088C06AB0112088C6AAB011207
:100F2300088CDAAB0112088C66AC0112088C33AF63
:100F33000112088C17B00112088C9AB10112088CA7
:100F4300D0B30112088C7EB40112088C2EB50112A5
:100F5300088C6FB70112088C12B80112088C59B8AB
:100F63000112088C05BA0112088C19BA0112088CF7
:100F730023BA0112088C4BBA0112088C57BA01121A
:100F8300088C76BA0112088C96BC0112088CE5BD58
:100F93000112088C29BE0112088CD1BE0112088CE3
:100FA300B4BF0112088C5FC00112088CABC10112DF
:100FB300088CA9C20112088C4FC30112088CF0C31C
:100FC3000112088C07C40112088C3EC40112088C5C
:100FD30048C40112088C53C40112088C71C4011255
:100FE300088CB5C40112088C12C50112088C37C5D0
:100FF3000112088C51C50112088CDDC50112088C41
:10100300FAC60112088C56C70112088C3DC801129A
:10101300088C64C80112088CD8C80112088C53C903
:101023000112088C57CA0112088C4DCB0112088C8F
:10103300FCCB0112088C0FCD0112088CABCD011231
:10104300088C2DCE0112088C0BCF0112088C43CFD4
:101053000112088C9BCF0112088C64D00112088CFA
:1010630085D00112088C0CD10112088C30D10112E9
:10107300088C52D10112088C9BD10112088CB1D378
:101083000112088C94D40112088C45D50112088CE6
:101093007BD70112088CCBD70112088C0BD8011215
:1010A300088C4DD80112088CA9D80112088CD7D806
:1010B3000112088CFBD80112088C4ED90112088C3E
:1010C3007CD90112088CB5D90112088C0ADA0112F5
:1010D300088C70DA0112088CDADB0112088CFDDD52
:1010E3000112088C6ADE0112088C93DE0112088C4F
:1010F3001EDF0112088C85DF0112088CD0DF01127C
:10110300088CF4DF0112088C18E00112088C73E0DC
:101113000112088C8EE00112088C47E10112088C41
:1011230091990412088CD0990412088C78800212C9
:10113300088CBE800212088C9E810212088CA08249
:101143000212088CA3830212088C2F850212088CCA
:101153008D850212088C4A860212088C6887021257
:10116300088CD9870212088C15880212088C6388B0
:101173000212088C6D880212088CB1880212088C46
:101183000D890212088CA8890212088C258A021282
:10119300088CF48A0212088C8D8B0212088CAD8B9A
:1011A3000212088CE38B0212088C148C0212088C36
:1011B300D58C0212088CE58C0212088C398D021230
:1011C300088C548D0212088C668D0212088C6F8D68
:1011D3000212088CC98D0212088C258E0212088C0B
:1011E300718E0212088C8C8E0212088CBD8E021234
:1011F300088CDA8E0212088CE68E0212088C5A9042
:101203000212088C73900212088CDA900212088C76
:10121300ED900212088CFB900212088CAF9102121F
:10122300088C93920212088C99930212088C2394CF
:101233000212088C2D940212088C9A940212088CC4
:10124300B1940212088CE3940212088C1C950212CA
:10125300088C46950212088CA7950212088CC79534
:101263000212088CE5950212088C2B960212088C48
:1012730051970212088C9E970212088CCD97021286
:10128300088C43980212088C6B980212088CA4985D
:101293000212088CB2980212088C0A990212088C66
:1012A30059990212088C98990212088CC899021253
:1012B300088CF4990212088CFF990212088C1D9A6B
:1012C3000212088CDF9A0212088CE99A0212088C27
:1012D300249B0212088C3A9B0212088C8F9B0212E9
:1012E300088CA39B0212088CA09C0212088CB39C4E
:1012F3000212088CC89C0212088C6A9D0212088C88
:10130300ED9D0212088CAB9E0212088CB69E02124F
:10131300088CE29F0212088CFE9F0212088C50A0D8
:101323000212088C8FA00212088CA4A00212088C4F
:1013330006A10212088C95A10212088CE0A10212E8
:10134300088C31A40212088CAFA40212088C24A5C5
:101353000212088C46A70212088C5EA70212088CA0
:1013630061A70212088C6DA70212088C81A70212D2
:10137300088C89A70212088CBCA70212088C6CA8DF
:101383000212088CE2A80212088C55A90212088CDA
:1013930009AA0212088CBEAA0212088CDDAA021244
:1013A300088C7DAB0212088C89AB0212088CB4AB9B
:1013B3000212088CB7AB0212088C21AC0212088C03
:1013C30049AD0212088C21AE0212088CACAE021297
:1013D300088CC5AF0212088C82B00212088CBBB015
:1013E3000212088CECB00212088CAAB10212088C0B
:1013F300DAB10212088CB5B20212088C4EB3021293
:10140300088CD9B30212088C8AB40212088C0DB569
:101413000212088C3FB50212088C80B50212088CA8
:101423009DB00312088C02B10312088C3AB1031267
:10143300088C89B10312088CABB30312088C8EB5E8
:101443000312088CECB80312088C21B90312088C20
:1014530043B90312088CA8B90312088CDEB903122E
:10146300088C01BA0312088C2EBA0312088C8ABAAC
:101473000312088CC1990312088C429A0312088C38
:10148300789A0312088CDF9A0312088C529C031279
:10149300088C6E9C0312088CB39C0312088C419D2C
:1014A3000312088C9A9D0312088CCE9E0312088C9B
:1014B3009C9F0312088C14A00312088C90A00312A3
:1014C300088CD2A00312088C13A10312088C47A224
:1014D3000312088C45A30312088C70A30312088C13
:1014E300BBA30312088C02A40312088C94A4031256
:1014F300088C4DA50312088C117D0012088C227DE7
:101503000012088C457D0012088C517D0012088C56
:101513006C7D0012088CB27D0012088CDD7D0012F8
:10152300088CFA7D0012088C4E7E0012088CC77E50
:101533000012088CF07E0012088C8F7F0012088C3A
:10154300B27F0012088C558E0412088C668E04122A
:10155300088CB78E0412088CFC8E0412088CA68F9C
:101563000412088CFFFE0312088C9DD60212088C0D
:10157300068E0412088CD6BA0312088C7DBB0312A4
:10158300088C9DBB0312088CC4BB0312088CD8BB08
:101593000312088C30BC0312088C60BC0312088C45
:1015A300E1BD0312088C87BE0312088C69BF0312C6
:1015B300088CBABF0312088CFDBF0312088C40C00D
:1015C3000312088C5DE20212088CC7C00312088C58
:1015D30053C10312088C7BC10312088CEFC10312A1
:1015E300088C9DC30312088C77C40312088CD1C4E2
:1015F3000312088C3D890412088C5E890412088C3E
:101603008F8A0412088CB98A0412088C1091041270
:10161300088C83910412088C8E910412088CAF916C
:101623000412088C848D0312088C878D0312088C96
:10163300418E0312088C6C8E0312088CB38E031236
:10164300088CD88E0312088CF98E0312088C2D8F08
:101653000312088C668F0312088C8F900312088C78
:10166300C6900312088CE6900312088C8191031232
:10167300088C46920312088C7D920312088CF29315
:101683000312088C95940312088C8E950312088C10
:10169300B7950312088C0B960312088CD19603128C
:1016A300088CFF960312088C94980312088C1599E2
:1016B3000312088C48990312088CE5C40312088CA2
:1016C300EFC40312088C3BC50312088CA9C503128F
:1016D300088CCAC50312088CE1C50312088C91C695
:1016E3000312088C25C90312088C2EC90312088C17
:1016F30081C90312088CAAC90312088C11CA0312E8
:10170300088CA2CA0312088CE4CA0312088C2ECBDD
:101713000312088C8DCB0312088CB9CB0312088CEF
:101723004ACC0312088C89CC0312088CC8CC031250
:10173300088CFDCC0312088C0FCD0312088C21CD2D
:101743000312088C63CD0312088C6CCD0312088C32
:1017530022CE0312088C62CE0312088C1FE10312FF
:10176300088CF2E10312088C0CE20312088C1DE2D0
:101773000312088C32E40312088C51E40312088C20
:101783000B870412088C41870412088C8A87041281
:10179300088CDA880412088CC3680012088C026A69
:1017A3000012088C3E6A0012088CFD6B0012088C34
:1017B300266C0012088CB96E0012088CFD6E0012A4
:1017C300088C86700012088C1E710012088C8671BA
:1017D3000012088C27720012088C69720012088CA0
:1017E300A9720012088C34740012088CA4750012BC
:1017F300088CC9770012088CF7770012088C1E78C2
:101803000012088C27780012088C82780012088C4A
:1018130015790012088C337C0012088CB47C0012FA
:10182300088CEF9A0412088C059B0412088CEFF0C5
:101833000312088C02F10312088C9FF10312088C27
:10184300DAF10312088CF5F10312088C1AF2031271
:10185300088C5FF20312088C90F20312088CC1F219
:101863000312088C47F40312088C93930412088C18
:10187300D0930412088C12940412088C229404123C
:10188300088CB7940412088CD3A50312088C3FA6C6
:101893000312088C73A70312088C4DA80312088C3B
:1018A3000EAC0312088C65AE0312088C2FAF031223
:1018B300088C00800312088C45800312088C2E814B
:1018C3000312088CC7810312088C11820312088C3F
:1018D3006E820312088CC7820312088CF9820312EA
:1018E300088CF7830312088C5B840312088C7684BC
:1018F3000312088CC5840312088CDB840312088C42
:10190300E8840312088C1C850312088C35850312A6
:10191300088C44850312088CCC850312088C268618
:101923000312088C74860312088C96860312088CA3
:101933000D890312088C3B890312088CCB8903128F
:10194300088C408A0312088C458A0312088C818A0A
:101953000312088CE08A0312088C808B0312088C14
:10196300A58B0312088CAF8B0312088CB28B031266
:10197300088C3B8C0312088C568C0312088C698CE0
:101983000312088C958C0312088CD08C0312088CDC
:10199300D38C0312088CDE8C0312088C1A8D03126D
:1019A300088C2D8D0312088C548D0312088C4499D6
:1019B3000412088C5C990412088CDFF70212088C5D
:1019C3002EF80212088CD0F90212088C8CFB02123A
:1019D300088CD4FB0212088CBCFC0212088CEDFDAF
:1019E3000212088C0FFE0212088C6BFE0212088C86
:1019F300EFFE0212088C81E10112088CA2E10112B0
:101A0300088C1FE20112088CA4E20112088C20E367
:101A13000112088C89E30112088CD5E30112088CAA
:101A230054E40112088CE6E40112088C72E50112F9
:101A3300088CB4E50112088CFDE90112088C7DEBDA
:101A43000112088CBCEB0112088CA3EC0112088C68
:101A5300A6EC0112088C5AED0112088C8FEE0112CC
:101A6300088C7AF00112088CFAF20112088CB3F395
:101A73000112088CD0F40112088C27F80112088C8B
:101A830037F80112088C98F90112088C24FA011214
:101A9300088C58FB0112088C49FC0112088CCBFC02
:101AA3000112088C79E40212088C33E50212088CC7
:101AB300A5E50212088CB4E50212088C2EE6021288
:101AC300088C9DE60212088CA4E70212088CCDE76D
:101AD3000212088C6DE80212088CBBE80212088C13
:101AE3002BE90212088CE4EB0212088CBBEC021205
:101AF300088C28ED0212088CA5EE0212088C59EF0F
:101B03000212088C07F00212088C62F00212088C91
:101B1300CDF00212088CCDF10212088CA7F3021249
:101B2300088CBAF40212088C53F50212088CC5F51E
:101B33000212088C8BF60212088C3B9B0412088C51
:101B43003D9B0412088CB5840412088CE6840412AD
:101B5300088CA0850412088C06860412088C7786EC
:101B63000412088CE7820412088C23FF0212088CEB
:101B730034FF0212088CD4FF0212088CF68A041276
:101B8300088C048B0412088CEEFF0212088C7A98DE
:101B93000412088C8A980412088CA2980412088CE8
:101BA300EA980412088CD8960412088C5D970412E4
:101BB300088CC1970412088CF2FF0312088C1EFADA
:101BC3000312088C33FA0312088C21FB0312088CCE
:101BD300C1FB0312088C27FC0312088C4BFC031275
:101BE300088C54F40312088C62F40312088CDCF49E
:101BF3000312088CB4F50312088C3FF70312088C08
:101C030063FD0112088CB1FD0112088C4EFE011216
:101C1300088CF9FE0112088C11FF0112088C8DFF4C
:101C23000112088CA3FF0112088CB6FF0112088C65
:101C3300C4FF0112088CCCD70312088C21D80312DD
:101C4300088C1DDA0312088C4FDA0312088C71DA40
:101C53000312088C8ADA0312088CA3DA0312088CA5
:101C6300ADDB0312088C48DC0312088CBD8F041211
:101C7300088CE28F0412088CF28F0412088C2590D2
:101C83000412088C56900412088C8B900412088C52
:101C9300ED900412088CFC900412088C0691041237
:101CA300088C8EF70312088CB4F70312088CF1F733
:101CB3000312088C00F80312088C1FF80312088C17
:101CC30087F80312088C90F80312088CEFF80312BC
:101CD300088C13F90312088CD2F90312088CDFF96C
:101CE3000312088CF0F90312088CC37F0012088CCE
:101CF300E07F0012088CF0E50312088C4EE7031214
:101D0300088C5BE70312088C6EE70312088C8DE7DF
:101D13000312088CA3E70312088CB7E70312088C9D
:101D23003AE80312088C9DE80312088C24E9031295
:101D3300088C82E90312088C92E90312088CE1975C
:101D43000412088C05980412088C2D980412088C30
:101D530055980412088C99FC0312088CC0FC0312DA
:101D6300088CE1FC0312088C46FD0312088C0080EA
:101D73000412088C19800412088C25800412088C24
:101D830039800412088C57800412088C6180041275
:101D9300088C6B800412088C7E800412088CCF8020
:101DA3000412088C08810412088C37810412088CF1
:101DB30085810412088CD4810412088CEF810412EB
:101DC300088CF9810412088C0A820412088C508250
:101DD3000412088CF3980412088C8BCE0312088C1F
:101DE300B7CE0312088CD3CE0312088CE6CE0312AF
:101DF300088CFCCE0312088C68CF0312088C9BCF8F
:101E03000312088CCAD30312088CF0D40312088C73
:101E130023D50312088C6FD50312088CA8D603129E
:101E2300088CD0D60312088CE5D60312088CF5D69D
:101E33000312088C39D70312088C8ED70312088C2F
:101E43009ED70312088C60920412088C7B920412B2
:101E5300088CA4920412088CBE920412088CE3929C
:101E63000412088C02930412088C1A930412088C2F
:101E730048930412088C62930412088C209A04126B
:101E8300088C6FED0312088C76ED0312088C82EE3A
:101E93000312088CB2EE0312088CD8EE0312088CDE
:101EA300FBEE0312088C1DEF0312088C57EF03128D
:101EB300088CBDEF0312088CF6EF0312088C42F076
:101EC3000312088C6FF00312088C8FF00312088C36
:101ED300D4950412088CEC950412088CD296041243
:101EE300088CD5960412088CC1940412088C33957F
:101EF3000412088C71950412088CB2950412088C94
:101F0300A1E90312088CC0E90312088C0FEA03123B
:101F1300088C2BEA0312088C5CEA0312088C6CEA27
:101F23000312088C79EA0312088C86EA0312088CE0
:101F330072EB0312088CB0EB0312088CBAEB03129A
:101F4300088CCAEC0312088CD5EC0312088CE7EC5E
:101F53000312088CF0EC0312088CFAEC0312088CC1
:101F630087DC0312088CA7E00312088CB5E0031288
:101F7300088CDA990412088C9A9A0412088C649AD1
:101F83000412088CC79A0412088C0F9B0412088C45
:101F9300F1D50212088C37D40212088CE7D1021251
:101FA300088C6ED10212088C15D10212088CA5D0B0
:101FB3000212088C7CD00212088C5CCE0212088CB0
:101FC30028CE0212088CF5CD0212088CD9CD02124C
:101FD300088CE8CC0212088CA0CC0212088CEBCA45
:101FE3000212088C6BCA0212088C68CA0212088C8F
:101FF30068C90212088C36C90212088C73C802120F
:10200300088C9EC60212088C54C60212088C26C67F
:102013000212088C10E10212088CBBDE0212088C3B
:102023005BDE0212088C13DE0212088C85DD0212BD
:10203300088C23C60212088C10C60212088CBBC57A
:102043000212088CAAC50212088C78DD0212088CD1
:10205300A0C40212088C36C40212088CE4C3021214
:10206300088C85C30212088C72DA0212088CA6C08F
:102073000312088C54C30212088C1CC00212088C71
:10208300DCBF0212088CD0BF0212088C30BF0212D0
:10209300088C70BE0212088CF2BB0212088C83B942
:1020A3000212088C41B90212088C15B80212088C6E
:1020B300CAB70212088C09B70212088CDCB60212E6
:1020C300088C1FB60212088CEFB50212088CD4D705
:1020D3000212088CB5B50212088CAE8C0400000005
:1020E30080FBE473000136360101000102010001A7
:1020F3000301000104010606050200000701003484
:102103000801000F090401010D0100FF0E08000082
:1021130017020000190100FF1A0100011B0100FE54
:102123001C0100081D0200001F0100012001000125
:10213300210200002301000F2402000026010001F8
:1021430027010008280200FF2A0100072B01024093
:102153002C0100002D0100012E0100012F0100FFC1
:1021630030010B1C310800003A0100083B01000F4D
:102173002F0100000302710230016002110270029C
:102183000102020202028002100261023A004100CF
:1021930063027302720262024302000213023800F6
:1021A3000002000204021202000200020002000206
:1021B30004020402370037003C02440200023900E3
:1021C30000020002650200023502810200020502DC
:1021D30082028302000203007100300160001100DB
:1021E30070003102200350048000100061000000E1
:1021F30014006300730072006200430000001300C8
:1022030006000000000004001200000000000000AF
:10221300000004000400370037003C0244000000C3
:102223000000000000006500000035008100000090
:10223300050000008300000003047104020460042D
:102243001104700402040204010402041004610472
:10225300000414046304730472046204430400045A
:10226300130406040004000404041204000400041C
:102273000004000451046400000400040004440446
:102283000004000400040004650400043504810410
:1022930064000504000483040004010371030103C3
:1022A30001030103010301032203020301031003DA
:1022B30000030003000300030003000300034203C1
:1022C300000324030603000300030403120325038E
:1022D3002303250323030403040300030003000370
:1022E30044030003000323030003650321003503B4
:1022F30081030003050300030003000301017101CF
:1023030001010101110101013101010101018001FB
:10231300100161013B00140063017301720162014A
:1023230043010001130106013D01350004011201BF
:102333000001000100010001040104013301330124
:102343003C01440132013600000100016501000136
:10235300350081010001050182018301000136007E
:102363000100060000000F00000000000000000054
:102373000000000003FFFF00000403FFFF0000FF55
:10238300FF0FF4010005C4040320000100000B004B
:102393000000000000000003010F0000E01A13001A
:1023A3005C1A0100E01A0200141A03001A1A04004E
:1023B300201A0500261A0600321A1100501A1400BA
:1023C300561A1500441AFFFF000001620E06920E12
:1023D300088C0E0B9E0E10DE0D02680E05800E0794
:1023E3006E0E0C440E0D560EFF000003EAF5E5D504
:1023F300D5C5B5A5959585857575656555554545CA
:10240300353525251515056A129A12701276129420
:102413001288128212A012A612AC12B8127C126495
:10242300125E1200160F00000B150B020002220FA2
:10243300320000065A136C137213341278132E12DF
:102443003A126E116811A411AA119E115611BA13F2
:10245300D813DE13C013CC13C6133030161819204B
:10246300231A1C1E300C0E020B040B0A0708000F64
:1024730000383C3E363B3B352B432C303017181984
:1024830021301B1D1F3000011916181616152303C2
:102493000000034948424D1817250502AE137E1369
:1024A300841390138A138E12B212D213BE12C41263
:1024B3000204020101010109027A1180117411B0B1
:1024C300110000000000008611981100BE040A15D7
:1024D3000004007F00E8030C002800000000000354
:1024E30008100C0A03080900040001FF1E1E0C0556
:1024F300040F08C082C0838A828B83E0D2E7F01284
:1025030019660236C3C082C08379001229C21256EB
:10251300EBC082C083900334124936D083D082C388
:10252300E09CA3E09D500C125F1CFAA3E012253936
:102533006001090236C3FBEA75F00BA4FAA8F07533
:10254300F00BEBA428FB900336E02AF8A3E03B88CA
:1025530082F583E0540F2274F712044A8908122982
:10256300C2122A68ACF075F00BE9A42CF99003367B
:10257300E028FEA3E039FF74016508600674026574
:102583000870208A828B83122A541238EE740265F3
:1025930008701B122913122A9B70138E828F83E4F7
:1025A300F0800BEA2403FCEB122A36122A42EEFADD
:1025B300EFFB120B6202384A74F412044A12684A9F
:1025C30079008E828F83E06076890A890B8065E5C6
:1025D3000A75F00BA4FAA8F075F00BE50B1225466B
:1025E3007046E50A75F00BA4F8AAF075F00BE50B3D
:1025F300122A7A8E828F83E0850882850983122BC3
:102603005C850882850983A31238EEEE2403FCEF70
:10261300122A3F12337D1252D6AA08AB09120B625B
:102623007901900334124CE5E50A2401F50AE50B20
:102633003400F50B12291BE50A9AE50B9B40900227
:102643004F1374F512044AEAFEEBFF740B120B3DB1
:102653001236D9750A01EC4D602BEC126866ED1247
:1026630056EB1238E57901120B6EE5084509606FE8
:10267300850882850983A31268547902AA08AB09E5
:10268300120B6E805AE5084509602B125853123F0E
:102693002412337E122A85700CEEFAEFFB120B74B0
:1026A300E9F50A80CBEE2403FA1229BD70317903D0
:1026B300EEFAEFFB80CA8E828F83A3E064FE700381
:1026C300A3E0F4700BEE24030A0A0A1229BD700C6E
:1026D300EEFAEFFB120B74E9F50A8003750A00A901
:1026E3000A7F0302066574F712044A900334123812
:1026F3005AEA4B602FEA75F00BA4FAA8F075F00BB9
:10270300EBA428FBEAFEEBFF12178C90033612387A
:102713005A900336124B2A6012EEFCEFFD79001239
:1027230016CC8007900336E4F0A3F002384A9003F6
:1027330034124294C3EE98EF9922C082C083EC4DC9
:102743006005121EFA80097C087D0079001216CC00
:102753000236C374F612044A7900EA4B6018780013
:102763008808125B8BEB125F186004790178080804
:10277300E8C3940840EA02313E74F712044A74F342
:1027830012096BECFEEDFF851882851983E4F004D2
:10279300120B3DEAF0A3EB12505F7403120B3DAC36
:1027A30082AD83EEFAEFFB120B86EEFAEFFB120B10
:1027B3008C02384574F712044A74F312096BECFE69
:1027C300EDFF851882851983E4F0EAFCEBFD7403C1
:1027D300120B3D122B557401120B3D1238E18E8200
:1027E3008F831238EE74FE68700374FF6960047996
:1027F300018002790002384574F712044AEAFEEBBD
:10280300FF12285970141228648E828F83E0F4F823
:102813008A828B83E058F0120B62A90802384A744B
:10282300F712044AEAFEEBFF7508008E828F83E0FD
:102833006022122859701D1228648A828B83E08FCC
:10284300838E82F8E058700CE0F88A828B83E0482C
:10285300F0120B6280C4120B68E9F5087401650875
:102863002212685F122A6C1229AEFAA3E039FB2206
:1028730074F412044A8A088B097C007D0012291320
:10288300122A421229D312685179008508828509D8
:1028930083A3E064FE7003A3E0F460717E007F0015
:1028A3008062EEFAEF1225396057EEFAEFFBEA7514
:1028B300F00BA4FAA8F075F00BEBA428FB900336F9
:1028C300E02AF50AA3E03BF50B850882850983A37B
:1028D300124FAD850A82850B83A3E06A7003A3E0E0
:1028E3006B701EE50A2403FAE50B1229BE700AE594
:1028F3000A2403FCE50B122A3F1229C77901125857
:102903005A1232A012291BEE9AEF9B4095024F13E5
:10291300EA24030A0A0AEB2290033412543CC3222A
:1029230074F312044A8A088B098A828B83A3126880
:10293300541229C2126851750C001229131229BEB0
:1029430070547E007F0080491229A0FAA3E0398ADF
:1029530082F583E0540F60361229A0F50AA3E0390B
:10296300F50BE50A2403FCE50B122A493400FB129C
:102973001EF4E964017017850A82850B83A3125440
:10298300FDA31238EE1229C7750C0112585A1232E0
:10299300A012273140B2A90C7F05020665EEF8EFBD
:1029A300F9E875F00BA4F81229AE22AAF075F00B22
:1029B300E9A42AF9900336E02822EF122A9522127D
:1029C3006865EB221229D3123387EEF0A3EFF022CE
:1029D300E508126866E5092274F512044AEAFEEB7B
:1029E300FF8E828F83A31268547C007D00EE240344
:1029F3000A0A0AEF122A42EEFAEFFB120B68E9F514
:102A03000A7401650A702912685F122A68AAF075B0
:102A1300F00BE9122A7A850882F583122A54122AC6
:102A230085700DE5082403FCE509122A36122A42B3
:102A33000226E23400FDEE2403FAEF22122A49347F
:102A430000FB120B86223400FDE5082403FAE50996
:102A530022A3122A5922122A5D22E0F8A3E0F98E5A
:102A6300828F83A322122A6C223400F583124298A8
:102A7300E875F00BA4F8221229B4F508A3E039F5A0
:102A83000922E8F0A3E9F0E5082403FAE509122A8C
:102A93009522122A9B6401223400FB120B8CE9223B
:102AA30074F312044A74E612096B12684A750C0136
:102AB300750800750900750A00750B008518828575
:102AC3001983E4F0EE2403FCEF3400FD7403120BCE
:102AD3003D122B55E964017023740B120B3D123820
:102AE300E57401120B3D124FB17003A3E06960510D
:102AF300851882851983858208858309740D120BD5
:102B03003DE4122B5C740E120B3D1238EE740D1261
:102B13000B3DAA82AB83120BAAE96401700B740DFF
:102B2300120B3D85820A85830B780A1208C4AC0810
:102B3300AD09EEFAEFFB120B7A74021208F1E9F514
:102B43000CEEFAEFFB120BA4A90C741A1208F10293
:102B5300299B122E46120BB0221238551242942290
:102B6300C082C083780079008003122C5312291B82
:102B7300E89AE99B5029E8FAE9FBEA75F00BA4FA15
:102B8300ACF075F00BEBA42CFB900336E02AFCA30E
:102B9300E03B8C82F583E0540F70CF79008002799B
:102BA300010236C3C082C0839024D21242EAEC757C
:102BB300F012A4FCA8F075F012EDA428FD79FF7AB9
:102BC300FC7B071216CC0236C374F712044AE9FEE3
:102BD300EAFF7A007B00780079008028E8FCE9FDB1
:102BE300EC75F012A4FC85F00875F012EDA425082D
:102BF300123086C39E400AE0FCEFC39C40031231AF
:102C030075122C5312307A40D302384AC082C083E3
:102C1300780079008003122C53122C47501F123076
:102C23008AF470F2E875F012A4F8AAF075F012E9CC
:102C3300A42AF974FC28FA740739FB80047A007B10
:102C4300000236C39024D2123143C3E89AE99B228F
:102C5300E8240108E93400F92274F012044A74F3F9
:102C630012096B8A0A8B0B8C0C8D0D8908EC450DB0
:102C73006016AA0CAB0D120BFE8A0E8B0FAE0EAFB5
:102C83000FEE4F6003022D1A120BD48A0E8B0FA87E
:102C93000EA90FE8FEE9FFE849607C9024E0122DBD
:102CA3009A60227403650860067404650870167AD6
:102CB300047903120BCE9024E0122DB140077A0061
:102CC3007B00022D979024DE122D9A601B74016500
:102CD30008600674026508700F7A027901120BCE40
:102CE3009024DE122DB150D6851882851983740184
:102CF300F0120B3D1252D6AC0CAD0D7403120B3D0A
:102D0300122E3F740B120B3D1236D0123CA1E4126B
:102D130052BE1210AE8004EE4F6068780074FF2537
:102D230008C39404500278048E828F831252D68E85
:102D3300828F83A3A3A3A3E508F0E88E828F83A3E6
:102D4300A3A3A3A31252DE1202F9E88E828F83A3F8
:102D5300A3A3A3A3A3A3A3123A857401123A85A341
:102D6300F0EE24101256E8E4F0A3123533A3F01268
:102D7300337DE4F0908105120B1AEE240C1256E811
:102D8300120B26122D9F4005900D58E4F0120F8868
:102D9300EEFAEFFB02429E1253F249227A047900C3
:102DA300120BCE9024D2125EFEEA98EB9922122DDA
:102DB300CA7583247582D2E493C398F8A3E49399E4
:102DC300F9C3EA98EB9922E493F8740193F9227416
:102DD300F212044A74F312096B8A088B09ECFEEDB4
:102DE300FF750A00EEFAEFFB120BFE8A0C8B0DA89F
:102DF3000CA90DE849603E88828983E06508700468
:102E0300A3E06509602F88828983A3A3A3A3E0C3FA
:102E1300940550211257018518828519837401F096
:102E2300120B3D125705EEFCEFFD7403120B3D121E
:102E33002E3F750A01A90A740D024D9C122E4612EB
:102E43000BBC22AA82AB83120B8685188285198359
:102E5300AA82AB832274F612044A122E94600FA343
:102E6300A3A3A3E014C3940450047901800279005E
:102E730002313E74F612044A122E94600FA3A3A3E8
:102E8300A3E014C394025004790180027900023153
:102E93003E120BF88A828B83E58245832274F612F5
:102EA300044A122E94600BA3A3A3A3E07004790138
:102EB3008002790002313EC082C083EAFCEBFD7AD6
:102EC300007B000236C0C082C0837C007D000236D6
:102ED300C074F412044A74F312096BEAFEEBFF8C1C
:102EE3000A8D0BC3EC94F8ED94FF4007EE4F70038B
:102EF300022F8D750800750900802E8518828519AB
:102F0300837401F01232C8120B3D1232D66013746F
:102F130003120B3DAC82AD83EEFAEFFB121EF4E914
:102F23007049E50824011231269024D2E412618607
:102F3300E50898E509995052E50875F012A4F8AA36
:102F4300F075F012E509A42AF9125F3160D4EE4F4F
:102F530070A974FF650A700474FF650B60C41232B4
:102F6300B8650A7004A3E0650B70B7E50875F01245
:102F7300A4F508A8F075F012E509A428F50974FC76
:102F83002508FA74073509FB80047A007B00024F99
:102F93000E74F412044A74F312096B750800120BD1
:102FA300FE8A0A8B0BAE0AAF0BEE4F602A8518829E
:102FB300851983740112384FF8A3E0F9740B120BCF
:102FC3003D123969120B9E7C127D0079FFEEFAEFF8
:102FD300FB1216CC750801122D9F5009900D5874E1
:102FE30001F0120F88A908024F0E74F712044AE980
:102FF300FE74FE6A700374FF6B78007900700580BD
:1030030052122C5312307A504AE8FCE9FDEC75F069
:1030130012A4FCAFF075F012EDA42F123086F46009
:10302300E0E8FCE9FDEC75F012A4FC75F012EDA4E8
:103033002FFD74FC2CF58274073DF583E06A700361
:10304300A3E06B70BC800912308A14C39404401748
:10305300122C53122C475018EE70EC12308A640174
:103063006005E0640370E91232A9FAA3E0FB80046F
:103073007AFE7BFF02384A9024D21242EEC3E89CC8
:10308300E99D221231AA22E8FAE9FBEA75F012A4BB
:10309300FAACF075F012EBA42CFB74002AF58274E1
:1030A300083BF583E022120C100236C3C082C083B2
:1030B300790180F274F012044A8A0A8B0B7A04793C
:1030C30001120BCE8A0C8B0DEA450D603EEAC33329
:1030D300FAEB33FB12178C8A088B09AE08AF09EEA3
:1030E3004F60237AFE7BFF120C1674FE6A70037422
:1030F300FF6B601B85088285098312385AE5082413
:103103000212312680E1750C0080047E007F008569
:103113000A82850B83E50CF0EEFAEFFB0242A3E58E
:10312300082407F508E5093400F509229024D21292
:1031330042EEC3EA9CEB9D221208F17F0202066570
:10314300E493FA740193FB22C082C0837A007B006C
:1031530080041912317512312F5010123194C39417
:103163000550F0E970EC12317E80047A007B000296
:1031730036C3EA24010AEB3400FB22EA75F012A4F9
:10318300FA75F012EBA428FB74FC2AFA74073BFBD4
:1031930022EAFCEBFDEC75F012A4FCA8F075F0122A
:1031A300EDA4281231AA22FD74002CF58274083D87
:1031B300F583E02274F712044A74F312096B7E005C
:1031C3007F0002325CE50875F017A4F8A9F01261DC
:1031D30099FAA3E0FBEEF8EFF9E875F012A4F8AC66
:1031E300F075F012E9A42C1232B76A7003A3E06BF6
:1031F300603FE50875F017A4F8AAF0EA126198F8A1
:10320300A3E0F97401120B3DE0687003A3E0696069
:1032130020E50875F017A4F8EAF9747828FC740916
:1032230039FD7403120B3DAA82AB83121EF4E960CD
:1032330014E50875F017A4F8A9F0747628FA740950
:1032430039FB1210BA05089024E4E493F8E508C3A7
:103253009850030231C81232A09024D21264DF5076
:1032630039EEF8EFF91232A9F47003A3E0F460E643
:103273008518828519837401F0EEF8EFF9E875F08B
:1032830012A4F875F012E9A42AF91232C8120B3D00
:103293001232D660C175080080AD023845EE2401B4
:1032A3000EEF3400FF22E875F012A4F8AAF075F0CF
:1032B30012E9A42AF91232BC2274FC28F58274079D
:1032C30039F583E02274FE28F5827407391242929D
:1032D300740B22E8F0A3E9123971120BB6E922C08C
:1032E30082C08390033D747AF0A3740EF090033F81
:1032F3007474F0A3740EF09003437494F0A3740CED
:10330300F00236C374F712044AEAFEEBFF90037728
:10331300E06408601BE0640460168E828F83E054CF
:10332300036401704812337D123D99E06406703DD9
:103333008E828F83A3A3E064FE7003A3E0F4602D69
:103343008E828F83A3A31238E1900368E068700331
:10335300A3E069700BEE2415F582EF125F18600885
:10336300120F28E9F5088008120F2E80F67508C29F
:10337300EEFAEFFB12179202281DEE12338222247B
:103383000BF582EF3400F5832274F412044A8A08A1
:103393008B098A828B83E0F8A3E0FAE82AFAE43403
:1033A30000FB12178C8A0A8B0BAE0AAF0BEE4F6031
:1033B30060850882850983E0FC7D0079001216CCC4
:1033C3008E828F83A3A3126854120F6A8E828F8317
:1033D300A3A3A3A312385A850882850983E0F8EED4
:1033E30028F8EF34001238E9850882850983A3E0C1
:1033F300C0E01256E5D0E0F0120F7CEE240E125618
:10340300E8E9124F04E0C0E0EE24111256E8D0E0E0
:10341300F0EEFAEFFB024F1374F412044A74EB124A
:10342300096B8A088B098C0A8D0BE9FE900377E000
:1034330064046005E06408700479C2802EA37808F0
:10344300120AFEEE90037E1236CA120AFE740512A9
:103453000B3DE9F07404120B3D7401F07407120B79
:103463003DE4F0900377740212365E7415024F1038
:1034730074F612044A74EB12096BEAFEEBFF124B6B
:103483002760030235177A077B0012178C900339E4
:1034930012385A124B2760788E828F83120B1A9040
:1034A300033A123D9C120B26126718C0E012352313
:1034B300D0E0F0EE2405FAEF3400FB8A088B098A8A
:1034C30082F583E0C0E012351ED0E0123533E0C050
:1034D300E012351EA3D0E01238CE120B1A851882E3
:1034E300851983120B2688828983E0C0E074051254
:1034F3000B3DD0E0F0850882850983E0C0E07404C9
:10350300120B3DD0E0F07407120B3D12365D8006BE
:10351300791080027901741502313B123523A322FD
:10352300900339E0FAA3E0F5838A82A3A3A3A3223D
:10353300123CA922C082C083124B27600D9003392D
:1035430012542A900339E4F0A3F0120E9812105A81
:103553000236C374F012044A74EB12096BECFEEDED
:10356300FF89087425120B3D780C120AE0742912A6
:103573000B3DE0F9742A120B3DE0FC742B120B3D5A
:10358300E0FD740F697005740F6C6012900620E003
:103593006402700579C1023658E9C39C40F6900372
:1035A30078780C120AFEE50890037EF0E990037C1C
:1035B300F0ECA3F0ED90037FF074FF6A700374FFE7
:1035C3006B701D900DEFE0F47003A3E0F47005122F
:1035D30016E4800C900DEF123822E8F0A3E980077F
:1035E300900375EAF0A3EBF0EE4F6017EEFAEFFBF2
:1035F30012111AE96401700BEEFCEFFD7A897B036B
:10360300121EFA900368E4F0A3F090036BF0A3F0AA
:10361300900388F0900620E06402700890037C74A5
:103623000FF0A3F09003777405F014120B3DE4F050
:10363300900378120B1A851882851983120B269032
:10364300037EE0C0E07405120B3DD0E0F074071276
:103653000B3D12365D74150242A0E4123971121F3C
:103663002A22C082C083900338E07003121A4A12E0
:103673000C5E804CC082C083900338E0900D57707D
:1036830004E4F0802D7401F0900338E0F460237CAF
:1036930041E0C394415002E0FCECF8E0C398F0EC45
:1036A30075F0E8A4CCA8F075F003A428FD7A801285
:1036B30042F67A577B0D7941121F128003120C04D4
:1036C300D083D0820208891238D97808221236D4DE
:1036D30022122A5DA322E0F508A3E0F5092274F57E
:1036E30012044A74E212096B851882851983ECF07F
:1036F300A3EDF0EAFEEBFF89087429120B3DE0F518
:1037030009742C120B3DE0F50A900377E064046022
:1037130005E06408700579C2023813742A120B3D60
:10372300E064FE7003A3E0F4700579C302381390DC
:103733000377740312396D7950121F12742A120B16
:103743003DAA82AB83794B121F1285188285198398
:103753001238221238EEE50890036AF0742A120B2D
:103763003D12381B1238EEE50990036212382974B2
:10377300CE55094480C0E07412120B3DD0E0F074C2
:1037830001250A900388F0740F120B3D7402F07444
:103793002A120B3D1238E17407120B3DE8F0A3E93E
:1037A3001238607410120B3D1238EE7405120B3D83
:1037B300E508F0741B120B3DE4F090037D740FF0E9
:1037C3007A7D7B037954121F1290037C740FF07A75
:1037D3007C7B037947121F1290037CE0C3940F5044
:1037E300237405120B3DE0C0E07402120B3DD0E0E0
:1037F300F07404120B3D7401F004120B3DAA82AB6A
:1038030083121F367405120B3DAA82AB83121F1855
:10381300741E1208F10226E412429490036B2212E2
:10382300429490037522F0EEFCEFFD7A897B03123C
:103833001EFA2274F712044AEB90037FF0120E86ED
:103843008005740D1208F17F01020665123855A335
:10385300E0221238CEA322EAF0A3EBF0221238D4EE
:10386300F8A3E0F92274F712044A74F812096BEA18
:10387300FEEBFF7900900377E064087044851882BB
:1038830085198374FDF0A374FFF0120F64740212A0
:103893000B3D12385A7405120B3DE4123855E0C043
:1038A300E07404120B3DD0E01238C9C0E074061274
:1038B3000B3DD0E0F07407120B3DE412396D120F8B
:1038C300A674080238471238CEE022F08E828F8326
:1038D300221238D9E022F0851882851983221242F8
:1038E3009422E0F8A3E0F9EE123382E8F0A3E9F0C2
:1038F30022C082C0839003497424F0A3740DF09016
:1039030003EF7400F0A37410F090034D745AF0A306
:10391300740DF090034F7424F0A3740DF0900351D1
:103923007460F0A3740DF00236C374F412044A7485
:10393300F912096B8A088B098C0A8D0B851882850D
:1039430019837808120AFE7404120B3DE9F074051A
:10395300120B3DE4F07406120B3DE412396D120CA8
:10396300467407024F10E8F0A3E9123971221238A6
:10397300D9AA82AB832274F412044A8A088B098A77
:10398300828B8312585DEE4F7003023A82900312CA
:10399300124B2A60158A828B83A3A3E0F9EEFAEF18
:1039A300FB900313123D9C1220E58E828F83A3A309
:1039B300A3A3A3A3A3A3A3E0640270718E828F8346
:1039C300A3A3A3A3A3A3E054027003023A5485085C
:1039D30082850983A3A3E064E960768E828F83A343
:1039E300A3A3A3A3A3A3A3A3A3E07014900DE7E051
:1039F300048E828F83A3A3A3A3A3A3A3A3A3A3F050
:103A03008E828F83A3A3A3A3A3A3A3A3A3A3E0143F
:103A1300123A857404F0900DE81252B0E8F0A3E96D
:103A230012637C8B0BEA450B7003125D4F8E828F02
:103A330083A3A3A3A3A3A3A3A3A3E0640260128EFF
:103A4300828F83A3A3A3A3A3A3A3A3A3E06406706A
:103A53002E8E828F83A3A3A3A3A3A3E0A2E0501F70
:103A6300850882850983A3A3E0F9EEFAEFFB121F11
:103A7300C68E828F83A3A3A3A3A3A3E054FEF00265
:103A83004F13123CA9A3A3A32274EC12044A74DDBE
:103A930012096BEAFEEBFF8C088D097437120B3D9C
:103AA300780C120AE0750A007405120B3DAC82AD66
:103AB3008312201A7412120B3DE070087415120B56
:103AC3003DE060207405120B3DE0A2E6501E8E829D
:103AD3008F83A3A3A3A3A3A3A3A3A3124FAD120FE7
:103AE300DCE960087903121EE2023C8F7405120BB5
:103AF3003DE0540C64047005750B018003750B00E5
:103B0300E0A2E55019750A01E50BA2E04010126826
:103B13005B124FA9121FD2E96004790480C87405AF
:103B2300120B3DE0A2E650227406120B3DE0540353
:103B330070187405120B3DE0540C640C600CE054D7
:103B43000C6408600575100180037510007405127C
:103B53000B3DE05403F8740268700C12685B124F5B
:103B6300A9120B50023C8F740168703AE510A2E071
:103B73005003123C977405120B3DA882A98374036A
:103B8300120B3DE8F0A3E912428885188285198358
:103B9300123CA1E0C0E07402120B3DD0E012396D7B
:103BA3001220B6023C8FE86003023C8F90035FE073
:103BB300640170108E828F83A3A3A3A3A3A3E070D9
:103BC30003023B1D7422120B3D7402124288741AC5
:103BD300120B3D1238EEE510A2E050087405120BEB
:103BE3003D123C97E50BA2E0506AEE240FF582EFFD
:103BF300125F18C0E07417120B3DD0E0F09003146D
:103C0300124B2A7003023C8F120F6A8A128B13A87D
:103C130012A913741A120B3DE0687003A3E06970D4
:103C23006B780C1208BC780A1208C878081208C40A
:103C3300A910740C120B3DAC82AD837421120B3DA1
:103C4300AA82AB83900314123D991220E5740712E4
:103C530008F18038780C1208BC780A1208C8780872
:103C63001208C4900375120734EE2412F582EF1282
:103C73005C427423120B3DAC82AD83740E120B3D78
:103C8300AA82AB83121FBA74091208F174231208B3
:103C9300F102634712685B12543812201422E8F0D1
:103CA300A3E9123CA922125D85A3A3A32274F712F0
:103CB300044A12191E02384A74F712044A121924CC
:103CC30002384A74F712044A12193002384AC08281
:103CD300C08312192A0236C374F712044A12193622
:103CE30002384A74F712044A7409120B3DE0F508CE
:103CF30078081208C81219427401023847C082C0FA
:103D03008312194E0236C3C082C08312195402367D
:103D1300C374F712044A12195A02384A74F7120488
:103D23004AEAFEEBFF8908740165087014790012F2
:103D33000D9C9024EFE493FC7900EEFAEFFB120D57
:103D43001202384A74F412044A74F912096BE9FE38
:103D53008A088B098C0A8D0B7413120B3D124FAD1D
:103D6300900585124B2A6027EE851882851983F00A
:103D73007401120B3D7808120AFEEAF8EBF9740598
:103D8300120B3D123969900585123D991220E50207
:103D93003964FB90034BE0F8A3E0F583888222C0EB
:103DA30082C0831219900236C374F712044A900D2D
:103DB3005AE0F97E00800B125F04540D6401700118
:103DC300190E123FA65003E970ED02384A74F71238
:103DD300044A900D5BE0F97E00800B125F04548D62
:103DE30064817001190E123FA65003E970ED023889
:103DF3004A74F212044A890BE975F006A4240CF5FF
:103E030008E5F012312A8A0CE508250CFAE5093495
:103E130000FB12178C8A0C8B0DAE0CAF0DEE4F60AE
:103E230027AC08AD0979001216CC12337DE50BF0EF
:103E3300EE2508F8EF3509F98E828F83A3A3A3A398
:103E4300A3A3A3A3A31238EEEEFAEFFB024D9F74D4
:103E5300F612044AEAFEEBFF120CEE900D59E0F85D
:103E6300E9C3984009900345124FAD120CF4EE24B8
:103E730002F8EF1255AD900347125467900347E0E1
:103E830004F0EEFAEFFB120CFA850882850983E051
:103E9300025A58C082C083790090034580010912F9
:103EA3004FAD8A828B83E582458370F20236C374F9
:103EB300F712044AEAFEEBFFEE4F605690034512F9
:103EC3004B2A604E888289837A007B00EE6582707C
:103ED30003EF6583600FAA82AB83123F18E5824527
:103EE30083602F80E7900345123F24687002EF69D7
:103EF3008E828F8370081238E1900345800312632A
:103F0300591238EEEEFAEFFB122086EEFAEFFB12AF
:103F1300179202384A123F1C2212429888828983E0
:103F230022124294EE22C082C0839003458004880B
:103F3300828983124B2A600B88828983124936EC6B
:103F43004D70EC8A828B83E4F0A3F0E84960068825
:103F5300828983800390034512385A0236C374F76B
:103F630012044A90034580048A828B83123FA14B3B
:103F730060257E0080010E123FA650ECEE75F00620
:103F8300A4FCADF0EA2CFCEB3DFDEC2410F582ED36
:103F9300123FF670E180047A007B0002384A125423
:103FA3003CEA22123FFFEEC3982274F712044A7DC3
:103FB3000080010D123FFBEDC3985034ED75F00600
:103FC300A4FEA8F0E8FFEA2EFEEB3FFFEE2410F577
:103FD30082EF123FF670DCED75F006A4FEE8FFEA0F
:103FE3002EFAEB3FFBEA2411F582EB125F184CF03B
:103FF30002384A125F246922123FFF22126865EBDE
:104003003400F583E0F82274F612044A120E147A8F
:10401300007B008025EAF8EBF9E875F006A4F8AC1C
:10402300F075F006E9A42C125411126726A3E412CA
:104033005507F0A312672C1268A39024DA122DA956
:1040430040D37A007B00801C8A088B0974037808AC
:10405300120A20124ECBA374FEF0A3041252F0A353
:10406300E41268A39024E31240A940DC7A007B00A9
:10407300801D8A088B0974037808120A20749E1223
:104083005B8C740C1263DE74FEF0A3041268A390BD
:1040930024E91240A940DB9024EDE493900353F00C
:1040A3001240B302313EE493F8C3EA98EB94002242
:1040B3007CE87D037A107B009003C2E0F912184C70
:1040C3002274F012044A74F512096B8A088B098969
:1040D3000A8C0BE9A2E050147508FC7509FFA2E1F4
:1040E3005005D2E4024186D2E3024186124D8B7021
:1040F30003A3E06970057900024253AC0A7902AA6E
:1041030008AB09120DF0E960EDE50AF50C780C1225
:1041130008C879027CFE7DFFAA08AB09124B061280
:1041230008F1E96003024251E50AC2E5F50A90038A
:10413300B5E07051E50AA2E6404B7403120B3DACA7
:1041430082AD83AA08AB09120B92E970321244279D
:104153008A0C8B0DA80CA90DE8FEE9FFE849602540
:10416300EE24020A0AEF122A9B601AEE2402FCEFE5
:104173003400FD7403120B3DAA82AB83121EFAE5D1
:104183000AD2E5F50A900348E0F50C900368E0F5E0
:104193000EA3E0F50F780E1208C47D017C00900396
:1041A30048E0F9AA0EAB0F120DA874021208F1E948
:1041B300F8900348E004F0E86003024251E50AA2E4
:1041C300E55004740E80027406C0E07401120B3DC6
:1041D300D0E012586E8A0E8B0FAE0EAF0FEE4F600B
:1041E30069124271124288888289837401F074785B
:1041F300550AA312686BE50C12686BA3E508F0E59A
:1042030009124260E4F0E50AA2E5500F7403120BB1
:104213003DAC82AD83E824061242578E828F83A37E
:10422300A374FDF0A374FFF0E50B60159024F0E494
:1042330093F8E50BC3985009EE24131256E8E50BE7
:10424300F0EEFAEFFB120C3480067910800279C786
:10425300740B8049FAE93400FB121EFA2288828922
:1042630083A3A3A3A312426C221255E0A322EE243C
:10427300171233847401F0120F64EE241A1233847C
:10428300EAF0A3EB22F012685F340012429222F5A7
:104293008312429822E0F8A3E0F922740D1208F188
:1042A3007F0802066574F612044A7A007B10125DD9
:1042B3005C60089003D47401F08029900623E064C5
:1042C30001900DE57006E0FC79018004E0FC7903C0
:1042D3007A007B00120D129024D81242EA7A007BF6
:1042E300101242F802313E1242EE22E493FC7401B2
:1042F30093FD227B009003C2E0F91218462274EC6E
:1043030012044A8A088B098C0C8D0D890E741412C1
:104313000B3D124CE57416120B3DE0F510A3E0F5CE
:1043230011120FDCE960077AFF7BFF024424900639
:1043330020E0640260030244177900AA08AB091263
:104343000DF6A90E120DEA8A128B13AE12AF13EEFD
:104353004F70030243FF8E828F83A3A3A3A3A3E023
:1043630064018E828F83A3A37069124FAD8E828FF7
:1043730083A3A3A3A3A3A3E0541860439024EEE470
:10438300938E828F83A3A3A3A3F0EA650C7003EB40
:10439300650D6014EA650A7003EB650B600AEA6554
:1043A300107003EB6511701F78101208C4AC0AADCE
:1043B3000BAA0CAB0D1210D874021208F1800890EE
:1043C3000367125D46A3F074FE6A700374FF6B60AB
:1043D3001D804EA3A3A3E0640360298E828F83A371
:1043E300A3A3A3A3E0640470057AFE02432C8E8288
:1043F3008F83A3A3A3A3A3E0640270089003B4E094
:10440300640270101244278B0BEA450B6006AA085E
:10441300AB09800DAA08AB09900349123D991220FC
:10442300E5026347900375124B0C12109C2274F73C
:1044330012044AEAFEEBFF120BE6E9700AEEFAEF0A
:10444300FB120BF2E96006EEFAEFFB80047AFE7BC7
:10445300FF02384A74F012044A8A0A8B0B8C0E8DC1
:104463000F8909750800120FDCE979006003024522
:10447300CEAA0AAB0B120DF6A909120DEA8A0C8B10
:104483000DAE0CAF0DEE4F60198E828F83A3A3A3E5
:10449300A3A3E0640270559003B4E06402700302C6
:1044A30045CCAA0AAB0B90034F123D991220E5129B
:1044B3000BF88A0C8B0DA80CA90DE8497003024573
:1044C300CC88828983A3A3A3A3A3E0A2E040030231
:1044D30045CC750C01A2E150687901AC0AAD0BAA79
:1044E3000EAB0F120D42E970640245CC8E828F83AE
:1044F300A3A3A3A3A3E064037005750C0280528EEB
:10450300828F83A3A3A3A3A3E0640160030245CC2A
:104513009003751249368E828F831249228A0C8B3F
:104523000DA80CA90DE84960D19024E7E493FA881B
:10453300828983E0C39A50C2A3E060030245CC8022
:10454300B988828983A3A3A3A3A3D2E1F0EE4F602A
:104553003A8E828F83A3A3A3A3A3A3E05418602B53
:104563007508018E828F83A3A3120734750CFE7521
:104573000DFF780C1208C47900AC0AAD0BAA0EAB80
:104583000F120E0874041208F1803E900368E06570
:104593000E7004A3E0650F70149024EFE493FCA95C
:1045A30009AA0AAB0B120D12750801801CA90CACE9
:1045B3000AAD0BAA0EAB0F120D42E9700C75080180
:1045C300A909AA0AAB0B120D9CA9080242A374EA1B
:1045D30012044A74F012096B8A0C8B0D8C088D0936
:1045E3007426120B3DE0F514A3E0F5157512069041
:1045F30003F5124B2A6023900375124936AA08ABC0
:10460300091210C68A108B11EA4511600D8A828B3C
:1046130083A3E07005790002490AE50C241DF50E19
:10462300E50D3400F50F850E82124B16F5138882C3
:104633008983A3A3A3E0FA88828983A3A3A3A3E026
:10464300F9EA2400FEE439FFAA08AB09120DA2859A
:104653000E82850F83124954E029F50BE50AA2E582
:10466300500375120E7487550A70177418550A642F
:1046730018600FE50C2417F582E50D125F1865121B
:1046830060077901121EE2808C530A78C3EE94F816
:10469300EF94FF501D7900EEFAEFFB1249146012FC
:1046A30088828983A3A3A3A3A3A3E054186003026E
:1046B300461878081208C47D001249471208F1E928
:1046C300F87403687003024618E8600302478374B2
:1046D30018550A7003024838E50AD2E0F50AA2E445
:1046E3005004D2E1F50AA90A124FA61249146053E5
:1046F30088828983A3A3A3A3A3A3E0541860448857
:10470300828983A3A3A3A3A3E064017036E51045C4
:1047130011603090037512493688828983124922C9
:104723008A0E8B0FA80EA90FE84960178882898328
:10473300A3E0600F851082851183A3125A6350038F
:10474300024618E50AF50E780E1208C812493A1205
:1047530008F1E9702B7C007D008514828515837434
:10476300FFF0A3F0850C82850D83A3A3A3A3A3A3CA
:10477300A3A3E0600312492BA90B124FA6121948F9
:10478300851482851583E0F47003A3E0F460399007
:1047930003B4E064027003024618124CD6E0FAA395
:1047A300E0123D951220E5EA65087003EB650960A8
:1047B30003024618EEFAEF123D951220E5851482A6
:1047C300851583EAF0A3EBF078081208C47D011283
:1047D30049471208F1A90AEEFAEFFB120DF68A080F
:1047E3008B09A808A909900368E0687003A3E0692E
:1047F30060030248FBEEFAEFFB120BF88A088B0901
:10480300A808A909E849606E88828983A3A3A3A3A2
:10481300E06401600D88828983A3A3A3A3E06402FB
:104823007054851882851983AC82AD83EEFAEFFB51
:10483300120B928055900361E0600FE50AF50E7844
:104843000E1208C812493A1208F1E50AF50E780E5D
:104853001208C879027CFE7DFFEEFAEFFB124B06CD
:104863001208F1E960030247838514828515837476
:10487300FFF0A30247CA120F64EAFCEBFD8518821E
:10488300851983AA82AB83121EFA850C82850D8358
:10489300A3A3A3A3A3A3A3A3E06401700F12492BB3
:1048A3007408120B3DAA82AB83121EFA124AE0125D
:1048B30056EF4430F50878081208C87401120B3D0E
:1048C30085820885830978081208C4740B120B3D8E
:1048D30085820885830978081208C4E513F50878EA
:1048E300081208C87900EEFCEFFD124FA6120D3C2A
:1048F30074061208F1024618124AE01256EB1249E6
:1049030054E50BF0120F7C74101208F17F0E0206AF
:1049130065120DEA8A0E8B0FA80EA90FE84922A390
:10492300A312543C1210C622E50C2415F582E50DA2
:104933001233871252CA227901AC08AD09125431DD
:10494300124B0622AC0BA913125431120DA8740298
:10495300221256F7A3A3A3A32274F012044A74F0FD
:1049630012096B8A0C8B0DECFAEDFB750F089003A3
:10497300F5124B2A6014125A5C8A828B83E58245B6
:10498300836007A3E07003024ADB124AE03400129B
:104993004B16F50B88828983124AE9E0FBEC24006D
:1049A300FEE43BFF88828983A3A3124AE9A3A3E021
:1049B300FBECF508E43BF50988828983A3A3A3A351
:1049C300A3A3A3E0F50EE50AA2E45003750F10A21A
:1049D300E550067408250FF50F748F550A700FE51F
:1049E3000C2417F582E50D125F18650F6008790135
:1049F300121EE2024ADB530A707800E50AA2E45071
:104A030022124AE0125F182408FCA3E03400FD746C
:104A130008120B3DAA82AB83121EFA7808E50AC27C
:104A2300E4F50AE50AA2E55028124AE0125F1828C5
:104A3300F8A3E03400F9E82408FCE93400FD851804
:104A430082851983AA82AB83121EFAE50AC2E5F5B1
:104A53000AAC0EA90BEEFAEFFB120DAEE9F87403E4
:104A6300686075900368E06E7003A3E06F605EE8B2
:104A73007054E50AF50F780F1208C8124AF71208A6
:104A8300F1E97054780A1208C87401120B3D85824B
:104A93000C85830D780C1208C4740B120B3D8582B0
:104AA3000C85830D780C1208C4E50BF50A780A12FD
:104AB30008C8A90EAC08AD09EEFAEFFB120D3C7461
:104AC300061208F18012740468700D80B7780A1218
:104AD30008C8124AF71208F174100242A0E50C2428
:104AE3001DF582E50D22A3A3A3E0FC88828983A39D
:104AF300A3A3A3227901124CDD123387124B0C12AC
:104B03004B0622120D66740122E0FCA3E0FDAA0805
:104B1300AB0922F583123F1CA3E0F50A888289833F
:104B2300A3A3E0229003391254982274E812044A92
:104B330074F512096BEAFEEBFF8C088D0989147476
:104B430023120B3DE0F50F7424120B3DE0F512A385
:104B5300E0F5137426120B3DE0F516A3E0F5177488
:104B630028120B3DE0F50EA90F120DB48A108B111C
:104B73007401120B3D7408F0E50EA2E450037410A7
:104B8300F0E50EA2E55004E02408F08518828519AB
:104B930083AA82AB83120FC48A0C8B0DEA450D7076
:104BA30003024CBDEA2417F582EB124CCF120F64BB
:104BB300E50C241AF582E50D1256EB12385A7403EC
:104BC300120B3DAC82AD83AA10AB11120B92E960BC
:104BD3001D124CC77403120B3DA882A983E50C2454
:104BE30018F582E50D1256EBE8F0A3E98024E50EF3
:104BF300A2E4501FE5106E7003E5116F7015124C9F
:104C0300C7E50C2418F582E50D1256EBE512F0A367
:104C1300E513F0124CD6124CE5850A82F583740233
:104C2300F0A3E50E124CEDE50FF0EE850A82850B3D
:104C330083A3A3A3F0EF850A82850B83A3A3A3A376
:104C4300124CEDA3A3A3E508F0E509850A82850BC1
:104C530083A3A3A3A3A3A3F0AA10AB11120DA2E9EC
:104C63002514850A82850B83A3A3A3A3A3A3A3F07F
:104C7300750800E50EA2E45011AC12AD13E50A2449
:104C830008FAE50B124259750808E50EA2E550141F
:104C9300AC16AD17E50A2508F8E50B3400F9E8244E
:104CA30008124257850C82850D83A3A3E510F0A358
:104CB300E511F0AA0CAB0D120C34740B1208F17F42
:104CC30010020665E50C2416F582E50D1233877490
:104CD30001F022124CDD12338722E50C126866E5DF
:104CE3000D22E0F50AA3E0F50B22F0850A82850B7D
:104CF30083A3A32274F212044A8A088B09ECFEED03
:104D0300FF890A7900124D8B7003A3E0697004795F
:104D1300018073750B01900368E065087004A3E0DC
:104D23006509601F750B00780B1208C8A90AEEFC11
:104D3300EFFDAA08AB0912101874011208F1E9F586
:104D43000B80417900EEFAEFFB120DEAEA4B602B80
:104D53008A828B83A3A3A3A3A3A3E05418601C7527
:104D630008FE7509FF78081208C48A828B83A3A3FF
:104D730012073412667B1208F180097901EEFAEF0B
:104D8300FB120CC4A90B8014120DF68A0C8B0DA810
:104D93000CA90D900368E068221208F17F06020651
:104DA3006574F412044A7508E675090A7A101263E9
:104DB300838B0BEA450B70031240B3900353E0144B
:104DC300F0700C9024EDE493900353F0120E027EE6
:104DD300007F00806C850882850983A3A3A3A3E0D9
:104DE3006059F46056E5082404F582E509125D4034
:104DF3007049850882850983A3A3A3A3A3E0640361
:104E030070197902850882850983124936850882DB
:104E1300850983A3A3124FAD120D4285088285092C
:104E230083A3A3A3A3A3E06401601085088285097B
:104E33008374FEF0A304124EFDE4F01232A012318B
:104E4300229024DC1264DF408C7E007F00803912C4
:104E53000F0A8E088F0974037808120A20745E25DE
:104E630008FC740C3509FD7A4E7B0D120EF8EA4BE3
:104E730070DD8E088F0974037808120A20124ECB56
:104E8300126726E4F01232A09024E3E493F8C3EE11
:104E930098EF9400501B8E088F0974037808120A48
:104EA30020124ED3E82407F582E9125D4070D680C4
:104EB300A17E007F00800A124EDE600214F01232DF
:104EC300A01264DC40F18048124ED3888289832289
:104ED300745E2508F8740C3509F922EEF8EFF9E849
:104EE30075F006A4F8AAF075F006E9A42AF974FE91
:104EF30028F582740B39F583E022124F04A3A3A390
:104F030022F0850882850983A3A322740D1208F178
:104F13007F0402066574F712044A74E112096BEC0C
:104F2300FEEDFF750800EE4F60728A828B83E024EA
:104F33001C125D71124B2A60638A828B83124FAD00
:104F4300851882851983AC82AD83EA241BF582EB35
:104F5300125C42EA241CF582EB124FA9120F4C7427
:104F63000B120B3D124FB17003A3E069702E740254
:104F7300120B3DE064017024741D120B3D123D9928
:104F8300E064017017741D120B3D123D9BA3A3E057
:104F9300F88E828F83E0687003750801A908741F77
:104FA300023847124CDD3400F58312543C22122A96
:104FB30059E0682274F412044AE9702479009003DA
:104FC3004D123D991220E58A0A8B0BAE0AAF0B7482
:104FD300FE6E700374FF6F701A9024EAE4936013FB
:104FE300790190034D123D991220E58A0A8B0BAE8D
:104FF3000AAF0B120F8802341474F612044A74F3C6
:1050030012096B1216E48A088B09AE08AF099003E4
:1050130068E06E7003A3E06F60E9120F70EA6E70D0
:1050230002EB6F60DEEEFAEFFB120FDCE970D4EEF9
:105033004F60D0851882851983E4F004120B3DEE8E
:10504300F0A3EF12505FE970BA74FE6E700374FF41
:105053006F60B0EEFAEFFB740D02313B123971123F
:105063000BAA22C082C083120F880236C37F0A02B2
:10507300066574F212044AEAFEEBFF8C0A8D0B8973
:1050830008740E120B3DE0F50974FC6E700374FF97
:105093006F70057900024D9F7900120DF68A0C8B13
:1050A3000DAE0CAF0D900368E06E7003A3E06F705C
:1050B30006E509A2E650DCA9091265697061790069
:1050C3007AFE7BFF126569705674185509700302E6
:1050D30051AC780079008003122C539024DC122CFD
:1050E3004A40030251ACE8FAE9FBEA75F007A4FA77
:1050F300ACF075F007EBA42CFB74EC2AF582740A70
:105103003BF583E0541870D0E875F007A4F8AAF0D3
:1051130075F007E9A42AF974E628F8740A39F988BE
:10512300828983A3A3A3A3A3A3E0541860097418DB
:105133005509700302509688828983EEF0A3EFF03D
:1051430074FE650A700474FF650B60031252D08805
:10515300828983A3A3A3A3A3A3E509F0A2E0500D2F
:1051630088828983A3A3A3A3A3A3D2E2F0740165D6
:105173000888828983A3A3A3A3A37038740112525E
:10518300F0E0541860289024EEE49388828983A386
:10519300A3A3A31252BE1210C68B0DEA450D6003E2
:1051A3000250967800790080397902025098900372
:1051B30067E080D7E0640170030250968882898398
:1051C300A3A3A3A3A3A3E0541860079024EEE4933E
:1051D3008004900366E0124260E508F002509612E4
:1051E3002C539024E4E493FAC3E89AE9940040032F
:1051F3000250967A007B00804BEAFCEBFDEC75F0E5
:1052030007A4FCAEF075F007EDA42EFD74E82CF5B1
:1052130082740A3DF58312585DE8FCE9FDEC75F0F4
:1052230017A4FC85F00975F017EDA42509FD747624
:105233002CF58274093DF583E06E7003A3E06F6083
:105243009E1231759024DC12313240AD1242EAECE9
:105253006A7002ED6B7088E875F017A4F8AAF07510
:10526300F017E9A42AF9747628FE740939FF7C172C
:105273007D007900EEFAEFFB1216CC8E828F83123B
:1052830052D69003751252B0A3A3A3A3A3A3E8F02D
:10529300A3E91252B67401F0EE240E1256E874011B
:1052A3001252DE1202F91256E5E80251DE1236D42A
:1052B300A3A322F0EE240F12338422F01252C7AAC2
:1052C3000AAB0B22900375E0FCA3E0FD22888289E0
:1052D30083A3A3E50AF0A3E50BF022F09024E7E40F
:1052E300932401F8E43400F97A027B002212426C21
:1052F300A32274ED12044A8A088B09890E12541AE8
:10530300400579050253EF121996AA08AB09125406
:10531300EC9024DA1253F2650A7003E9650B700707
:105323007AFE7BFF1254EC9024DA125EF7E50B99B8
:1053330040030253ED1253F76012E50A75F006A419
:10534300F875F006E50B125442121792E50E601839
:10535300E50A75F006A4F8AAF075F006E50B1254F9
:105363006E701A79010253EFE50A75F006A4F8AAE4
:10537300F075F006E50B12544FE4F0A3F0E50A755F
:10538300F006A4F8AAF075F006E50B12540FA31269
:10539300570588828983A3AA82AB8312545D8A82CC
:1053A3008B83E060411253F7603C8E108F117512AE
:1053B3000078101208C0E50EC333FCE433FDE50AA0
:1053C30075F006A4F50AA8F075F006E50BA428F518
:1053D3000B7402250AF582740C350B124FAB1216AF
:1053E300C074031208F179008002790702657F1205
:1053F3002DCAE822E50A75F006A4F8AAF075F006AE
:10540300E50B12544AF8A3E0F9E84922A42A1255FD
:10541300A388828983A322ECFEEDFF9024E5E49325
:10542300F8E9C39822F58312543C12179222E50C33
:10543300126866E50D3400F583E0FAA3E0FB22125F
:10544300544AFAA3E0FB2212544FE022A42AF9742F
:105453000228F582740C39F58322E50EF0900DE6EF
:1054630012546722E088828983F0221255C7F50C13
:10547300E93400F50DE50EC333FAE433FB12178C60
:10548300850C82850D83EAF0A3EBF0850C82850DF4
:105493008312549822124298E8492274F412044A5F
:1054A300ECFEEDFF740C120B3D1238E188088909FC
:1054B3001254ECAC0AAD0BECF8EDF99024DA12546B
:1054C300F45021E875F006A4F8AAF075F006E91285
:1054D300540FE08E828F831255071254FD1238EE5B
:1054E300790080027904024F13120D788A0A8B0B1C
:1054F30022123143C3EC9AED9B2212429485088217
:10550300850983221255DC2274F612044A7E007F39
:10551300008028EEF8EFF9E875F006A4F8ACF07512
:10552300F006E9A42CF9740028F582740C12618A40
:105533006A7003A3E06B60571232A01264DC40D39D
:105543001264D77002E96F704674FE6A700374FFC9
:105553006B703C7E007F0080031232A01264DC502B
:105563002E124EDE70F3EEF8EFF9E875F006A4F8AC
:105573001255991255CE60171255B5F8E91255AD6B
:105583008882125428850882850983E4F0A3F0EE0B
:10559300FAEFFB02313E75F006E91255A122A42A67
:1055A300F974FE28F8740B39F9223400F988088954
:1055B3000922EEF8EFF9E875F006A4F875F006E9AC
:1055C3001255C7221255A1E8240422A3A374FE1284
:1055D30055D912549822F0A3041255E022F0888280
:1055E3008983A3A3A3A32274F612044AEA241DF514
:1055F30082EB1256EFF9604BEA241DF582EB125F42
:10560300182402FCA3E03400FD12541E400302568A
:10561300D8780080298C828D83E0F508A3E0FFE52C
:10562300082400E43FF509E833FEE433FF74462E13
:10563300F582740C3FF5831257051256DB08E8C355
:105643009940D28A828B83A3A3A3A3A3A3A3A3A3D7
:10565300124936900368E06C7003A3E06D700F7C11
:10566300467D0C1229C2124FA9120D6C8067EA24E1
:1056730011F582EB125F18605CFC74FF2CF0750867
:105683000178081208C875084675090C78081208CD
:10569300C4E9F50878081208C8EA2412F582EB1267
:1056A3005F18F50878081208C8EA2415F582EB128A
:1056B30056EB120734ECF91229C21249338A828B52
:1056C30083A3A3A3A3A3A3A3A3A3124FAD120D84E8
:1056D30074071208F102313EEC24020C0CED340085
:1056E300FD22EE240DF582EF123387221233871247
:1056F30056F7E022E0F8A3E0F5838882A3228882AC
:105703008983E508F0A3E509F02274EA12044A74D8
:10571300FD12096B8A148B158C0E8D0F890D74196C
:10572300120B3D12585D741B120B3DE0F511741CF6
:10573300120B3DE0F50C741D120B3D124CE5741F6A
:10574300120B3DE0F5106008E50CC333240480021E
:105753007402C0E07401120B3DD0E012586E8A0847
:105763008B09EA4509700302584E8A828B83A3A3EF
:10577300E514F0A3E515126372E50EF0A3E50FF04F
:10578300EA2413F582EB1256EBE50DF0EA2414F547
:1057930082EB1256EBE511F0EA2417F582EB125F68
:1057A3001864017040120F6A8A0E8B0FA80EA90F9E
:1057B300850882850983A3A3A3A3E0687003A3E0FC
:1057C300696022EE4F6011E508241AF582E509129B
:1057D30056EBEEF0A3EF800CE5082417F582E509FC
:1057E3001256EBE4F012585312585D8E828F837475
:1057F30005F0A3E5107004E50C80487401250C1234
:1058030058677A008028850A82850B83E0125863E3
:10581300850A82850B83A3E08E828F83F0E50A24B9
:1058230002F50AE50B3400F50BA30EAF830AEAC3B6
:10583300950C40D2120F6AEA125863120F6AEB8E6C
:10584300828F83F0AA08AB09120C34740302490C4B
:105853001229D312338722900334E0FEA3E0FF2200
:105863008E828F83F0A3AE82AF8322123971120F1F
:10587300C422C082C083E9C333FCE433FDEA2CFABB
:10588300EB3DFBEA24FEF582EB34FF124FAB02360D
:10589300C374F212044A89098A0A12541A40047919
:1058A30000804075080080020508E508C39509508B
:1058B3002AE508C333F8E433F9EE28F582EF39F526
:1058C30083C082C083120F6A8A0C8B0DD083D0826F
:1058D300E0650C7004A3E0650D70CDE50A65087002
:1058E300BE7901024D9F74F012044A74F312096BDE
:1058F3008A088B098C0A8D0B890C750D00120FDC3D
:10590300E9790060030259EBAA08AB09120DF6A965
:105913000C120DEA8A0E8B0FAE0EAF0FEE4F700313
:105923000259E98E828F83A3A3A3A3A3A3E0A2E2D8
:1059330040030259E9120F6AEA650A7003EB650B2B
:105943007011780D1208C8E4F50EF50F780E1208E1
:10595300C48044AA0AAB0B120BECE964017068859E
:1059630018828519837404F07401120B3D1252D608
:10597300851882851983AA82AB83120BAAE9640175
:105983007045750D01780D1208C8E4F50EF50F7812
:105993000E1208C4750D00780D1208C8780D120890
:1059A300C87408120B3D85820E85830F780E12088A
:1059B300C49024F0E493F9AC0AAD0BAA08AB091226
:1059C3000D8474071208F18E828F83A3A3A3A3A36C
:1059D300A3E0A2E1400D8E828F83A3A3A3A3A3A37D
:1059E300C2E2F0750D01A90D02429E74F612044A3B
:1059F300E9FE7900120DF6EEF9120DEA8A088B0919
:105A0300A808A909E84960061268ADF9800279047B
:105A130002313E74F612044A7E0790035CE0703450
:105A2300125A5C8A088B09A808A909E849602590DD
:105A33000361E0640188828983A3A3700B125A6314
:105A4300888289835001A3A3E0F91210E4E9FEEEF2
:105A530070027E07EEF902313E1252C71210C622BF
:105A6300E0FA88828983A3E0C39A2274EE12044A7F
:105A7300EAFEEBFF890A8C0C8D0B7412120B3D129C
:105A830036D9125B381254215051890E750F0074A8
:105A930003780E120A207464250EF582740C350FF8
:105AA300F583E0F8E50CC398502DE50B60247511E0
:105AB3000074037810120A20745E2510F8740C35F4
:105AC30011F988828983A3A3A3A3A3A3E50C125B83
:105AD30042F07900025070790380F979007AFE7BF5
:105AE300FF125B38E49365107004790280E6E50BDE
:105AF30060E0890E750F007403780E120A20745E3D
:105B0300250EF8740C350FF988828983A3EEF0A370
:105B1300EF125B421252F0E50C12426874FF1267F7
:105B23002CE50AF0900366E088828983A3A3A3A3EC
:105B3300A3A3A3809C120DE4E9F5109024E32212A1
