:020000040000FA
:06000000020AD00201F823
:0300130002021BCB
:03002B0002090BBC
:03003B000202704E
:030053000201297E
:1000830002018D0101FF01010503010F10FEFF5A5B
:10009300135A135A135A1310120A125A13D921005E
:1000A3000000009D22000000000C0000000C000175
:1000B300060A1010000076150000000000002A1642
:1000C30000000000000000000000FFFF0000AC186B
:1000D30000000000F100000000000000000000002C
:1000E30000000000000000000000000000FFFF020D
:1000F30000000000000000000000010001020053A6
:1001030005000000C605640002020000100005029D
:1001130007051E02051E0A0A03B80B02803E0102F0
:10012300130214020206C0E074F21204B8A2AFE490
:1001330033FED2AFE5A7FFE5A1F5085F54106006D3
:10014300121C9675A1EFE5085F54086008121C9C09
:1001530075A1F7802BEFA2E0C0D0E508A2E092F0F2
:10016300120A0D158182F05017906198E0F89007FC
:1001730097E0C398A2D265D0335002E8F075A1FE90
:10018300EEA2E092AF7F0102056FC0E074F21204A9
:10019300B8A2AFE433FED2AF9061A4E0F8759B0040
:1001A300E59158540860087591F7121CDE802AE522
:1001B3009158541060087591EF121CE4801BE8A25B
:1001C300E0C0D0E591A2E092F0120A0D158182F011
:1001D3005007E0C2E0F0121E229061A3E0F8E5E9C7
:1001E300585404600E121DF875E9FB906193E0A268
:1001F300E640F2808BC0E074F21204B8A2AFE4339D
:10020300FED2AF9061A5E0F8E5BF585404600675CF
:10021300BFFB121E3A020183C0E0C0D0E8C0E0E990
:10022300C0E0C082C083E5C1C0E0900703E0F8747A
:100233008228F58274063400F583D0E0F09007023B
:10024300E0F8A3E0687006E595900705F0900703D2
:10025300E004F0C394804002E4F0A374C6F0D083BA
:10026300D082D0E0F9D0E0F8D0D0D0E032C0E0C006
:10027300D0E8C0E0C008C009C082C083900786E010
:10028300F8A3E0687008539AFBA374018026C2E9BF
:10029300900786E0F50874012508F074062508F533
:1002A3008274073400F583E0F5C1900786E0C394B8
:1002B300804002E4F0D083D082D009D00880A6C366
:1002C300E498F8E499F91203038026C3E49AFAE464
:1002D3009BFBE920E7E9120303E498F8E499F92288
:1002E300C3E498F8E499F9120303E498F8E499F95C
:1002F300C3E49AFAE49BFB22EB20E7CFE920E7E093
:10030300B90010BB0008E88AF084F8AAF022E4FBE5
:10031300C8FA22EB70227B10C833C8C933C93350E3
:1003230007C39AC3DBF280069A50012ADBEAC8337B
:10033300F4C8C933F4C9FA2275F008E4C833C8C94C
:1003430033C933C99AC99B5004C92AC93BD5F0ECB8
:10035300FBC833F4C8E4C9FA22080808EAC0E0EB92
:10036300C0E086F0E7A4FA180986F0E7A42AFA1891
:100373000986F0E7A42AFA180986F0E7A42AFA19ED
:1003830086F0E7A4FBE5F02AFA190886F0E7A42B28
:10039300FBE5F03AFA190886F0E7A42BFBE5F03AFF
:1003A300FA18180986F0E7A4C5F02BFBE43AFA190A
:1003B30008E7C5F0C6A426F6E5F03BFBE43AFA18D5
:1003C30086F0E7A4F6E5F00826F6E43B08F6E43AFF
:1003D30008F6D0E0FBD0E0FA22E4CFC0E0E4CEC0E0
:1003E300E0E4CDC0E0E4CCC0E075F020C3E633F632
:1003F30008E633F608E633F608E633F6181818EC81
:1004030033FCED33FDEE33FEEF33FFC3EC9709ED21
:100413009709EE9709EF97191919400FFFEC97FC0D
:1004230009ED97FD09EE97FE191906D5F0BEECF715
:1004330009EDF709EEF709EFF7191919D0E0FCD028
:10044300E0FDD0E0FED0E0FF222518C582C0E0E544
:100453001934FFC583C0E0E518C3958224F810AFB3
:10046300088583198582188008858319858218D2A7
:10047300AFCEF0A3E520F0A37808E608F0A3DEFAF8
:10048300EFF0A3E58124FAF8E608F0A3E608F0A369
:10049300E608F0A30808E608F0A3E608F0A3158130
:1004A3001581D0E0FED0E0F8158115811581E8C0F3
:1004B300E0EEC0E022C0D02518C582C0E0E51934C3
:1004C300FFC583C0E0E518C3958224F310AF088508
:1004D30083198582188008858319858218D2AFC84D
:1004E300F0A3E9F0A3EAF0A3EBF0A37908E709F09E
:1004F300A3D8FAECF0A3EDF0A3EEF0A3EFF0A3D0B2
:10050300E0F0A3D0E0F0A3D0E0F0A3E520F0A3E572
:10051300F0F0A322120B32B90003020559E4900351
:10052300017855790B8002F0A3D8FCD9FA900D55C8
:10053300AA82AB8390008678A479018015E493A303
:10054300AC82AD838A828B83F0A3AA82AB838C8235
:100553008D83D8E9D9E775825B75838274041208A9
:10056300837582E07583207400120883851983855F
:100573001882E0C0E0A3E0F9A3E0FAA3E0FBA378CC
:1005830008E0F608A3DFFAE0FCA3E0FDA3E0FEA386
:10059300E0FFA3E0C0E0A3E0C0E0A3E0F5D0A3E068
:1005A300F520A3E0A3F5F010AF0885831985821821
:1005B3008008858319858218D2AFD082D083D0E09A
:1005C300F8D0E0320975F0108E1A8F1B85821F85D3
:1005D300831E851882851983E0CEA3E0CF851F8211
:1005E300851E83EBC9EAC8EDCBECCAC3E833C8E97F
:1005F30033C9EA33CAEB33CBC3EA9EF51DEB9FF550
:100603001CB35004AB1CAA1DEC33CCED33CDD5F099
:10061300DAAE1AAF1B22D083D082ECC0E0EDC0E08B
:10062300E493A3FCE493A3FDED4C600D1206F1ECFF
:1006330024FFFCED34FFFD80EFE493A3FCE493A3DC
:10064300FDED4C600D12078EEC24FFFCED34FFFD35
:1006530080EFD0E0FDD0E0FCE493A3C0E0E493C0DE
:10066300E022851983851882E0A3FEE0A3F52078B4
:1006730008E0A3F608DFFAE0A3FFE0A3C0E0E0A3ED
:10068300C0E0E0A3C0E0E0A3C0E0E0A3C0E010AF9F
:10069300088582188583198008858218858319D275
:1006A300AFD083D082020889D083D082E9C0E0E44E
:1006B30093A3C386F0C5F095F0F908E493A386F0FD
:1006C300C5F095F0700BE493A3C3994005E904804A
:1006D30002A3E475F002A42582F582E5F03583F5E3
:1006E30083D0E0F9E493A3C0E0E493C0E022C0E048
:1006F300C3E49396087401939618400FE4936670CD
:100703000808740193661870007019A3A3C3E493D7
:1007130096087401939618A3A3400DD0E0D0E0D0BF
:10072300E0020655A3A3A3A3A3A3D0E022740480ED
:100733000474028000CCC0E0EDC0E0E518C39CCC9B
:10074300AD1950011D10AF068C188D1980068C1839
:100753008D19D2AF120805D0E0FDD0E0FC2274025F
:100763008000CCC0E0EDC0E0E518C39CCCAD1950CF
:10077300011D10AF068C188D1980068C188D19D2A7
:10078300AF1207E3D0E0FDD0E0FC22C0E0C0F08868
:10079300F0E4936670080874019366187000A8F07B
:1007A300A3A3700BD0F0D0E0D0E0D0E0020655A3B5
:1007B300A3D0F0D0E022D083D082CCC0E0E493A3D6
:1007C30060061208261470FAE493A3600612095512
:1007D3001470FAD0E0FCE493A3C0E0E493C0E022F9
:1007E300CAC0E0E493A3C582CCC582C583CDC583CB
:1007F300F0A3C582CCC582C583CDC583DAE5D0E03D
:10080300CA22CAC0E0E0A3C582CCC582C583CDC5D8
:1008130083F0A3C582CCC582C583CDC583DAE6D078
:10082300E0CA22C0E0E493A3D39C5010E493A3C393
:100833009C400AD0E0D0E0D0E00207D6A3A3A3D027
:10084300E022C008C3E096F50808A3E09642080832
:10085300A3E096420808A3E09645087001D3D008A8
:10086300227009080808226016181818C6C333C670
:1008730008C633C608C633C608C633C6D5E0EA225F
:10088300C09FF59FE473D09F22D083D082C09FE4A2
:1008930093C0E0740193C0E0740293F59F2225187E
:1008A300F58210AF08F518400215198008F51840B5
:1008B300021519D2AF851983227404800A74038048
:1008C30006740280027401C0E0F4041208A1D0E0AF
:1008D300120B0D22BB0102E722C082C08389828AE8
:1008E30083BB0003E08002E493D083D08222C0D094
:1008F300251810AF08F518500205198008F518508F
:10090300020519D2AFD0D022C0E0C0D0E8C0E0E5E4
:10091300A8D2AFC2C7A2E792AFD0E0F8D0D0D0E060
:10092300326016080808C6C313C618C613C618C60D
:1009330013C618C613C6D5E0EA22C3E0C696F60866
:10094300A3E0C696F608A3E0C696F608A3E0C6960B
:10095300F622C0E0E493A36C7009D0E0D0E0D0E0CD
:100963000207D6A3A3D0E022251810AF08F518403C
:100973000215198008F51840021519D2AF22E7664F
:1009830070100809E766700A0809E7667004080929
:10099300E76622C3E09608A3E09608A3E09608A3BF
:1009A300E096A2D265D03322E066701008A3E06619
:1009B300700A08A3E066700408A3E06622C3E09609
:1009C300F008A3E096F008A3E096F008A3E096F001
:1009D30022E026F008A3E036F008A3E036F008A3EF
:1009E300E036F022E627F60809E637F60809E63787
:1009F300F60809E637F622E026F608A3E036F608FD
:100A0300A3E036F608A3E036F622C0E0E8C0E0E54E
:100A13008124FCF8E6A2E7D0E0F8D0E022700422BB
:100A2300600D18C6C333C608C633C6D5E0F4182212
:100A3300E657F60809E657F60809E657F60809E601
:100A430057F622E056F608A3E056F608A3E056F65A
:100A530008A3E056F622E056F008A3E056F008A3F8
:100A6300E056F008A3E056F022E647F60809E64709
:100A7300F60809E647F60809E647F622E4C396F6C0
:100A830008E496F608E496F608E496F622C3E79699
:100A93000809E7960809E7960809E79622C6F4C607
:100AA30008C6F4C608C6F4C608C6F4C622600D0814
:100AB300C6A2E713C618C613C6D5E0F322C3E09651
:100AC30008A3E09608A3E09608A3E0962275D00059
:100AD30075814075180175190300020517E0F608C2
:100AE300A3E0F608A3E0F608A3E0F622600C08C62C
:100AF300C313C618C613C6D5E0F422E6F008A3E66E
:100B0300F008A3E6F008A3E6F022CAC0E0E6F0A3EB
:100B130008DAFAD0E0FA22E0FAA3E0FBA3E0FCA3B0
:100B2300E0FD22EAF0A3EBF0A3ECF0A3EDF022E565
:100B3300C754F84401F5C77901222518F582E43535
:100B430019F58322C2AF75D69F0200002212088CCA
:100B530000E30212088C34E40212088C52E40212FD
:100B6300088CF8240012088C0A250012088C5C25D6
:100B73000012088CBD250012088C47260012088C31
:100B8300EB260012088C3F270012088C582700120E
:100B9300088C7E270012088CB9270012088CFD27C9
:100BA3000012088C24280012088C75280012088C67
:100BB30025290012088CDD290012088CA52A0012B1
:100BC300088C652B0012088CA92B0012088CCE2BE5
:100BD3000012088C112C0012088C5E2C0012088C59
:100BE300D42D0012088C5A2E0012088C782E001275
:100BF300088CA22E0012088CBC2E0012088CCB2E5F
:100C03000012088CD62E0012088C962F0012088C26
:100C1300EF2F0012088CB1300012088CB93000128B
:100C2300088C4D310012088CB9310012088CE43263
:100C33000012088C09330012088C8E330012088CC2
:100C43001D340012088C75340012088C39350012DB
:100C5300088C58350012088C67360012088C7936D8
:100C63000012088CE3360012088C38380012088C06
:100C73006A380012088CF6380012088C2F390012DB
:100C8300088C7B390012088C8E3A0012088CB23C17
:100C93000012088CBD3C0012088CC83C0012088C62
:100CA300D33C0012088CDD3C0012088CE83C001297
:100CB300088C023D0012088C0C3D0012088C163D76
:100CC3000012088C213D0012088C493D0012088C4B
:100CD300A43D0012088CAE3D0012088CD23D0012D8
:100CE300088CF63D0012088C543E0012088C983E86
:100CF3000012088CB43E0012088C2B3F0012088CA3
:100D0300633F0012088CAF3F0012088C0C400012A6
:100D1300088CC6400012088CAA420012088C0343B8
:100D23000012088C33440012088C59440012088CBA
:100D3300D3450012088C5E490012088C304B001218
:100D4300088CF94C0012088CA64D0012088C1A4F1F
:100D53000012088CB94F0012088CFE4F0012088C49
:100D630068500012088C77500012088CF75200125A
:100D7300088CA0540012088C0D550012088CEC55F9
:100D83000012088C0F570012088C77580012088C39
:100D930096580012088CEB580012088CF059001278
:100DA300088C185A0012088C705A0012088C4F5B7A
:100DB3000012088C935B0012088CDE5B0012088C17
:100DC300495C0012088C8E5D0012088CF25D0012E3
:100DD300088C405F0012088CA7610012088CD86150
:100DE3000012088C90630012088CE5630012088CD3
:100DF300E9640012088C86650012088CDF65001216
:100E0300088C92660012088C34670012088CD46731
:100E13000012088C79680012088C41810112088C39
:100E230080810112088CC7830112088C118401127E
:100E3300088C2C850112088C94850112088CC985B5
:100E43000112088C3D870112088CC0890112088C9D
:100E5300E98A0112088C9C8B0112088CF893011209
:100E6300088C8D940112088C74970112088C6D986C
:100E73000112088CDB980112088C219A0112088C4C
:100E8300009B0112088CE59C0112088CF69E01124E
:100E9300088C4E9F0112088C20A00112088C4EA0D2
:100EA3000112088C0BA10112088CE2A10112088C1B
:100EB300A9A20112088C4DA30112088C76A301127A
:100EC300088C98A30112088CEEA50112088CC6A603
:100ED3000112088C0AA70112088C72A70112088C50
:100EE3002AA80112088C5CA80112088CA0A8011280
:100EF300088CD6A80112088C22A90112088C77A9A4
:100F03000112088C7CA90112088CCFA90112088C4C
:100F1300F4A90112088C03AB0112088C67AB011210
:100F2300088CD7AB0112088C63AC0112088C30AF6C
:100F33000112088C14B00112088C97B10112088CAD
:100F4300CDB30112088C7BB40112088C2BB50112AE
:100F5300088C6CB70112088C0FB80112088C56B8B4
:100F63000112088C02BA0112088C16BA0112088CFD
:100F730020BA0112088C48BA0112088C54BA011223
:100F8300088C73BA0112088C93BC0112088CE2BD61
:100F93000112088C26BE0112088CCEBE0112088CE9
:100FA300B1BF0112088C5CC00112088CA8C10112E8
:100FB300088CA6C20112088C4CC30112088CEDC325
:100FC3000112088C04C40112088C3BC40112088C62
:100FD30045C40112088C50C40112088C6EC401125E
:100FE300088CB2C40112088C0FC50112088C34C5D9
:100FF3000112088C4EC50112088CDAC50112088C47
:10100300F7C60112088C53C70112088C3AC80112A3
:10101300088C61C80112088CD5C80112088C50C90C
:101023000112088C54CA0112088C4ACB0112088C95
:10103300F9CB0112088C0CCD0112088CA8CD01123A
:10104300088C2ACE0112088C08CF0112088C40CFDD
:101053000112088C98CF0112088C61D00112088C00
:1010630082D00112088C09D10112088C2DD10112F2
:10107300088C4FD10112088C98D10112088CAED381
:101083000112088C91D40112088C42D50112088CEC
:1010930078D70112088CC8D70112088C08D801121E
:1010A300088C4AD80112088CA6D80112088CD4D80F
:1010B3000112088CF8D80112088C4BD90112088C44
:1010C30079D90112088CB2D90112088C07DA0112FE
:1010D300088C6DDA0112088CD7DB0112088CFADD5B
:1010E3000112088C67DE0112088C90DE0112088C55
:1010F3001BDF0112088C82DF0112088CCDDF011285
:10110300088CF1DF0112088C15E00112088C70E0E5
:101113000112088C8BE00112088C44E10112088C47
:1011230054980412088C93980412088C7880021245
:10113300088CBE800212088C9E810212088CA08249
:101143000212088CA3830212088C2F850212088CCA
:101153008D850212088C4A860212088C6887021257
:10116300088CD9870212088C15880212088C6388B0
:101173000212088C6D880212088CB1880212088C46
:101183000D890212088CA8890212088C258A021282
:10119300088CF48A0212088C8D8B0212088CAD8B9A
:1011A3000212088CE38B0212088C148C0212088C36
:1011B300D58C0212088CE58C0212088C398D021230
:1011C300088C548D0212088C668D0212088C6F8D68
:1011D3000212088CC98D0212088C258E0212088C0B
:1011E300718E0212088C8C8E0212088CBD8E021234
:1011F300088CDA8E0212088CE68E0212088C5A9042
:101203000212088C73900212088CDA900212088C76
:10121300ED900212088CFB900212088CAF9102121F
:10122300088C93920212088C99930212088C2394CF
:101233000212088C2D940212088C9A940212088CC4
:10124300B1940212088CE3940212088C1C950212CA
:10125300088C46950212088CA7950212088CC79534
:101263000212088CE5950212088C2B960212088C48
:1012730051970212088C9E970212088CCD97021286
:10128300088C43980212088C6B980212088CA4985D
:101293000212088CB2980212088C0A990212088C66
:1012A30059990212088C98990212088CC899021253
:1012B300088CF4990212088CFF990212088C1D9A6B
:1012C3000212088CDF9A0212088CE99A0212088C27
:1012D300249B0212088C3A9B0212088C8F9B0212E9
:1012E300088CA39B0212088CA09C0212088CB39C4E
:1012F3000212088CC89C0212088C6A9D0212088C88
:10130300ED9D0212088CAB9E0212088CB69E02124F
:10131300088CE29F0212088CFE9F0212088C50A0D8
:101323000212088C8FA00212088CA4A00212088C4F
:1013330006A10212088C95A10212088CE0A10212E8
:10134300088C31A40212088CAFA40212088C24A5C5
:101353000212088C46A70212088C5EA70212088CA0
:1013630061A70212088C6DA70212088C81A70212D2
:10137300088C89A70212088CBCA70212088C6CA8DF
:101383000212088CE2A80212088C55A90212088CDA
:1013930009AA0212088CBEAA0212088CDDAA021244
:1013A300088C7DAB0212088C89AB0212088CB4AB9B
:1013B3000212088CB7AB0212088C21AC0212088C03
:1013C30049AD0212088C21AE0212088CACAE021297
:1013D300088CC5AF0212088C82B00212088CBBB015
:1013E3000212088CECB00212088CAAB10212088C0B
:1013F300DAB10212088CB5B20212088C4EB3021293
:10140300088CD9B30212088C8AB40212088C0DB569
:101413000212088C3FB50212088C80B50212088CA8
:10142300D3A50312088C38A60312088C70A60312E6
:10143300088CBFA60312088CE1A80312088CC4AA67
:101443000312088C22AE0312088C57AE0312088CC9
:1014530079AE0312088CDEAE0312088C14AF0312AC
:10146300088C37AF0312088C64AF0312088CC0AF2B
:101473000312088CC1990312088C429A0312088C38
:10148300789A0312088CDF9A0312088C529C031279
:10149300088C6E9C0312088CB39C0312088C419D2C
:1014A3000312088C9A9D0312088CCE9E0312088C9B
:1014B3009C9F0312088C14A00312088C90A00312A3
:1014C300088CD2A00312088C13A10312088C47A224
:1014D3000312088C45A30312088C70A30312088C13
:1014E300BBA30312088C02A40312088C94A4031256
:1014F300088C4DA50312088C137D0012088C247DE3
:101503000012088C477D0012088C537D0012088C52
:101513006E7D0012088CB47D0012088CDF7D0012F2
:10152300088CFC7D0012088C507E0012088CC97E4A
:101533000012088CF27E0012088C917F0012088C36
:10154300B47F0012088C238C0412088C348C041290
:10155300088C858C0412088CCA8C0412088C748D38
:101563000412088CAA950412088C9DD60212088CCA
:10157300D48B0412088C0CB00312088CB3B0031282
:10158300088CD3B00312088CFAB00312088C0EB186
:101593000312088C66B10312088C96B10312088CEF
:1015A30017B30312088CBDB30312088C9FB4031244
:1015B300088CF0B40312088C33B50312088C76B58B
:1015C3000312088C5DE20212088CFDB50312088C2D
:1015D30089B60312088CB1B60312088C25B703121F
:1015E300088CD3B80312088CADB90312088C07BA60
:1015F3000312088C0B870412088C2C870412088CA6
:101603005D880412088C87880412088CDE8E04120D
:10161300088C518F0412088C5C8F0412088C7D8F08
:101623000412088C848D0312088C878D0312088C96
:10163300418E0312088C6C8E0312088CB38E031236
:10164300088CD88E0312088CF98E0312088C2D8F08
:101653000312088C668F0312088C8F900312088C78
:10166300C6900312088CE6900312088C8191031232
:10167300088C46920312088C7D920312088CF29315
:101683000312088C95940312088C8E950312088C10
:10169300B7950312088C0B960312088CD19603128C
:1016A300088CFF960312088C94980312088C1599E2
:1016B3000312088C48990312088C1BBA0312088C76
:1016C30025BA0312088C71BA0312088CDFBA03120D
:1016D300088C00BB0312088C17BB0312088CC7BB12
:1016E3000312088C5BBE0312088C64BE0312088CC1
:1016F300B7BE0312088CE0BE0312088C47BF031267
:10170300088CD8BF0312088C1AC00312088C64C05B
:101713000312088CC3C00312088CEFC00312088C99
:1017230080C10312088CBFC10312088CFEC10312CF
:10173300088C33C20312088C45C20312088C57C2AB
:101743000312088C99C20312088CA2C20312088CDC
:1017530058C30312088C98C30312088CD2DF0312F8
:10176300088CA5E00312088CBFE00312088CD0E0BC
:101773000312088CE5E20312088C04E30312088CBD
:10178300B2FD0312088CE8FD0312088C31FE03122C
:10179300088C81FF0312088CC5680012088C046A48
:1017A3000012088C406A0012088CFF6B0012088C30
:1017B300286C0012088CBB6E0012088CFF6E00129E
:1017C300088C88700012088C20710012088C8871B4
:1017D3000012088C29720012088C6B720012088C9C
:1017E300AB720012088C36740012088CA6750012B6
:1017F300088CCB770012088CF9770012088C2078BC
:101803000012088C29780012088C84780012088C46
:1018130017790012088C357C0012088CB67C0012F4
:10182300088CB8990412088CCE990412088CA2EF84
:101833000312088CB5EF0312088C52F00312088CC4
:101843008DF00312088CA8F00312088CCDF003125C
:10185300088C12F10312088C43F10312088C74F103
:101863000312088CFAF20312088C63910412088C99
:10187300A0910412088CE2910412088CF2910412D4
:10188300088C87920412088CC1C30312088C2DC4E0
:101893000312088C78C50312088C5BC60312088CEC
:1018A300ADC80312088C14CB0312088CE2CB0312CD
:1018B300088C00800312088C45800312088C2E814B
:1018C3000312088CC7810312088C11820312088C3F
:1018D3006E820312088CC7820312088CF9820312EA
:1018E300088CF7830312088C5B840312088C7684BC
:1018F3000312088CC5840312088CDB840312088C42
:10190300E8840312088C1C850312088C35850312A6
:10191300088C44850312088CCC850312088C268618
:101923000312088C74860312088C96860312088CA3
:101933000D890312088C3B890312088CCB8903128F
:10194300088C408A0312088C458A0312088C818A0A
:101953000312088CE08A0312088C808B0312088C14
:10196300A58B0312088CAF8B0312088CB28B031266
:10197300088C3B8C0312088C568C0312088C698CE0
:101983000312088C958C0312088CD08C0312088CDC
:10199300D38C0312088CDE8C0312088C1A8D03126D
:1019A300088C2D8D0312088C548D0312088C079814
:1019B3000412088C1F980412088CDFF70212088C9B
:1019C3002EF80212088CD0F90212088C8CFB02123A
:1019D300088CD4FB0212088CBCFC0212088CEDFDAF
:1019E3000212088C0FFE0212088C6BFE0212088C86
:1019F300EFFE0212088C7EE10112088C9FE10112B6
:101A0300088C1CE20112088CA1E20112088C1DE370
:101A13000112088C86E30112088CD2E30112088CB0
:101A230051E40112088CE3E40112088C6FE5011202
:101A3300088CB1E50112088CFAE90112088C7AEBE3
:101A43000112088CB9EB0112088CA0EC0112088C6E
:101A5300A3EC0112088C57ED0112088C8CEE0112D5
:101A6300088C77F00112088CF7F20112088CB0F39E
:101A73000112088CCDF40112088C24F80112088C91
:101A830034F80112088C95F90112088C21FA01121D
:101A9300088C55FB0112088C46FC0112088CC8FC0B
:101AA3000112088C79E40212088C33E50212088CC7
:101AB300A5E50212088CB4E50212088C2EE6021288
:101AC300088C9DE60212088CA4E70212088CCDE76D
:101AD3000212088C6DE80212088CBBE80212088C13
:101AE3002BE90212088CE4EB0212088CBBEC021205
:101AF300088C28ED0212088CA5EE0212088C59EF0F
:101B03000212088C07F00212088C62F00212088C91
:101B1300CDF00212088CCDF10212088CA7F3021249
:101B2300088CBAF40212088C53F50212088CC5F51E
:101B33000212088C8BF60212088CF2FF0312088C37
:101B4300F4FF0312088CB5840412088CE684041293
:101B5300088CA0850412088C06860412088C7786EC
:101B63000412088CE7820412088C23FF0212088CEB
:101B730034FF0212088CD4FF0212088CC4880412AA
:101B8300088CD2880412088CEEFF0212088C3D9751
:101B93000412088C4D970412088C65970412088C64
:101BA300AD970412088CA8940412088C2D95041286
:101BB300088C91950412088CFB7F0012088CD1F8D5
:101BC3000312088CE6F80312088CD4F90312088C6C
:101BD30074FA0312088CDAFA0312088CFEFA031261
:101BE300088C07F30312088C15F30312088C8FF388
:101BF3000312088C67F40312088CF2F50312088CA5
:101C030060FD0112088CAEFD0112088C4BFE01121F
:101C1300088CF6FE0112088C0EFF0112088C8AFF55
:101C23000112088CA0FF0112088CB3FF0112088C6B
:101C3300C1FF0112088C7FD60312088CD4D603127D
:101C4300088CD0D80312088C02D90312088C24D92B
:101C53000312088C3DD90312088C56D90312088C41
:101C630060DA0312088CFBDA0312088C8B8D0412E2
:101C7300088CB08D0412088CC08D0412088CF38D6F
:101C83000412088C248E0412088C598E0412088CBA
:101C9300BB8E0412088CCA8E0412088CD48E0412D4
:101CA300088C41F60312088C67F60312088CA4F61D
:101CB3000312088CB3F60312088CD2F60312088CB5
:101CC3003AF70312088C43F70312088CA2F70312A6
:101CD300088CC6F70312088C85F80312088C92F857
:101CE3000312088CA3F80312088C27990412088C9A
:101CF30044990412088CA3E40312088C01E603122E
:101D0300088C0EE60312088C21E60312088C40E6C9
:101D13000312088C56E60312088C6AE60312088C39
:101D2300EDE60312088C50E70312088CD7E7031281
:101D3300088C35E80312088C45E80312088CA49636
:101D43000412088CC8960412088CF0960412088CAE
:101D530018970412088C4CFB0312088C73FB0312B4
:101D6300088C94FB0312088CF9FB0312088C008087
:101D73000412088C19800412088C25800412088C24
:101D830039800412088C57800412088C6180041275
:101D9300088C6B800412088C7E800412088CCF8020
:101DA3000412088C08810412088C37810412088CF1
:101DB30085810412088CD4810412088CEF810412EB
:101DC300088CF9810412088C0A820412088C508250
:101DD3000412088CB6970412088C3ECD0312088CAB
:101DE3006ACD0312088C86CD0312088C99CD031299
:101DF300088CAFCD0312088C1BCE0312088C4ECE79
:101E03000312088C7DD20312088CA3D30312088C0F
:101E1300D6D30312088C22D40312088C5BD5031289
:101E2300088C83D50312088C98D50312088CA8D587
:101E33000312088CECD50312088C41D60312088CCC
:101E430051D60312088C30900412088C4B90041264
:101E5300088C74900412088C8E900412088CB39032
:101E63000412088CD2900412088CEA900412088C95
:101E730018910412088C32910412088CE39804120E
:101E8300088C22EC0312088C29EC0312088C35ED24
:101E93000312088C65ED0312088C8BED0312088C7A
:101EA300AEED0312088CD0ED0312088C0AEE031278
:101EB300088C70EE0312088CA9EE0312088CF5EE61
:101EC3000312088C22EF0312088C42EF0312088CD2
:101ED300A4930412088CBC930412088CA2940412D9
:101EE300088CA5940412088C91920412088C039315
:101EF3000412088C41930412088C82930412088CF8
:101F030054E80312088C73E80312088CC2E8031226
:101F1300088CDEE80312088C0FE90312088C1FE912
:101F23000312088C2CE90312088C39E90312088C7C
:101F330025EA0312088C63EA0312088C6DEA031284
:101F4300088C7DEB0312088C88EB0312088C9AEB48
:101F53000312088CA3EB0312088CADEB0312088C5D
:101F63003ADB0312088C5ADF0312088C68DF031272
:101F7300088C9D980412088C63990412088CC57F01
:101F83000012088C90990412088CD8990412088CBA
:101F9300F1D50212088C37D40212088CE7D1021251
:101FA300088C6ED10212088C15D10212088CA5D0B0
:101FB3000212088C7CD00212088C5CCE0212088CB0
:101FC30028CE0212088CF5CD0212088CD9CD02124C
:101FD300088CE8CC0212088CA0CC0212088CEBCA45
:101FE3000212088C6BCA0212088C68CA0212088C8F
:101FF30068C90212088C36C90212088C73C802120F
:10200300088C9EC60212088C54C60212088C26C67F
:102013000212088C10E10212088CBBDE0212088C3B
:102023005BDE0212088C13DE0212088C85DD0212BD
:10203300088C23C60212088C10C60212088CBBC57A
:102043000212088CAAC50212088C78DD0212088CD1
:10205300A0C40212088C36C40212088CE4C3021214
:10206300088C85C30212088C72DA0212088CDCB564
:102073000312088C54C30212088C1CC00212088C71
:10208300DCBF0212088CD0BF0212088C30BF0212D0
:10209300088C70BE0212088CF2BB0212088C83B942
:1020A3000212088C41B90212088C15B80212088C6E
:1020B300CAB70212088C09B70212088CDCB60212E6
:1020C300088C1FB60212088CEFB50212088CD4D705
:1020D3000212088CB5B50212088C7C8A0400000039
:1020E30080FBE473000136360101000102010001A7
:1020F3000301000104010606050200000701003484
:102103000801000F090401010D0100FF0E08000082
:1021130017020000190100FF1A0100011B0100FE54
:102123001C0100081D0200001F0100012001000125
:10213300210200002301000F2402000026010001F8
:1021430027010008280200FF2A0100072B01024093
:102153002C0100002D0100012E0100012F0100FFC1
:1021630030010B1C310800003A0100083B01000F4D
:102173002F0100000302710230016002110270029C
:102183000102020202028002100261023A004100CF
:1021930063027302720262024302000213023800F6
:1021A3000002000204021202000200020002000206
:1021B30004020402370037003C02440200023900E3
:1021C30000020002650200023502810200020502DC
:1021D30082028302000203007100300160001100DB
:1021E30070003102200350048000100061000000E1
:1021F30014006300730072006200430000001300C8
:1022030006000000000004001200000000000000AF
:10221300000004000400370037003C0244000000C3
:102223000000000000006500000035008100000090
:10223300050000008300000003047104020460042D
:102243001104700402040204010402041004610472
:10225300000414046304730472046204430400045A
:10226300130406040004000404041204000400041C
:102273000004000451046400000400040004440446
:102283000004000400040004650400043504810410
:1022930064000504000483040004010371030103C3
:1022A30001030103010301032203020301031003DA
:1022B30000030003000300030003000300034203C1
:1022C300000324030603000300030403120325038E
:1022D3002303250323030403040300030003000370
:1022E30044030003000323030003650321003503B4
:1022F30081030003050300030003000301017101CF
:1023030001010101110101013101010101018001FB
:10231300100161013B00140063017301720162014A
:1023230043010001130106013D01350004011201BF
:102333000001000100010001040104013301330124
:102343003C01440132013600000100016501000136
:10235300350081010001050182018301000136007E
:102363000100060000000F00000000000000000054
:102373000000000003FFFF00000403FFFF0000FF55
:10238300FF0FF4010005C4040320000100000B004B
:102393000000000000000003010F0000E01A13001A
:1023A3005C1A0100E01A0200141A03001A1A04004E
:1023B300201A0500261A0600321A1100501A1400BA
:1023C300561A1500441AFFFF000001620E06920E12
:1023D300088C0E0B9E0E10DE0D02680E05800E0794
:1023E3006E0E0C440E0D560EFF000003EAF5E5D504
:1023F300D5C5B5A5959585857575656555554545CA
:10240300353525251515056A129A12701276129420
:102413001288128212A012A612AC12B8127C126495
:10242300125E1200160F00000B150B020002220FA2
:10243300320000065A136C137213341278132E12DF
:102443003A126E116811A411AA119E115611BA13F2
:10245300D813DE13C013CC13C6133030161819204B
:10246300231A1C1E300C0E020B040B0A0708000F64
:1024730000383C3E363B3B352B432C303017181984
:1024830021301B1D1F3000011916181616152303C2
:102493000000034948424D1817250502AE137E1369
:1024A300841390138A138E12B212D213BE12C41263
:1024B3000204020101010109027A1180117411B0B1
:1024C300110000000000008611981100BE040A0EDE
:1024D30000150004007F00E8030C00280000000042
:1024E300000308100C0A03080900040001FF1E1E64
:1024F3000C05040F08C082C0838A828B83E0D2E775
:10250300F01219660236C5C082C08379001229C44D
:102513001256EDC082C083900334124938D083D061
:1025230082C3E09CA3E09D500C125F1EFAA3E0124D
:10253300253B6001090236C5FBEA75F00BA4FAA836
:10254300F075F00BEBA428FB900336E02AF8A3E028
:102553003B8882F583E0540F2274F712044C8908F8
:102563001229C4122A6AACF075F00BE9A42CF99075
:102573000336E028FEA3E039FF74016508600674A2
:1025830002650870208A828B83122A561238F074EF
:10259300026508701B122915122A9D70138E828FF3
:1025A30083E4F0800BEA2403FCEB122A38122A445A
:1025B300EEFAEFFB120B6202384C74F412044C1265
:1025C300684C79008E828F83E06076890A890B805C
:1025D30065E50A75F00BA4FAA8F075F00BE50B128C
:1025E30025487046E50A75F00BA4F8AAF075F00BC0
:1025F300E50B122A7C8E828F83E08508828509830E
:10260300122B5E850882850983A31238F0EE24031A
:10261300FCEF122A4112337F1252D8AA08AB0912D7
:102623000B627901900334124CE7E50A2401F50AA1
:10263300E50B3400F50B12291DE50A9AE50B9B40C7
:1026430090024F1574F512044CEAFEEBFF740B1263
:102653000B3D1236DB750A01EC4D602BEC126868FA
:10266300ED1256ED1238E77901120B6EE5084509B4
:10267300606F850882850983A31268567902AA08C8
:10268300AB09120B6E805AE5084509602B125855A9
:10269300123F26123380122A87700CEEFAEFFB12D8
:1026A3000B74E9F50A80CBEE2403FA1229BF7031CB
:1026B3007903EEFAEFFB80CA8E828F83A3E064FE78
:1026C3007003A3E0F4700BEE24030A0A0A1229BF75
:1026D300700CEEFAEFFB120B74E9F50A8003750A2E
:1026E30000A90A7F0302066574F712044C900334B1
:1026F30012385CEA4B602FEA75F00BA4FAA8F07568
:10270300F00BEBA428FBEAFEEBFF12178C900336C9
:1027130012385C900336124B2C6012EEFCEFFD79FD
:10272300001216CC8007900336E4F0A3F002384C75
:10273300900334124296C3EE98EF9922C082C0836D
:10274300EC4D6005121EFA80097C087D00790012A9
:1027530016CC0236C574F612044C7900EA4B6018A5
:1027630078008808125B8DEB125F1A600479017898
:102773000808E8C3940840EA02314074F712044C95
:1027830074F312096BECFEEDFF851882851983E45F
:10279300F004120B3DEAF0A3EB1250617403120B29
:1027A3003DAC82AD83EEFAEFFB120B86EEFAEFFB44
:1027B300120B8C02384774F712044C74F312096B32
:1027C300ECFEEDFF851882851983E4F0EAFCEBFD4E
:1027D3007403120B3D122B577401120B3D1238E395
:1027E3008E828F831238F074FE68700374FF696001
:1027F3000479018002790002384774F712044CEA25
:10280300FEEBFF12285B70141228668E828F83E022
:10281300F4F88A828B83E058F0120B62A90802381D
:102823004C74F712044CEAFEEBFF7508008E828F9E
:1028330083E0602212285B701D1228668A828B83D4
:10284300E08F838E82F8E058700CE0F88A828B83E5
:10285300E048F0120B6280C4120B68E9F5087401BA
:10286300650822126861122A6E1229B0FAA3E039B0
:10287300FB2274F412044C8A088B097C007D00123D
:102883002915122A441229D5126853790085088222
:10289300850983A3E064FE7003A3E0F460717E0006
:1028A3007F008062EEFAEF12253B6057EEFAEFFBF2
:1028B300EA75F00BA4FAA8F075F00BEBA428FB90D3
:1028C3000336E02AF50AA3E03BF50B850882850968
:1028D30083A3124FAF850A82850B83A3E06A70033B
:1028E300A3E06B701EE50A2403FAE50B1229C070FE
:1028F3000AE50A2403FCE50B122A411229C97901CE
:1029030012585C1232A212291DEE9AEF9B409502D7
:102913004F15EA24030A0A0AEB2290033412543EA9
:10292300C32274F312044C8A088B098A828B83A313
:102933001268561229C4126853750C001229151215
:1029430029C070547E007F0080491229A2FAA3E0B7
:10295300398A82F583E0540F60361229A2F50AA35F
:10296300E039F50BE50A2403FCE50B122A4B34008E
:10297300FB121EF4E964017017850A82850B83A399
:102983001254FFA31238F01229C9750C0112585CB6
:102993001232A212273340B2A90C7F05020665EE5C
:1029A300F8EFF9E875F00BA4F81229B022AAF07534
:1029B300F00BE9A42AF9900336E02822EF122A97B4
:1029C30022126867EB221229D5123389EEF0A3EFA6
:1029D300F022E508126868E5092274F512044CEA4E
:1029E300FEEBFF8E828F83A31268567C007D00EE80
:1029F30024030A0A0AEF122A44EEFAEFFB120B68C9
:102A0300E9F50A7401650A7029126861122A6AAA33
:102A1300F075F00BE9122A7C850882F583122A5699
:102A2300122A87700DE5082403FCE509122A3812DF
:102A33002A440226E43400FDEE2403FAEF22122A8C
:102A43004B3400FB120B86223400FDE5082403FA05
:102A5300E50922A3122A5B22122A5F22E0F8A3E0EF
:102A6300F98E828F83A322122A6E223400F58312F9
:102A7300429AE875F00BA4F8221229B6F508A3E0F0
:102A830039F50922E8F0A3E9F0E5082403FAE5099A
:102A9300122A9722122A9D6401223400FB120B8C06
:102AA300E92274F312044C74E612096B12684C7534
:102AB3000C01750800750900750A00750B0085186F
:102AC30082851983E4F0EE2403FCEF3400FD7403E4
:102AD300120B3D122B57E964017023740B120B3D4B
:102AE3001238E77401120B3D124FB37003A3E06970
:102AF3006051851882851983858208858309740D41
:102B0300120B3DE4122B5E740E120B3D1238F0745F
:102B13000D120B3DAA82AB83120BAAE96401700B61
:102B2300740D120B3D85820A85830B780A1208C443
:102B3300AC08AD09EEFAEFFB120B7A74021208F13E
:102B4300E9F50CEEFAEFFB120BA4A90C741A1208A8
:102B5300F102299D122E48120BB02212385712424D
:102B63009622C082C083780079008003122C55120C
:102B7300291DE89AE99B5029E8FAE9FBEA75F00B6D
:102B8300A4FAACF075F00BEBA42CFB900336E02A0F
:102B9300FCA3E03B8C82F583E0540F70CF79008077
:102BA3000279010236C5C082C0839024D41242EC5C
:102BB300EC75F012A4FCA8F075F012EDA428FD79D1
:102BC300FF7AFD7B071216CC0236C574F712044C4C
:102BD300E9FEEAFF7A007B00780079008028E8FCB0
:102BE300E9FDEC75F012A4FC85F00875F012EDA474
:102BF3002508123088C39E400AE0FCEFC39C4003C3
:102C0300123177122C5512307C40D302384CC082DB
:102C1300C083780079008003122C55122C49501F71
:102C230012308CF470F2E875F012A4F8AAF075F083
:102C330012E9A42AF974FD28FA740739FB80047A8F
:102C4300007B000236C59024D4123145C3E89AE9CB
:102C53009B22E8240108E93400F92274F012044CA1
:102C630074F312096B8A0A8B0B8C0C8D0D8908EC9B
:102C7300450D6016AA0CAB0D120BFE8A0E8B0FAE20
:102C83000EAF0FEE4F6003022D1C120BD48A0E8B76
:102C93000FA80EA90FE8FEE9FFE849607C9024E243
:102CA300122D9C6022740365086006740465087025
:102CB300167A047903120BCE9024E2122DB3400747
:102CC3007A007B00022D999024E0122D9C601B74E6
:102CD300016508600674026508700F7A02790112B3
:102CE3000BCE9024E0122DB350D68518828519831C
:102CF3007401F0120B3D1252D8AC0CAD0D740312DB
:102D03000B3D122E41740B120B3D1236D2123CA313
:102D1300E41252C01210AE8004EE4F606878007463
:102D2300FF2508C39404500278048E828F831252C5
:102D3300D88E828F83A3A3A3A3E508F0E88E828FA6
:102D430083A3A3A3A3A31252E01202FBE88E828FF4
:102D530083A3A3A3A3A3A3A3A3123A877401123A41
:102D630087A3F0EE24101256EAE4F0A3123535A33C
:102D7300F012337FE4F0908105120B1AEE240C124B
:102D830056EA120B26122DA14005900D59E4F012BC
:102D93000F88EEFAEFFB0242A01253F449227A04A1
:102DA3007900120BCE9024D4125F00EA98EB99229B
:102DB300122DCC7583247582D4E493C398F8A3E4CD
:102DC3009399F9C3EA98EB9922E493F8740193F980
:102DD3002274F212044C74F312096B8A088B09EC07
:102DE300FEEDFF750A00EEFAEFFB120BFE8A0C8B69
:102DF3000DA80CA90DE849603E88828983E0650827
:102E03007004A3E06509602F88828983A3A3A3A329
:102E1300E0C39405502112570385188285198374E2
:102E230001F0120B3D125707EEFCEFFD7403120B7A
:102E33003D122E41750A01A90A740D024D9E122EF0
:102E430048120BBC22AA82AB83120B86851882859B
:102E53001983AA82AB832274F612044C122E966055
:102E63000FA3A3A3A3E014C3940450047901800225
:102E7300790002314074F612044C122E96600FA3AF
:102E8300A3A3A3E014C39402500479018002790040
:102E9300023140120BF88A828B83E58245832274C8
:102EA300F612044C122E96600BA3A3A3A3E07004A6
:102EB300790180027900023140C082C083EAFCEBD1
:102EC300FD7A007B000236C2C082C0837C007D0095
:102ED3000236C274F412044C74F312096BEAFEEB6B
:102EE300FF8C0A8D0BC3EC94F8ED94FF4007EE4F73
:102EF3007003022F8F750800750900802E851882D4
:102F03008519837401F01232CA120B3D1232D86054
:102F1300137403120B3DAC82AD83EEFAEFFB121E6A
:102F2300F4E97049E50824011231289024D4E4120D
:102F33006188E50898E509995052E50875F012A4EF
:102F4300F8AAF075F012E509A42AF9125F3360D4E8
:102F5300EE4F70A974FF650A700474FF650B60C4BB
:102F63001232BA650A7004A3E0650B70B7E5087501
:102F7300F012A4F508A8F075F012E509A428F509E4
:102F830074FD2508FA74073509FB80047A007B0079
:102F9300024F1074F412044C74F312096B75080099
:102FA300120BFE8A0A8B0BAE0AAF0BEE4F602A851B
:102FB30018828519837401123851F8A3E0F9740B50
:102FC300120B3D12396B120B9E7C127D0079FFEEC2
:102FD300FAEFFB1216CC750801122DA15009900DC2
:102FE300597401F0120F88A908024F1074F71204E4
:102FF3004CE9FE74FE6A700374FF6B78007900700D
:10300300058052122C5512307C504AE8FCE9FDEC45
:1030130075F012A4FCAFF075F012EDA42F123088F6
:10302300F460E0E8FCE9FDEC75F012A4FC75F01225
:10303300EDA42FFD74FD2CF58274073DF583E06A42
:103043007003A3E06B70BC800912308C14C394042A
:103053004017122C55122C495018EE70EC12308C7C
:1030630064016005E0640370E91232ABFAA3E0FB8C
:1030730080047AFE7BFF02384C9024D41242F0C3C2
:10308300E89CE99D221231AC22E8FAE9FBEA75F0EB
:1030930012A4FAACF075F012EBA42CFB74012AF520
:1030A3008274083BF583E022120C100236C5C082FD
:1030B300C083790180F274F012044C8A0A8B0B7A74
:1030C300047901120BCE8A0C8B0DEA450D603EEAA2
:1030D300C333FAEB33FB12178C8A088B09AE08AFA4
:1030E30009EE4F60237AFE7BFF120C1674FE6A70A2
:1030F3000374FF6B601B85088285098312385CE5C6
:1031030008240212312880E1750C0080047E007FC0
:1031130000850A82850B83E50CF0EEFAEFFB024291
:10312300A5E5082407F508E5093400F509229024EC
:10313300D41242F0C3EA9CEB9D221208F17F0202F3
:103143000665E493FA740193FB22C082C0837A007C
:103153007B008004191231771231315010123196ED
:10316300C3940550F0E970EC12318080047A007B3F
:10317300000236C5EA24010AEB3400FB22EA75F0AB
:1031830012A4FA75F012EBA428FB74FD2AFA740753
:103193003BFB22EAFCEBFDEC75F012A4FCA8F075F6
:1031A300F012EDA4281231AC22FD74012CF58274C7
:1031B300083DF583E02274F712044C74F312096B93
:1031C3007E007F0002325EE50875F017A4F8A9F0CF
:1031D30012619BFAA3E0FBEEF8EFF9E875F012A495
:1031E300F8ACF075F012E9A42C1232B96A7003A39B
:1031F300E06B603FE50875F017A4F8AAF0EA1261E6
:103203009AF8A3E0F97401120B3DE0687003A3E0A0
:10321300696020E50875F017A4F8EAF9747928FCC9
:10322300740939FD7403120B3DAA82AB83121EF499
:10323300E96014E50875F017A4F8A9F0747728FA83
:10324300740939FB1210BA05089024E6E493F8E5F3
:1032530008C39850030231CA1232A29024D41264D4
:10326300E15039EEF8EFF91232ABF47003A3E0F456
:1032730060E68518828519837401F0EEF8EFF9E8AA
:1032830075F012A4F875F012E9A42AF91232CA12E1
:103293000B3D1232D860C175080080AD023847EE8D
:1032A30024010EEF3400FF22E875F012A4F8AAF00F
:1032B30075F012E9A42AF91232BE2274FD28F582B0
:1032C300740739F583E02274FF28F58274073912F5
:1032D3004294740B22E8F0A3E9123973120BB6E996
:1032E30022C082C08390033D747AF0A3740EF090E1
:1032F300033F7474F0A3740EF09003437494F0A32B
:10330300740CF00236C574F712044CEAFEEBFF901E
:103313000377E06408601BE0640460168E828F8389
:10332300E054036401704812337F123D9BE064064E
:10333300703D8E828F83A3A3E064FE7003A3E0F449
:10334300602D8E828F83A3A31238E3900368E06815
:103353007003A3E069700BEE2415F582EF125F1A78
:103363006008120F28E9F5088008120F2E80F67501
:1033730008C2EEFAEFFB12179202281FEE123384F3
:1033830022240BF582EF3400F5832274F412044CEB
:103393008A088B098A828B83E0F8A3E0FAE82AFA89
:1033A300E43400FB12178C8A0A8B0BAE0AAF0BEEC8
:1033B3004F6060850882850983E0FC7D00790012F7
:1033C30016CC8E828F83A3A3126856120F6A8E8245
:1033D3008F83A3A3A3A312385C850882850983E0A6
:1033E300F8EE28F8EF34001238EB8508828509835C
:1033F300A3E0C0E01256E7D0E0F0120F7CEE240EFB
:103403001256EAE9124F06E0C0E0EE24111256EA22
:10341300D0E0F0EEFAEFFB024F1574F412044C7493
:10342300EB12096B8A088B098C0A8D0BE9FE90035A
:1034330077E064046005E06408700479C2802EA319
:103443007808120AFEEE90037E1236CC120AFE743E
:1034530005120B3DE9F07404120B3D7401F074077F
:10346300120B3DE4F0900377740212366074150278
:103473004F1274F612044C74EB12096BEAFEEBFF65
:10348300124B2960030235197A077B0012178C90BF
:10349300033912385C124B2960788E828F83120BAA
:1034A3001A90033A123D9E120B2612671AC0E012BD
:1034B3003525D0E0F0EE2405FAEF3400FB8A088BC3
:1034C300098A82F583E0C0E0123520D0E012353559
:1034D300E0C0E0123520A3D0E01238D0120B1A85D9
:1034E3001882851983120B2688828983E0C0E074D1
:1034F30005120B3DD0E0F0850882850983E0C0E02A
:103503007404120B3DD0E0F07407120B3D12365FCA
:103513008006791080027901741502313D12352538
:10352300A322900339E0FAA3E0F5838A82A3A3A33D
:10353300A322123CAB22C082C083124B29600D90A0
:10354300033912542C900339E4F0A3F0120E9812AD
:10355300105A0236C574F012044C74EB12096BEC6A
:10356300FEEDFF89087425120B3D780C120AE074F6
:1035730029120B3DE0F9742A120B3DE0FC742B1267
:103583000B3DE0FD740F697005740F6C60129006BB
:1035930021E06402700579C102365AE9C39C40F602
:1035A300900378780C120AFEE50890037EF0E99008
:1035B300037CF0ECA3F0ED90037FF074FF6A7003DB
:1035C30074FF6B701D900DF2E0F47003A3E0F470D0
:1035D300051216E4800C900DF2123824E8F0A3E9EA
:1035E3008007900375EAF0A3EBF0EE4F6017EEFA55
:1035F300EFFB12111AE96401700BEEFCEFFD7A89FF
:103603007B03121EFA900368E4F0A3F090036BF0BF
:10361300A3F0900388F0900621E064027008900301
:103623007C740FF0A3F09003777405F014120B3D34
:10363300E4F0900378120B1A851882851983120B14
:103643002690037EE0C0E07405120B3DD0E0F074D9
:1036530007120B3D12365F74150242A2E41239734E
:10366300121F2A22C082C083900338E07003121A0B
:103673004A120C5E804CC082C083900338E0900DE8
:10368300587004E4F0802D7401F0900338E0F46086
:10369300237C41E0C394415002E0FCECF8E0C39882
:1036A300F0EC75F0E8A4CCA8F075F003A428FD7A3B
:1036B300801242F87A587B0D7941121F128003124F
:1036C3000C04D083D0820208891238DB78082212D6
:1036D30036D622122A5FA322E0F508A3E0F50922D9
:1036E30074F512044C74E212096B851882851983F0
:1036F300ECF0A3EDF0EAFEEBFF89087429120B3D11
:10370300E0F509742C120B3DE0F50A900377E064B1
:10371300046005E06408700579C2023815742A1242
:103723000B3DE064FE7003A3E0F4700579C3023837
:1037330015900377740312396F7950121F12742A8C
:10374300120B3DAA82AB83794B121F128518828517
:1037530019831238241238F0E50890036AF0742AAA
:10376300120B3D12381D1238F0E50990036212382E
:103773002B74CE55094480C0E07412120B3DD0E087
:10378300F07401250A900388F0740F120B3D740244
:10379300F0742A120B3D1238E37407120B3DE8F064
:1037A300A3E91238627410120B3D1238F07405123B
:1037B3000B3DE508F0741B120B3DE4F090037D74A0
:1037C3000FF07A7D7B037954121F1290037C740FE0
:1037D300F07A7C7B037947121F1290037CE0C39439
:1037E3000F50237405120B3DE0C0E07402120B3D31
:1037F300D0E0F07404120B3D7401F004120B3DAAE7
:1038030082AB83121F367405120B3DAA82AB83125F
:103813001F18741E1208F10226E612429690036BDB
:103823002212429690037522F0EEFCEFFD7A897B1B
:1038330003121EFA2274F712044CEB90037FF0126A
:103843000E868005740D1208F17F01020665123899
:1038530057A3E0221238D0A322EAF0A3EBF02212FE
:1038630038D6F8A3E0F92274F712044C74F812095D
:103873006BEAFEEBFF7900900377E0640870448500
:10388300188285198374FDF0A374FFF0120F64741A
:1038930002120B3D12385C7405120B3DE4123857CB
:1038A300E0C0E07404120B3DD0E01238CBC0E074EA
:1038B30006120B3DD0E0F07407120B3DE412396F92
:1038C300120FA674080238491238D0E022F08E8213
:1038D3008F83221238DBE022F08518828519832238
:1038E30012429622E0F8A3E0F9EE123384E8F0A343
:1038F300E9F022C082C0839003497424F0A3740DBD
:10390300F09003EF7400F0A37410F090034D745A19
:10391300F0A3740DF090034F7424F0A3740DF09092
:1039230003517460F0A3740DF00236C574F41204ED
:103933004C74F912096B8A088B098C0A8D0B851854
:10394300828519837808120AFE7404120B3DE9F08C
:103953007405120B3DE4F07406120B3DE412396F4B
:10396300120C467407024F12E8F0A3E912397322CE
:103973001238DBAA82AB832274F412044C8A088BBC
:10398300098A828B8312585FEE4F7003023A849048
:103993000312124B2C60158A828B83A3A3E0F9EEEA
:1039A300FAEFFB900313123D9E1220E58E828F8364
:1039B300A3A3A3A3A3A3A3A3A3E0640270718E8212
:1039C3008F83A3A3A3A3A3A3E054027003023A56D5
:1039D300850882850983A3A3E064E960768E828FDC
:1039E30083A3A3A3A3A3A3A3A3A3A3E07014900DF2
:1039F300EAE0048E828F83A3A3A3A3A3A3A3A3A319
:103A0300A3F08E828F83A3A3A3A3A3A3A3A3A3A3A0
:103A1300E014123A877404F0900DEB1252B2E8F0FE
:103A2300A3E912637E8B0BEA450B7003125D518E83
:103A3300828F83A3A3A3A3A3A3A3A3A3E06402608E
:103A4300128E828F83A3A3A3A3A3A3A3A3A3E06440
:103A530006702E8E828F83A3A3A3A3A3A3E0A2E069
:103A6300501F850882850983A3A3E0F9EEFAEFFBD3
:103A7300121FC68E828F83A3A3A3A3A3A3E054FE26
:103A8300F0024F15123CABA3A3A32274EC12044C17
:103A930074DD12096BEAFEEBFF8C088D0974371293
:103AA3000B3D780C120AE0750A007405120B3DAC4D
:103AB30082AD8312201A7412120B3DE07008741544
:103AC300120B3DE060207405120B3DE0A2E6501E90
:103AD3008E828F83A3A3A3A3A3A3A3A3A3124FAFF6
:103AE300120FDCE960087903121EE2023C917405AF
:103AF300120B3DE0540C64047005750B01800375D3
:103B03000B00E0A2E55019750A01E50BA2E0401095
:103B130012685D124FAB121FD2E96004790480C8AA
:103B23007405120B3DE0A2E650227406120B3DE031
:103B3300540370187405120B3DE0540C640C600CB4
:103B4300E0540C640860057510018003751000745F
:103B530005120B3DE05403F8740268700C12685DA3
:103B6300124FAB120B50023C91740168703AE5108E
:103B7300A2E05003123C997405120B3DA882A9835D
:103B83007403120B3DE8F0A3E912428A851882857B
:103B93001983123CA3E0C0E07402120B3DD0E01283
:103BA300396F1220B6023C91E86003023C91900306
:103BB3005FE0640170108E828F83A3A3A3A3A3A3EA
:103BC300E07003023B1F7422120B3D740212428AFF
:103BD300741A120B3D1238F0E510A2E05008740578
:103BE300120B3D123C99E50BA2E0506AEE240FF54F
:103BF30082EF125F1AC0E07417120B3DD0E0F09011
:103C03000314124B2C7003023C91120F6A8A128B1D
:103C130013A812A913741A120B3DE0687003A3E0F2
:103C230069706B780C1208BC780A1208C8780812FD
:103C330008C4A910740C120B3DAC82AD837421121D
:103C43000B3DAA82AB83900314123D9B1220E574B3
:103C5300071208F18038780C1208BC780A1208C8D9
:103C630078081208C4900375120734EE2412F58203
:103C7300EF125C447423120B3DAC82AD83740E12BD
:103C83000B3DAA82AB83121FBA74091208F1742385
:103C93001208F102634912685D12543A1220142289
:103CA300E8F0A3E9123CAB22125D87A3A3A322741D
:103CB300F712044C12191E02384C74F712044C12FA
:103CC300192402384C74F712044C12193002384C80
:103CD300C082C08312192A0236C574F712044C122B
:103CE300193602384C74F712044C7409120B3DE078
:103CF300F50878081208C81219427401023849C03D
:103D030082C08312194E0236C5C082C08312195471
:103D13000236C574F712044C12195A02384C74F760
:103D230012044CEAFEEBFF890874016508701479EC
:103D330000120D9C9024F1E493FC7900EEFAEFFB62
:103D4300120D1202384C74F412044C74F912096BFC
:103D5300E9FE8A088B098C0A8D0B7413120B3D1232
:103D63004FAF900586124B2C6027EE85188285197C
:103D730083F07401120B3D7808120AFEEAF8EBF99E
:103D83007405120B3D12396B900586123D9B122070
:103D9300E5023966FB90034BE0F8A3E0F5838882E4
:103DA30022C082C0831219900236C574F712044CE4
:103DB300900D5BE0F97E00800B125F06540D6401E9
:103DC3007001190E123FA85003E970ED02384C74CC
:103DD300F712044C900D5CE0F97E00800B125F0635
:103DE300548D64817001190E123FA85003E970EDE0
:103DF30002384C74F212044C890BE975F006A424C2
:103E03000CF508E5F012312C8A0CE508250CFAE5CF
:103E1300093400FB12178C8A0C8B0DAE0CAF0DEE20
:103E23004F6027AC08AD0979001216CC12337FE539
:103E33000BF0EE2508F8EF3509F98E828F83A3A3E3
:103E4300A3A3A3A3A3A3A31238F0EEFAEFFB024D9F
:103E5300A174F612044CEAFEEBFF120CEE900D5A1D
:103E6300E0F8E9C3984009900345124FAF120CF4F0
:103E7300EE2402F8EF1255AF9003471254699003F2
:103E830047E004F0EEFAEFFB120CFA85088285098D
:103E930083E0025A5AC082C08379009003458001AF
:103EA30009124FAF8A828B83E582458370F2023613
:103EB300C574F712044CEAFEEBFFEE4F6056900315
:103EC30045124B2C604E888289837A007B00EE6515
:103ED300827003EF6583600FAA82AB83123F1AE5FA
:103EE300824583602F80E7900345123F2668700266
:103EF300EF698E828F8370081238E3900345800345
:103F030012635B1238F0EEFAEFFB122086EEFAEF43
:103F1300FB12179202384C123F1E2212429A8882D9
:103F2300898322124296EE22C082C0839003458089
:103F33000488828983124B2C600B888289831249FF
:103F430038EC4D70EC8A828B83E4F0A3F0E849608F
:103F53000688828983800390034512385C0236C544
:103F630074F712044C90034580048A828B83123FBA
:103F7300A34B60257E0080010E123FA850ECEE7526
:103F8300F006A4FCADF0EA2CFCEB3DFDEC2410F5AF
:103F930082ED123FF870E180047A007B0002384C16
:103FA30012543EEA22124001EEC3982274F712041F
:103FB3004C7D0080010D123FFDEDC3985034ED752B
:103FC300F006A4FEA8F0E8FFEA2EFEEB3FFFEE2486
:103FD30010F582EF123FF870DCED75F006A4FEE8F1
:103FE300FFEA2EFAEB3FFBEA2411F582EB125F1A8C
:103FF3004CF002384C125F266922124001221268EB
:1040030067EB3400F583E0F82274F612044C120EC9
:10401300147A007B008025EAF8EBF9E875F006A432
:10402300F8ACF075F006E9A42C125413126728A318
:10403300E4125509F0A312672E1268A59024DC122E
:104043002DAB40D37A007B00801C8A088B09740354
:104053007808120A20124ECDA374FEF0A304125264
:10406300F2A3E41268A59024E51240AB40DC7A0089
:104073007B00801D8A088B0974037808120A207458
:104083009F125B8E740C1263E074FEF0A30412683B
:10409300A59024EB1240AB40DB9024EFE493900314
:1040A30053F01240B5023140E493F8C3EA98EB941D
:1040B30000227CE87D037A107B009003C2E0F912B2
:1040C300184C2274F012044C74F512096B8A088B95
:1040D30009890A8C0BE9A2E050147508FC7509FFE5
:1040E300A2E15005D2E4024188D2E3024188124D95
:1040F3008D7003A3E06970057900024255AC0A791B
:1041030002AA08AB09120DF0E960EDE50AF50C7897
:104113000C1208C879027CFE7DFFAA08AB09124B7A
:10412300081208F1E96003024253E50AC2E5F50A01
:104133009003B5E07051E50AA2E6404B7403120BFD
:104143003DAC82AD83AA08AB09120B92E97032121F
:1041530044298A0C8B0DA80CA90DE8FEE9FFE84958
:104163006025EE24020A0AEF122A9D601AEE240249
:10417300FCEF3400FD7403120B3DAA82AB83121EC5
:10418300FAE50AD2E5F50A900348E0F50C900368D6
:10419300E0F50EA3E0F50F780E1208C47D017C0054
:1041A300900348E0F9AA0EAB0F120DA8740212088F
:1041B300F1E9F8900348E004F0E86003024253E5B4
:1041C3000AA2E55004740E80027406C0E074011262
:1041D3000B3DD0E01258708A0E8B0FAE0EAF0FEE70
:1041E3004F606912427312428A888289837401F094
:1041F3007478550AA312686DE50C12686DA3E5087F
:10420300F0E509124262E4F0E50AA2E5500F7403F7
:10421300120B3DAC82AD83E824061242598E828F85
:1042230083A3A374FDF0A374FFF0E50B6015902442
:10423300F2E493F8E50BC3985009EE24131256EAFF
:10424300E50BF0EEFAEFFB120C34800679108002D6
:1042530079C7740B8049FAE93400FB121EFA2288ED
:10426300828983A3A3A3A312426E221255E2A3223F
:10427300EE24171233867401F0120F64EE241A121F
:104283003386EAF0A3EB22F0126861340012429401
:1042930022F58312429A22E0F8A3E0F922740D1268
:1042A30008F17F0802066574F612044C7A007B104D
:1042B300125D5E60089003D47401F0802990062497
:1042C300E06401900DE87006E0FC79018004E0FCF5
:1042D30079037A007B00120D129024DA1242EC7AF1
:1042E300007B101242FA0231401242F022E493FCA6
:1042F300740193FD227B009003C2E0F91218462259
:1043030074EC12044C8A088B098C0C8D0D890E7485
:1043130014120B3D124CE77416120B3DE0F510A37B
:10432300E0F511120FDCE960077AFF7BFF024426F8
:10433300900621E0640260030244197900AA08ABE5
:1043430009120DF6A90E120DEA8A128B13AE12AFE3
:1043530013EE4F70030244018E828F83A3A3A3A3A2
:10436300A3E064018E828F83A3A37069124FAF8E83
:10437300828F83A3A3A3A3A3A3E054186043902431
:10438300F0E4938E828F83A3A3A3A3F0EA650C705A
:1043930003EB650D6014EA650A7003EB650B600AB5
:1043A300EA65107003EB6511701F78101208C4AC36
:1043B3000AAD0BAA0CAB0D1210D874021208F180CF
:1043C30008900367125D48A3F074FE6A700374FFDC
:1043D3006B601D804EA3A3A3E0640360298E828FCC
:1043E30083A3A3A3A3A3E0640470057AFE02432E70
:1043F3008E828F83A3A3A3A3A3E064027008900318
:10440300B4E0640270101244298B0BEA450B60067A
:10441300AA08AB09800DAA08AB09900349123D9B7A
:104423001220E5026349900375124B0E12109C2271
:1044330074F712044CEAFEEBFF120BE6E9700AEE86
:10444300FAEFFB120BF2E96006EEFAEFFB80047A57
:10445300FE7BFF02384C74F012044C8A0A8B0B8CDF
:104463000E8D0F8909750800120FDCE979006003CE
:104473000245D0AA0AAB0B120DF6A909120DEA8A5E
:104483000C8B0DAE0CAF0DEE4F60198E828F83A394
:10449300A3A3A3A3E0640270559003B4E064027085
:1044A300030245CEAA0AAB0B90034F123D9B122089
:1044B300E5120BF88A0C8B0DA80CA90DE8497003C3
:1044C3000245CE88828983A3A3A3A3A3E0A2E040ED
:1044D300030245CE750C01A2E150687901AC0AAD27
:1044E3000BAA0EAB0F120D42E970640245CE8E8209
:1044F3008F83A3A3A3A3A3E064037005750C0280B9
:10450300528E828F83A3A3A3A3A3E064016003025B
:1045130045CE9003751249388E828F831249248ABF
:104523000C8B0DA80CA90DE84960D19024E9E49304
:10453300FA88828983E0C39A50C2A3E060030245EC
:10454300CE80B988828983A3A3A3A3A3D2E1F0EE8B
:104553004F603A8E828F83A3A3A3A3A3A3E054182F
:10456300602B7508018E828F83A3A3120734750C09
:10457300FE750DFF780C1208C47900AC0AAD0BAAC6
:104583000EAB0F120E0874041208F1803E900368FC
:10459300E0650E7004A3E0650F70149024F1E493BA
:1045A300FCA909AA0AAB0B120D12750801801CA9FC
:1045B3000CAC0AAD0BAA0EAB0F120D42E9700C75D1
:1045C3000801A909AA0AAB0B120D9CA9080242A56E
:1045D30074EA12044C74F012096B8A0C8B0D8C086C
:1045E3008D097426120B3DE0F514A3E0F515751241
:1045F300069003F5124B2C6023900375124938AAD9
:1046030008AB091210C68A108B11EA4511600D8A96
:10461300828B83A3E07005790002490CE50C241D0D
:10462300F50EE50D3400F50F850E82124B18F513C8
:1046330088828983A3A3A3E0FA88828983A3A3A39F
:10464300A3E0F9EA2400FEE439FFAA08AB09120D3E
:10465300A2850E82850F83124956E029F50BE50AE0
:10466300A2E5500375120E7487550A701774185516
:104673000A6418600FE50C2417F582E50D125F1A22
:10468300651260077901121EE2808C530A78C3EE2B
:1046930094F8EF94FF501D7900EEFAEFFB124916E0
:1046A300601288828983A3A3A3A3A3A3E054186001
:1046B3000302461A78081208C47D001249491208F9
:1046C300F1E9F8740368700302461AE860030247CD
:1046D300857418550A700302483AE50AD2E0F50AD0
:1046E300A2E45004D2E1F50AA90A124FA81249160E
:1046F300605388828983A3A3A3A3A3A3E054186070
:104703004488828983A3A3A3A3A3E064017036E54D
:1047130010451160309003751249388882898312DD
:1047230049248A0E8B0FA80EA90FE84960178882C7
:104733008983A3E0600F851082851183A3125A65D4
:10474300500302461AE50AF50E780E1208C81249FC
:104753003C1208F1E9702B7C007D008514828515DD
:104763008374FFF0A3F0850C82850D83A3A3A3A319
:10477300A3A3A3A3E0600312492DA90B124FA81210
:104783001948851482851583E0F47003A3E0F4606F
:10479300399003B4E06402700302461A124CD8E065
:1047A300FAA3E0123D971220E5EA65087003EB6572
:1047B30009600302461AEEFAEF123D971220E585CF
:1047C3001482851583EAF0A3EBF078081208C47D00
:1047D300011249491208F1A90AEEFAEFFB120DF68C
:1047E3008A088B09A808A909900368E0687003A3E5
:1047F300E06960030248FDEEFAEFFB120BF88A084A
:104803008B09A808A909E849606E88828983A3A354
:10481300A3A3E06401600D88828983A3A3A3A3E01B
:1048230064027054851882851983AC82AD83EEFAD5
:10483300EFFB120B928055900361E0600FE50AF5E0
:104843000E780E1208C812493C1208F1E50AF50E5B
:10485300780E1208C879027CFE7DFFEEFAEFFB1298
:104863004B081208F1E96003024785851482851518
:104873008374FFF0A30247CC120F64EAFCEBFD85BF
:104883001882851983AA82AB83121EFA850C82854E
:104893000D83A3A3A3A3A3A3A3A3E06401700F1297
:1048A300492D7408120B3DAA82AB83121EFA124AD9
:1048B300E21256F14430F50878081208C874011260
:1048C3000B3D85820885830978081208C4740B128E
:1048D3000B3D85820885830978081208C4E513F522
:1048E3000878081208C87900EEFCEFFD124FA812F1
:1048F3000D3C74061208F102461A124AE21256EDF2
:10490300124956E50BF0120F7C74101208F17F0E5A
:10491300020665120DEA8A0E8B0FA80EA90FE8494D
:1049230022A3A312543E1210C622E50C2415F582CD
:10493300E50D1233891252CC227901AC08AD09126C
:104943005433124B0822AC0BA913125433120DA883
:104953007402221256F9A3A3A3A32274F012044CE7
:1049630074F012096B8A0C8B0DECFAEDFB750F08D2
:104973009003F5124B2C6014125A5E8A828B83E5E6
:104983008245836007A3E07003024ADD124AE234E2
:1049930000124B18F50B88828983124AEBE0FBEC7B
:1049A3002400FEE43BFF88828983A3A3124AEBA37E
:1049B300A3E0FBECF508E43BF50988828983A3A314
:1049C300A3A3A3A3A3E0F50EE50AA2E45003750F86
:1049D30010A2E550067408250FF50F748F550A7061
:1049E3000FE50C2417F582E50D125F1A650F6008B9
:1049F3007901121EE2024ADD530A707800E50AA229
:104A0300E45022124AE2125F1A2408FCA3E03400A5
:104A1300FD7408120B3DAA82AB83121EFA7808E5D7
:104A23000AC2E4F50AE50AA2E55028124AE2125F37
:104A33001A28F8A3E03400F9E82408FCE93400FD5F
:104A4300851882851983AA82AB83121EFAE50AC2EE
:104A5300E5F50AAC0EA90BEEFAEFFB120DAEE9F881
:104A63007403686075900368E06E7003A3E06F6081
:104A73005EE87054E50AF50F780F1208C8124AF978
:104A83001208F1E97054780A1208C87401120B3D38
:104A930085820C85830D780C1208C4740B120B3DB0
:104AA30085820C85830D780C1208C4E50BF50A7812
:104AB3000A1208C8A90EAC08AD09EEFAEFFB120DF5
:104AC3003C74061208F18012740468700D80B77884
:104AD3000A1208C8124AF91208F174100242A2E538
:104AE3000C241DF582E50D22A3A3A3E0FC88828993
:104AF30083A3A3A3A3227901124CDF123389124BA0
:104B03000E124B0822120D66740122E0FCA3E0FD95
:104B1300AA08AB0922F583123F1EA3E0F50A888297
:104B23008983A3A3E02290033912549A2274E812D2
:104B3300044C74F512096BEAFEEBFF8C088D0989AE
:104B4300147423120B3DE0F50F7424120B3DE0F5B2
:104B530012A3E0F5137426120B3DE0F516A3E0F55E
:104B6300177428120B3DE0F50EA90F120DB48A102D
:104B73008B117401120B3D7408F0E50EA2E450038F
:104B83007410F0E50EA2E55004E02408F0851882C5
:104B9300851983AA82AB83120FC48A0C8B0DEA4555
:104BA3000D7003024CBFEA2417F582EB124CD112AD
:104BB3000F64E50C241AF582E50D1256ED12385CEC
:104BC3007403120B3DAC82AD83AA10AB11120B928E
:104BD300E9601D124CC97403120B3DA882A983E539
:104BE3000C2418F582E50D1256EDE8F0A3E98024B4
:104BF300E50EA2E4501FE5106E7003E5116F70150A
:104C0300124CC9E50C2418F582E50D1256EDE51298
:104C1300F0A3E513F0124CD8124CE7850A82F58312
:104C23007402F0A3E50E124CEFE50FF0EE850A8255
:104C3300850B83A3A3A3F0EF850A82850B83A3A32C
:104C4300A3A3124CEFA3A3A3E508F0E509850A8209
:104C5300850B83A3A3A3A3A3A3F0AA10AB11120DE7
:104C6300A2E92514850A82850B83A3A3A3A3A3A387
:104C7300A3F0750800E50EA2E45011AC12AD13E5E4
:104C83000A2408FAE50B12425B750808E50EA2E553
:104C93005014AC16AD17E50A2508F8E50B3400F9F6
:104CA300E82408124259850C82850D83A3A3E510DD
:104CB300F0A3E511F0AA0CAB0D120C34740B12081F
:104CC300F17F10020665E50C2416F582E50D12331B
:104CD300897401F022124CDF12338922E50C126829
:104CE30068E50D22E0F50AA3E0F50B22F0850A82C0
:104CF300850B83A3A32274F212044C8A088B09EC5C
:104D0300FEEDFF890A7900124D8D7003A3E06970EF
:104D13000479018073750B01900368E065087004E2
:104D2300A3E06509601F750B00780B1208C8A90A78
:104D3300EEFCEFFDAA08AB0912101874011208F17A
:104D4300E9F50B80417900EEFAEFFB120DEAEA4B2D
:104D5300602B8A828B83A3A3A3A3A3A3E05418602D
:104D63001C7508FE7509FF78081208C48A828B83B4
:104D7300A3A312073412667D1208F180097901EEAC
:104D8300FAEFFB120CC4A90B8014120DF68A0C8BDC
:104D93000DA80CA90D900368E068221208F17F06A4
:104DA30002066574F412044C7508E775090A7A1053
:104DB3001263858B0BEA450B70031240B5900353C6
:104DC300E014F0700C9024EFE493900353F0120E70
:104DD300027E007F00806C850882850983A3A3A3DC
:104DE300A3E06059F46056E5082404F582E509124E
:104DF3005D427049850882850983A3A3A3A3A3E029
:104E030064037019790285088285098312493885FC
:104E13000882850983A3A3124FAF120D428508822E
:104E2300850983A3A3A3A3A3E0640160108508827B
:104E330085098374FEF0A304124EFFE4F01232A23C
:104E43001231249024DE1264E1408C7E007F0080C6
:104E530039120F0A8E088F0974037808120A207416
:104E63005F2508FC740C3509FD7A4E7B0D120EF894
:104E7300EA4B70DD8E088F0974037808120A20123A
:104E83004ECD126728E4F01232A29024E5E493F8A1
:104E9300C3EE98EF9400501B8E088F0974037808B3
:104EA300120A20124ED5E82407F582E9125D4270FA
:104EB300D680A17E007F00800A124EE0600214F0CB
:104EC3001232A21264DE40F18048124ED5888289E4
:104ED3008322745F2508F8740C3509F922EEF8EF84
:104EE300F9E875F006A4F8AAF075F006E9A42AF922
:104EF30074FF28F582740B39F583E022124F06A361
:104F0300A3A322F0850882850983A3A322740D122B
:104F130008F17F0402066574F712044C74E1120968
:104F23006BECFEEDFF750800EE4F60728A828B8397
:104F3300E0241C125D73124B2C60638A828B8312F4
:104F43004FAF851882851983AC82AD83EA241BF5A4
:104F530082EB125C44EA241CF582EB124FAB120F76
:104F63004C740B120B3D124FB37003A3E069702E08
:104F73007402120B3DE064017024741D120B3D1288
:104F83003D9BE064017017741D120B3D123D9DA300
:104F9300A3E0F88E828F83E0687003750801A90887
:104FA300741F023849124CDF3400F58312543E2239
:104FB300122A5BE0682274F412044CE9702479002D
:104FC30090034D123D9B1220E58A0A8B0BAE0AAF6C
:104FD3000B74FE6E700374FF6F701A9024ECE493ED
:104FE3006013790190034D123D9B1220E58A0A8BD1
:104FF3000BAE0AAF0B120F8802341674F612044C70
:1050030074F312096B1216E48A088B09AE08AF0910
:10501300900368E06E7003A3E06F60E9120F70EA1B
:105023006E7002EB6F60DEEEFAEFFB120FDCE970DD
:10503300D4EE4F60D0851882851983E4F004120BF7
:105043003DEEF0A3EF125061E970BA74FE6E700387
:1050530074FF6F60B0EEFAEFFB740D02313D12394D
:1050630073120BAA22C082C083120F880236C57F37
:105073000A02066574F212044CEAFEEBFF8C0A8DF9
:105083000B8908740E120B3DE0F50974FC6E700376
:1050930074FF6F70057900024DA17900120DF68A35
:1050A3000C8B0DAE0CAF0D900368E06E7003A3E0A4
:1050B3006F7006E509A2E650DCA90912656B706101
:1050C30079007AFE7BFF12656B7056741855097070
:1050D300030251AE780079008003122C559024DE30
:1050E300122C4C40030251AEE8FAE9FBEA75F007D3
:1050F300A4FAACF075F007EBA42CFB74ED2AF5824F
:10510300740A3BF583E0541870D0E875F007A4F8EF
:10511300AAF075F007E9A42AF974E728F8740A39A4
:10512300F988828983A3A3A3A3A3A3E054186009E6
:1051330074185509700302509888828983EEF0A38E
:10514300EFF074FE650A700474FF650B600312527E
:10515300D288828983A3A3A3A3A3A3E509F0A2E032
:10516300500D88828983A3A3A3A3A3A3D2E2F074DF
:1051730001650888828983A3A3A3A3A3703874015C
:105183001252F2E0541860289024F0E49388828944
:1051930083A3A3A3A31252C01210C68B0DEA450D1D
:1051A3006003025098780079008039790202509A9E
:1051B300900367E080D7E06401700302509888820F
:1051C3008983A3A3A3A3A3A3E0541860079024F0A7
:1051D300E4938004900366E0124262E508F0025013
:1051E30098122C559024E6E493FAC3E89AE99400C4
:1051F30040030250987A007B00804BEAFCEBFDEC05
:1052030075F007A4FCAEF075F007EDA42EFD74E96C
:105213002CF582740A3DF58312585FE8FCE9FDEC36
:1052230075F017A4FC85F00975F017EDA42509FDA9
:1052330074772CF58274093DF583E06E7003A3E067
:105243006F609E1231779024DE12313440AD1242EA
:10525300ECEC6A7002ED6B7088E875F017A4F8AA9D
:10526300F075F017E9A42AF9747728FE740939FF59
:105273007C177D007900EEFAEFFB1216CC8E828F3D
:10528300831252D89003751252B2A3A3A3A3A3A36C
:10529300E8F0A3E91252B87401F0EE240E1256EAB4
:1052A30074011252E01202FB1256E7E80251E012B7
:1052B30036D6A3A322F0EE240F12338622F0125225
:1052C300C9AA0AAB0B22900375E0FCA3E0FD228878
:1052D300828983A3A3E50AF0A3E50BF022F09024CF
:1052E300E9E4932401F8E43400F97A027B00221202
:1052F300426EA32274ED12044C8A088B09890E12A4
:10530300541C400579050253F1121996AA08AB09FA
:105313001254EE9024DC1253F4650A7003E9650B12
:1053230070077AFE7BFF1254EE9024DC125EF9E5DF
:105333000B9940030253EF1253F96012E50A75F01B
:1053430006A4F875F006E50B125444121792E50E05
:105353006018E50A75F006A4F8AAF075F006E50BE7
:10536300125470701A79010253F1E50A75F006A41C
:10537300F8AAF075F006E50B125451E4F0A3F0E53A
:105383000A75F006A4F8AAF075F006E50B1254119D
:10539300A312570788828983A3AA82AB8312545F1F
:1053A3008A828B83E060411253F9603C8E108F1127
:1053B30075120078101208C0E50EC333FCE433FD08
:1053C300E50A75F006A4F50AA8F075F006E50BA446
:1053D30028F50B7403250AF582740C350B124FADB7
:1053E3001216C074031208F179008002790702656E
:1053F30081122DCCE822E50A75F006A4F8AAF0750F
:10540300F006E50B12544CF8A3E0F9E84922A42A6C
:105413001255A588828983A322ECFEEDFF9024E731
:10542300E493F8E9C39822F58312543E12179222AB
:10543300E50C126868E50D3400F583E0FAA3E0FBA0
:105443002212544CFAA3E0FB22125451E022A42A64
:10545300F9740328F582740C39F58322E50EF09074
:105463000DE912546922E088828983F0221255C91A
:10547300F50CE93400F50DE50EC333FAE433FB1202
:10548300178C850C82850D83EAF0A3EBF0850C82E3
:10549300850D8312549A2212429AE8492274F41217
:1054A300044CECFEEDFF740C120B3D1238E388083C
:1054B30089091254EEAC0AAD0BECF8EDF99024DC3B
:1054C3001254F65021E875F006A4F8AAF075F00618
:1054D300E9125411E08E828F831255091254FF1280
:1054E30038F0790080027904024F15120D788A0A88
:1054F3008B0B22123145C3EC9AED9B221242968507
:105503000882850983221255DE2274F612044C7E2A
:10551300007F008028EEF8EFF9E875F006A4F8ACF8
:10552300F075F006E9A42CF9740128F582740C12C5
:10553300618C6A7003A3E06B60571232A21264DEBF
:1055430040D31264D97002E96F704674FE6A700327
:1055530074FF6B703C7E007F0080031232A21264E2
:10556300DE502E124EE070F3EEF8EFF9E875F00618
:10557300A4F812559B1255D060171255B7F8E912CB
:1055830055AF888212542A850882850983E4F0A3E3
:10559300F0EEFAEFFB02314075F006E91255A32253
:1055A300A42AF974FF28F8740B39F9223400F98816
:1055B30008890922EEF8EFF9E875F006A4F875F00A
:1055C30006E91255C9221255A3E8240422A3A374A1
:1055D300FE1255DB12549A22F0A3041255E222F074
:1055E30088828983A3A3A3A32274F612044CEA241A
:1055F3001DF582EB1256F1F9604BEA241DF582EB9F
:10560300125F1A2402FCA3E03400FD12542040036D
:105613000256DA780080298C828D83E0F508A3E0B6
:10562300FFE5082400E43FF509E833FEE433FF74A3
:10563300472EF582740C3FF5831257071256DD0887
:10564300E8C39940D28A828B83A3A3A3A3A3A3A372
:10565300A3A3124938900368E06C7003A3E06D7054
:105663000F7C477D0C1229C4124FAB120D6C80675F
:10567300EA2411F582EB125F1A605CFC74FF2CF0D4
:1056830075080178081208C875084775090C780869
:105693001208C4E9F50878081208C8EA2412F5824A
:1056A300EB125F1AF50878081208C8EA2415F58288
:1056B300EB1256ED120734ECF91229C41249358A5C
:1056C300828B83A3A3A3A3A3A3A3A3A3124FAF126A
:1056D3000D8474071208F1023140EC24020C0CED26
:1056E3003400FD22EE240DF582EF123389221233AA
:1056F300891256F9E022E0F8A3E0F5838882A32219
:1057030088828983E508F0A3E509F02274EA12048C
:105713004C74FD12096B8A148B158C0E8D0F890D39
:105723007419120B3D12585F741B120B3DE0F511F7
:10573300741C120B3DE0F50C741D120B3D124CE76B
:10574300741F120B3DE0F5106008E50CC33324040D
:1057530080027402C0E07401120B3DD0E012587055
:105763008A088B09EA450970030258508A828B83A1
:10577300A3A3E514F0A3E515126374E50EF0A3E506
:105783000FF0EA2413F582EB1256EDE50DF0EA244F
:1057930014F582EB1256EDE511F0EA2417F582EBCE
:1057A300125F1A64017040120F6A8A0E8B0FA80EE3
:1057B300A90F850882850983A3A3A3A3E0687003C7
:1057C300A3E0696022EE4F6011E508241AF582E533
:1057D300091256EDEEF0A3EF800CE5082417F582CD
:1057E300E5091256EDE4F012585512585F8E828F78
:1057F300837405F0A3E5107004E50C80487401255B
:105803000C1258697A008028850A82850B83E0127E
:105813005865850A82850B83A3E08E828F83F0E52A
:105823000A2402F50AE50B3400F50BA30EAF830A35
:10583300EAC3950C40D2120F6AEA125865120F6A36
:10584300EB8E828F83F0AA08AB09120C3474030227
:10585300490E1229D512338922900334E0FEA3E0C6
:10586300FF228E828F83F0A3AE82AF83221239731D
:10587300120FC422C082C083E9C333FCE433FDEAC0
:105883002CFAEB3DFBEA24FEF582EB34FF124FAD1D
:105893000236C574F212044C89098A0A12541C4058
:1058A300047900804075080080020508E508C39567
:1058B30009502AE508C333F8E433F9EE28F582EFFB
:1058C30039F583C082C083120F6A8A0C8B0DD08393
:1058D300D082E0650C7004A3E0650D70CDE50A6528
:1058E3000870BE7901024DA174F012044C74F312D6
:1058F300096B8A088B098C0A8D0B890C750D0012B4
:105903000FDCE9790060030259EDAA08AB09120D17
:10591300F6A90C120DEA8A0E8B0FAE0EAF0FEE4FE7
:1059230070030259EB8E828F83A3A3A3A3A3A3E0E7
:10593300A2E240030259EB120F6AEA650A7003EB15
:10594300650B7011780D1208C8E4F50EF50F780E8B
:105953001208C48044AA0AAB0B120BECE964017071
:10596300688518828519837404F07401120B3D1243
:1059730052D8851882851983AA82AB83120BAAE9B0
:1059830064017045750D01780D1208C8E4F50EF534
:105993000F780E1208C4750D00780D1208C8780D23
:1059A3001208C87408120B3D85820E85830F780E8A
:1059B3001208C49024F2E493F9AC0AAD0BAA08AB25
:1059C30009120D8474071208F18E828F83A3A3A397
:1059D300A3A3A3E0A2E1400D8E828F83A3A3A3A37D
:1059E300A3A3C2E2F0750D01A90D0242A074F61241
:1059F300044CE9FE7900120DF6EEF9120DEA8A085D
:105A03008B09A808A909E84960061268AFF9800262
:105A1300790402314074F612044C7E0790035CE073
:105A23007034125A5E8A088B09A808A909E84960EC
:105A330025900361E0640188828983A3A3700B121C
:105A43005A65888289835001A3A3E0F91210E4E91F
:105A5300FEEE70027E07EEF90231401252C91210B7
:105A6300C622E0FA88828983A3E0C39A2274EE12E5
:105A7300044CEAFEEBFF890A8C0C8D0B7412120B9B
:105A83003D1236DB125B3A1254235051890E750FC7
:105A9300007403780E120A207465250EF582740CC7
:105AA300350FF583E0F8E50CC398502DE50B602422
:105AB30075110074037810120A20745F2510F874AE
:105AC3000C3511F988828983A3A3A3A3A3A3E50CAF
:105AD300125B44F07900025072790380F979007AFD
:105AE300FE7BFF125B3AE49365107004790280E653
:105AF300E50B60E0890E750F007403780E120A201F
:105B0300745F250EF8740C350FF988828983A3EE30
:105B1300F0A3EF125B441252F2E50C12426A74FFD7
:105B230012672EE50AF0900366E088828983A3A3B7
:105B3300A3A3A3A3A3809C120DE4E9F5109024E58D
