:020000040000FA
:06000000020AD802020012
:03001300020223C3
:03002B00020913B4
:03003B0002027846
:0300530002013176
:03007B000220EE72
:100083000201950101FF01010503010F10FEFF7439
:10009300137413741374132A1224127413FF21009C
:1000A300000000C322000000000C0000000C00014F
:1000B300060A10100000901500000000000044160E
:1000C30000000000000000000000FFFF0000D8183F
:1000D300D2180000F0001E00000000000000000025
:1000E30000000000000000000000000000FFFF020D
:1000F30000000000000000000000010001010100F9
:100103005105000000C605E80364006400B801025D
:100113000200000200050207051E02051E0A0A036B
:10012300B80B02803E010213020114020206C0E072
:1001330074F21204C0A2AFE433FED2AFE5A7FFE529
:10014300A1F5085F54106006121CB075A1EFE50815
:100153005F54086008121CB675A1F7802BEFA2E06C
:10016300C0D0E508A2E092F0120A15158182F05082
:1001730017906198E0F8900796E0C398A2D265D0F3
:10018300335002E8F075A1FEEEA2E092AF7F0102C8
:100193000577C0E074F21204C0A2AFE433FED2AF1D
:1001A3009061A4E0F8759B00E591585408600875C8
:1001B30091F7121CF8802AE5915854106008759144
:1001C300EF121CFE801BE8A2E0C0D0E591A2E092F2
:1001D300F0120A15158182F05007E0C2E0F0121EFA
:1001E3003C9061A3E0F8E5E9585404600E121E1236
:1001F30075E9FB906193E0A2E640F2808BC0E07466
:10020300F21204C0A2AFE433FED2AF9061A5E0F8CE
:10021300E5BF585404600675BFFB121E5402018BE0
:10022300C0E0C0D0E8C0E0E9C0E0C082C083E5C15F
:10023300C0E0900702E0F8748128F5827406340068
:10024300F583D0E0F0900701E0F8A3E0687006E5DD
:1002530095900704F0900702E004F0C394804002F5
:10026300E4F0A374C6F0D083D082D0E0F9D0E0F8F4
:10027300D0D0D0E032C0E0C0D0E8C0E0C008C009B0
:10028300C082C083900785E0F8A3E0687008539AA2
:10029300FBA374018026C2E9900785E0F508740189
:1002A3002508F074052508F58274073400F583E00A
:1002B300F5C1900785E0C394804002E4F0D083D079
:1002C30082D009D00880A6C3E498F8E499F9120310
:1002D3000B8026C3E49AFAE49BFBE920E7E91203C7
:1002E3000BE498F8E499F922C3E498F8E499F91235
:1002F300030BE498F8E499F9C3E49AFAE49BFB222C
:10030300EB20E7CFE920E7E0B90010BB0008E88A5B
:10031300F084F8AAF022E4FBC8FA22EB70227B10E7
:10032300C833C8C933C9335007C39AC3DBF2800645
:100333009A50012ADBEAC833F4C8C933F4C9FA2254
:1003430075F008E4C833C8C933C933C99AC99B5087
:1003530004C92AC93BD5F0ECFBC833F4C8E4C9FA95
:1003630022080808EAC0E0EBC0E086F0E7A4FA1828
:100373000986F0E7A42AFA180986F0E7A42AFA18EE
:100383000986F0E7A42AFA1986F0E7A4FBE5F02A28
:10039300FA190886F0E7A42BFBE5F03AFA19088668
:1003A300F0E7A42BFBE5F03AFA18180986F0E7A466
:1003B300C5F02BFBE43AFA1908E7C5F0C6A426F604
:1003C300E5F03BFBE43AFA1886F0E7A4F6E5F0081B
:1003D30026F6E43B08F6E43A08F6D0E0FBD0E0FA70
:1003E30022E4CFC0E0E4CEC0E0E4CDC0E0E4CCC082
:1003F300E075F020C3E633F608E633F608E633F695
:1004030008E633F6181818EC33FCED33FDEE33FE33
:10041300EF33FFC3EC9709ED9709EE9709EF9719AF
:100423001919400FFFEC97FC09ED97FD09EE97FEB4
:10043300191906D5F0BEECF709EDF709EEF709EF48
:10044300F7191919D0E0FCD0E0FDD0E0FED0E0FFB1
:10045300222518C582C0E0E51934FFC583C0E0E555
:1004630018C3958224F810AF0885831985821880F4
:1004730008858319858218D2AFCEF0A3E520F0A3B7
:100483007808E608F0A3DEFAEFF0A3E58124FAF892
:10049300E608F0A3E608F0A3E608F0A30808E608D8
:1004A300F0A3E608F0A315811581D0E0FED0E0F8B3
:1004B300158115811581E8C0E0EEC0E022C0D0258A
:1004C30018C582C0E0E51934FFC583C0E0E518C351
:1004D300958224F310AF08858319858218800885D7
:1004E3008319858218D2AFC8F0A3E9F0A3EAF0A379
:1004F300EBF0A37908E709F0A3D8FAECF0A3EDF049
:10050300A3EEF0A3EFF0A3D0E0F0A3D0E0F0A3D0EC
:10051300E0F0A3E520F0A3E5F0F0A322120B3AB933
:100523000003020561E49003017854790B8002F023
:10053300A3D8FCD9FA900D54AA82AB839000867895
:10054300AC79018015E493A3AC82AD838A828B835B
:10055300F0A3AA82AB838C828D83D8E9D9E7758215
:10056300297583F4740312088B75820675832174CD
:100573000012088B851983851882E0C0E0A3E0F997
:10058300A3E0FAA3E0FBA37808E0F608A3DFFAE010
:10059300FCA3E0FDA3E0FEA3E0FFA3E0C0E0A3E033
:1005A300C0E0A3E0F5D0A3E0F520A3E0A3F5F010AD
:1005B300AF08858319858218800885831985821879
:1005C300D2AFD082D083D0E0F8D0E0320975F010FA
:1005D3008E1A8F1B85821F85831E8518828519833A
:1005E300E0CEA3E0CF851F82851E83EBC9EAC8ED69
:1005F300CBECCAC3E833C8E933C9EA33CAEB33CB1C
:10060300C3EA9EF51DEB9FF51CB35004AB1CAA1D5A
:10061300EC33CCED33CDD5F0DAAE1AAF1B22D08359
:10062300D082ECC0E0EDC0E0E493A3FCE493A3FD2F
:10063300ED4C600D1206F9EC24FFFCED34FFFD8058
:10064300EFE493A3FCE493A3FDED4C600D12079636
:10065300EC24FFFCED34FFFD80EFD0E0FDD0E0FCA7
:10066300E493A3C0E0E493C0E02285198385188254
:10067300E0A3FEE0A3F5207808E0A3F608DFFAE0A4
:10068300A3FFE0A3C0E0E0A3C0E0E0A3C0E0E0A3D9
:10069300C0E0E0A3C0E010AF08858218858319800D
:1006A30008858218858319D2AFD083D0820208913E
:1006B300D083D082E9C0E0E493A3C386F0C5F0956C
:1006C300F0F908E493A386F0C5F095F0700BE4937A
:1006D300A3C3994005E9048002A3E475F002A425AD
:1006E30082F582E5F03583F583D0E0F9E493A3C086
:1006F300E0E493C0E022C0E0C3E49396087401935E
:100703009618400FE4936670080874019366187096
:10071300007019A3A3C3E49396087401939618A3D6
:10072300A3400DD0E0D0E0D0E002065DA3A3A3A3D5
:10073300A3A3D0E0227404800474028000CCC0E040
:10074300EDC0E0E518C39CCCAD1950011D10AF06F8
:100753008C188D1980068C188D19D2AF12080DD004
:10076300E0FDD0E0FC2274028000CCC0E0EDC0E0EC
:10077300E518C39CCCAD1950011D10AF068C188D24
:100783001980068C188D19D2AF1207EBD0E0FDD07B
:10079300E0FC22C0E0C0F088F0E4936670080874BF
:1007A300019366187000A8F0A3A3700BD0F0D0E0FB
:1007B300D0E0D0E002065DA3A3D0F0D0E022D08346
:1007C300D082CCC0E0E493A3600612082E1470FA22
:1007D300E493A3600612095D1470FAD0E0FCE4937D
:1007E300A3C0E0E493C0E022CAC0E0E493A3C582BF
:1007F300CCC582C583CDC583F0A3C582CCC582C5D4
:1008030083CDC583DAE5D0E0CA22CAC0E0E0A3C540
:1008130082CCC582C583CDC583F0A3C582CCC582F6
:10082300C583CDC583DAE6D0E0CA22C0E0E493A352
:10083300D39C5010E493A3C39C400AD0E0D0E0D0F3
:10084300E00207DEA3A3A3D0E022C008C3E096F52D
:100853000808A3E096420808A3E096420808A3E02C
:100863009645087001D3D008227009080808226051
:1008730016181818C6C333C608C633C608C633C607
:1008830008C633C6D5E0EA22C09FF59FE473D09F24
:1008930022D083D082C09FE493C0E0740193C0E070
:1008A300740293F59F222518F58210AF08F51840BE
:1008B3000215198008F51840021519D2AF8519835E
:1008C300227404800A74038006740280027401C0D7
:1008D300E0F4041208A9D0E0120B1522BB0102E7D1
:1008E30022C082C08389828A83BB0003E08002E442
:1008F30093D083D08222C0D0251810AF08F51850AA
:100903000205198008F51850020519D2AFD0D0227C
:10091300C0E0C0D0E8C0E0E5A8D2AFC2C7A2E7926A
:10092300AFD0E0F8D0D0D0E0326016080808C6C3D4
:1009330013C618C613C618C613C618C613C6D5E001
:10094300EA22C3E0C696F608A3E0C696F608A3E03B
:10095300C696F608A3E0C696F622C0E0E493A36C1D
:100963007009D0E0D0E0D0E00207DEA3A3D0E022FC
:10097300251810AF08F518400215198008F518401E
:10098300021519D2AF22E76670100809E766700AEC
:100993000809E76670040809E76622C3E09608A31E
:1009A300E09608A3E09608A3E096A2D265D033228E
:1009B300E066701008A3E066700A08A3E06670049E
:1009C30008A3E06622C3E096F008A3E096F008A32C
:1009D300E096F008A3E096F022E026F008A3E036C4
:1009E300F008A3E036F008A3E036F022E627F60885
:1009F30009E637F60809E637F60809E637F622E08E
:100A030026F608A3E036F608A3E036F608A3E03698
:100A1300F622C0E0E8C0E0E58124FCF8E6A2E7D0D6
:100A2300E0F8D0E022700422600D18C6C333C60874
:100A3300C633C6D5E0F41822E657F60809E657F69A
:100A43000809E657F60809E657F622E056F608A322
:100A5300E056F608A3E056F608A3E056F622E05661
:100A6300F008A3E056F008A3E056F008A3E056F020
:100A730022E647F60809E647F60809E647F60809B5
:100A8300E647F622E4C396F608E496F608E496F6FB
:100A930008E496F622C3E7960809E7960809E7965D
:100AA3000809E79622C6F4C608C6F4C608C6F4C603
:100AB30008C6F4C622600D08C6A2E713C618C613FB
:100AC300C6D5E0F322C3E09608A3E09608A3E09618
:100AD30008A3E0962275D000758140751801751939
:100AE300030002051FE0F608A3E0F608A3E0F608FA
:100AF300A3E0F622600C08C6C313C618C613C6D5F6
:100B0300E0F422E6F008A3E6F008A3E6F008A3E683
:100B1300F022CAC0E0E6F0A308DAFAD0E0FA22E055
:100B2300FAA3E0FBA3E0FCA3E0FD22EAF0A3EBF0D1
:100B3300A3ECF0A3EDF022E5C754F84401F5C7791F
:100B430001222518F582E43519F58322C2AF75D643
:100B53009F0200002212089407E40212089425E47D
:100B6300021208941E2500120894302500120894DE
:100B7300822500120894E325001208946D260012C2
:100B830008941127001208946527001208947E2701
:100B930000120894A42700120894DF270012089477
:100BA3002328001208944A28001208949B28001254
:100BB30008944B2900120894032A00120894CB2AA4
:100BC300001208948B2B00120894CF2B0012089468
:100BD300F42B00120894372C00120894842C001272
:100BE3000894FA2D00120894802E001208949E2E69
:100BF30000120894C82E00120894E22E00120894E2
:100C0300F12E00120894FC2E00120894BC2F00123F
:100C13000894153000120894D73000120894DF307E
:100C230000120894733100120894DF310012089403
:100C33000A33001208941B3300120894A0330012E5
:100C430008942F34001208948734001208944B350B
:100C53000012089472350012089484350012089427
:100C6300D735001208941436001208942136001266
:100C730008949F3700120894F43800120894263918
:100C830000120894B23900120894EB390012089448
:100C9300373A001208944A3B001208946E3D001242
:100CA3000894793D00120894843D001208948E3D07
:100CB30000120894993D00120894B33D0012089461
:100CC300BD3D00120894C73D00120894D23D0012A6
:100CD3000894FA3D00120894553E00120894793E98
:100CE300001208949D3E00120894FB3E00120894E3
:100CF3003F3F001208945B3F00120894D23F00125A
:100D030008940A4000120894564000120894B34015
:100D1300001208946D410012089451430012089484
:100D2300AA4300120894DA44001208940045001202
:100D330008947A4600120894054A00120894D74B87
:100D430000120894A04D001208944D4E001208940E
:100D5300C14F00120894605000120894A55000126D
:100D630008940F51001208941E51001208949E53C8
:100D730000120894475500120894B45500120894C1
:100D8300935600120894B657001208941E59001285
:100D930008943D5900120894925900120894975AE6
:100DA30000120894BF5A00120894175B00120894AB
:100DB300F65B001208943A5C00120894855C0012FA
:100DC3000894F05C00120894355E00120894995E52
:100DD30000120894E75F001208944E620012089410
:100DE3007F62001208943764001208948C64001226
:100DF30008949065001208942D6600120894866684
:100E030000120894396700120894DB6700120894F3
:100E13007B6800120894206900120894F78101127C
:100E230008943682011208947D8401120894C784C1
:100E330001120894E2850112089452860112089463
:100E4300878601120894FB87011208947E8A011297
:100E53000894A78B011208945A8C01120894B69433
:100E6300011208944B9501120894329801120894C8
:100E73002B99011208948C9901120894A89A0112D3
:100E830008948D9C011208949E9E01120894F69E6C
:100E930001120894C89F011208947FA001120894BC
:100EA30089A001120894B7A00112089474A1011239
:100EB30008944BA20112089412A301120894C4A32C
:100EC30001120894EDA3011208940FA401120894CF
:100ED30065A6011208943DA70112089481A7011287
:100EE3000894E9A701120894A1A801120894D3A8B1
:100EF3000112089417A9011208944DA9011208942C
:100F030099A901120894EEA901120894F3A90112F8
:100F1300089446AA011208946BAA011208947AABAA
:100F230001120894DEAB011208944EAC011208942E
:100F3300DAAC01120894A7AF011208948BB0011226
:100F430008940EB20112089444B401120894F2B446
:100F530001120894A2B501120894E3B70112089490
:100F630086B801120894CDB80112089479BA011217
:100F730008948DBA0112089497BA01120894BFBA63
:100F830001120894CBBA01120894EABA0112089428
:100F9300CFBC0112089406BD0112089410BD0112C2
:100FA300089446BD0112089495BE01120894D9BE57
:100FB3000112089481BF0112089464C001120894BD
:100FC3000FC1011208945BC20112089459C30112A4
:100FD3000894FFC301120894A0C401120894B7C473
:100FE30001120894EEC401120894F8C40112089483
:100FF30003C50112089421C50112089465C50112A5
:101003000894C2C501120894E7C50112089401C6E9
:10101300011208948DC601120894AAC701120894FC
:1010230006C801120894EDC80112089414C90112EC
:10103300089488C90112089403CA0112089407CBC3
:1010430001120894FDCB01120894ACCC0112089450
:10105300BFCD011208945BCE01120894DDCE0112BC
:101063000894BBCF01120894F3CF011208944BD01C
:101073000112089414D10112089435D10112089475
:10108300BCD101120894E0D10112089402D20112DA
:1010930008944BD20112089461D40112089444D5E8
:1010A30001120894F5D5011208942BD80112089463
:1010B3007BD801120894BBD801120894FDD8011201
:1010C300089459D90112089487D901120894ABD90D
:1010D30001120894FED9011208942CDA0112089423
:1010E30065DA01120894BADA0112089420DB0112BE
:1010F30008948ADC01120894ADDE011208941ADF09
:101103000112089443DF01120894CEDF0112089400
:1011130035E00112089480E001120894A4E0011262
:101123000894C8E00112089423E1011208943EE1F7
:1011330001120894F7E101120894B9980412089473
:10114300F89804120894788002120894BE80021260
:1011530008949E8102120894A08202120894A38329
:10116300021208942F85021208948D8502120894A6
:101173004A8602120894688702120894D9870212D9
:1011830008941588021208946388021208946D88E3
:1011930002120894B188021208940D89021208946D
:1011A300A88902120894258A02120894F48A02126A
:1011B30008948D8B02120894AD8B02120894E38B72
:1011C30002120894148C02120894D58C021208940B
:1011D300E58C02120894398D02120894548D021280
:1011E3000894668D021208946F8D02120894C98DBB
:1011F30002120894258E02120894718E021208942A
:101203008C8E02120894BD8E02120894DA8E02129A
:101213000894E68E021208945A900212089473906E
:1012230002120894DA9002120894ED9002120894C4
:10123300FB9002120894AF91021208949392021247
:1012430008949993021208942394021208942D94FB
:10125300021208949A9402120894B1940212089408
:10126300E394021208941C95021208944695021204
:101273000894A79502120894C79502120894E5955D
:10128300021208942B9602120894519702120894A2
:101293009E9702120894CD97021208944398021263
:1012A30008946B9802120894A49802120894B298B6
:1012B300021208940A990212089459990212089486
:1012C300989902120894C89902120894F499021288
:1012D3000894FF99021208941D9A02120894DF9A47
:1012E30002120894E99A02120894249B02120894A9
:1012F3003A9B021208948F9B02120894A39B02123A
:101303000894A09C02120894B39C02120894C89CEF
:10131300021208946A9D02120894ED9D0212089429
:10132300AB9E02120894B69E02120894E29F021228
:101333000894FE9F0212089450A0021208948FA0F2
:1013430002120894A4A00212089406A1021208949F
:1013530095A102120894E0A10212089431A402128A
:101363000894AFA40212089424A50212089446A775
:10137300021208945EA70212089461A7021208944D
:101383006DA70212089481A70212089489A702127A
:101393000894BCA7021208946CA802120894E2A84D
:1013A3000212089455A90212089409AA0212089479
:1013B300BEAA02120894DDAA021208947DAB02129F
:1013C300089489AB02120894B4AB02120894B7AB29
:1013D3000212089421AC0212089449AD0212089437
:1013E30021AE02120894ACAE02120894C5AF0212E9
:1013F300089482B002120894BBB002120894ECB0B5
:1014030002120894AAB102120894DAB102120894E3
:10141300B5B2021208944EB302120894D9B3021261
:1014230008948AB4021208940DB5021208943FB5C9
:101433000212089480B50212089462A90312089458
:10144300C7A903120894FFA9031208944EAA031212
:10145300089470AC0312089453AE03120894B1B10C
:1014630003120894E6B10312089408B20312089415
:101473006DB203120894A3B203120894C6B2031206
:101483000894F3B2031208944FB303120894509DC7
:1014930003120894D19D03120894079E0312089423
:1014A3006E9E03120894E19F03120894FD9F03129A
:1014B300089442A003120894D0A00312089429A10F
:1014C300031208945DA2031208942BA30312089439
:1014D300A3A3031208941FA40312089461A4031284
:1014E3000894A2A403120894D6A503120894D4A6C0
:1014F30003120894FFA6031208944AA70312089440
:1015030091A70312089423A803120894DCA80312DA
:1015130008942297041208945B82041208946C8244
:10152300041208948F82041208949B820412089474
:10153300B68204120894FC820412089427830412CE
:101543000894448304120894BD8304120894E68328
:1015530004120894808404120894A3840412089447
:1015630091FE03120894A2FE03120894F3FE0312E1
:10157300089438FF03120894E2FF03120894A7D7D4
:10158300021208945B8C04120894B38D041208941D
:101593009BB30312089442B40312089462B4031277
:1015A300089489B4031208949DB403120894F5B403
:1015B3000312089425B503120894A6B603120894DF
:1015C3004CB7031208942EB8031208947FB8031281
:1015D3000894C2B803120894D3E2021208946BB9B8
:1015E300031208948CB90312089418BA03120894CE
:1015F30040BA03120894B4BA0312089462BC0312EB
:1016030008943CBD0312089496BD03120894EA881B
:10161300041208940B89041208943C8A0412089457
:10162300668A04120894B991041208943992041238
:1016330008944492041208946D920412089413912E
:1016430003120894169103120894D091031208947C
:10165300FB910312089442920312089467920312B7
:101663000894889203120894BC9203120894F5928A
:10167300031208941E9403120894559403120894B9
:10168300759403120894109503120894D5950312C8
:1016930008940C96031208948197031208942498D3
:1016A300031208941D99031208944699031208948F
:1016B3009A9903120894609A031208948E9A03125B
:1016C3000894239C03120894A49C03120894D79CA7
:1016D30003120894AABD03120894B4BD031208941C
:1016E30000BE031208946EBE031208948FBE031249
:1016F3000894A6BE0312089456BF03120894EAC1C5
:1017030003120894F3C10312089446C20312089407
:101713006FC203120894D6C20312089467C303125C
:101723000894A9C303120894F3C30312089452C480
:10173300031208947EC4031208940FC5031208947D
:101743004EC5031208948DC503120894C2C5031233
:101753000894D4C503120894E6C50312089428C656
:101763000312089431C603120894EAC603120894BC
:101773002AC70312089453C703120894F0D903121B
:101783000894C3DA03120894DDDA03120894EEDA3C
:101793000312089403DD0312089422DD0312089454
:1017A300BA7D00120894F07D00120894397E00126D
:1017B3000894897F001208946C6900120894AB6A3C
:1017C30000120894E76A00120894A66C00120894A9
:1017D300CF6C00120894626F00120894A66F001277
:1017E30008942F7100120894C771001208942F7285
:1017F30000120894D0720012089412730012089415
:10180300527300120894DD74001208944D7600128E
:101813000894727800120894A07800120894C7788C
:1018230000120894D078001208942B7900120894BF
:10183300BE7900120894DC7C001208945D7D0012CE
:101843000894539A04120894699A0412089494ED24
:1018530003120894A7ED0312089444EE03120894AC
:101863007FEE031208949AEE03120894BFEE03125C
:10187300089404EF0312089435EF0312089466EFFB
:1018830003120894ECF0031208948890041208944D
:10189300C590041208940791041208941791041236
:1018A3000894AC9104120894B6910412089497F525
:1018B30001120894DFF50112089411F7011208943C
:1018C300F3F701120894F0FA01120894DAFC0112FA
:1018D3000894A9FD01120894D2FD0112089436FF61
:1018E300011208940080031208944580031208949F
:1018F3002E8103120894C7810312089411820312E4
:101903000894738203120894CC8203120894AE8461
:10191300031208942B850312089455850312089427
:101923004E8703120894698703120894B887031239
:101933000894CE8703120894DB87031208940B885C
:10194300031208942488031208943388031208941A
:10195300918803120894EB88031208943D890312BB
:101963000894508A03120894BD8C03120894EB8CDC
:1019730003120894798D03120894DA8D03120894E4
:10198300DF8D031208941B8E031208948C8E0312AE
:101993000894348F03120894598F03120894638FA9
:1019A30003120894668F03120894D58F03120894C8
:1019B300F08F031208940390031208942F900312DC
:1019C30008946A90031208946D9003120894A990E6
:1019D30003120894BC9003120894E3900312089432
:1019E3006B980412089483980412089480F70212E7
:1019F3000894CFF70212089471F9021208942FFB8E
:101A03000212089477FB0212089499FC02120894BC
:101A1300CAFD02120894ECFD0212089448FE021259
:101A23000894CAFE021208944CE40212089477E464
:101A33000212089464E502120894E9E5021208947C
:101A430052E6021208949EE6021208941DE702125F
:101A53000894AFE7021208943BE8021208947DE869
:101A630002120894E9EC0212089469EE0212089437
:101A7300A8EE0212089489EF021208948CEF021266
:101A8300089440F00212089475F102120894D6F3F8
:101A93000212089462F40212089487F50212089461
:101AA30066F602120894E8F60212089431E2011273
:101AB3000894EBE2011208945DE3011208946CE3CD
:101AC30001120894E6E30112089455E40112089404
:101AD3005CE50112089485E50112089425E60112DC
:101AE300089473E601120894E3E6011208949CE952
:101AF3000112089473EA01120894E0EA01120894AF
:101B03005DEC0112089411ED01120894BFED01126E
:101B130008941AEE0112089485EE0112089485EFD9
:101B2300011208945FF10112089472F201120894F1
:101B33000BF3011208947DF30112089443F401128C
:101B43000894819A04120894839A04120894B48422
:101B530004120894E584041208949F8504120894DF
:101B6300058604120894768604120894C1F40312BD
:101B730008948FF603120894B79504120894C89535
:101B830004120894689604120894A38A0412089411
:101B9300B18A04120894EC7F00120894A1970412EE
:101BA3000894B19704120894C997041208941198E1
:101BB30004120894FEFE0212089483FF0212089492
:101BC300E7FF02120894FD7F0012089472E20312E9
:101BD300089487E20312089478E303120894B9E3A4
:101BE30003120894D5E30312089455E403120894EE
:101BF3006EE503120894D4E503120894F8E5031282
:101C03000894F9F00312089407F10312089481F180
:101C13000312089459F203120894E4F3031208948C
:101C230030FC031208947EFC031208941BFD03127C
:101C33000894C6FD03120894DEFD031208945AFEAD
:101C43000312089470FE0312089483FE031208948F
:101C53009DD003120894F2D003120894EED203121B
:101C6300089420D30312089442D3031208945BD33D
:101C73000312089474D3031208947ED403120894B5
:101C830019D503120894028E04120894278E0412A5
:101C93000894378E041208946A8E041208949B8E5B
:101CA30004120894D08E04120894328F04120894FC
:101CB300418F041208944B8F041208943AF70312CD
:101CC300089460F7031208949DF703120894ACF785
:101CD30003120894CBF70312089433F80312089401
:101CE3003CF8031208949BF803120894BFF80312FC
:101CF30008947EF9031208948BF9031208949CF953
:101D0300031208948C9904120894A9990412089454
:101D1300C1DE031208941FE0031208942CE003129F
:101D230008943FE0031208945EE00312089474E001
:101D33000312089488E0031208940BE10312089439
:101D43006EE103120894F5E10312089453E20312BF
:101D5300089463E203120894899604120894AD96DA
:101D630004120894D59604120894FD96041208945C
:101D7300CAF903120894F1F90312089412FA031230
:101D8300089477FA031208940080041208941980C7
:101D930004120894258004120894398004120894CC
:101DA3005780041208946180041208946B80041213
:101DB30008947E8004120894CF800412089408814A
:101DC300041208943781041208948581041208943C
:101DD300D48104120894EF8104120894F981041247
:101DE30008940A82041208945082041208941A98E0
:101DF300041208945CC70312089488C7031208945A
:101E0300A4C703120894B7C703120894CDC70312DB
:101E1300089439C8031208946CC8031208949BCC25
:101E230003120894C1CD03120894F4CD031208944D
:101E330040CE0312089479CF03120894A1CF031262
:101E43000894B6CF03120894C6CF031208940AD09D
:101E5300031208945FD0031208946FD003120894FE
:101E6300558F04120894708F04120894998F0412EA
:101E73000894B38F04120894D88F04120894F78F30
:101E8300041208940F90041208943D9004120894CD
:101E930057900412089448990412089414EA031200
:101EA30008941BEA0312089427EB0312089457EBD8
:101EB300031208947DEB03120894A0EB0312089419
:101EC300C2EB03120894FCEB0312089462EC0312B6
:101ED30008949BEC03120894E7EC0312089414EDA6
:101EE3000312089434ED031208940A870412089429
:101EF300228704120894088804120894E7880412BD
:101F03000894D992041208944B9304120894899369
:101F130004120894CA9304120894DF9404120894D8
:101F230046E60312089465E603120894B4E6031226
:101F33000894D0E60312089401E70312089411E70A
:101F4300031208941EE7031208942BE70312089464
:101F530017E80312089455E8031208945FE8031284
:101F630008946FE9031208947AE9031208948CE940
:101F73000312089495E9031208949FE90312089445
:101F830058D50312089478D90312089486D90312FA
:101F93000894029904120894FE9904120894C899AB
:101FA300041208942B9A04120894E1FF0112089476
:101FB30070D602120894C4D5021208940AD40212ED
:101FC3000894BAD10212089441D102120894E8D0BD
:101FD3000212089478D0021208944FD00212089487
:101FE3002FCE02120894FBCD02120894C8CD021220
:101FF3000894ACCD02120894BBCC0212089473CCA3
:1020030002120894BECA021208943ECA021208942D
:102013003BCA021208943BC90212089409C902126E
:10202300089446C80212089471C60212089427C67F
:102033000212089430E202120894E3E002120894B8
:102043008EDE021208942EDE02120894E6DD0212DE
:102053000894F9C502120894F6C502120894E3C560
:10206300021208948EC50212089458DD02120894D5
:102073007DC50212089473C40212089409C40212A3
:102083000894B7C3021208944BDD0212089405B9F1
:102093000312089458C30212089427C30212089427
:1020A300EFBF02120894AFBF02120894A3BF02123B
:1020B300089403BF0212089443BE02120894C5BBDE
:1020C3000212089456B90212089414B90212089421
:1020D300E8B7021208949DB702120894DCB6021204
:1020E30008941FB602120894EFB502758A00C2EB7A
:1020F30032120894B5B50212089445DA0212089414
:10210300EC930400000080FBE47300013636010108
:10211300000102010001030100010401060605029A
:102123000000070100340801000F090401010D013B
:1021330000FF0E08000017020000190100FF1A013A
:1021430000011B0100FE1C0100081D0200001F010D
:10215300000120010001210200002301000F2402DD
:1021630000002601000127010008280200FF2A01C0
:1021730000072B0102402C0100002D0100012E015C
:1021830000012F0100FF30010B1C310800003A0150
:1021930000083B01000F2F01000003027102300110
:1021A30060021102700201020202020280021002A6
:1021B30061023A0041006302730272026202430247
:1021C300000213023800000200020402120200029D
:1021D30000020002000204020402370037003C023E
:1021E30044020002390000020002650200023502C7
:1021F30081020002050282028302000203007100D1
:10220300300160001100700031022003500480008F
:10221300100061000000140063007300720062008C
:102223004300000013000600000000000400120039
:102233000000000000000000040004003700370025
:102243003C024400000000000000000065000000A4
:102253003500810000000500000083000000030436
:1022630071040204600411047004020402040104F2
:10227300020410046104000414046304730472046C
:102283006204430400041304060400040004040469
:102293001204000400040004000451046400000458
:1022A3000004000444040004000400040004650462
:1022B300000435048104640005040004830400045D
:1022C300010371030103010301030103010322035A
:1022D30002030103100300030003000300030003D0
:1022E3000003000342030003240306030003000367
:1022F3000403120325032303250323030403040315
:10230300000300030003440300030003230300034B
:102313006503210035038103000305030003000364
:1023230000030101710101010101110101013101E9
:10233300010101018001100161013B0014006301EF
:1023430073017201620143010001130106013D01A2
:102353003500040112010001000100010001040124
:102363000401330133013C01440132013600000111
:1023730000016501000135008101000105018201B1
:102383008301000136000100060000000F00000079
:102393000000000000000000000003FFFF00000435
:1023A30003FFFF0000FFFF0FF4010005C404032037
:1023B300000100000B000000000000000003010FFB
:1023C3000000E81A1300881A0100E81A0200401AF4
:1023D3000300461A04004C1A0500521A06005E1A3E
:1023E30011007C1A1400821A1500701AFFFF0000F6
:1023F30001640E068E0E08880E0BA60E10E00D0269
:102403006A0E057C0E07700E0C460E0D580EFF006B
:102413000003EAF5E5D5D5C5B5A59595858575750B
:10242300656555554545353525251515058412B47E
:10243300128A129012AE12A2129C12BA12C012C6C3
:1024430012D21296127E12781200160F00000B158C
:102453000B020002220F32000006741386138C1342
:102463004E1292134812541288118211BE11C411D4
:10247300B8117011D413F213F813DA13E613E0133F
:10248300303016181920231A1C1E300C0E020B04B0
:102493000B0A0708000F00383C3E363B3B352B4305
:1024A3002C303017181921301B1D1F30000119164D
:1024B3001816161523030000034948424D18172523
:1024C3000502C81398139E13AA13A413A812CC12BF
:1024D300EC13D812DE120204020101010109029475
:1024E300119A118E11CA11000000000000A011B250
:1024F3001100BE040A0E00150004007F00E8030C5F
:10250300002800000000000308100C0A030809005B
:10251300040001FF1E1E0C05040F08C082C0838A3D
:10252300828B83E0D2E7F012199E0235D0C082C0BD
:102533008379001229EA125794C082C0839003342E
:102543001249DFD083D082C3E09CA3E09D500C12DC
:102553005FC5FAA3E01225616001090235D0FBEAE9
:1025630075F00BA4FAA8F075F00BEBA428FB90030D
:1025730036E02AF8A3E03B8882F583E0540F227407
:10258300F712045489081229EA122A90ACF075F064
:102593000BE9A42CF9900336E028FEA3E039FF747D
:1025A30001650860067402650870208A828B8312B5
:1025B3002A7C1239AC74026508701B12293B122A5B
:1025C300C370138E828F83E4F0800BEA2403FCEB49
:1025D300122A5E122A6AEEFAEFFB120B6402390822
:1025E30074F41204541268F379008E828F83E060CE
:1025F30076890A890B8065E50A75F00BA4FAA8F0C1
:1026030075F00BE50B12256E7046E50A75F00BA409
:10261300F8AAF075F00BE50B122AA28E828F83E0E5
:10262300850882850983122B84850882850983A303
:102633001239ACEE2403FCEF122A671233911253C2
:102643007FAA08AB09120B647901900334124D8EF3
:10265300E50A2401F50AE50B3400F50B122943E5DD
:102663000A9AE50B9B4090024FBC74F5120454EA9E
:10267300FEEBFF740B120B45123797750A01EC4DF5
:10268300602BEC12690FED1257941239A3790112E2
:102693000B70E5084509606F850882850983A312DD
:1026A30068FD7902AA08AB09120B70805AE5084548
:1026B30009602B1258FC123FCD123392122AAD70CF
:1026C3000CEEFAEFFB120B76E9F50A80CBEE24034E
:1026D300FA1229E570317903EEFAEFFB80CA8E8294
:1026E3008F83A3E064FE7003A3E0F4700BEE240376
:1026F3000A0A0A1229E5700CEEFAEFFB120B76E9CF
:10270300F50A8003750A00A90A7F0302066D74F7B0
:10271300120454900334123918EA4B602FEA75F00F
:102723000BA4FAA8F075F00BEBA428FBEAFEEBFF71
:102733001217AC900336123918900336124BD3603C
:1027430012EEFCEFFD79001216E68007900336E4E3
:10275300F0A3F002390890033412433DC3EE98EF1F
:102763009922C082C083EC4D6005121F1480097C3E
:10277300087D0079001216E60235D074F61204546F
:102783007900EA4B601878008808125C34EB125F1A
:10279300C160047901780808E8C3940840EA02316B
:1027A3006674F712045474F3120973ECFEEDFF859B
:1027B3001882851983E4F004120B45EAF0A3EB12A7
:1027C30051087403120B45AC82AD83EEFAEFFB1292
:1027D3000B88EEFAEFFB120B8E02390374F7120427
:1027E3005474F3120973ECFEEDFF85188285198387
:1027F300E4F0EAFCEBFD7403120B45122B7D74012C
:10280300120B4512399F8E828F831239AC74FE6886
:10281300700374FF6960047901800279000239034F
:1028230074F7120454EAFEEBFF1228817014122885
:102833008C8E828F83E0F4F88A828B83E058F012C7
:102843000B64A90802390874F7120454EAFEEBFF7B
:102853007508008E828F83E06022122881701D121A
:10286300288C8A828B83E08F838E82F8E058700CE9
:10287300E0F88A828B83E048F0120B6480C4120B69
:102883006AE9F5087401650822126908122A94128C
:1028930029D6FAA3E039FB2274F41204548A088B74
:1028A300097C007D0012293B122A6A1229FB126857
:1028B300FA7900850882850983A3E064FE7003A387
:1028C300E0F460717E007F008062EEFAEF12256112
:1028D3006057EEFAEFFBEA75F00BA4FAA8F075F077
:1028E3000BEBA428FB900336E02AF50AA3E03BF5A3
:1028F3000B850882850983A3125056850A82850BAE
:1029030083A3E06A7003A3E06B701EE50A2403FA55
:10291300E50B1229E6700AE50A2403FCE50B122AEB
:10292300671229EF79011259031232C8122943EEB3
:102933009AEF9B4095024FBCEA24030A0A0AEB2252
:102943009003341254E5C32274F31204548A088B9F
:10295300098A828B83A31268FD1229EA1268FA7529
:102963000C0012293B1229E670547E007F00804937
:102973001229C8FAA3E0398A82F583E0540F60363E
:102983001229C8F50AA3E039F50BE50A2403FCE58F
:102993000B122A713400FB121F0EE96401701785B4
:1029A3000A82850B83A31255A6A31239AC1229EF11
:1029B300750C011259031232C812275940B2A90CDF
:1029C3007F0502066DEEF8EFF9E875F00BA4F81237
:1029D30029D622AAF075F00BE9A42AF9900336E070
:1029E3002822EF122ABD2212690EEB221229FB12B2
:1029F300339BEEF0A3EFF022E50812690FE50922FD
:102A030074F5120454EAFEEBFF8E828F83A31268DF
:102A1300FD7C007D00EE24030A0A0AEF122A6AEE07
:102A2300FAEFFB120B6AE9F50A7401650A702912C1
:102A33006908122A90AAF075F00BE9122AA28508F8
:102A430082F583122A7C122AAD700DE5082403FC5B
:102A5300E509122A5E122A6A02270A3400FDEE24CF
:102A630003FAEF22122A713400FB120B882234007E
:102A7300FDE5082403FAE50922A3122A8122122A7A
:102A83008522E0F8A3E0F98E828F83A322122A9491
:102A9300223400F583124341E875F00BA4F82212A7
:102AA30029DCF508A3E039F50922E8F0A3E9F0E50C
:102AB300082403FAE509122ABD22122AC36401225B
:102AC3003400FB120B8EE92274F312045474E612E1
:102AD30009731268F3750C01750800750900750A0E
:102AE30000750B00851882851983E4F0EE2403FC3E
:102AF300EF3400FD7403120B45122B7DE964017062
:102B030023740B120B451239A37401120B45125097
:102B13005A7003A3E0696051851882851983858201
:102B230008858309740D120B45E4122B84740E126D
:102B33000B451239AC740D120B45AA82AB83120BF1
:102B4300ACE96401700B740D120B4585820A858311
:102B53000B780A1208CCAC08AD09EEFAEFFB120BA6
:102B63007C74021208F9E9F50CEEFAEFFB120BA6DE
:102B7300A90C741A1208F90229C3122E6E120BB291
:102B83002212391312433D22C082C0837800790098
:102B93008003122C7B122943E89AE99B5029E8FA17
:102BA300E9FBEA75F00BA4FAACF075F00BEBA42C7F
:102BB300FB900336E02AFCA3E03B8C82F583E054D0
:102BC3000F70CF7900800279010235D0C082C083B3
:102BD3009024FA124393EC75F012A4FCA8F075F05C
:102BE30012EDA428FD79FF7AFC7B071216E6023565
:102BF300D074F7120454E9FEEAFF7A007B007800F0
:102C030079008028E8FCE9FDEC75F012A4FC85F05E
:102C13000875F012EDA425081230AEC39E400AE0F9
:102C2300FCEFC39C400312319D122C7B1230A24057
:102C3300D3023908C082C083780079008003122C44
:102C43007B122C6F501F1230B2F470F2E875F01241
:102C5300A4F8AAF075F012E9A42AF974FC28FA740E
:102C63000739FB80047A007B000235D09024FA12E6
:102C7300316BC3E89AE99B22E8240108E93400F99F
:102C83002274F012045474F31209738A0A8B0B8CA6
:102C93000C8D0D8908EC450D6016AA0CAB0D120CBA
:102CA300008A0E8B0FAE0EAF0FEE4F6003022D4264
:102CB300120BD68A0E8B0FA80EA90FE8FEE9FFE8C8
:102CC30049607C902508122DC26022740365086058
:102CD300067404650870167A047903120BD09025E4
:102CE30008122DD940077A007B00022DBF902506DC
:102CF300122DC2601B7401650860067402650870BA
:102D03000F7A027901120BD0902506122DD950D6D5
:102D13008518828519837401F0120B4512537FAC19
:102D23000CAD0D7403120B45122E67740B120B4579
:102D330012378E123D5FE41253671210C88004EEFF
:102D43004F6068780074FF2508C394045002780428
:102D53008E828F8312537F8E828F83A3A3A3A3E5D7
:102D630008F0E88E828F83A3A3A3A3A31253871231
:102D73000303E88E828F83A3A3A3A3A3A3A3A31216
:102D83003B437401123B43A3F0EE2410125791E42A
:102D9300F0A3123547A3F0123391E4F09081E512CA
:102DA3000B22EE240C125791120B2E122DC7400545
:102DB300900D58E4F0120FA2EEFAEFFB0243471214
:102DC300549B49227A047900120BD09024FA125FA3
:102DD300A7EA98EB9922122DF27583247582FAE4FF
:102DE30093C398F8A3E49399F9C3EA98EB9922E47F
:102DF30093F8740193F92274F212045474F31209D0
:102E0300738A088B09ECFEEDFF750A00EEFAEFFBFF
:102E1300120C008A0C8B0DA80CA90DE849603E88A2
:102E2300828983E065087004A3E06509602F8882C6
:102E33008983A3A3A3A3E0C3940550211257AA85B2
:102E430018828519837401F0120B451257AEEEFCFC
:102E5300EFFD7403120B45122E67750A01A90A745C
:102E63000D024E45122E6E120BBE22AA82AB8312A6
:102E73000B88851882851983AA82AB832274F61284
:102E83000454122EBC600FA3A3A3A3E014C39404A1
:102E9300500479018002790002316674F6120454F9
:102EA300122EBC600FA3A3A3A3E014C39402500487
:102EB300790180027900023166120BFA8A828B83D0
:102EC300E58245832274F6120454122EBC600BA3D0
:102ED300A3A3A3E07004790180027900023166C0E4
:102EE30082C083EAFCEBFD7A007B000235CDC08211
:102EF300C0837C007D000235CD74F412045474F356
:102F0300120973EAFEEBFF8C0A8D0BC3EC94F8ED08
:102F130094FF4007EE4F7003022FB5750800750943
:102F230000802E8518828519837401F01232F01205
:102F33000B451232FE60137403120B45AC82AD8352
:102F4300EEFAEFFB121F0EE97049E5082401123176
:102F53004E9024FAE412622FE50898E5099950523D
:102F6300E50875F012A4F8AAF075F012E509A42A91
:102F7300F9125FDA60D4EE4F70A974FF650A70042A
:102F830074FF650B60C41232E0650A7004A3E06548
:102F93000B70B7E50875F012A4F508A8F075F012E8
:102FA300E509A428F50974FC2508FA74073509FB1B
:102FB30080047A007B00024FB774F412045474F354
:102FC300120973750800120C008A0A8B0BAE0AAF44
:102FD3000BEE4F602A851882851983740112390D0F
:102FE300F8A3E0F9740B120B45123A27120BA07CDD
:102FF300127D0079FFEEFAEFFB1216E67508011257
:103003002DC75009900D587401F0120FA2A90802A0
:103013004FB774F7120454E9FE74FE6A700374FF29
:103023006B7800790070058052122C7B1230A2500D
:103033004AE8FCE9FDEC75F012A4FCAFF075F01260
:10304300EDA42F1230AEF460E0E8FCE9FDEC75F07E
:1030530012A4FC75F012EDA42FFD74FC2CF5827400
:10306300073DF583E06A7003A3E06B70BC8009122F
:1030730030B214C394044017122C7B122C6F5018D7
:10308300EE70EC1230B264016005E0640370E91283
:1030930032D1FAA3E0FB80047AFE7BFF0239089069
:1030A30024FA124397C3E89CE99D221231D222E805
:1030B300FAE9FBEA75F012A4FAACF075F012EBA48E
:1030C3002CFB74002AF58274083BF583E022120C72
:1030D300120235D0C082C083790180F274F01204E9
:1030E300548A0A8B0B7A047901120BD08A0C8B0D4C
:1030F300EA450D603EEAC333FAEB33FB1217AC8AA1
:10310300088B09AE08AF09EE4F60237AFE7BFF12EE
:103113000C1874FE6A700374FF6B601B850882854C
:103123000983123918E508240212314E80E1750C27
:103133000080047E007F00850A82850B83E50CF006
:10314300EEFAEFFB02434CE5082407F508E50934E2
:1031530000F509229024FA124397C3EA9CEB9D22BF
:103163001208F97F0202066DE493FA740193FB22BD
:10317300C082C0837A007B0080041912319D123112
:103183005750101231BCC3940550F0E970EC123162
:10319300A680047A007B000235D0EA24010AEB34CE
:1031A30000FB22EA75F012A4FA75F012EBA428FBD7
:1031B30074FC2AFA74073BFB22EAFCEBFDEC75F086
:1031C30012A4FCA8F075F012EDA4281231D222FD4E
:1031D30074002CF58274083DF583E02274F7120421
:1031E3005474F31209737E007F00023284E508757C
:1031F300F017A4F8A9F0126242FAA3E0FBEEF8EF8D
:10320300F9E875F012A4F8ACF075F012E9A42C12E9
:1032130032DF6A7003A3E06B603FE50875F017A423
:10322300F8AAF0EA126241F8A3E0F97401120B451F
:10323300E0687003A3E0696020E50875F017A4F85F
:10324300EAF9747828FC740939FD7403120B45AA52
:1032530082AB83121F0EE96014E50875F017A4F81A
:10326300A9F0747628FA740939FB1210D405089072
:10327300250CE493F8E508C39850030231F01232A9
:10328300C89024FA1265885039EEF8EFF91232D15A
:10329300F47003A3E0F460E6851882851983740152
:1032A300F0EEF8EFF9E875F012A4F875F012E9A45E
:1032B3002AF91232F0120B451232FE60C175080072
:1032C30080AD023903EE24010EEF3400FF22E875CE
:1032D300F012A4F8AAF075F012E9A42AF91232E464
:1032E3002274FC28F582740739F583E02274FE28E2
:1032F300F58274073912433B740B22E8F0A3E912F9
:103303003A2F120BB8E922C082C08390034174762E
:10331300F0A3740EF00235D074F7120454EAFEEBF6
:10332300FF900377E06408601BE0640460168E82FC
:103333008F83E0540364017048123391123E4CE0D2
:103343006406703D8E828F83A3A3E064FE7003A3A3
:10335300E0F4602D8E828F83A3A312399F900368BC
:10336300E0687003A3E069700BEE2415F582EF1299
:103373005FC16008120F30E9F5088008120F36802C
:10338300F67508C2EEFAEFFB1217B2022845EE12E9
:10339300339622240BF582EF3400F5832274F41262
:1033A30004548A088B098A828B83E0F8A3E0FAE845
:1033B3002AFAE43400FB1217AC8A0A8B0BAE0AAF6D
:1033C3000BEE4F6060850882850983E0FC7D007900
:1033D300001216E68E828F83A3A31268FD120F726A
:1033E3008E828F83A3A3A3A312391885088285092C
:1033F30083E0F8EE28F8EF34001239A785088285B8
:103403000983A3E0C0E012578ED0E0F0120F84EEE0
:10341300240E125791E9124FADE0C0E0EE241112D1
:103423005791D0E0F0EEFAEFFB024FBC74F41204B4
:103433005474EB1209738A088B098C0A8D0BE9FE0D
:10344300900377E064046005E06408700479C28047
:103453002EA37808120B06EE90037E12360E120B83
:10346300067405120B45E9F07404120B457401F060
:103473007407120B45E4F0900377740212356B74F2
:1034830015024FB974F612045474EB120973EAFE71
:10349300EBFF124BD0600302352B7A077B00121728
:1034A300AC900339123918124BD060788E828F8317
:1034B300120B2290033A123E4F120B2E1267C1C019
:1034C300E0123537D0E0F0EE2405FAEF3400FB8A42
:1034D300088B098A82F583E0C0E0123532D0E0120E
:1034E3003547E0C0E0123532A3D0E012398C120B1D
:1034F30022851882851983120B2E88828983E0C066
:10350300E07405120B45D0E0F0850882850983E05D
:10351300C0E07404120B45D0E0F07407120B45129F
:10352300356A8006791080027901741502316312BD
:103533003537A322900339E0FAA3E0F5838A82A307
:10354300A3A3A322123D6722C082C083124BD06083
:103553000D9003391254D3900339E4F0A3F0120E03
:10356300A01210740235D0E4123A2F121F4A22C05F
:1035730082C083900338E07003121A76120C5A80CB
:103583004CC082C083900338E0900D577004E4F080
:10359300802D7401F0900338E0F460237C41E0C394
:1035A30094415002E0FCECF8E0C398F0EC75F0E8CD
:1035B300A4CCA8F075F003A428FD7A8012439F7A67
:1035C300577B0D7941121F328003120C06D083D032
:1035D3008202089174F412045474EB1209738A087A
:1035E3008B098C0A8D0B900377740112360E120B24
:1035F300067405120B45E9F07404120B457403F0CD
:103603007407120B4512356A02348212399778080F
:103613002274F71204547C01120C6C02390874F200
:1036230012045474FC120973E9851882851983F016
:10363300EAFEEBFF8C0A9003751249DF120E948A9F
:10364300088B09EA4509700579CA0237898A828B92
:1036530083A3A3A3A3A3A3A3E064FE7003A3E0F443
:10366300700579C30237899003751250561210DA28
:10367300850882850983A3A3A3A3A3A3A3A3A3A3C9
:10368300E0049003881238E77402120B457402F0C9
:1036930014120B45AA82AB83120FDE8A0C8B0DAE7C
:1036A3000CAF0DEE4F7003023780123391123FC1FE
:1036B3007406F0A3A882A9839003621255101243E3
:1036C3001AF0EE2413125791740112535F7440F0F1
:1036D300A3E4124FA6A3A312378E1239ACEE241122
:1036E300125791E50AF0EEFAEFFB120C36E9FE6091
:1036F300030237829003777409F012314AAA08FB58
:10370300794B121F328508828509831238D9123901
:10371300AC90036AE0F8851882851983E068600C31
:10372300E090036A123A2B79E1121F32900DDC12FA
:10373300399F900DDEE0687003A3E069601A90037F
:103743003B1239AC900DDE125056120F9C900DDED9
:103753001249DF7A0112439F7A007B049003C2E08F
:10376300F9121872900DDE12379774027808120A54
:1037730028AC08AD09FA7B041243A180027E1090A5
:10378300053CE4F0EEF97404024E4512379222121E
:103793002A85A322E0F508A3E0F5092274F51204B3
:1037A3005474E2120973851882851983ECF0A3ED32
:1037B300F0EAFEEBFF89087429120B45E0F5097462
:1037C3002C120B45E0F50A900377E064046005E0F2
:1037D3006408700579C20238D1742A120B45E0647B
:1037E300FE7003A3E0F4700579C30238D190037728
:1037F3007403123A2B7950121F32742A120B45AA02
:1038030082AB83794B121F32851882851983123854
:10381300E01239ACE50890036AF0742A120B4512E2
:1038230038D91239ACE5099003621238E774CE55E2
:10383300094480C0E07412120B45D0E0F0740125F6
:103843000A900388F0740F120B457402F0742A1265
:103853000B4512399F7407120B45E8F0A3E912399F
:103863001E7410120B451239AC7405120B45E50892
:10387300F0741B120B45E4F090037D740FF07A7D16
:103883007B037954121F3290037C740FF07A7C7B94
:10389300037947121F3290037CE0C3940F502374C3
:1038A30005120B45E0C0E07402120B45D0E0F07442
:1038B30004120B457401F004120B45AA82AB831268
:1038C3001F567405120B45AA82AB83121F38741E50
:1038D3001208F902270C12433D90036B2212433D59
:1038E30090037522F0EEFCEFFD7A897B03121F141F
:1038F3002274F7120454EB90037FF0120E828005BA
:10390300740D1208F97F0102066D123913A3E02228
:1039130012398CA322EAF0A3EBF022123992F8A316
:10392300E0F92274F712045474F8120973EAFEEBF7
:10393300FF7900900377E064087044851882851945
:103943008374FDF0A374FFF0120F6C7402120B4525
:103953001239187405120B45E4123913E0C0E074F0
:1039630004120B45D0E0123987C0E07406120B45F0
:10397300D0E0F07407120B45E4123A2B120FC07417
:103983000802390512398CE022F08E828F832212CD
:103993003997E022F08518828519832212433D224C
:1039A300E0F8A3E0F9EE123396E8F0A3E9F022C0C1
:1039B30082C0839003497426F0A3740DF09003EF43
:1039C300741AF0A37410F090034D745CF0A3740D9B
:1039D300F090034F7426F0A3740DF09003517462BA
:1039E300F0A3740DF00235D074F412045474F91278
:1039F30009738A088B098C0A8D0B851882851983B4
:103A03007808120B067404120B45E9F07405120BC7
:103A130045E4F07406120B45E4123A2B120C487479
:103A230007024FB9E8F0A3E9123A2F22123997AAF5
:103A330082AB832274F41204548A088B098A828B22
:103A430083125906EE4F7003023B40900312124B50
:103A5300D360158A828B83A3A3E0F9EEFAEFFB9080
:103A63000313123E4F12210B8E828F83A3A3A3A3B2
:103A7300A3A3A3A3A3E0640270718E828F83A3A385
:103A8300A3A3A3A3E054027003023B12850882851B
:103A93000983A3A3E064E960768E828F83A3A3A343
:103AA300A3A3A3A3A3A3A3E07014900DF0E0048E3B
:103AB300828F83A3A3A3A3A3A3A3A3A3A3F08E8211
:103AC3008F83A3A3A3A3A3A3A3A3A3A3E014123B42
:103AD300437404F0900DF1125359E8F0A3E9126412
:103AE300258B0BEA450B7003125DF88E828F83A33F
:103AF300A3A3A3A3A3A3A3A3E0640260128E828F54
:103B030083A3A3A3A3A3A3A3A3A3E06406702E8EFE
:103B1300828F83A3A3A3A3A3A3E0A2E0501F8508DE
:103B230082850983A3A3E0F9EEFAEFFB121FEC8E63
:103B3300828F83A3A3A3A3A3A3E054FEF0024FBCED
:103B4300123D67A3A3A32274EC12045474DD12097B
:103B530073EAFEEBFF8C088D097437120B45780C62
:103B6300120AE8750A007405120B45AC82AD831284
:103B730020407412120B45E070087415120B45E0D7
:103B830060207405120B45E0A2E6501E8E828F83DF
:103B9300A3A3A3A3A3A3A3A3A3125056120FF6E9AF
:103BA30060087903121EFC023D4D7405120B45E0BB
:103BB300540C64047005750B018003750B00E0A2BF
:103BC300E55019750A01E50BA2E0401012690412D1
:103BD3005052121FF8E96004790480C87405120B6F
:103BE30045E0A2E650227406120B45E05403701818
:103BF3007405120B45E0540C640C600CE0540C6427
:103C030008600575100180037510007405120B45DB
:103C1300E05403F8740268700C12690412505212D3
:103C230015D8023D4D740168703AE510A2E05003C7
:103C3300123D557405120B45A882A9837403120B18
:103C430045E8F0A3E9124331851882851983123DB3
:103C53005FE0C0E07402120B45D0E0123A2B122051
:103C6300DC023D4DE86003023D4D90035FE06401DB
:103C730070108E828F83A3A3A3A3A3A3E070030278
:103C83003BDB7422120B457402124331741A120B7C
:103C9300451239ACE510A2E050087405120B451229
:103CA3003D55E50BA2E0506AEE240FF582EF125F5B
:103CB300C1C0E07417120B45D0E0F0900314124B0F
:103CC300D37003023D4D120F728A128B13A812A9EF
:103CD30013741A120B45E0687003A3E069706B78E4
:103CE3000C1208C4780A1208D078081208CCA9105C
:103CF300740C120B45AC82AD837421120B45AA825E
:103D0300AB83900314123E4C12210B74071208F973
:103D13008038780C1208C4780A1208D07808120880
:103D2300CC90037512073CEE2412F582EF125CEB84
:103D33007423120B45AC82AD83740E120B45AA8219
:103D4300AB83121FE074091208F974231208F902F5
:103D530063F01269041254E112203A22E8F0A3E955
:103D6300123D6722125E2EA3A3A32274F7120454FA
:103D730012195602390874F71204541219680239D9
:103D830008C082C0831219620235D074F71204543A
:103D930012196E02390874F71204547409120B4590
:103DA300E0F50878081208D012197A74010239056F
:103DB300C082C0831219860235D0C082C083121913
:103DC3008C0235D074F71204541219920239087414
:103DD300F7120454EAFEEBFF8908740165087014B6
:103DE3007900120D9E902517E493FC7900EEFAEF0B
:103DF300FB120D1402390874F412045474F91209F5
:103E030073E9FE8A088B098C0A8D0B7413120B4518
:103E1300125056900586124BD36027EE8518828583
:103E23001983F07401120B457808120B06EAF8EBBC
:103E3300F97405120B45123A27900586123E4C126F
:103E4300210B023A22FB90034BE0F8A3E0F58388B1
:103E5300822274F7120454900D5AE0F97E00800B0D
:103E6300125FAD540D64017001190E12404F5003DF
:103E7300E970ED02390874F7120454900D5BE0F910
:103E83007E00800B125FAD548D64817001190E1298
:103E9300404F5003E970ED02390874F2120454895B
:103EA3000BE975F006A4240CF508E5F01231528AEB
:103EB3000CE508250CFAE5093400FB1217AC8A0C53
:103EC3008B0DAE0CAF0DEE4F6027AC08AD0979003A
:103ED3001216E6123391E50BF0EE2508F8EF3509DB
:103EE300F98E828F83A3A3A3A3A3A3A3A3A31239AE
:103EF300ACEEFAEFFB024E4874F6120454EAFEEB02
:103F0300FF120CF0900D59E0F8E9C39840099003B3
:103F130045125056120CF6EE2402F8EF1256569044
:103F23000347125510900347E004F0EEFAEFFB123B
:103F33000CFC850882850983E0025B01C082C08393
:103F430079009003458001091250568A828B83E5DC
:103F530082458370F20235D074F7120454EAFEEB03
:103F6300FFEE4F6056900345124BD3604E88828913
:103F7300837A007B00EE65827003EF6583600FAA8E
:103F830082AB83123FC1E5824583602F80E79003B4
:103F930045123FCD687002EF698E828F83700812DD
:103FA300399F90034580031264021239ACEEFAEF95
:103FB300FB1220ACEEFAEFFB1217B2023908123FE4
:103FC300C522124341888289832212433DEE22C0D7
:103FD30082C083900345800488828983124BD36017
:103FE3000B888289831249DFEC4D70EC8A828B83C4
:103FF300E4F0A3F0E8496006888289838003900394
:10400300451239180235D074F712045490034580D1
:10401300048A828B8312404A4B60257E0080010E06
:1040230012404F50ECEE75F006A4FCADF0EA2CFC08
:10403300EB3DFDEC2410F582ED12409F70E180040E
:104043007A007B000239081254E5EA221240A8EEF6
:10405300C3982274F71204547D0080010D1240A40A
:10406300EDC3985034ED75F006A4FEA8F0E8FFEA1E
:104073002EFEEB3FFFEE2410F582EF12409F70DC23
:10408300ED75F006A4FEE8FFEA2EFAEB3FFBEA2407
:1040930011F582EB125FC14CF0023908125FCD6952
:1040A300221240A82212690EEB3400F583E0F822B5
:1040B30074F6120454120E167A007B008025EAF877
:1040C300EBF9E875F006A4F8ACF075F006E9A42C5A
:1040D3001254BA1267CFA3E41255B0F0A31267D5F6
:1040E30012694C902502122DD140D37A007B0080B7
:1040F3001C8A088B0974037808120A28124F74A3C8
:1041030074FEF0A304125399A3E412694C90250B97
:1041130012415240DC7A007B00801D8A088B0974AF
:10412300037808120A28749E125C35740C12648793
:1041330074FEF0A30412694C90251112415240DB26
:10414300902515E493900353F012415C023166E429
:1041530093F8C3EA98EB9400227CE87D037A107B02
:10416300009003C2E0F912186C2274F01204547424
:10417300F51209738A088B09890A8C0BE9A2E050AE
:10418300147508FC7509FFA2E15005D2E402422F21
:10419300D2E302422F124E347003A3E06970057913
:1041A300000242FCAC0A7902AA08AB09120DF2E93B
:1041B30060EDE50AF50C780C1208D079027CFE7DDF
:1041C300FFAA08AB09124BAF1208F9E960030242D8
:1041D300FAE50AC2E5F50A9003B5E07051E50AA2D3
:1041E300E6404B7403120B45AC82AD83AA08AB09BE
:1041F300120B94E970321244D08A0C8B0DA80CA9CF
:104203000DE8FEE9FFE8496025EE24020A0AEF12F1
:104213002AC3601AEE2402FCEF3400FD7403120B70
:1042230045AA82AB83121F14E50AD2E5F50A90036F
:1042330048E0F50C900368E0F50EA3E0F50F780E67
:104243001208CC7D017C00900348E0F9AA0EAB0F65
:10425300120DAA74021208F9E9F8900348E004F079
:10426300E860030242FAE50AA2E55004740E8002F4
:104273007406C0E07401120B45D0E01259178A0E80
:104283008B0FAE0EAF0FEE4F606912431A1243311C
:10429300888289837401F07478550AA3126914E53E
:1042A3000C126914A3E508F0E509124309E4F0E5EB
:1042B3000AA2E5500F7403120B45AC82AD83E824C8
:1042C300061243008E828F83A3A374FDF0A374FFB1
:1042D300F0E50B6015902518E493F8E50BC39850AF
:1042E30009EE2413125791E50BF0EEFAEFFB120CD3
:1042F3003680067910800279C7740B8049FAE93455
:1043030000FB121F142288828983A3A3A3A3124351
:104313001522125689A322EE24171233987401F042
:10432300120F6CEE241A123398EAF0A3EB22F01268
:104333006908340012433B22F58312434122E0F81B
:10434300A3E0F922740D1208F97F0802066D74F6D2
:104353001204547A007B10125E0560089003D47433
:1043630001F08029900624E06401900DEE7006E0D0
:10437300FC79018004E0FC79037A007B00120D14C0
:104383009025001243937A007B101243A1023166F9
:1043930012439722E493FC740193FD227B00900364
:1043A300C2E0F91218662274EC1204548A088B09CD
:1043B3008C0C8D0D890E7414120B45124D8E7416D0
:1043C300120B45E0F510A3E0F511120FF6E96007B3
:1043D3007AFF7BFF0244CD900621E0640260030272
:1043E30044C07900AA08AB09120DF8A90E120DEC0E
:1043F3008A128B13AE12AF13EE4F70030244A88ED2
:10440300828F83A3A3A3A3A3E064018E828F83A3DC
:10441300A370691250568E828F83A3A3A3A3A3A371
:10442300E054186043902516E4938E828F83A3A3F0
:10443300A3A3F0EA650C7003EB650D6014EA650A4B
:104443007003EB650B600AEA65107003EB6511708E
:104453001F78101208CCAC0AAD0BAA0CAB0D1210CE
:10446300F274021208F98008900367125DEFA3F05B
:1044730074FE6A700374FF6B601D804EA3A3A3E0F8
:10448300640360298E828F83A3A3A3A3A3E06404A0
:1044930070057AFE0243D58E828F83A3A3A3A3A3C1
:1044A300E0640270089003B4E0640270101244D018
:1044B3008B0BEA450B6006AA08AB09800DAA08AB73
:1044C30009900349123E4C12210B0263F0900375CD
:1044D300124BB51210B62274F7120454EAFEEBFF26
:1044E300120BE8E9700AEEFAEFFB120BF4E960062F
:1044F300EEFAEFFB80047AFE7BFF02390874F012B8
:1045030004548A0A8B0B8C0E8D0F890975080012CF
:104513000FF6E979006003024677AA0AAB0B120D86
:10452300F8A909120DEC8A0C8B0DAE0CAF0DEE4FF2
:1045330060198E828F83A3A3A3A3A3E064027055A3
:104543009003B4E064027003024675AA0AAB0B90B1
:10455300034F123E4C12210B120BFA8A0C8B0DA83F
:104563000CA90DE849700302467588828983A3A3C9
:10457300A3A3A3E0A2E04003024675750C01A2E1E8
:1045830050687901AC0AAD0BAA0EAB0F120D44E9CA
:1045930070640246758E828F83A3A3A3A3A3E064F2
:1045A300037005750C0280528E828F83A3A3A3A38D
:1045B300A3E0640160030246759003751249DF8E20
:1045C300828F831249CB8A0C8B0DA80CA90DE84965
:1045D30060D190250FE493FA88828983E0C39A50CF
:1045E300C2A3E0600302467580B988828983A3A3CE
:1045F300A3A3A3D2E1F0EE4F603A8E828F83A3A3ED
:10460300A3A3A3A3E05418602B7508018E828F83A4
:10461300A3A312073C750CFE750DFF780C1208CC92
:104623007900AC0AAD0BAA0EAB0F120E0A7404127A
:1046330008F9803E900368E0650E7004A3E0650FFF
:104643007014902517E493FCA909AA0AAB0B120D69
:1046530014750801801CA90CAC0AAD0BAA0EAB0F94
:10466300120D44E9700C750801A909AA0AAB0B12D3
:104673000D9EA90802434C74EA12045474F0120903
:10468300738A0C8B0D8C088D097426120B45E0F58B
:1046930014A3E0F5157512069003F5124BD36023AE
:1046A3009003751249DFAA08AB091210E08A108B38
:1046B30011EA4511600D8A828B83A3E070057900AE
:1046C3000249B3E50C241DF50EE50D3400F50F8505
:1046D3000E82124BBFF51388828983A3A3A3E0FA4A
:1046E30088828983A3A3A3A3E0F9EA2400FEE43923
:1046F300FFAA08AB09120DA4850E82850F83124908
:10470300FDE029F50BE50AA2E5500375120E748747
:10471300550A70177418550A6418600FE50C2417AE
:10472300F582E50D125FC1651260077901121EFC67
:10473300808C530A78C3EE94F8EF94FF501D7900F0
:10474300EEFAEFFB1249BD601288828983A3A3A30B
:10475300A3A3A3E0541860030246C178081208CC4F
:104763007D001249F01208F9E9F874036870030236
:1047730046C1E8600302482C7418550A70030248C6
:10478300E1E50AD2E0F50AA2E45004D2E1F50AA970
:104793000A12504F1249BD605388828983A3A3A391
:1047A300A3A3A3E05418604488828983A3A3A3A38B
:1047B300A3E064017036E510451160309003751273
:1047C30049DF888289831249CB8A0E8B0FA80EA9F1
:1047D3000FE849601788828983A3E0600F85108200
:1047E300851183A3125B0C50030246C1E50AF50E43
:1047F300780E1208D01249E31208F9E9702B7C00F5
:104803007D0085148285158374FFF0A3F0850C82E7
:10481300850D83A3A3A3A3A3A3A3A3E060031249CA
:10482300D4A90B12504F121980851482851583E089
:10483300F47003A3E0F460399003B4E064027003FE
:104843000246C1124D7FE0FAA3E0123E4812210B4B
:10485300EA65087003EB650960030246C1EEFAEFEF
:10486300123E4812210B851482851583EAF0A3EBCF
:10487300F078081208CC7D011249F01208F9A90A50
:10488300EEFAEFFB120DF88A088B09A808A9099024
:104893000368E0687003A3E06960030249A4EEFAC9
:1048A300EFFB120BFA8A088B09A808A909E84960EB
:1048B3006E88828983A3A3A3A3E06401600D888229
:1048C3008983A3A3A3A3E064027054851882851986
:1048D30083AC82AD83EEFAEFFB120B948055900309
:1048E30061E0600FE50AF50E780E1208D01249E375
:1048F3001208F9E50AF50E780E1208D079027CFE4B
:104903007DFFEEFAEFFB124BAF1208F9E9600302E9
:10491300482C85148285158374FFF0A30248731213
:104923000F6CEAFCEBFD851882851983AA82AB83A1
:10493300121F14850C82850D83A3A3A3A3A3A3A392
:10494300A3E06401700F1249D47408120B45AA82C4
:10495300AB83121F14124B891257984430F5087811
:10496300081208D07401120B4585820885830978E3
:10497300081208CC740B120B4585820885830978CD
:10498300081208CCE513F50878081208D07900EE70
:10499300FCEFFD12504F120D3E74061208F9024649
:1049A300C1124B891257941249FDE50BF0120F8483
:1049B30074101208F97F0E02066D120DEC8A0E8B2D
:1049C3000FA80EA90FE84922A3A31254E51210E081
:1049D30022E50C2415F582E50D12339B1253732245
:1049E3007901AC08AD091254DA124BAF22AC0BA912
:1049F300131254DA120DAA7402221257A0A3A3A30E
:104A0300A32274F012045474F01209738A0C8B0DF0
:104A1300ECFAEDFB750F089003F5124BD3601412FB
:104A23005B058A828B83E58245836007A3E070037D
:104A3300024B84124B893400124BBFF50B888289D9
:104A430083124B92E0FBEC2400FEE43BFF88828957
:104A530083A3A3124B92A3A3E0FBECF508E43BF57D
:104A63000988828983A3A3A3A3A3A3A3E0F50EE5E7
:104A73000AA2E45003750F10A2E550067408250F2F
:104A8300F50F748F550A700FE50C2417F582E50DA9
:104A9300125FC1650F60087901121EFC024B84533B
:104AA3000A707800E50AA2E45022124B89125FC112
:104AB3002408FCA3E03400FD7408120B45AA82AB62
:104AC30083121F147808E50AC2E4F50AE50AA2E591
:104AD3005028124B89125FC128F8A3E03400F9E88B
:104AE3002408FCE93400FD851882851983AA82AB6A
:104AF30083121F14E50AC2E5F50AAC0EA90BEEFA00
:104B0300EFFB120DB0E9F87403686075900368E079
:104B13006E7003A3E06F605EE87054E50AF50F78EA
:104B23000F1208D0124BA01208F9E97054780A1238
:104B330008D07401120B4585820C85830D780C1205
:104B430008CC740B120B4585820C85830D780C12EF
:104B530008CCE50BF50A780A1208D0A90EAC08AD0B
:104B630009EEFAEFFB120D3E74061208F980127477
:104B73000468700D80B7780A1208D0124BA012088F
:104B8300F97410024349E50C241DF582E50D22A3B7
:104B9300A3A3E0FC88828983A3A3A3A322790112A0
:104BA3004D8612339B124BB5124BAF22120D687414
:104BB3000122E0FCA3E0FDAA08AB0922F583123F22
:104BC300C5A3E0F50A88828983A3A3E02290033971
:104BD3001255412274E812045474F5120973EAFE63
:104BE300EBFF8C088D0989147423120B45E0F50F34
:104BF3007424120B45E0F512A3E0F5137426120B8F
:104C030045E0F516A3E0F5177428120B45E0F50E01
:104C1300A90F120DB68A108B117401120B4574087B
:104C2300F0E50EA2E450037410F0E50EA2E5500483
:104C3300E02408F0851882851983AA82AB83120FBA
:104C4300DE8A0C8B0DEA450D7003024D66EA2417CC
:104C5300F582EB124D78120F6CE50C241AF582E500
:104C63000D1257941239187403120B45AC82AD839D
:104C7300AA10AB11120B94E9601D124D707403124C
:104C83000B45A882A983E50C2418F582E50D12577C
:104C930094E8F0A3E98024E50EA2E4501FE5106E2A
:104CA3007003E5116F7015124D70E50C2418F58231
:104CB300E50D125794E512F0A3E513F0124D7F12A0
:104CC3004D8E850A82F5837402F0A3E50E124D968C
:104CD300E50FF0EE850A82850B83A3A3A3F0EF858E
:104CE3000A82850B83A3A3A3A3124D96A3A3A3E5D3
:104CF30008F0E509850A82850B83A3A3A3A3A3A3D5
:104D0300F0AA10AB11120DA4E92514850A82850BB4
:104D130083A3A3A3A3A3A3A3F0750800E50EA2E4B2
:104D23005011AC12AD13E50A2408FAE50B12430245
:104D3300750808E50EA2E55014AC16AD17E50A2573
:104D430008F8E50B3400F9E82408124300850C82C7
:104D5300850D83A3A3E510F0A3E511F0AA0CAB0D19
:104D6300120C36740B1208F97F1002066DE50C2441
:104D730016F582E50D12339B7401F022124D861253
:104D8300339B22E50C12690FE50D22E0F50AA3E03F
:104D9300F50B22F0850A82850B83A3A32274F212FA
:104DA30004548A088B09ECFEEDFF890A7900124E40
:104DB300347003A3E069700479018073750B01906B
:104DC3000368E065087004A3E06509601F750B00C4
:104DD300780B1208D0A90AEEFCEFFDAA08AB091262
:104DE300103274011208F9E9F50B80417900EEFAEB
:104DF300EFFB120DECEA4B602B8A828B83A3A3A3F8
:104E0300A3A3A3E05418601C7508FE7509FF780876
:104E13001208CC8A828B83A3A312073C1267241245
:104E230008F980097901EEFAEFFB120CCCA90B808B
:104E330014120DF88A0C8B0DA80CA90D900368E0D1
:104E430068221208F97F0602066D74F41204547581
:104E530008E675090A7A1012642C8B0BEA450B706D
:104E63000312415C900353E014F0700C902515E499
:104E730093900353F0120E047E007F00806C85082C
:104E830082850983A3A3A3A3E06059F46056E508D0
:104E93002404F582E509125DE970498508828509D4
:104EA30083A3A3A3A3A3E0640370197902850882F3
:104EB3008509831249DF850882850983A3A31250DC
:104EC30056120D44850882850983A3A3A3A3A3E0F7
:104ED3006401601085088285098374FEF0A30412BF
:104EE3004FA6E4F01232C812314A902504126588A5
:104EF300408C7E007F008039120F128E088F097458
:104F0300037808120A28745E2508FC740C3509FD21
:104F13007A507B0D120F00EA4B70DD8E088F0974F7
:104F2300037808120A28124F741267CFE4F0123282
:104F3300C890250BE493F8C3EE98EF9400501B8EB2
:104F4300088F0974037808120A28124F7CE8240793
:104F5300F582E9125DE970D680A17E007F00800AA8
:104F6300124F87600214F01232C812658540F18037
:104F730048124F7C8882898322745E2508F8740C5A
:104F83003509F922EEF8EFF9E875F006A4F8AAF06E
:104F930075F006E9A42AF974FE28F582740B39F535
:104FA30083E022124FADA3A3A322F08508828509D3
:104FB30083A3A322740D1208F97F0402066D74F70C
:104FC30012045474E1120973ECFEEDFF750800EE50
:104FD3004F60728A828B83E0241C125E1A124BD3B9
:104FE30060638A828B83125056851882851983AC3D
:104FF30082AD83EA241BF582EB125CEBEA241CF5F9
:1050030082EB125052120F54740B120B4512505A6A
:105013007003A3E069702E7402120B45E064017003
:1050230024741D120B45123E4CE064017017741D6D
:10503300120B45123E4EA3A3E0F88E828F83E068E5
:105043007003750801A908741F023905124D8634CF
:1050530000F5831254E522122A81E0682274F412C7
:105063000454E97024790090034D123E4C12210B35
:105073008A0A8B0BAE0AAF0B74FE6E700374FF6F5C
:10508300701A902512E4936013790190034D123E38
:105093004C12210B8A0A8B0BAE0AAF0B120FA20222
:1050A300342874F612045474F31209731216FE8A28
:1050B300088B09AE08AF09900368E06E7003A3E0A4
:1050C3006F60E9120F78EA6E7002EB6F60DEEEFA42
:1050D300EFFB120FF6E970D4EE4F60D0851882858E
:1050E3001983E4F004120B45EEF0A3EF125108E923
:1050F30070BA74FE6E700374FF6F60B0EEFAEFFB6C
:10510300740D023163123A2F120BAC22C082C0839A
:10511300120FA20235D07F0A02066D74F2120454F4
:10512300EAFEEBFF8C0A8D0B8908740E120B45E027
:10513300F50974FC6E700374FF6F70057900024EFD
:10514300487900120DF88A0C8B0DAE0CAF0D90034D
:1051530068E06E7003A3E06F7006E509A2E650DC19
:10516300A909126612706179007AFE7BFF1266123A
:1051730070567418550970030252557800790080EF
:1051830003122C7B902504122C724003025255E823
:10519300FAE9FBEA75F007A4FAACF075F007EBA4A3
:1051A3002CFB74EC2AF582740A3BF583E0541870E7
:1051B300D0E875F007A4F8AAF075F007E9A42AF976
:1051C30074E628F8740A39F988828983A3A3A3A310
:1051D300A3A3E05418600974185509700302513FE2
:1051E30088828983EEF0A3EFF074FE650A7004747D
:1051F300FF650B600312537988828983A3A3A3A35A
:10520300A3A3E509F0A2E0500D88828983A3A3A399
:10521300A3A3A3D2E2F07401650888828983A3A3C0
:10522300A3A3A370387401125399E0541860289013
:105233002516E49388828983A3A3A3A31253671239
:1052430010E08B0DEA450D600302513F78007900B1
:1052530080397902025141900367E080D7E064010D
:10526300700302513F88828983A3A3A3A3A3A3E06E
:1052730054186007902516E4938004900366E012A7
:105283004309E508F002513F122C7B90250CE4936F
:10529300FAC3E89AE99400400302513F7A007B0085
:1052A300804BEAFCEBFDEC75F007A4FCAEF075F067
:1052B30007EDA42EFD74E82CF582740A3DF58312E4
:1052C3005906E8FCE9FDEC75F017A4FC85F00975B7
:1052D300F017EDA42509FD74762CF58274093DF5CC
:1052E30083E06E7003A3E06F609E12319D902504EE
:1052F30012315A40AD124393EC6A7002ED6B708821
:10530300E875F017A4F8AAF075F017E9A42AF97460
:105313007628FE740939FF7C177D007900EEFAEFD9
:10532300FB1216E68E828F8312537F9003751253FE
:1053330059A3A3A3A3A3A3E8F0A3E912535F7401A2
:10534300F0EE240E125791740112538712030312C5
:10535300578EE8025287123792A3A322F0EE240F4E
:1053630012339822F0125370AA0AAB0B22900375E2
:10537300E0FCA3E0FD2288828983A3A3E50AF0A3CE
:10538300E50BF022F090250FE4932401F8E43400B8
:10539300F97A027B0022124315A32274ED120454FE
:1053A3008A088B09890E1254C34005790502549863
:1053B3001219C8AA08AB0912559590250212549BDD
:1053C300650A7003E9650B70077AFE7BFF1255953A
:1053D300902502125FA0E50B9940030254961254E4
:1053E300A06012E50A75F006A4F875F006E50B1245
:1053F30054EB1217B2E50E6018E50A75F006A4F82F
:10540300AAF075F006E50B125517701A79010254CC
:1054130098E50A75F006A4F8AAF075F006E50B12F4
:1054230054F8E4F0A3F0E50A75F006A4F8AAF075C1
:10543300F006E50B1254B8A31257AE88828983A3F2
:10544300AA82AB831255068A828B83E06041125491
:10545300A0603C8E108F1175120078101208C8E5F9
:105463000EC333FCE433FDE50A75F006A4F50AA880
:10547300F075F006E50BA428F50B7402250AF582F6
:10548300740C350B1250541216DA74031208F9799E
:105493000080027907026628122DF2E822E50A75D8
:1054A300F006A4F8AAF075F006E50B1254F3F8A37E
:1054B300E0F9E84922A42A12564C88828983A32260
:1054C300ECFEEDFF90250DE493F8E9C39822F583F4
:1054D3001254E51217B222E50C12690FE50D3400E0
:1054E300F583E0FAA3E0FB221254F3FAA3E0FB22D4
:1054F3001254F8E022A42AF9740228F582740C39B4
:10550300F58322E50EF0900DEF12551022E088820C
:105513008983F022125670F50CE93400F50DE50E7F
:10552300C333FAE433FB1217AC850C82850D83EA8F
:10553300F0A3EBF0850C82850D83125541221243B3
:1055430041E8492274F4120454ECFEEDFF740C128A
:105553000B4512399F88088909125595AC0AAD0B82
:10556300ECF8EDF990250212559D5021E875F006EF
:10557300A4F8AAF075F006E91254B8E08E828F837E
:105583001255B01255A61239AC7900800279040283
:105593004FBC120D7A8A0A8B0B2212316BC3EC9A21
:1055A300ED9B2212433D850882850983221256858D
:1055B3002274F61204547E007F008028EEF8EFF97F
:1055C300E875F006A4F8ACF075F006E9A42CF974BC
:1055D3000028F582740C1262336A7003A3E06B60D7
:1055E300571232C812658540D31265807002E96F85
:1055F300704674FE6A700374FF6B703C7E007F001C
:1056030080031232C8126585502E124F8770F3EE55
:10561300F8EFF9E875F006A4F812564212567760CF
:105623001712565EF8E912565688821254D185082D
:1056330082850983E4F0A3F0EEFAEFFB023166758D
:10564300F006E912564A22A42AF974FE28F8740BCC
:1056530039F9223400F98808890922EEF8EFF9E8CC
:1056630075F006A4F875F006E91256702212564A30
:10567300E8240422A3A374FE12568212554122F099
:10568300A30412568922F088828983A3A3A3A322A9
:1056930074F6120454EA241DF582EB125798F9604C
:1056A3004BEA241DF582EB125FC12402FCA3E03414
:1056B30000FD1254C74003025781780080298C8271
:1056C3008D83E0F508A3E0FFE5082400E43FF50936
:1056D300E833FEE433FF74462EF582740C3FF58302
:1056E3001257AE12578408E8C39940D28A828B833B
:1056F300A3A3A3A3A3A3A3A3A31249DF900368E0D7
:105703006C7003A3E06D700F7C467D0C1229EA12C6
:105713005052120D6E8067EA2411F582EB125FC1BD
:10572300605CFC74FF2CF075080178081208D075D2
:10573300084675090C78081208CCE9F508780812B0
:1057430008D0EA2412F582EB125FC1F5087808123B
:1057530008D0EA2415F582EB12579412073CECF9B2
:105763001229EA1249DC8A828B83A3A3A3A3A3A3EE
:10577300A3A3A3125056120D8674071208F902311F
:1057830066EC24020C0CED3400FD22EE240DF582B0
:10579300EF12339B2212339B1257A0E022E0F8A3AF
:1057A300E0F5838882A32288828983E508F0A3E554
:1057B30009F02274EA12045474FD1209738A148BDB
:1057C300158C0E8D0F890D7419120B451259067421
:1057D3001B120B45E0F511741C120B45E0F50C741C
:1057E3001D120B45124D8E741F120B45E0F5106010
:1057F30008E50CC333240480027402C0E074011270
:105803000B45D0E01259178A088B09EA4509700342
:105813000258F78A828B83A3A3E514F0A3E515123C
:10582300641BE50EF0A3E50FF0EA2413F582EB12F7
:105833005794E50DF0EA2414F582EB125794E51121
:10584300F0EA2417F582EB125FC164017040120F76
:10585300728A0E8B0FA80EA90F850882850983A370
:10586300A3A3A3E0687003A3E0696022EE4F601175
:10587300E508241AF582E509125794EEF0A3EF80A8
:105883000CE5082417F582E509125794E4F0125841
:10589300FC1259068E828F837405F0A3E510700401
:1058A300E50C80487401250C1259107A0080288574
:1058B3000A82850B83E012590C850A82850B83A328
:1058C300E08E828F83F0E50A2402F50AE50B3400AB
:1058D300F50BA30EAF830AEAC3950C40D2120F72E5
:1058E300EA12590C120F72EB8E828F83F0AA08AB67
:1058F30009120C3674030249B51229FB12339B2299
:10590300900334E0FEA3E0FF228E828F83F0A3AEE8
:1059130082AF8322123A2F120FDE22C082C083E9A4
:10592300C333FCE433FDEA2CFAEB3DFBEA24FEF53A
:1059330082EB34FF1250540235D074F212045489AE
:10594300098A0A1254C34004790080407508008014
:10595300020508E508C39509502AE508C333F8E4AE
:1059630033F9EE28F582EF39F583C082C083120F35
:10597300728A0C8B0DD083D082E0650C7004A3E097
:10598300650D70CDE50A650870BE7901024E487455
:10599300F012045474F31209738A088B098C0A8D6C
:1059A3000B890C750D00120FF6E979006003025A9A
:1059B30094AA08AB09120DF8A90C120DEC8A0E8BF0
:1059C3000FAE0EAF0FEE4F7003025A928E828F838B
:1059D300A3A3A3A3A3A3E0A2E24003025A92120F3C
:1059E30072EA650A7003EB650B7011780D1208D02B
:1059F300E4F50EF50F780E1208CC8044AA0AAB0B1F
:105A0300120BEEE9640170688518828519837404AA
:105A1300F07401120B4512537F851882851983AAEE
:105A230082AB83120BACE964017045750D01780DEF
:105A33001208D0E4F50EF50F780E1208CC750D00A0
:105A4300780D1208D0780D1208D07408120B458512
:105A5300820E85830F780E1208CC902518E493F9F3
:105A6300AC0AAD0BAA08AB09120D8674071208F92C
:105A73008E828F83A3A3A3A3A3A3E0A2E1400D8EF1
:105A8300828F83A3A3A3A3A3A3C2E2F0750D01A9ED
:105A93000D02434774F6120454E9FE7900120DF81F
:105AA300EEF9120DEC8A088B09A808A909E84960E8
:105AB30006126956F98002790402316674F61204FB
:105AC300547E0790035CE07034125B058A088B09EF
:105AD300A808A909E8496025900361E06401888268
:105AE3008983A3A3700B125B0C888289835001A363
:105AF300A3E0F91210FEE9FEEE70027E07EEF90252
:105B030031661253701210E022E0FA88828983A36F
:105B1300E0C39A2274EE120454EAFEEBFF890A8C66
:105B23000C8D0B7412120B45123797125BE1125452
