:020000040000FA
:06000000020AD802020012
:03001300020223C3
:03002B00020913B4
:03003B0002027846
:0300530002013176
:03007B000220E27E
:100083000201950101FF01010503010F10FEFF7439
:10009300137413741374132A1224127413F32100A8
:1000A300000000B722000000000C0000000C00015B
:1000B300060A10100000901500000000000044160E
:1000C30000000000000000000000FFFF0000D21845
:1000D300CC180000F0001E0000000000000000002B
:1000E30000000000000000000000000000FFFF020D
:1000F30000000000000000000000010001010100F9
:100103005305000000C805E80364006400B8010259
:100113000200001000050207051E02051E0A0A035D
:10012300B80B02803E010213020114020206C0E072
:1001330074F21204C0A2AFE433FED2AFE5A7FFE529
:10014300A1F5085F54106006121CAA75A1EFE5081B
:100153005F54086008121CB075A1F7802BEFA2E072
:10016300C0D0E508A2E092F0120A15158182F05082
:1001730017906198E0F8900798E0C398A2D265D0F1
:10018300335002E8F075A1FEEEA2E092AF7F0102C8
:100193000577C0E074F21204C0A2AFE433FED2AF1D
:1001A3009061A4E0F8759B00E591585408600875C8
:1001B30091F7121CF2802AE591585410600875914A
:1001C300EF121CF8801BE8A2E0C0D0E591A2E092F8
:1001D300F0120A15158182F05007E0C2E0F0121EFA
:1001E300369061A3E0F8E5E9585404600E121E0C42
:1001F30075E9FB906193E0A2E640F2808BC0E07466
:10020300F21204C0A2AFE433FED2AF9061A5E0F8CE
:10021300E5BF585404600675BFFB121E4E02018BE6
:10022300C0E0C0D0E8C0E0E9C0E0C082C083E5C15F
:10023300C0E0900704E0F8748328F5827406340064
:10024300F583D0E0F0900703E0F8A3E0687006E5DB
:1002530095900706F0900704E004F0C394804002F1
:10026300E4F0A374C6F0D083D082D0E0F9D0E0F8F4
:10027300D0D0D0E032C0E0C0D0E8C0E0C008C009B0
:10028300C082C083900787E0F8A3E0687008539AA0
:10029300FBA374018026C2E9900787E0F508740187
:1002A3002508F074072508F58274073400F583E008
:1002B300F5C1900787E0C394804002E4F0D083D077
:1002C30082D009D00880A6C3E498F8E499F9120310
:1002D3000B8026C3E49AFAE49BFBE920E7E91203C7
:1002E3000BE498F8E499F922C3E498F8E499F91235
:1002F300030BE498F8E499F9C3E49AFAE49BFB222C
:10030300EB20E7CFE920E7E0B90010BB0008E88A5B
:10031300F084F8AAF022E4FBC8FA22EB70227B10E7
:10032300C833C8C933C9335007C39AC3DBF2800645
:100333009A50012ADBEAC833F4C8C933F4C9FA2254
:1003430075F008E4C833C8C933C933C99AC99B5087
:1003530004C92AC93BD5F0ECFBC833F4C8E4C9FA95
:1003630022080808EAC0E0EBC0E086F0E7A4FA1828
:100373000986F0E7A42AFA180986F0E7A42AFA18EE
:100383000986F0E7A42AFA1986F0E7A4FBE5F02A28
:10039300FA190886F0E7A42BFBE5F03AFA19088668
:1003A300F0E7A42BFBE5F03AFA18180986F0E7A466
:1003B300C5F02BFBE43AFA1908E7C5F0C6A426F604
:1003C300E5F03BFBE43AFA1886F0E7A4F6E5F0081B
:1003D30026F6E43B08F6E43A08F6D0E0FBD0E0FA70
:1003E30022E4CFC0E0E4CEC0E0E4CDC0E0E4CCC082
:1003F300E075F020C3E633F608E633F608E633F695
:1004030008E633F6181818EC33FCED33FDEE33FE33
:10041300EF33FFC3EC9709ED9709EE9709EF9719AF
:100423001919400FFFEC97FC09ED97FD09EE97FEB4
:10043300191906D5F0BEECF709EDF709EEF709EF48
:10044300F7191919D0E0FCD0E0FDD0E0FED0E0FFB1
:10045300222518C582C0E0E51934FFC583C0E0E555
:1004630018C3958224F810AF0885831985821880F4
:1004730008858319858218D2AFCEF0A3E520F0A3B7
:100483007808E608F0A3DEFAEFF0A3E58124FAF892
:10049300E608F0A3E608F0A3E608F0A30808E608D8
:1004A300F0A3E608F0A315811581D0E0FED0E0F8B3
:1004B300158115811581E8C0E0EEC0E022C0D0258A
:1004C30018C582C0E0E51934FFC583C0E0E518C351
:1004D300958224F310AF08858319858218800885D7
:1004E3008319858218D2AFC8F0A3E9F0A3EAF0A379
:1004F300EBF0A37908E709F0A3D8FAECF0A3EDF049
:10050300A3EEF0A3EFF0A3D0E0F0A3D0E0F0A3D0EC
:10051300E0F0A3E520F0A3E5F0F0A322120B3AB933
:100523000003020561E49003017856790B8002F021
:10053300A3D8FCD9FA900D56AA82AB839000867893
:10054300AC79018015E493A3AC82AD838A828B835B
:10055300F0A3AA82AB838C828D83D8E9D9E7758215
:10056300627583F1740312088B7582FA75832074A4
:100573000012088B851983851882E0C0E0A3E0F997
:10058300A3E0FAA3E0FBA37808E0F608A3DFFAE010
:10059300FCA3E0FDA3E0FEA3E0FFA3E0C0E0A3E033
:1005A300C0E0A3E0F5D0A3E0F520A3E0A3F5F010AD
:1005B300AF08858319858218800885831985821879
:1005C300D2AFD082D083D0E0F8D0E0320975F010FA
:1005D3008E1A8F1B85821F85831E8518828519833A
:1005E300E0CEA3E0CF851F82851E83EBC9EAC8ED69
:1005F300CBECCAC3E833C8E933C9EA33CAEB33CB1C
:10060300C3EA9EF51DEB9FF51CB35004AB1CAA1D5A
:10061300EC33CCED33CDD5F0DAAE1AAF1B22D08359
:10062300D082ECC0E0EDC0E0E493A3FCE493A3FD2F
:10063300ED4C600D1206F9EC24FFFCED34FFFD8058
:10064300EFE493A3FCE493A3FDED4C600D12079636
:10065300EC24FFFCED34FFFD80EFD0E0FDD0E0FCA7
:10066300E493A3C0E0E493C0E02285198385188254
:10067300E0A3FEE0A3F5207808E0A3F608DFFAE0A4
:10068300A3FFE0A3C0E0E0A3C0E0E0A3C0E0E0A3D9
:10069300C0E0E0A3C0E010AF08858218858319800D
:1006A30008858218858319D2AFD083D0820208913E
:1006B300D083D082E9C0E0E493A3C386F0C5F0956C
:1006C300F0F908E493A386F0C5F095F0700BE4937A
:1006D300A3C3994005E9048002A3E475F002A425AD
:1006E30082F582E5F03583F583D0E0F9E493A3C086
:1006F300E0E493C0E022C0E0C3E49396087401935E
:100703009618400FE4936670080874019366187096
:10071300007019A3A3C3E49396087401939618A3D6
:10072300A3400DD0E0D0E0D0E002065DA3A3A3A3D5
:10073300A3A3D0E0227404800474028000CCC0E040
:10074300EDC0E0E518C39CCCAD1950011D10AF06F8
:100753008C188D1980068C188D19D2AF12080DD004
:10076300E0FDD0E0FC2274028000CCC0E0EDC0E0EC
:10077300E518C39CCCAD1950011D10AF068C188D24
:100783001980068C188D19D2AF1207EBD0E0FDD07B
:10079300E0FC22C0E0C0F088F0E4936670080874BF
:1007A300019366187000A8F0A3A3700BD0F0D0E0FB
:1007B300D0E0D0E002065DA3A3D0F0D0E022D08346
:1007C300D082CCC0E0E493A3600612082E1470FA22
:1007D300E493A3600612095D1470FAD0E0FCE4937D
:1007E300A3C0E0E493C0E022CAC0E0E493A3C582BF
:1007F300CCC582C583CDC583F0A3C582CCC582C5D4
:1008030083CDC583DAE5D0E0CA22CAC0E0E0A3C540
:1008130082CCC582C583CDC583F0A3C582CCC582F6
:10082300C583CDC583DAE6D0E0CA22C0E0E493A352
:10083300D39C5010E493A3C39C400AD0E0D0E0D0F3
:10084300E00207DEA3A3A3D0E022C008C3E096F52D
:100853000808A3E096420808A3E096420808A3E02C
:100863009645087001D3D008227009080808226051
:1008730016181818C6C333C608C633C608C633C607
:1008830008C633C6D5E0EA22C09FF59FE473D09F24
:1008930022D083D082C09FE493C0E0740193C0E070
:1008A300740293F59F222518F58210AF08F51840BE
:1008B3000215198008F51840021519D2AF8519835E
:1008C300227404800A74038006740280027401C0D7
:1008D300E0F4041208A9D0E0120B1522BB0102E7D1
:1008E30022C082C08389828A83BB0003E08002E442
:1008F30093D083D08222C0D0251810AF08F51850AA
:100903000205198008F51850020519D2AFD0D0227C
:10091300C0E0C0D0E8C0E0E5A8D2AFC2C7A2E7926A
:10092300AFD0E0F8D0D0D0E0326016080808C6C3D4
:1009330013C618C613C618C613C618C613C6D5E001
:10094300EA22C3E0C696F608A3E0C696F608A3E03B
:10095300C696F608A3E0C696F622C0E0E493A36C1D
:100963007009D0E0D0E0D0E00207DEA3A3D0E022FC
:10097300251810AF08F518400215198008F518401E
:10098300021519D2AF22E76670100809E766700AEC
:100993000809E76670040809E76622C3E09608A31E
:1009A300E09608A3E09608A3E096A2D265D033228E
:1009B300E066701008A3E066700A08A3E06670049E
:1009C30008A3E06622C3E096F008A3E096F008A32C
:1009D300E096F008A3E096F022E026F008A3E036C4
:1009E300F008A3E036F008A3E036F022E627F60885
:1009F30009E637F60809E637F60809E637F622E08E
:100A030026F608A3E036F608A3E036F608A3E03698
:100A1300F622C0E0E8C0E0E58124FCF8E6A2E7D0D6
:100A2300E0F8D0E022700422600D18C6C333C60874
:100A3300C633C6D5E0F41822E657F60809E657F69A
:100A43000809E657F60809E657F622E056F608A322
:100A5300E056F608A3E056F608A3E056F622E05661
:100A6300F008A3E056F008A3E056F008A3E056F020
:100A730022E647F60809E647F60809E647F60809B5
:100A8300E647F622E4C396F608E496F608E496F6FB
:100A930008E496F622C3E7960809E7960809E7965D
:100AA3000809E79622C6F4C608C6F4C608C6F4C603
:100AB30008C6F4C622600D08C6A2E713C618C613FB
:100AC300C6D5E0F322C3E09608A3E09608A3E09618
:100AD30008A3E0962275D000758140751801751939
:100AE300030002051FE0F608A3E0F608A3E0F608FA
:100AF300A3E0F622600C08C6C313C618C613C6D5F6
:100B0300E0F422E6F008A3E6F008A3E6F008A3E683
:100B1300F022CAC0E0E6F0A308DAFAD0E0FA22E055
:100B2300FAA3E0FBA3E0FCA3E0FD22EAF0A3EBF0D1
:100B3300A3ECF0A3EDF022E5C754F84401F5C7791F
:100B430001222518F582E43519F58322C2AF75D643
:100B53009F0200002212089407E40212089425E47D
:100B630002120894122500120894242500120894F6
:100B7300762500120894D7250012089461260012E6
:100B83000894052700120894592700120894722725
:100B930000120894982700120894D327001208948F
:100BA3001728001208943E28001208948F28001278
:100BB30008943F2900120894F72900120894BF2AC9
:100BC300001208947F2B00120894C32B0012089480
:100BD300E82B001208942B2C00120894782C001296
:100BE3000894EE2D00120894742E00120894922E8D
:100BF30000120894BC2E00120894D62E00120894FA
:100C0300E52E00120894F02E00120894B02F001263
:100C13000894093000120894CB3000120894D330A2
:100C230000120894673100120894D331001208941B
:100C3300FE32001208940F3300120894943300120A
:100C430008942334001208947B34001208943F352F
:100C5300001208946635001208947835001208943F
:100C6300CB3500120894083600120894153600128A
:100C73000894933700120894E838001208941A393C
:100C830000120894A63900120894DF390012089460
:100C93002B3A001208943E3B00120894623D001266
:100CA30008946D3D00120894783D00120894823D2B
:100CB300001208948D3D00120894A73D0012089479
:100CC300B13D00120894BB3D00120894C63D0012CA
:100CD3000894EE3D00120894493E001208946D3EBC
:100CE30000120894913E00120894EF3E00120894FB
:100CF300333F001208944F3F00120894C63F00127E
:100D03000894FE3F001208944A4000120894A7403A
:100D1300001208946141001208944543001208949C
:100D23009E4300120894CE4400120894F444001227
:100D330008946E4600120894F94900120894CB4BAC
:100D430000120894944D00120894414E0012089426
:100D5300B54F001208945450001208949950001291
:100D630008940351001208941251001208949253EC
:100D7300001208943B5500120894A85500120894D9
:100D8300875600120894AA570012089412590012A9
:100D930008943159001208948659001208948B5A0A
:100DA30000120894B35A001208940B5B00120894C3
:100DB300EA5B001208942E5C00120894795C00121E
:100DC3000894E45C00120894295E001208948D5E76
:100DD30000120894DB5F0012089442620012089428
:100DE3007362001208942B6400120894806400124A
:100DF30008948465001208942166001208947A66A8
:100E0300001208942D6700120894CF67001208940B
:100E13006F6800120894146900120894DF810112AC
:100E230008941E8201120894658401120894AF8409
:100E330001120894CA85011208943A860112089493
:100E43006F8601120894E38701120894668A0112DF
:100E530008948F8B01120894428C011208949E947B
:100E6300011208943395011208941A9801120894F8
:100E7300139901120894749901120894909A01121B
:100E83000894759C01120894869E01120894DE9EB4
:100E930001120894B09F0112089467A001120894EC
:100EA30071A0011208949FA0011208945CA1011281
:100EB300089433A201120894FAA201120894ACA375
:100EC30001120894D5A301120894F7A30112089400
:100ED3004DA60112089425A70112089469A70112CF
:100EE3000894D1A70112089489A801120894BBA8F9
:100EF30001120894FFA80112089435A9011208945D
:100F030081A901120894D6A901120894DBA9011240
:100F130008942EAA0112089453AA0112089462ABF2
:100F230001120894C6AB0112089436AC011208945E
:100F3300C2AC011208948FAF0112089473B001126E
:100F43000894F6B1011208942CB401120894DAB48F
:100F5300011208948AB501120894CBB701120894C0
:100F63006EB801120894B5B80112089461BA01125F
:100F7300089475BA011208947FBA01120894A7BAAB
:100F830001120894B3BA01120894D2BA0112089458
:100F9300B7BC01120894EEBC01120894F8BC01120C
:100FA30008942EBD011208947DBE01120894C1BE9F
:100FB3000112089469BF011208944CC001120894ED
:100FC300F7C00112089443C20112089441C30112ED
:100FD3000894E7C30112089488C4011208949FC4BB
:100FE30001120894D6C401120894E0C401120894B3
:100FF300EBC40112089409C5011208944DC50112EE
:101003000894AAC501120894CFC501120894E9C532
:101013000112089475C60112089492C7011208942C
:10102300EEC701120894D5C801120894FCC8011236
:10103300089470C901120894EBC901120894EFCA0D
:1010430001120894E5CB0112089494CC0112089480
:10105300A7CD0112089443CE01120894C5CE011204
:101063000894A3CF01120894DBCF0112089433D064
:1010730001120894FCD0011208941DD101120894A6
:10108300A4D101120894C8D101120894EAD1011223
:10109300089433D20112089449D4011208942CD530
:1010A30001120894DDD50112089413D80112089493
:1010B30063D801120894A3D801120894E5D8011249
:1010C300089441D9011208946FD90112089493D955
:1010D30001120894E6D90112089414DA0112089453
:1010E3004DDA01120894A2DA0112089408DB011206
:1010F300089472DC0112089495DE0112089402DF51
:10110300011208942BDF01120894B6DF0112089430
:101113001DE00112089468E0011208948CE00112AA
:101123000894B0E0011208940BE10112089426E13F
:1011330001120894DFE101120894BA96041208948C
:10114300F99604120894788002120894BE80021261
:1011530008949E8102120894A08202120894A38329
:10116300021208942F85021208948D8502120894A6
:101173004A8602120894688702120894D9870212D9
:1011830008941588021208946388021208946D88E3
:1011930002120894B188021208940D89021208946D
:1011A300A88902120894258A02120894F48A02126A
:1011B30008948D8B02120894AD8B02120894E38B72
:1011C30002120894148C02120894D58C021208940B
:1011D300E58C02120894398D02120894548D021280
:1011E3000894668D021208946F8D02120894C98DBB
:1011F30002120894258E02120894718E021208942A
:101203008C8E02120894BD8E02120894DA8E02129A
:101213000894E68E021208945A900212089473906E
:1012230002120894DA9002120894ED9002120894C4
:10123300FB9002120894AF91021208949392021247
:1012430008949993021208942394021208942D94FB
:10125300021208949A9402120894B1940212089408
:10126300E394021208941C95021208944695021204
:101273000894A79502120894C79502120894E5955D
:10128300021208942B9602120894519702120894A2
:101293009E9702120894CD97021208944398021263
:1012A30008946B9802120894A49802120894B298B6
:1012B300021208940A990212089459990212089486
:1012C300989902120894C89902120894F499021288
:1012D3000894FF99021208941D9A02120894DF9A47
:1012E30002120894E99A02120894249B02120894A9
:1012F3003A9B021208948F9B02120894A39B02123A
:101303000894A09C02120894B39C02120894C89CEF
:10131300021208946A9D02120894ED9D0212089429
:10132300AB9E02120894B69E02120894E29F021228
:101333000894FE9F0212089450A0021208948FA0F2
:1013430002120894A4A00212089406A1021208949F
:1013530095A102120894E0A10212089431A402128A
:101363000894AFA40212089424A50212089446A775
:10137300021208945EA70212089461A7021208944D
:101383006DA70212089481A70212089489A702127A
:101393000894BCA7021208946CA802120894E2A84D
:1013A3000212089455A90212089409AA0212089479
:1013B300BEAA02120894DDAA021208947DAB02129F
:1013C300089489AB02120894B4AB02120894B7AB29
:1013D3000212089421AC0212089449AD0212089437
:1013E30021AE02120894ACAE02120894C5AF0212E9
:1013F300089482B002120894BBB002120894ECB0B5
:1014030002120894AAB102120894DAB102120894E3
:10141300B5B2021208944EB302120894D9B3021261
:1014230008948AB4021208940DB5021208943FB5C9
:101433000212089480B5021208947FF501120894F1
:10144300E4F5011208941CF6011208946BF60112DC
:1014530008948DF80112089470FA01120894CEFDD5
:101463000112089403FE0112089425FE0112089448
:101473008AFE01120894C0FE01120894E3FE0112D1
:10148300089410FF011208946CFF01120894509DF8
:1014930003120894D19D03120894079E0312089423
:1014A3006E9E03120894E19F03120894FD9F03129A
:1014B300089442A003120894D0A00312089429A10F
:1014C300031208945DA2031208942BA30312089439
:1014D300A3A3031208941FA40312089461A4031284
:1014E3000894A2A403120894D6A503120894D4A6C0
:1014F30003120894FFA6031208944AA70312089440
:1015030091A70312089423A803120894DCA80312DA
:1015130008942395041208940080041208941180FF
:10152300041208943480041208944080041208942E
:101533005B8004120894A18004120894CC800412E6
:101543000894E980041208946281041208948B8140
:101553000412089425820412089448820412089401
:101563005FFE0312089470FE03120894C1FE031277
:10157300089406FF03120894A7D702120894C59291
:1015830004120894008A04120894588B04120894D5
:1015930062A90312089409AA0312089429AA031240
:1015A300089450AA0312089464AA03120894BCAACC
:1015B30003120894ECAA031208946DAC0312089466
:1015C30013AD03120894F5AD0312089446AE03124B
:1015D3000894D3E202120894CCAE0312089432AFFB
:1015E3000312089453AF03120894DFAF0312089455
:1015F30007B0031208947BB00312089429B20312B4
:10160300089403B3031208945DB3031208948F86FE
:1016130004120894B08604120894E1870412089413
:101623000B8804120894FA8C041208946D8D04122A
:101633000894788D04120894998D041208941391D8
:1016430003120894169103120894D091031208947C
:10165300FB910312089442920312089467920312B7
:101663000894889203120894BC9203120894F5928A
:10167300031208941E9403120894559403120894B9
:10168300759403120894109503120894D5950312C8
:1016930008940C96031208948197031208942498D3
:1016A300031208941D99031208944699031208948F
:1016B3009A9903120894609A031208948E9A03125B
:1016C3000894239C03120894A49C03120894D79CA7
:1016D3000312089471B3031208947BB303120894A2
:1016E300C7B30312089435B40312089456B4031213
:1016F30008946DB4031208941DB503120894B1B78E
:1017030003120894BAB7031208940DB8031208948D
:1017130036B8031208949DB8031208942EB9031225
:10172300089470B903120894BAB90312089419BA49
:101733000312089445BA03120894D6BA0312089404
:1017430015BB0312089454BB0312089489BB0312FC
:1017530008949BBB03120894ADBB03120894EFBB20
:1017630003120894F8BB03120894AEBC0312089446
:10177300EEBC0312089429D703120894FCD7031272
:10178300089416D80312089427D8031208943CDA55
:10179300031208945BDA03120894AE7D00120894D6
:1017A300E47D001208942D7E001208947D7F0012C0
:1017B30008946069001208949F6A00120894DB6A17
:1017C300001208949A6C00120894C36C00120894D7
:1017D300566F001208949A6F001208942371001236
:1017E3000894BB7100120894237200120894C47207
:1017F30000120894067300120894467300120894AA
:10180300D17400120894417600120894667800128D
:101813000894947800120894BB7800120894C47852
:10182300001208941F7900120894B27900120894E8
:10183300D07C00120894517D00120894E07F0012BE
:101843000894F67F00120894CDEA03120894E0EAA4
:10185300031208947DEB03120894B8EB0312089467
:10186300D3EB03120894F8EB031208943DEC031234
:1018730008946EEC031208949FEC0312089425EE6F
:10188300031208947F8F04120894BC8F04120894E7
:10189300FE8F041208940E9004120894A39004126D
:1018A3000894AD900412089480F702120894B6F7D6
:1018B3000212089401F902120894E4F9021208943E
:1018C30083FB021208940EFE02120894DCFE02123D
:1018D3000894DFFE021208940080031208944580E6
:1018E300031208942E8103120894C78103120894EB
:1018F300118203120894738203120894CC82031298
:101903000894AE84031208942B850312089455851A
:10191300031208944E8703120894698703120894EC
:10192300B88703120894CE8703120894DB87031247
:1019330008940B88031208942488031208943388AC
:1019430003120894918803120894EB8803120894F5
:101953003D8903120894508A03120894BD8C031224
:101963000894EB8C03120894798D03120894DA8D92
:1019730003120894DF8D031208941B8E031208943C
:101983008C8E03120894348F03120894598F031218
:101993000894638F03120894668F03120894D58FFB
:1019A30003120894F08F031208940390031208940F
:1019B3002F90031208946A90031208946D900312F7
:1019C3000894A99003120894BC9003120894E3901E
:1019D300031208946C9604120894849604120894D3
:1019E30058C603120894A7C60312089449C80312E1
:1019F300089407CA031208944FCA0312089471CBC0
:101A030003120894A2CC03120894C4CC03120894C2
:101A130020CD03120894A2CD031208944CE40212C1
:101A2300089477E40212089464E502120894E9E545
:101A33000212089452E6021208949EE602120894D7
:101A43001DE702120894AFE7021208943BE8021262
:101A530008947DE802120894E9EC0212089469EEF6
:101A630002120894A8EE0212089489EF0212089455
:101A73008CEF0212089440F00212089475F10212DE
:101A83000894D6F30212089462F40212089487F5BC
:101A93000212089466F602120894E8F602120894F9
:101AA30019E201120894D3E20112089445E30112EA
:101AB300089454E301120894CEE3011208943DE420
:101AC3000112089444E5011208946DE5011208948B
:101AD3000DE6011208945BE601120894CBE60112AD
:101AE300089484E9011208945BEA01120894C8EA95
:101AF3000112089445EC01120894F9EC01120894C0
:101B0300A7ED0112089402EE011208946DEE011282
:101B130008946DEF0112089447F1011208945AF2E8
:101B230001120894F3F20112089465F30112089468
:101B33002BF40112089404980412089406980412D2
:101B430008945982041208948A82041208944483E4
:101B530004120894AA83041208941B8404120894A0
:101B6300FAF103120894C8F303120894B893041209
:101B73000894C99304120894699404120894488839
:101B8300041208945688041208940B9804120894BB
:101B9300A29504120894B29504120894CA950412EB
:101BA3000894129604120894C3910412089448925C
:101BB30004120894AC9204120894F3FF02120894DE
:101BC300ABDF03120894C0DF03120894B1E00312E1
:101BD3000894F2E0031208940EE1031208948EE1D4
:101BE30003120894A7E2031208940DE30312089466
:101BF30031E30312089432EE0312089440EE031209
:101C03000894BAEE0312089492EF031208941DF19C
:101C13000312089469F403120894B7F403120894A6
:101C230054F503120894FFF50312089417F60312F0
:101C3300089493F603120894A9F603120894BCF6C9
:101C430003120894CAF603120894D6CD031208941B
:101C53002BCE0312089427D00312089459D00312F1
:101C630008947BD00312089494D003120894ADD047
:101C730003120894B7D10312089452D203120894A2
:101C8300A78B04120894CC8B04120894DC8B0412E7
:101C930008940F8C04120894408C04120894758CD9
:101CA30004120894D78C04120894E68C0412089446
:101CB300F08C041208940EF70312089434F70312FD
:101CC300089471F70312089480F7031208949FF79E
:101CD3000312089407F80312089410F803120894E7
:101CE3006FF80312089493F80312089452F903123D
:101CF30008945FF90312089470F903120894479744
:101D030004120894649704120894FADB03120894EB
:101D130058DD0312089465DD0312089478DD03127D
:101D2300089497DD03120894ADDD03120894C1DD16
:101D33000312089444DE03120894A7DE03120894E6
:101D43002EDF031208948CDF031208949CDF031226
:101D530008948A9404120894AE9404120894D694B6
:101D630004120894FE94041208949EF90312089432
:101D7300C5F903120894E6F9031208944BFA031207
:101D8300089404FC031208941DFC0312089429FC14
:101D9300031208943DFC031208945BFC031208949D
:101DA30065FC031208946FFC0312089482FC03126F
:101DB3000894D3FC031208940CFD031208943BFD12
:101DC3000312089489FD03120894D8FD03120894A2
:101DD300F3FD03120894FDFD031208940EFE031293
:101DE300089454FE031208941B960412089417BD1A
:101DF3000312089443BD031208945FBD03120894B1
:101E030072BD0312089488BD03120894F4BD031233
:101E1300089427BE0312089456C2031208947CC385
:101E230003120894AFC303120894FBC3031208946C
:101E330034C5031208945CC50312089471C50312D8
:101E4300089481C503120894C5C5031208941AC6E1
:101E5300031208942AC6031208944C8E04120894A1
:101E6300678E04120894908E04120894AA8E0412AA
:101E73000894CF8E04120894EE8E04120894068FF1
:101E830004120894348F041208944E8F0412089499
:101E93000397041208944DE70312089454E70312BE
:101EA300089460E80312089490E803120894B6E8D3
:101EB30003120894D9E803120894FBE80312089468
:101EC30035E9031208949BE903120894D4E9031239
:101ED300089420EA031208944DEA031208946DEA69
:101EE30003120894AF8404120894C784041208945C
:101EF300AD85041208948C8604120894B0900412E1
:101F03000894229104120894609104120894A191F8
:101F1300041208947FE3031208949EE303120894C7
:101F2300EDE30312089409E4031208943AE403125C
:101F330008944AE40312089457E40312089464E4EF
:101F43000312089450E5031208948EE503120894D3
:101F530098E503120894A8E603120894B3E6031263
:101F63000894C5E603120894CEE603120894D8E653
:101F73000312089491D203120894B1D60312089461
:101F8300BFD603120894B8FF011208948397041272
:101F93000894C7FF03120894B09704120894D897C3
:101FA3000412089470D602120894C4D5021208943D
:101FB3000AD402120894BAD10212089441D102122F
:101FC3000894E8D00212089478D0021208944FD0F3
:101FD300021208942FCE02120894FBCD0212089429
:101FE300C8CD02120894ACCD02120894BBCC0212E5
:101FF300089473CC02120894BECA021208943ECA13
:10200300021208943BCA021208943BC902120894B4
:1020130009C90212089446C80212089471C6021232
:10202300089427C60212089430E202120894E3E0EF
:10203300021208948EDE021208942EDE0212089415
:10204300E6DD02120894F9C502120894F6C50212DD
:102053000894E3C5021208948EC50212089458DD51
:10206300021208947DC50212089473C402120894E4
:1020730009C402120894B7C3021208944BDD02127A
:10208300089489AE0312089458C30212089427C314
:1020930002120894EFBF02120894AFBF0212089411
:1020A300A3BF0212089403BF0212089443BE021294
:1020B3000894C5BB0212089456B90212089414B9C5
:1020C30002120894E8B7021208949DB7021208940A
:1020D300DCB6021208941FB602120894EFB502751B
:1020E3008A00C2EB32120894B5B50212089445DA9D
:1020F30002120894B0FF0300000080FBE4730001A8
:10210300363601010001020100010301000104014F
:10211300060605020000070100340801000F090448
:1021230001010D0100FF0E08000017020000190154
:1021330000FF1A0100011B0100FE1C0100081D0223
:1021430000001F0100012001000121020000230102
:10215300000F2402000026010001270100082802C5
:1021630000FF2A0100072B0102402C0100002D0172
:1021730000012E0100012F0100FF30010B1C31086B
:1021830000003A0100083B01000F2F010000030289
:1021930071023001600211027002010202020202A6
:1021A3008002100261023A0041006302730272026C
:1021B300620243020002130238000002000204021A
:1021C30012020002000200020002040204023700AD
:1021D30037003C024402000239000002000265029B
:1021E300000235028102000205028202830200021C
:1021F3000300710030016000110070003102200300
:10220300500480001000610000001400630073009C
:10221300720062004300000013000600000000008B
:10222300040012000000000000000000040004008D
:10223300370037003C0244000000000000000000AB
:1022430065000000350081000000050000008300E8
:102253000000030471040204600411047004020406
:10226300020401040204100461040004140463045E
:102273007304720462044304000413040604000498
:1022830000040404120400040004000400045104C4
:102293006400000400040004440400040004000477
:1022A300000465040004350481046400050400048B
:1022B3008304000401037103010301030103010308
:1022C30001032203020301031003000300030003BD
:1022D3000003000300030003420300032403060377
:1022E300000300030403120325032303250323032D
:1022F3000403040300030003000344030003000377
:102303002303000365032100350381030003050351
:102313000003000300030101710101010101110127
:1023230001013101010101018001100161013B0043
:10233300140063017301720162014301000113017F
:1023430006013D01350004011201000100010001F5
:10235300000104010401330133013C014401320152
:102363003600000100016501000135008101000113
:10237300050182018301000136000100060000000F
:102383000F0000000000000000000000000003FF39
:10239300FF00000403FFFF0000FFFF0FF40100052F
:1023A300C4040320000100000B0000000000000033
:1023B3000003010F0000DC1A13007C1A0100DC1A71
:1023C3000200341A03003A1A0400401A0500461AA0
:1023D3000600521A1100701A1400761A1500641AB6
:1023E300FFFF000001640E068E0E08880E0BA60E7A
:1023F30010E00D026A0E057C0E07700E0C460E0DE2
:10240300580EFF000003EAF5E5D5D5C5B5A59595AA
:1024130085857575656555554545353525251515E9
:10242300058412B4128A129012AE12A2129C12BA2E
:1024330012C012C612D21296127E12781200160F12
:1024430000000B150B020002220F3200000674136A
:1024530086138C134E129213481254128811821150
:10246300BE11C411B8117011D413F213F813DA1397
:10247300E613E013303016181920231A1C1E300CF3
:102483000E020B040B0A0708000F00383C3E363BD4
:102493003B352B432C303017181921301B1D1F30AF
:1024A30000011916181616152303000003494842A4
:1024B3004D1817250502C81398139E13AA13A413C6
:1024C300A812CC12EC13D812DE120204020101018D
:1024D30001090294119A118E11CA11000000000023
:1024E30000A011B21100BE040A0E00150004007F03
:1024F30000E8030C002800000000000308100C0A89
:1025030003080900040001FF1E1E0C05040F08C088
:1025130082C0838A828B83E0D2E7F012199202355C
:10252300C4C082C08379001229DE125788C082C0DA
:10253300839003341249D3D083D082C3E09CA3E0B9
:102543009D500C125FB9FAA3E012255560010902F0
:1025530035C4FBEA75F00BA4FAA8F075F00BEBA4F5
:1025630028FB900336E02AF8A3E03B8882F583E05A
:10257300540F2274F712045489081229DE122A8494
:10258300ACF075F00BE9A42CF9900336E028FEA318
:10259300E039FF7401650860067402650870208ADB
:1025A300828B83122A701239A074026508701B1281
:1025B300292F122AB770138E828F83E4F0800BEADF
:1025C3002403FCEB122A52122A5EEEFAEFFB120BE3
:1025D300640238FC74F41204541268E779008E82A2
:1025E3008F83E06076890A890B8065E50A75F00BB5
:1025F300A4FAA8F075F00BE50B1225627046E50A04
:1026030075F00BA4F8AAF075F00BE50B122A968E61
:10261300828F83E0850882850983122B788508825F
:10262300850983A31239A0EE2403FCEF122A5B125F
:102633003385125373AA08AB09120B647901900313
:1026430034124D82E50A2401F50AE50B3400F50B3B
:10265300122937E50A9AE50B9B4090024FB074F5B7
:10266300120454EAFEEBFF740B120B4512378B7501
:102673000A01EC4D602BEC126903ED1257881239F5
:10268300977901120B70E5084509606F850882850B
:102693000983A31268F17902AA08AB09120B7080AF
:1026A3005AE5084509602B1258F0123FC1123386D0
:1026B300122AA1700CEEFAEFFB120B76E9F50A80F1
:1026C300CBEE2403FA1229D970317903EEFAEFFB2A
:1026D30080CA8E828F83A3E064FE7003A3E0F4704C
:1026E3000BEE24030A0A0A1229D9700CEEFAEFFB47
:1026F300120B76E9F50A8003750A00A90A7F030223
:10270300066D74F712045490033412390CEA4B60CB
:102713002FEA75F00BA4FAA8F075F00BEBA428FBD5
:10272300EAFEEBFF1217A690033612390C9003361C
:10273300124BC76012EEFCEFFD79001216E680071C
:10274300900336E4F0A3F00238FC900334124331D3
:10275300C3EE98EF9922C082C083EC4D6005121F2F
:102763000E80097C087D0079001216E60235C474D8
:10277300F61204547900EA4B601878008808125C5A
:1027830028EB125FB560047901780808E8C3940860
:1027930040EA02315A74F712045474F3120973ECC9
:1027A300FEEDFF851882851983E4F004120B45EAD8
:1027B300F0A3EB1250FC7403120B45AC82AD83EE15
:1027C300FAEFFB120B88EEFAEFFB120B8E0238F7CF
:1027D30074F712045474F3120973ECFEEDFF8518B9
:1027E30082851983E4F0EAFCEBFD7403120B4512B6
:1027F3002B717401120B451239938E828F83123918
:10280300A074FE68700374FF696004790180027923
:10281300000238F774F7120454EAFEEBFF1228752E
:1028230070141228808E828F83E0F4F88A828B835F
:10283300E058F0120B64A9080238FC74F712045430
:10284300EAFEEBFF7508008E828F83E06022122878
:1028530075701D1228808A828B83E08F838E82F8A5
:10286300E058700CE0F88A828B83E048F0120B6426
:1028730080C4120B6AE9F50874016508221268FC2A
:10288300122A881229CAFAA3E039FB2274F412042B
:10289300548A088B097C007D0012292F122A5E12AC
:1028A30029EF1268EE7900850882850983A3E06425
:1028B300FE7003A3E0F460717E007F008062EEFA95
:1028C300EF1225556057EEFAEFFBEA75F00BA4FA09
:1028D300A8F075F00BEBA428FB900336E02AF50A69
:1028E300A3E03BF50B850882850983A312504A8533
:1028F3000A82850B83A3E06A7003A3E06B701EE575
:102903000A2403FAE50B1229DA700AE50A2403FC08
:10291300E50B122A5B1229E379011258F71232BC34
:10292300122937EE9AEF9B4095024FB0EA24030A2F
:102933000A0AEB229003341254D9C32274F312040B
:10294300548A088B098A828B83A31268F11229DEC9
:102953001268EE750C0012292F1229DA70547E00CA
:102963007F0080491229BCFAA3E0398A82F583E00B
:10297300540F60361229BCF50AA3E039F50BE50ABA
:102983002403FCE50B122A653400FB121F08E964DB
:10299300017017850A82850B83A312559AA31239F6
:1029A300A01229E3750C011258F71232BC12274DFD
:1029B30040B2A90C7F0502066DEEF8EFF9E875F059
:1029C3000BA4F81229CA22AAF075F00BE9A42AF97C
:1029D300900336E02822EF122AB122126902EB2279
:1029E3001229EF12338FEEF0A3EFF022E5081269FC
:1029F30003E5092274F5120454EAFEEBFF8E828F7D
:102A030083A31268F17C007D00EE24030A0A0AEF17
:102A1300122A5EEEFAEFFB120B6AE9F50A740165FE
:102A23000A70291268FC122A84AAF075F00BE912C5
:102A33002A96850882F583122A70122AA1700DE561
:102A4300082403FCE509122A52122A5E0226FE34E8
:102A530000FDEE2403FAEF22122A653400FB120B69
:102A630088223400FDE5082403FAE50922A3122A8B
:102A73007522122A7922E0F8A3E0F98E828F83A3CC
:102A830022122A88223400F583124335E875F00BAD
:102A9300A4F8221229D0F508A3E039F50922E8F0B9
:102AA300A3E9F0E5082403FAE509122AB122122A60
:102AB300B76401223400FB120B8EE92274F3120473
:102AC3005474E61209731268E7750C0175080075F2
:102AD3000900750A00750B00851882851983E4F0D7
:102AE300EE2403FCEF3400FD7403120B45122B712B
:102AF300E964017023740B120B45123997740112A8
:102B03000B4512504E7003A3E0696051851882850E
:102B13001983858208858309740D120B45E4122BF2
:102B230078740E120B451239A0740D120B45AA824C
:102B3300AB83120BACE96401700B740D120B45856A
:102B4300820A85830B780A1208CCAC08AD09EEFA29
:102B5300EFFB120B7C74021208F9E9F50CEEFAEFA5
:102B6300FB120BA6A90C741A1208F90229B7122E2C
:102B730062120BB22212390712433122C082C08380
:102B8300780079008003122C6F122937E89AE99BA9
:102B93005029E8FAE9FBEA75F00BA4FAACF075F0FA
:102BA3000BEBA42CFB900336E02AFCA3E03B8C82C6
:102BB300F583E0540F70CF7900800279010235C4A8
:102BC300C082C0839024EE124387EC75F012A4FCFC
:102BD300A8F075F012EDA428FD79FF7AFE7B0712A9
:102BE30016E60235C474F7120454E9FEEAFF7A00CC
:102BF3007B00780079008028E8FCE9FDEC75F01291
:102C0300A4FC85F00875F012EDA425081230A2C3C8
:102C13009E400AE0FCEFC39C4003123191122C6FDB
:102C230012309640D30238FCC082C083780079000A
:102C33008003122C6F122C63501F1230A6F470F213
:102C4300E875F012A4F8AAF075F012E9A42AF97451
:102C5300FE28FA740739FB80047A007B000235C42E
:102C63009024EE12315FC3E89AE99B22E82401081D
:102C7300E93400F92274F012045474F31209738ACC
:102C83000A8B0B8C0C8D0D8908EC450D6016AA0C74
:102C9300AB0D120C008A0E8B0FAE0EAF0FEE4F6012
:102CA30003022D36120BD68A0E8B0FA80EA90FE83E
:102CB300FEE9FFE849607C9024FC122DB660227483
:102CC30003650860067404650870167A04790312B4
:102CD3000BD09024FC122DCD40077A007B00022DEF
:102CE300B39024FA122DB6601B7401650860067454
:102CF300026508700F7A027901120BD09024FA1240
:102D03002DCD50D68518828519837401F0120B4599
:102D1300125373AC0CAD0D7403120B45122E5B747E
:102D23000B120B45123782123D53E412535B121000
:102D3300C88004EE4F6068780074FF2508C39404CC
:102D4300500278048E828F831253738E828F83A3F3
:102D5300A3A3A3E508F0E88E828F83A3A3A3A3A371
:102D630012537B120303E88E828F83A3A3A3A3A32F
:102D7300A3A3A3123B377401123B37A3F0EE241035
:102D8300125785E4F0A312353BA3F0123385E4F028
:102D93009081A8120B22EE240C125785120B2E12CF
:102DA3002DBB4005900D5AE4F0120FA2EEFAEFFB93
:102DB30002433B12548F49227A047900120BD090BC
:102DC30024EE125F9BEA98EB9922122DE675832479
:102DD3007582EEE493C398F8A3E49399F9C3EA9850
:102DE300EB9922E493F8740193F92274F2120454D8
:102DF30074F31209738A088B09ECFEEDFF750A0060
:102E0300EEFAEFFB120C008A0C8B0DA80CA90DE84F
:102E130049603E88828983E065087004A3E0650900
:102E2300602F88828983A3A3A3A3E0C394055021C1
:102E330012579E8518828519837401F0120B45126F
:102E430057A2EEFCEFFD7403120B45122E5B750ABD
:102E530001A90A740D024E39122E62120BBE22AA68
:102E630082AB83120B88851882851983AA82AB8370
:102E73002274F6120454122EB0600FA3A3A3A3E08E
:102E830014C39404500479018002790002315A7406
:102E9300F6120454122EB0600FA3A3A3A3E014C32D
:102EA3009402500479018002790002315A120BFA1C
:102EB3008A828B83E58245832274F6120454122E90
:102EC300B0600BA3A3A3A3E070047901800279008F
:102ED30002315AC082C083EAFCEBFD7A007B000218
:102EE30035C1C082C0837C007D000235C174F412F9
:102EF300045474F3120973EAFEEBFF8C0A8D0BC3BF
:102F0300EC94F8ED94FF4007EE4F7003022FA97580
:102F13000800750900802E8518828519837401F0D5
:102F23001232E4120B451232F260137403120B4592
:102F3300AC82AD83EEFAEFFB121F08E97049E50896
:102F430024011231429024EEE4126223E50898E54D
:102F530009995052E50875F012A4F8AAF075F01219
:102F6300E509A42AF9125FCE60D4EE4F70A974FF6D
:102F7300650A700474FF650B60C41232D4650A706D
:102F830004A3E0650B70B7E50875F012A4F508A873
:102F9300F075F012E509A428F50974FE2508FA7402
:102FA300073509FB80047A007B00024FAB74F412EF
:102FB300045474F3120973750800120C008A0A8B07
:102FC3000BAE0AAF0BEE4F602A8518828519837406
:102FD30001123901F8A3E0F9740B120B45123A1BE5
:102FE300120BA07C127D0079FFEEFAEFFB1216E6BE
:102FF300750801122DBB5009900D5A7401F0120F80
:10300300A2A908024FAB74F7120454E9FE74FE6AD6
:10301300700374FF6B7800790070058052122C6F77
:10302300123096504AE8FCE9FDEC75F012A4FCAFAF
:10303300F075F012EDA42F1230A2F460E0E8FCE981
:10304300FDEC75F012A4FC75F012EDA42FFD74FED7
:103053002CF58274073DF583E06A7003A3E06B707F
:10306300BC80091230A614C394044017122C6F12AB
:103073002C635018EE70EC1230A664016005E06416
:103083000370E91232C5FAA3E0FB80047AFE7BFFEA
:103093000238FC9024EE12438BC3E89CE99D221274
:1030A30031C622E8FAE9FBEA75F012A4FAACF0752E
:1030B300F012EBA42CFB74022AF58274083BF5830F
:1030C300E022120C120235C4C082C083790180F25F
:1030D30074F01204548A0A8B0B7A047901120BD010
:1030E3008A0C8B0DEA450D603EEAC333FAEB33FBE2
:1030F3001217A68A088B09AE08AF09EE4F60237A30
:10310300FE7BFF120C1874FE6A700374FF6B601B66
:1031130085088285098312390CE50824021231429D
:1031230080E1750C0080047E007F00850A82850B98
:1031330083E50CF0EEFAEFFB024340E5082407F5C4
:1031430008E5093400F509229024EE12438BC3EA03
:103153009CEB9D221208F97F0202066DE493FA7438
:103163000193FB22C082C0837A007B008004191282
:10317300319112314B50101231B0C3940550F0E924
:1031830070EC12319A80047A007B000235C4EA2481
:10319300010AEB3400FB22EA75F012A4FA75F0126F
:1031A300EBA428FB74FE2AFA74073BFB22EAFCEB30
:1031B300FDEC75F012A4FCA8F075F012EDA4281232
:1031C30031C622FD74022CF58274083DF583E0229A
:1031D30074F712045474F31209737E007F000232F1
:1031E30078E50875F017A4F8A9F0126236FAA3E09F
:1031F300FBEEF8EFF9E875F012A4F8ACF075F012F5
:10320300E9A42C1232D36A7003A3E06B603FE50894
:1032130075F017A4F8AAF0EA126235F8A3E0F9747E
:1032230001120B45E0687003A3E0696020E50875AF
:10323300F017A4F8EAF9747A28FC740939FD7403C9
:10324300120B45AA82AB83121F08E96014E50875C7
:10325300F017A4F8A9F0747828FA740939FB12104E
:10326300D40508902500E493F8E508C398500302B9
:1032730031E41232BC9024EE12657C5039EEF8EF43
:10328300F91232C5F47003A3E0F460E68518828571
:1032930019837401F0EEF8EFF9E875F012A4F875EC
:1032A300F012E9A42AF91232E4120B451232F26049
:1032B300C175080080AD0238F7EE24010EEF34002B
:1032C300FF22E875F012A4F8AAF075F012E9A42A17
:1032D300F91232D82274FE28F582740739F583E097
:1032E30022740028F58274083912432F740B22E8E4
:1032F300F0A3E9123A23120BB8E922C082C08390EB
:1033030003417476F0A3740EF00235C474F712040B
:1033130054EAFEEBFF900377E06408601BE064046B
:1033230060168E828F83E0540364017048123385E4
:10333300123E40E06406703D8E828F83A3A3E06457
:10334300FE7003A3E0F4602D8E828F83A3A3123952
:1033530093900368E0687003A3E069700BEE241593
:10336300F582EF125FB56008120F30E9F5088008A7
:10337300120F3680F67508C2EEFAEFFB1217AC0295
:103383002839EE12338A22240BF582EF3400F583B9
:103393002274F41204548A088B098A828B83E0F81E
:1033A300A3E0FAE82AFAE43400FB1217A68A0A8B90
:1033B3000BAE0AAF0BEE4F6060850882850983E090
:1033C300FC7D0079001216E68E828F83A3A3126818
:1033D300F1120F728E828F83A3A3A3A312390C85DC
:1033E3000882850983E0F8EE28F8EF340012399B50
:1033F300850882850983A3E0C0E0125782D0E0F0FC
:10340300120F84EE240E125785E9124FA1E0C0E09B
:10341300EE2411125785D0E0F0EEFAEFFB024FB025
:1034230074F412045474EB1209738A088B098C0A1E
:103433008D0BE9FE900377E064046005E064087097
:103443000479C2802EA37808120B06EE90037E1235
:103453003602120B067405120B45E9F07404120BC5
:10346300457401F07407120B45E4F090037774027E
:1034730012355F7415024FAD74F612045474EB12D7
:103483000973EAFEEBFF124BC4600302351F7A0790
:103493007B001217A690033912390C124BC46078C3
:1034A3008E828F83120B2290033A123E43120B2E0D
:1034B3001267B5C0E012352BD0E0F0EE2405FAEF29
:1034C3003400FB8A088B098A82F583E0C0E0123559
:1034D30026D0E012353BE0C0E0123526A3D0E0123F
:1034E3003980120B22851882851983120B2E88824C
:1034F3008983E0C0E07405120B45D0E0F0850882B3
:10350300850983E0C0E07404120B45D0E0F0740732
:10351300120B4512355E800679108002790174150D
:1035230002315712352BA322900339E0FAA3E0F5B9
:10353300838A82A3A3A3A322123D5B22C082C083FA
:10354300124BC4600D9003391254C7900339E4F051
:10355300A3F0120EA01210740235C4E4123A23121F
:103563001F3E22C082C083900338E07003121A6AA0
:10357300120C5A804CC082C083900338E0900D59DE
:103583007004E4F0802D7401F0900338E0F46023BC
:103593007C41E0C394415002E0FCECF8E0C398F0B6
:1035A300EC75F0E8A4CCA8F075F003A428FD7A80AC
:1035B3001243937A597B0D7941121F268003120C13
:1035C30006D083D08202089174F412045474EB126F
:1035D30009738A088B098C0A8D0B90037774011287
:1035E3003602120B067405120B45E9F07404120B34
:1035F300457403F07407120B4512355E02347612DC
:10360300398B78082274F71204547C01120C6C0273
:1036130038FC74F212045474FC120973E98518829D
:10362300851983F0EAFEEBFF8C0A9003751249D3E8
:10363300120E948A088B09EA4509700579CA023784
:103643007D8A828B83A3A3A3A3A3A3A3E064FE70B9
:1036530003A3E0F4700579C302377D90037512501C
:103663004A1210DA850882850983A3A3A3A3A3A31F
:10367300A3A3A3A3E0049003881238DB7402120B04
:10368300457402F014120B45AA82AB83120FDE8A33
:103693000C8B0DAE0CAF0DEE4F700302377412336B
:1036A30085123FB57406F0A3A882A9839003621222
:1036B300550412430EF0EE2413125785740112536E
:1036C300537440F0A3E4124F9AA3A3123782123922
:1036D300A0EE2411125785E50AF0EEFAEFFB120C67
:1036E30036E9FE60030237769003777409F01231EE
:1036F3003EAA08FB794B121F26850882850983128F
:1037030038CD1239A090036AE0F8851882851983B1
:10371300E068600CE090036A123A1F79E1121F26F9
:10372300900DDE123993900DE0E0687003A3E06919
:10373300601A90033B1239A0900DE012504A120F09
:103743009C900DE01249D37A011243937A007B04D3
:103753009003C2E0F912186C900DE012378B7402DB
:103763007808120A28AC08AD09FA7B041243958045
:10377300027E1090053EE4F0EEF97404024E391215
:10378300378622122A79A322E0F508A3E0F509225D
:1037930074F512045474E21209738518828519832F
:1037A300ECF0A3EDF0EAFEEBFF89087429120B4558
:1037B300E0F509742C120B45E0F50A900377E064F9
:1037C300046005E06408700579C20238C5742A12E2
:1037D3000B45E064FE7003A3E0F4700579C302387F
:1037E300C59003777403123A1F7950121F26742A67
:1037F300120B45AA82AB83794B121F26851882854B
:1038030019831238D41239A0E50890036AF0742A98
:10381300120B451238CD1239A0E509900362123814
:10382300DB74CE55094480C0E07412120B45D0E01E
:10383300F07401250A900388F0740F120B4574028B
:10384300F0742A120B451239937407120B45E8F0F2
:10385300A3E91239127410120B451239A074051220
:103863000B45E508F0741B120B45E4F090037D74DF
:103873000FF07A7D7B037954121F2690037C740F1B
:10388300F07A7C7B037947121F2690037CE0C39474
:103893000F50237405120B45E0C0E07402120B4570
:1038A300D0E0F07404120B457401F004120B45AA26
:1038B30082AB83121F4A7405120B45AA82AB831293
:1038C3001F2C741E1208F902270012433190036B58
:1038D3002212433190037522F0EEFCEFFD7A897BCF
:1038E30003121F0E2274F7120454EB90037FF0129D
:1038F3000E828005740D1208F97F0102066D1239DC
:1039030007A3E022123980A322EAF0A3EBF02212EC
:103913003986F8A3E0F92274F712045474F81209F3
:1039230073EAFEEBFF7900900377E0640870448547
:10393300188285198374FDF0A374FFF0120F6C7461
:1039430002120B4512390C7405120B45E4123907A8
:10395300E0C0E07404120B45D0E012397BC0E07480
:1039630006120B45D0E0F07407120B45E4123A1F20
:10397300120FC074080238F9123980E022F08E82E7
:103983008F832212398BE022F085188285198322D6
:1039930012433122E0F8A3E0F9EE12338AE8F0A3F0
:1039A300E9F022C082C0839003497426F0A3740D0A
:1039B300F09003EF741AF0A37410F090034D745C4D
:1039C300F0A3740DF090034F7426F0A3740DF090E0
:1039D30003517462F0A3740DF00235C474F412043D
:1039E3005474F91209738A088B098C0A8D0B851894
:1039F300828519837808120B067404120B45E9F0CB
:103A03007405120B45E4F07406120B45E4123A1FD9
:103A1300120C487407024FADE8F0A3E9123A2322CF
:103A230012398BAA82AB832274F41204548A088B52
:103A3300098A828B831258FAEE4F7003023B34904B
:103A43000312124BC760158A828B83A3A3E0F9EE9E
:103A5300FAEFFB900313123E431220FF8E828F83F3
:103A6300A3A3A3A3A3A3A3A3A3E0640270718E8261
:103A73008F83A3A3A3A3A3A3E054027003023B0673
:103A8300850882850983A3A3E064E960768E828F2B
:103A930083A3A3A3A3A3A3A3A3A3A3E07014900D41
:103AA300F2E0048E828F83A3A3A3A3A3A3A3A3A360
:103AB300A3F08E828F83A3A3A3A3A3A3A3A3A3A3F0
:103AC300E014123B377404F0900DF312534DE8F0F9
:103AD300A3E91264198B0BEA450B7003125DEC8E9C
:103AE300828F83A3A3A3A3A3A3A3A3A3E0640260DE
:103AF300128E828F83A3A3A3A3A3A3A3A3A3E06490
:103B030006702E8E828F83A3A3A3A3A3A3E0A2E0B8
:103B1300501F850882850983A3A3E0F9EEFAEFFB22
:103B2300121FE08E828F83A3A3A3A3A3A3E054FE5B
:103B3300F0024FB0123D5BA3A3A32274EC12045412
:103B430074DD120973EAFEEBFF8C088D09743712DA
:103B53000B45780C120AE8750A007405120B45AC84
:103B630082AD831220347412120B45E07008741571
:103B7300120B45E060207405120B45E0A2E6501ECF
:103B83008E828F83A3A3A3A3A3A3A3A3A312504AA9
:103B9300120FF6E960087903121EF6023D4174051F
:103BA300120B45E0540C64047005750B018003751A
:103BB3000B00E0A2E55019750A01E50BA2E04010E5
:103BC3001268F8125046121FECE96004790480C8A9
:103BD3007405120B45E0A2E650227406120B45E071
:103BE300540370187405120B45E0540C640C600CFC
:103BF300E0540C64086005751001800375100074AF
:103C030005120B45E05403F8740268700C1268F84F
:103C13001250461215D2023D41740168703AE51004
:103C2300A2E05003123D497405120B45A882A983F3
:103C33007403120B45E8F0A3E91243258518828526
:103C43001983123D53E0C0E07402120B45D0E01219
:103C53003A1F1220D0023D41E86003023D41900328
:103C63005FE0640170108E828F83A3A3A3A3A3A339
:103C7300E07003023BCF7422120B457402124325FA
:103C8300741A120B451239A0E510A2E0500874050E
:103C9300120B45123D49E50BA2E0506AEE240FF5E5
:103CA30082EF125FB5C0E07417120B45D0E0F090BD
:103CB3000314124BC77003023D41120F728A128B19
:103CC30013A812A913741A120B45E0687003A3E03A
:103CD30069706B780C1208C4780A1208D07808123D
:103CE30008CCA910740C120B45AC82AD837421125D
:103CF3000B45AA82AB83900314123E401220FF743B
:103D0300071208F98038780C1208C4780A1208D010
:103D130078081208CC90037512073CEE2412F58242
:103D2300EF125CDF7423120B45AC82AD83740E1269
:103D33000B45AA82AB83121FD474091208F97423AA
:103D43001208F90263E41268F81254D512202E22E5
:103D5300E8F0A3E9123D5B22125E22A3A3A322741F
:103D6300F712045412194A0238FC74F7120454125D
:103D7300195C0238FCC082C0831219560235C47420
:103D8300F71204541219620238FC74F712045474C3
:103D930009120B45E0F50878081208D012196E7461
:103DA300010238F9C082C08312197A0235C4C08275
:103DB300C0831219800235C474F712045412198691
:103DC3000238FC74F7120454EAFEEBFF890874010D
:103DD300650870147900120D9E90250BE493FC790D
:103DE30000EEFAEFFB120D140238FC74F4120454C3
:103DF30074F9120973E9FE8A088B098C0A8D0B7416
:103E030013120B4512504A900588124BC76027EED8
:103E1300851882851983F07401120B457808120BFB
:103E230006EAF8EBF97405120B45123A1B90058864
:103E3300123E401220FF023A16FB90034BE0F8A318
:103E4300E0F58388822274F7120454900D5CE0F944
:103E53007E00800B125FA1540D64017001190E12D4
:103E630040435003E970ED0238FC74F71204549098
:103E73000D5DE0F97E00800B125FA1548D648170AB
:103E830001190E1240435003E970ED0238FC74F23D
:103E9300120454890BE975F006A4240CF508E5F027
:103EA3001231468A0CE508250CFAE5093400FB12A9
:103EB30017A68A0C8B0DAE0CAF0DEE4F6027AC0826
:103EC300AD0979001216E6123385E50BF0EE2508ED
:103ED300F8EF3509F98E828F83A3A3A3A3A3A3A32A
:103EE300A3A31239A0EEFAEFFB024E3C74F61204C0
:103EF30054EAFEEBFF120CF0900D5BE0F8E9C39877
:103F0300400990034512504A120CF6EE2402F8EFD2
:103F130012564A900347125504900347E004F0EE0B
:103F2300FAEFFB120CFC850882850983E0025AF53F
:103F3300C082C083790090034580010912504A8AE8
:103F4300828B83E582458370F20235C474F71204D1
:103F530054EAFEEBFFEE4F6056900345124BC760E9
:103F63004E888289837A007B00EE65827003EF6559
:103F730083600FAA82AB83123FB5E5824583602F2E
:103F830080E7900345123FC1687002EF698E828F0C
:103F930083700812399390034580031263F6123934
:103FA300A0EEFAEFFB1220A0EEFAEFFB1217AC0221
:103FB30038FC123FB9221243358882898322124387
:103FC30031EE22C082C083900345800488828983B6
:103FD300124BC7600B888289831249D3EC4D70EC76
:103FE3008A828B83E4F0A3F0E849600688828983A0
:103FF300800390034512390C0235C474F71204543C
:1040030090034580048A828B8312403E4B60257E59
:104013000080010E12404350ECEE75F006A4FCAD97
:10402300F0EA2CFCEB3DFDEC2410F582ED124093FD
:1040330070E180047A007B000238FC1254D9EA2232
:1040430012409CEEC3982274F71204547D00800141
:104053000D124098EDC3985034ED75F006A4FEA8F8
:10406300F0E8FFEA2EFEEB3FFFEE2410F582EF129D
:10407300409370DCED75F006A4FEE8FFEA2EFAEB40
:104083003FFBEA2411F582EB125FB54CF00238FCDA
:10409300125FC1692212409C22126902EB3400F5BF
:1040A30083E0F82274F6120454120E167A007B0091
:1040B3008025EAF8EBF9E875F006A4F8ACF075F0A2
:1040C30006E9A42C1254AE1267C3A3E41255A4F05C
:1040D300A31267C91269409024F6122DC540D37A02
:1040E300007B00801C8A088B0974037808120A2855
:1040F300124F68A374FEF0A30412538DA3E4126954
:10410300409024FF12414640DC7A007B00801D8AE8
:10411300088B0974037808120A2874A0125C2974A6
:104123000C12647B74FEF0A30412694090250512FF
:10413300414640DB902509E493900353F01241502C
:1041430002315AE493F8C3EA98EB9400227CE87DA9
:10415300037A107B009003C2E0F91218662274F010
:1041630012045474F51209738A088B09890A8C0B9B
:10417300E9A2E050147508FC7509FFA2E15005D2CD
:10418300E4024223D2E3024223124E287003A3E047
:1041930069700579000242F0AC0A7902AA08AB09FA
:1041A300120DF2E960EDE50AF50C780C1208D079EE
:1041B300027CFE7DFFAA08AB09124BA31208F9E9A2
:1041C30060030242EEE50AC2E5F50A9003B5E0702A
:1041D30051E50AA2E6404B7403120B45AC82AD8352
:1041E300AA08AB09120B94E970321244C48A0C8BEF
:1041F3000DA80CA90DE8FEE9FFE8496025EE2402AD
:104203000A0AEF122AB7601AEE2402FCEF3400FD0B
:104213007403120B45AA82AB83121F0EE50AD2E583
:10422300F50A900348E0F50C900368E0F50EA3E06F
:10423300F50F780E1208CC7D017C00900348E0F95D
:10424300AA0EAB0F120DAA74021208F9E9F8900333
:1042530048E004F0E860030242EEE50AA2E55004F8
:10426300740E80027406C0E07401120B45D0E01294
:10427300590B8A0E8B0FAE0EAF0FEE4F60691243D0
:104283000E124325888289837401F07478550AA33A
:10429300126908E50C126908A3E508F0E509124262
:1042A300FDE4F0E50AA2E5500F7403120B45AC825E
:1042B300AD83E824061242F48E828F83A3A374FD98
:1042C300F0A374FFF0E50B601590250CE493F8E57B
:1042D3000BC3985009EE2413125785E50BF0EEFA41
:1042E300EFFB120C3680067910800279C7740B80BD
:1042F30049FAE93400FB121F0E2288828983A3A3A3
:10430300A3A31243092212567DA322EE24171233CC
:104313008C7401F0120F6CEE241A12338CEAF0A3A2
:10432300EB22F01268FC340012432F22F583124370
:104333003522E0F8A3E0F922740D1208F97F080290
:10434300066D74F61204547A007B10125DF960084E
:104353009003D47401F08029900626E06401900D47
:10436300F07006E0FC79018004E0FC79037A007BBD
:1043730000120D149024F41243877A007B10124329
:104383009502315A12438B22E493FC740193FD226C
:104393007B009003C2E0F91218602274EC120454FB
:1043A3008A088B098C0C8D0D890E7414120B45121F
:1043B3004D827416120B45E0F510A3E0F511120FB0
:1043C300F6E960077AFF7BFF0244C1900623E064AD
:1043D3000260030244B47900AA08AB09120DF8A9DC
:1043E3000E120DEC8A128B13AE12AF13EE4F700345
:1043F30002449C8E828F83A3A3A3A3A3E064018EB4
:10440300828F83A3A3706912504A8E828F83A3A3E2
:10441300A3A3A3A3E05418604390250AE4938E82D8
:104423008F83A3A3A3A3F0EA650C7003EB650D6070
:1044330014EA650A7003EB650B600AEA6510700302
:10444300EB6511701F78101208CCAC0AAD0BAA0CE7
:10445300AB0D1210F274021208F980089003671270
:104463005DE3A3F074FE6A700374FF6B601D804EFE
:10447300A3A3A3E0640360298E828F83A3A3A3A3D2
:10448300A3E0640470057AFE0243C98E828F83A37E
:10449300A3A3A3A3E0640270089003B4E0640270D2
:1044A300101244C48B0BEA450B6006AA08AB0980C3
:1044B3000DAA08AB09900349123E401220FF026384
:1044C300E4900375124BA91210B62274F712045428
:1044D300EAFEEBFF120BE8E9700AEEFAEFFB120BB0
:1044E300F4E96006EEFAEFFB80047AFE7BFF023804
:1044F300FC74F01204548A0A8B0B8C0E8D0F8909FD
:10450300750800120FF6E97900600302466BAA0AE8
:10451300AB0B120DF8A909120DEC8A0C8B0DAE0C26
:10452300AF0DEE4F60198E828F83A3A3A3A3A3E0E5
:10453300640270559003B4E064027003024669AAF2
:104543000AAB0B90034F123E401220FF120BFA8A64
:104553000C8B0DA80CA90DE84970030246698882EB
:104563008983A3A3A3A3A3E0A2E040030246697542
:104573000C01A2E150687901AC0AAD0BAA0EAB0F96
:10458300120D44E970640246698E828F83A3A3A34C
:10459300A3A3E064037005750C0280528E828F839F
:1045A300A3A3A3A3A3E06401600302466990037578
:1045B3001249D38E828F831249BF8A0C8B0DA80CAC
:1045C300A90DE84960D1902503E493FA8882898391
:1045D300E0C39A50C2A3E0600302466980B98882AF
:1045E3008983A3A3A3A3A3D2E1F0EE4F603A8E8203
:1045F3008F83A3A3A3A3A3A3E05418602B7508017F
:104603008E828F83A3A312073C750CFE750DFF7872
:104613000C1208CC7900AC0AAD0BAA0EAB0F120E2C
:104623000A74041208F9803E900368E0650E700472
:10463300A3E0650F701490250BE493FCA909AA0A63
:10464300AB0B120D14750801801CA90CAC0AAD0B41
:10465300AA0EAB0F120D44E9700C750801A909AA43
:104663000AAB0B120D9EA90802434074EA120454CC
:1046730074F01209738A0C8B0D8C088D0974261241
:104683000B45E0F514A3E0F5157512069003F5123A
:104693004BC760239003751249D3AA08AB091210C4
:1046A300E08A108B11EA4511600D8A828B83A3E0A7
:1046B300700579000249A7E50C241DF50EE50D34BC
:1046C30000F50F850E82124BB3F51388828983A3FD
:1046D300A3A3E0FA88828983A3A3A3A3E0F9EA242E
:1046E30000FEE439FFAA08AB09120DA4850E8285EA
:1046F3000F831249F1E029F50BE50AA2E550037592
:10470300120E7487550A70177418550A6418600FCF
:10471300E50C2417F582E50D125FB5651260077984
:1047230001121EF6808C530A78C3EE94F8EF94FFBF
:10473300501D7900EEFAEFFB1249B16012888289AD
:1047430083A3A3A3A3A3A3E0541860030246B578ED
:10475300081208CC7D001249E41208F9E9F8740341
:104763006870030246B5E860030248207418550ACE
:1047730070030248D5E50AD2E0F50AA2E45004D258
:10478300E1F50AA90A1250431249B160538882899C
:1047930083A3A3A3A3A3A3E05418604488828983BB
:1047A300A3A3A3A3A3E064017036E5104511603011
:1047B3009003751249D3888289831249BF8A0E8B6D
:1047C3000FA80EA90FE849601788828983A3E060C8
:1047D3000F851082851183A3125B0050030246B537
:1047E300E50AF50E780E1208D01249D71208F9E936
:1047F300702B7C007D0085148285158374FFF0A3E4
:10480300F0850C82850D83A3A3A3A3A3A3A3A3E095
:1048130060031249C8A90B125043121974851482FC
:10482300851583E0F47003A3E0F460399003B4E0EA
:10483300640270030246B5124D73E0FAA3E0123E20
:104843003C1220FFEA65087003EB6509600302462A
:10485300B5EEFAEF123E3C1220FF851482851583D4
:10486300EAF0A3EBF078081208CC7D011249E412B8
:1048730008F9A90AEEFAEFFB120DF88A088B09A8CA
:1048830008A909900368E0687003A3E06960030264
:104893004998EEFAEFFB120BFA8A088B09A808A9CC
:1048A30009E849606E88828983A3A3A3A3E0640116
:1048B300600D88828983A3A3A3A3E0640270548557
:1048C3001882851983AC82AD83EEFAEFFB120B9449
:1048D3008055900361E0600FE50AF50E780E12082B
:1048E300D01249D71208F9E50AF50E780E1208D04E
:1048F30079027CFE7DFFEEFAEFFB124BA31208F95F
:10490300E9600302482085148285158374FFF0A3B0
:10491300024867120F6CEAFCEBFD85188285198348
:10492300AA82AB83121F0E850C82850D83A3A3A3DA
:10493300A3A3A3A3A3E06401700F1249C8740812D0
:104943000B45AA82AB83121F0E124B7D12578C4468
:1049530030F50878081208D07401120B45858208D7
:1049630085830978081208CC740B120B45858208DD
:1049730085830978081208CCE513F508780812082E
:10498300D07900EEFCEFFD125043120D3E74061277
:1049930008F90246B5124B7D1257881249F1E50B0F
:1049A300F0120F8474101208F97F0E02066D120DB7
:1049B300EC8A0E8B0FA80EA90FE84922A3A3125469
:1049C300D91210E022E50C2415F582E50D12338F80
:1049D300125367227901AC08AD091254CE124BA3CE
:1049E30022AC0BA9131254CE120DAA740222125731
:1049F30094A3A3A3A32274F012045474F0120973B2
:104A03008A0C8B0DECFAEDFB750F089003F5124B36
:104A1300C76014125AF98A828B83E5824583600743
:104A2300A3E07003024B78124B7D3400124BB3F5B5
:104A33000B88828983124B86E0FBEC2400FEE43B67
:104A4300FF88828983A3A3124B86A3A3E0FBECF523
:104A530008E43BF50988828983A3A3A3A3A3A3A3A3
:104A6300E0F50EE50AA2E45003750F10A2E5500627
:104A73007408250FF50F748F550A700FE50C241772
:104A8300F582E50D125FB5650F60087901121EF618
:104A9300024B78530A707800E50AA2E45022124BC5
:104AA3007D125FB52408FCA3E03400FD7408120BEB
:104AB30045AA82AB83121F0E7808E50AC2E4F50A01
:104AC300E50AA2E55028124B7D125FB528F8A3E052
:104AD3003400F9E82408FCE93400FD8518828519BF
:104AE30083AA82AB83121F0EE50AC2E5F50AAC0E58
:104AF300A90BEEFAEFFB120DB0E9F87403686075C9
:104B0300900368E06E7003A3E06F605EE87054E5A5
:104B13000AF50F780F1208D0124B941208F9E970B6
:104B230054780A1208D07401120B4585820C8583D0
:104B33000D780C1208CC740B120B4585820C8583FF
:104B43000D780C1208CCE50BF50A780A1208D0A9E7
:104B53000EAC08AD09EEFAEFFB120D3E7406120817
:104B6300F98012740468700D80B7780A1208D012A5
:104B73004B941208F9741002433DE50C241DF58291
:104B8300E50D22A3A3A3E0FC88828983A3A3A3A3A7
:104B9300227901124D7A12338F124BA9124BA322A1
:104BA300120D68740122E0FCA3E0FDAA08AB092200
:104BB300F583123FB9A3E0F50A88828983A3A3E0B2
:104BC300229003391255352274E812045474F512F5
:104BD3000973EAFEEBFF8C088D0989147423120B09
:104BE30045E0F50F7424120B45E0F512A3E0F5132D
:104BF3007426120B45E0F516A3E0F5177428120B83
:104C030045E0F50EA90F120DB68A108B117401122F
:104C13000B457408F0E50EA2E450037410F0E50EA2
:104C2300A2E55004E02408F0851882851983AA823E
:104C3300AB83120FDE8A0C8B0DEA450D7003024D18
:104C43005AEA2417F582EB124D6C120F6CE50C2413
:104C53001AF582E50D12578812390C7403120B45AD
:104C6300AC82AD83AA10AB11120B94E9601D124DF7
:104C7300647403120B45A882A983E50C2418F582FA
:104C8300E50D125788E8F0A3E98024E50EA2E4506D
:104C93001FE5106E7003E5116F7015124D64E50C7E
:104CA3002418F582E50D125788E512F0A3E513F0F9
:104CB300124D73124D82850A82F5837402F0A3E5C7
:104CC3000E124D8AE50FF0EE850A82850B83A3A3AE
:104CD300A3F0EF850A82850B83A3A3A3A3124D8AB6
:104CE300A3A3A3E508F0E509850A82850B83A3A3A3
:104CF300A3A3A3A3F0AA10AB11120DA4E925148555
:104D03000A82850B83A3A3A3A3A3A3A3F07508001F
:104D1300E50EA2E45011AC12AD13E50A2408FAE53E
:104D23000B1242F6750808E50EA2E55014AC16AD59
:104D330017E50A2508F8E50B3400F9E824081242C0
:104D4300F4850C82850D83A3A3E510F0A3E511F090
:104D5300AA0CAB0D120C36740B1208F97F10020665
:104D63006DE50C2416F582E50D12338F7401F022E4
:104D7300124D7A12338F22E50C126903E50D22E0FE
:104D8300F50AA3E0F50B22F0850A82850B83A3A322
:104D93002274F21204548A088B09ECFEEDFF890A8F
:104DA3007900124E287003A3E069700479018073BF
:104DB300750B01900368E065087004A3E065096062
:104DC3001F750B00780B1208D0A90AEEFCEFFDAAA1
:104DD30008AB0912103274011208F9E9F50B80418E
:104DE3007900EEFAEFFB120DECEA4B602B8A828B13
:104DF30083A3A3A3A3A3A3E05418601C7508FE75A3
:104E030009FF78081208CC8A828B83A3A312073C7C
:104E13001267181208F980097901EEFAEFFB120CF8
:104E2300CCA90B8014120DF88A0C8B0DA80CA90DBC
:104E3300900368E068221208F97F0602066D74F495
:104E43001204547508E875090A7A101264208B0B52
:104E5300EA450B7003124150900353E014F0700CB9
:104E6300902509E493900353F0120E047E007F0013
:104E7300806C850882850983A3A3A3A3E06059F40A
:104E83006056E5082404F582E509125DDD70498565
:104E93000882850983A3A3A3A3A3E06403701979FC
:104EA300028508828509831249D38508828509838F
:104EB300A3A312504A120D44850882850983A3A334
:104EC300A3A3A3E06401601085088285098374FEAF
:104ED300F0A304124F9AE4F01232BC12313E902434
:104EE300F812657C408C7E007F008039120F128E91
:104EF300088F0974037808120A2874602508FC7463
:104F03000C3509FD7A507B0D120F00EA4B70DD8ED4
:104F1300088F0974037808120A28124F681267C3AE
:104F2300E4F01232BC9024FFE493F8C3EE98EF94BC
:104F330000501B8E088F0974037808120A28124F39
:104F430070E82407F582E9125DDD70D680A17E004A
:104F53007F00800A124F7B600214F01232BC12658C
:104F63007940F18048124F708882898322746025CA
:104F730008F8740C3509F922EEF8EFF9E875F00634
:104F8300A4F8AAF075F006E9A42AF9740028F582BA
:104F9300740C39F583E022124FA1A3A3A322F08559
:104FA3000882850983A3A322740D1208F97F0402E2
:104FB300066D74F712045474E1120973ECFEEDFFED
:104FC300750800EE4F60728A828B83E0241C125EA8
:104FD3000E124BC760638A828B8312504A851882F4
:104FE300851983AC82AD83EA241BF582EB125CDF67
:104FF300EA241CF582EB125046120F54740B120B69
:105003004512504E7003A3E069702E7402120B45D3
:10501300E064017024741D120B45123E40E06401EC
:105023007017741D120B45123E42A3A3E0F88E8243
:105033008F83E0687003750801A908741F0238F9AB
:10504300124D7A3400F5831254D922122A75E0687E
:105053002274F4120454E97024790090034D123E33
:10506300401220FF8A0A8B0BAE0AAF0B74FE6E70E0
:105073000374FF6F701A902506E49360137901900F
:10508300034D123E401220FF8A0A8B0BAE0AAF0B70
:10509300120FA202341C74F612045474F31209732F
:1050A3001216FE8A088B09AE08AF09900368E06EFA
:1050B3007003A3E06F60E9120F78EA6E7002EB6F82
:1050C30060DEEEFAEFFB120FF6E970D4EE4F60D01C
:1050D300851882851983E4F004120B45EEF0A3EFE3
:1050E3001250FCE970BA74FE6E700374FF6F60B007
:1050F300EEFAEFFB740D023157123A23120BAC2276
:10510300C082C083120FA20235C47F0A02066D74E7
:10511300F2120454EAFEEBFF8C0A8D0B8908740E1D
:10512300120B45E0F50974FC6E700374FF6F700594
:105133007900024E3C7900120DF88A0C8B0DAE0CEF
:10514300AF0D900368E06E7003A3E06F7006E5098E
:10515300A2E650DCA909126606706179007AFE7B2B
:10516300FF12660670567418550970030252497887
:105173000079008003122C6F9024F8122C664003F0
:10518300025249E8FAE9FBEA75F007A4FAACF075B4
:10519300F007EBA42CFB74EE2AF582740A3BF5832B
:1051A300E0541870D0E875F007A4F8AAF075F0077A
:1051B300E9A42AF974E828F8740A39F988828983FA
:1051C300A3A3A3A3A3A3E0541860097418550970FB
:1051D3000302513388828983EEF0A3EFF074FE65F6
:1051E3000A700474FF650B600312536D8882898310
:1051F300A3A3A3A3A3A3E509F0A2E0500D8882898A
:1052030083A3A3A3A3A3A3D2E2F0740165088882B6
:105213008983A3A3A3A3A37038740112538DE0540D
:1052230018602890250AE49388828983A3A3A3A303
:1052330012535B1210E08B0DEA450D6003025133EC
:105243007800790080397902025135900367E08054
:10525300D7E06401700302513388828983A3A3A337
:10526300A3A3A3E05418600790250AE49380049055
:105273000366E01242FDE508F0025133122C6F90F1
:105283002500E493FAC3E89AE994004003025133FA
:105293007A007B00804BEAFCEBFDEC75F007A4FC85
:1052A300AEF075F007EDA42EFD74EA2CF582740AB6
:1052B3003DF5831258FAE8FCE9FDEC75F017A4FC00
:1052C30085F00975F017EDA42509FD74782CF58296
:1052D30074093DF583E06E7003A3E06F609E1231A5
:1052E300919024F812314E40AD124387EC6A70025C
:1052F300ED6B7088E875F017A4F8AAF075F017E95C
:10530300A42AF9747828FE740939FF7C177D007983
:1053130000EEFAEFFB1216E68E828F831253739020
:10532300037512534DA3A3A3A3A3A3E8F0A3E91208
:1053330053537401F0EE240E125785740112537BFC
:10534300120303125782E802527B123786A3A32269
:10535300F0EE240F12338C22F0125364AA0AAB0B23
:1053630022900375E0FCA3E0FD2288828983A3A336
:10537300E50AF0A3E50BF022F0902503E493240162
:10538300F8E43400F97A027B0022124309A3227461
:10539300ED1204548A088B09890E1254B74005791B
:1053A3000502548C1219BCAA08AB09125589902422
:1053B300F612548F650A7003E9650B70077AFE7B5A
:1053C300FF1255899024F6125F94E50B994003026E
:1053D300548A1254946012E50A75F006A4F875F025
:1053E30006E50B1254DF1217ACE50E6018E50A75DB
:1053F300F006A4F8AAF075F006E50B12550B701A27
:10540300790102548CE50A75F006A4F8AAF075F048
:1054130006E50B1254ECE4F0A3F0E50A75F006A4DC
:10542300F8AAF075F006E50B1254ACA31257A28844
:10543300828983A3AA82AB831254FA8A828B83E084
:105443006041125494603C8E108F117512007810D5
:105453001208C8E50EC333FCE433FDE50A75F00614
:10546300A4F50AA8F075F006E50BA428F50B74045F
:10547300250AF582740C350B1250481216DA7403A0
:105483001208F979008002790702661C122DE6E8FA
:1054930022E50A75F006A4F8AAF075F006E50B12EA
:1054A30054E7F8A3E0F9E84922A42A125640888277
:1054B3008983A322ECFEEDFF902501E493F8E9C371
:1054C3009822F5831254D91217AC22E50C12690302
:1054D300E50D3400F583E0FAA3E0FB221254E7FA6A
:1054E300A3E0FB221254ECE022A42AF9740428F569
:1054F30082740C39F58322E50EF0900DF1125504F8
:1055030022E088828983F022125664F50CE9340084
:10551300F50DE50EC333FAE433FB1217A6850C82AF
:10552300850D83EAF0A3EBF0850C82850D8312557C
:105533003522124335E8492274F4120454ECFEED8B
:10554300FF740C120B451239938808890912558987
:10555300AC0AAD0BECF8EDF99024F61255915021FD
:10556300E875F006A4F8AAF075F006E91254ACE069
:105573008E828F831255A412559A1239A079008016
:10558300027904024FB0120D7A8A0A8B0B22123170
:105593005FC3EC9AED9B2212433185088285098310
:1055A300221256792274F61204547E007F0080285A
:1055B300EEF8EFF9E875F006A4F8ACF075F006E93B
:1055C300A42CF9740228F582740C1262276A700302
:1055D300A3E06B60571232BC12657940D312657435
:1055E3007002E96F704674FE6A700374FF6B703C5F
:1055F3007E007F0080031232BC126579502E124F59
:105603007B70F3EEF8EFF9E875F006A4F81256365E
:1056130012566B6017125652F8E912564A888212D4
:1056230054C5850882850983E4F0A3F0EEFAEFFB05
:1056330002315A75F006E912563E22A42AF9740083
:1056430028F8740C39F9223400F98808890922EE04
:10565300F8EFF9E875F006A4F875F006E912566458
:105663002212563EE8240422A3A374FE1256761295
:10567300553522F0A30412567D22F088828983A334
:10568300A3A3A32274F6120454EA241DF582EB1299
:10569300578CF9604BEA241DF582EB125FB52402A7
:1056A300FCA3E03400FD1254BB400302577578009D
:1056B30080298C828D83E0F508A3E0FFE5082400B0
:1056C300E43FF509E833FEE433FF74482EF58274B2
:1056D3000C3FF5831257A212577808E8C39940D2BA
:1056E3008A828B83A3A3A3A3A3A3A3A3A31249D3B4
:1056F300900368E06C7003A3E06D700F7C487D0C31
:105703001229DE125046120D6E8067EA2411F582CB
:10571300EB125FB5605CFC74FF2CF0750801780830
:105723001208D075084875090C78081208CCE9F5F9
:105733000878081208D0EA2412F582EB125FB5F557
:105743000878081208D0EA2415F582EB125788125C
:10575300073CECF91229DE1249D08A828B83A3A37A
:10576300A3A3A3A3A3A3A312504A120D86740712E3
:1057730008F902315AEC24020C0CED3400FD22EE40
:10578300240DF582EF12338F2212338F125794E0D8
:1057930022E0F8A3E0F5838882A32288828983E547
:1057A30008F0A3E509F02274EA12045474FD120907
:1057B300738A148B158C0E8D0F890D7419120B457A
:1057C3001258FA741B120B45E0F511741C120B45A9
:1057D300E0F50C741D120B45124D82741F120B451C
:1057E300E0F5106008E50CC333240480027402C0A2
:1057F300E07401120B45D0E012590B8A088B09EAB9
:10580300450970030258EB8A828B83A3A3E514F046
:10581300A3E51512640FE50EF0A3E50FF0EA2413D8
:10582300F582EB125788E50DF0EA2414F582EB12AA
:105833005788E511F0EA2417F582EB125FB564018E
:105843007040120F728A0E8B0FA80EA90F85088263
:10585300850983A3A3A3A3E0687003A3E06960227F
:10586300EE4F6011E508241AF582E509125788EE18
:10587300F0A3EF800CE5082417F582E50912578899
:10588300E4F01258F01258FA8E828F837405F0A355
:10589300E5107004E50C80487401250C1259047A54
:1058A300008028850A82850B83E0125900850A82CD
:1058B300850B83A3E08E828F83F0E50A2402F50A29
:1058C300E50B3400F50BA30EAF830AEAC3950C4036
:1058D300D2120F72EA125900120F72EB8E828F836B
:1058E300F0AA08AB09120C3674030249A91229EF76
:1058F30012338F22900334E0FEA3E0FF228E828FC7
:1059030083F0A3AE82AF8322123A23120FDE22C0AA
:1059130082C083E9C333FCE433FDEA2CFAEB3DFB9D
:10592300EA24FEF582EB34FF1250480235C474F2C8
:1059330012045489098A0A1254B74004790080403A
:1059430075080080020508E508C39509502AE50893
:10595300C333F8E433F9EE28F582EF39F583C082D7
:10596300C083120F728A0C8B0DD083D082E0650C3A
:105973007004A3E0650D70CDE50A650870BE79017A
:10598300024E3C74F012045474F31209738A088BA8
:10599300098C0A8D0B890C750D00120FF6E979003D
:1059A3006003025A88AA08AB09120DF8A90C120D5C
:1059B300EC8A0E8B0FAE0EAF0FEE4F7003025A86BA
:1059C3008E828F83A3A3A3A3A3A3E0A2E240030237
:1059D3005A86120F72EA650A7003EB650B70117831
:1059E3000D1208D0E4F50EF50F780E1208CC8044A2
:1059F300AA0AAB0B120BEEE9640170688518828565
:105A030019837404F07401120B45125373851882C1
:105A1300851983AA82AB83120BACE96401704575C7
:105A23000D01780D1208D0E4F50EF50F780E12086B
:105A3300CC750D00780D1208D0780D1208D07408BB
:105A4300120B4585820E85830F780E1208CC9025A4
:105A53000CE493F9AC0AAD0BAA08AB09120D8674DA
:105A6300071208F98E828F83A3A3A3A3A3A3E0A2A3
:105A7300E1400D8E828F83A3A3A3A3A3A3C2E2F06D
:105A8300750D01A90D02433B74F6120454E9FE7926
:105A930000120DF8EEF9120DEC8A088B09A808A97B
:105AA30009E849600612694AF98002790402315A09
:105AB30074F61204547E0790035CE07034125AF9B2
:105AC3008A088B09A808A909E8496025900361E0C1
:105AD300640188828983A3A3700B125B0088828987
:105AE300835001A3A3E0F91210FEE9FEEE70027EDB
:105AF30007EEF902315A1253641210E022E0FA88D9
:105B0300828983A3E0C39A2274EE120454EAFEEB63
:105B1300FF890A8C0C8D0B7412120B4512378B12F2
:105B23005BD51254BE5051890E750F007403780E65
