:020000040000FA
:060000000211D40207C347
:030013000207E6FB
:03002B00020FE5DC
:03003B0002083B7D
:030053000206F4AE
:03007B00020EBDB5
:100083000207580101FF01010503010F10FEFF5A8A
:100093001A5A1A5A1A5A1A10190A195A1A6329009B
:1000A300000000272A000000000C0000000C0001E3
:1000B300060A10100000761C0000000000002A1D34
:1000C30000000000000000000000FFFF000000002F
:1000D300941F8E1F010005000000000000000000B7
:1000E300000000000000000000000000000000C449
:1000F3001FBE1F0000F0001E0000000000000000F3
:100103000000000000000000000000000000FFFFEE
:1001130002000000000000000000000100010101D6
:10012300005505000000CA05E80364006400B80137
:10013300020200000002050207051E02051E0A0A4C
:1001430003B80B02803E01021F00011402020612D3
:10015300122060461211F3603DE9687008F618F644
:1001630018F618F622748067F712018609090974D4
:100173008067F7221211F3601D12122070051919FE
:1001830019801A12109A701F121085C37003E66744
:100193003319191940071818182208080874FFF6AC
:1001A30018F618F618F622121085601712125F70EF
:1001B3002192F01212697019501720F014080808E0
:1001C300090909E7F61819E7F61819E7F61819E700
:1001D300F62212126960E6E869701F0808E62480B7
:1001E300F608E436F618547FB47F0CE654806007B3
:1001F300F6E418F618F622181822E9C6CC08C6CD7C
:1002030008C6CE08C6CFC0E0E8C0E0EAC0E0EBC055
:10021300E009E9F809E7FA09E7FBE6F918E6F8C3A4
:10022300EC98ED99EE9AEBC2E7F5F0EFC2E795F0A3
:10023300500E600CEBCFFBEACEFAE9CDF9E8CCF82F
:10024300EAA2E7D2E7FAEB33FB13F5F0EEA2E7D22B
:10025300E7FEEF33FFC5F013A2E730E601B313C5A2
:10026300F0C3C0E0C0F07F00C39BFB605B941860E9
:100273000C401AD0E023F9D0E0F80203558AF0E9E4
:10028300486003D2F0E4AFF0FAF9F8803BEB30E4D6
:100293000D89F0EA6003D2F0E4AFF0F9CAF8EB306D
:1002A300E30D88F0EF6002D2F0AFF0E4CAC9F8EBD7
:1002B30054076014FBC3EA13FAE913F9E813F8EFE0
:1002C300135002D2E0FFDBEDD0E0C0E030E739C3EA
:1002D300E49FFFF5F0EC98FC42F0ED99FD42F0EE5F
:1002E3009AFE42F0D0E0F9D0E0F8E5F0607AE92335
:1002F300F9EE20E742D8028067C3EF33FFEC33FC0B
:10030300ED33FDEE33FE80EAEC28FCED39FDEE3AE9
:10031300FED0E023F9D0E0F84002801BC3EE13FEC9
:10032300ED13FDEC13FCEF135002D2E0FF08B8000D
:10033300067F7F74FF802EEF3350178CF020F0027E
:1003430060100CBC000C0DBD00080EBE000408E8D4
:1003530060DFE933E813FFEE2313FE4F4D4C8008B3
:10036300E95480FFE4FEFDFCEE33EF33F47004FC4C
:10037300FD7E80D0E0FBD0E0FAD0E0F8D0E0CFC63D
:1003830018CEC618CDC618CCC6F9221211F37004C4
:1003930018181822121220700D74FFF61819F61887
:1003A30019F61819F622E7548066F6121269700FCF
:1003B30012125F70F014F608F608F608F680D112F0
:1003C300125F700CF608F608768008E6447F80EC2E
:1003D300121088700C12109D60BFE65480F6E48002
:1003E300BB12109D700519191980A5E869700C7668
:1003F3003F18768018F618F6E8F922E6CDC0E01823
:10040300ECC0E0E633CD33CDD313F6E719FCE7199F
:100413001933CC33C3947F400ECD9D502408E6544A
:1004230080F6E418F6800FF4043D14501408E644F3
:100433007FF6187680E418F618F6D0E0FCD0E0FDDD
:1004430022CCD313CCFD18E4C6CBC0E018E4C6CA53
:10045300C0E00808ED08C633E613F618E433C675A2
:10046300F003C3CA97CA09CB97CB199C40047D08F4
:10047300802EBD000302053716B6FF0506060816D3
:1004830018C3CA33CACB33CB33CA27CA09CB37CB3A
:10049300193CC37D08803E187D0820E75CC633C63F
:1004A300CA33CACB33CB33DDF1D5F0EB30E77BCAAC
:1004B30097CA09CB974ACB199C406F4B7025E6200E
:1004C300E0218066187D08C3CA97CA09CB97CB1968
:1004D3009CD3C633C6CA33CACB33CB3350C9DDE74B
:1004E300D5F0E1D3E4C636C608C636C608C636C656
:1004F30008C636C61818188031C3CA97CA09CB97DD
:10050300CB199CB34097C633C6CA33CACB33CB335C
:10051300DD34D5F02EC6A2E0C640C8CA27CA09CB2F
:1005230037194A70BECB3CB480B90808E63308E6F5
:1005330033601F181818D0E0FAD0E0FBD0E0FCD0ED
:10054300E0FD22187D08CA27CA09CB37CB193CD353
:10055300808013F618E4B67F11F618B6FF0EF6186E
:10056300C60470D20808768080CAF618F618F6809A
:10057300C5001211F3604F1212206012E754806617
:10058300F612109A701112125F703B090909F4F602
:1005930018F618F618F6221210857015121269084B
:1005A300080860EAE6447FF618768018E4F618F641
:1005B30022121269601612125F7012E4F608F6082E
:1005C300F608E65480F609090918181822EAC0E06B
:1005D300EBC0E0ECC0E0EDC0E0E687F0A4FBACF0DC
:1005E30008E687F0A42CFCE435F0FA1809E687F056
:1005F300A42C4B60027401CA35F0FCE433FB09E61A
:1006030087F0D2F7A42CCB35F0FC1908E687F0A4C9
:100613002BCC35F0FBE433FD0819E687F0D2E7A4D1
:100623002C4ACB35F0CD3400FC09E687F0D2E7A4A1
:100633002DCC35F0FDE433FA0918E687F0D2F7A4A0
:100643002CCD35F0CA3400FC08E687F0D2E7D2F7A8
:10065300A42ACC35F07A7E20E70B0ACB33CBCD33FB
:10066300CDCC33CC33CB3350147004ED30E00ED209
:10067300F1E4CD3DCDCC3CCC3B5005DA05C2F1EBEA
:10068300547FC63308E63392F0FBE73309E733C3FD
:100693009A502D2B70190C0D4C4D70151806E60849
:1006A300C333700D20F10AA2F013F6E418800B4057
:1006B30024E4F630F002768018F618F618F6802453
:1006C300D33B14501074FFA2F013F6187680E4188D
:1006D300F618F6800FA2F013F618E63303F618ECBB
:1006E300F618EDF6D0E0FDD0E0FCD0E0FBD0E0FA68
:1006F30022C0E074F2120B12A2AFE433FED2AFE5D4
:10070300A7FFE5A1F5085F541060061223A275A1A7
:10071300EFE5085F540860081223A875A1F7802B42
:10072300EFA2E0C0D0E508A2E092F012111115810A
:1007330082F05017906198E0F890079AE0C398A26E
:10074300D265D0335002E8F075A1FEEEA2E092AF7D
:100753007F01020C26C0E074F2120B12A2AFE43345
:10076300FED2AF9061A4E0F8759B00E59158540860
:1007730060087591F71223EA802AE59158541060B6
:10078300087591EF1223F0801BE8A2E0C0D0E59139
:10079300A2E092F0121111158182F05007E0C2E03D
:1007A300F012252E9061A3E0F8E5E9585404600E99
:1007B30012250475E9FB906193E0A2E640F2808B79
:1007C300C0E074F2120B12A2AFE433FED2AF906119
:1007D300A5E0F8E5BF585404600675BFFB12254633
:1007E30002074EC0E0C0D0E8C0E0E9C0E0C082C06C
:1007F30083E5C1C0E0900706E0F8748528F58274AC
:10080300063400F583D0E0F0900705E0F8A3E06834
:100813007006E595900708F0900706E004F0C3948E
:10082300804002E4F0A374C6F0D083D082D0E0F914
:10083300D0E0F8D0D0D0E032C0E0C0D0E8C0E0C013
:1008430008C009C082C083900789E0F8A3E06870FC
:1008530008539AFBA374018026C2E9900789E0F547
:100863000874012508F074092508F582740734001B
:10087300F583E0F5C1900789E0C394804002E4F07A
:10088300D083D082D009D00880A6C3E498F8E49935
:10089300F91208CE8026C3E49AFAE49BFBE920E729
:1008A300E91208CEE498F8E499F922C3E498F8E44D
:1008B30099F91208CEE498F8E499F9C3E49AFAE4B2
:1008C3009BFB22EB20E7CFE920E7E0B90010BB0058
:1008D30008E88AF084F8AAF022E4FBC8FA22EB7055
:1008E300227B10C833C8C933C9335007C39AC3DB4B
:1008F300F280069A50012ADBEAC833F4C8C933F4FC
:10090300C9FA2275F008E4C833C8C933C933C99A90
:10091300C99B5004C92AC93BD5F0ECFBC833F4C8C2
:10092300E4C9FA2212096720F01430E72B74FFFCA4
:10093300FBFA747F8022E4FCFBFA7480801AB48093
:1009430008BC00F2BB00EF800F50EBF9E4C39AFA46
:10095300E49BFBE49CFCE499C6CC18C6CB18C6CA3E
:1009630018C6F922E4C9C608CAC608CBC6D33303DE
:1009730008CCC63392F0C3947F402E94184019C913
:10098300B90704CACBCC225025C309CA33CACB3317
:10099300CBCC33CC33D9F422F4600DC9CCC313CB05
:1009A30013CBCA13CAD9F6CC22E4FCFBFA2214FCFB
:1009B300FBFA22080808EAC0E0EBC0E086F0E7A4EF
:1009C300FA180986F0E7A42AFA180986F0E7A42A98
:1009D300FA180986F0E7A42AFA1986F0E7A4FBE5DA
:1009E300F02AFA190886F0E7A42BFBE5F03AFA1986
:1009F3000886F0E7A42BFBE5F03AFA18180986F00D
:100A0300E7A4C5F02BFBE43AFA1908E7C5F0C6A43E
:100A130026F6E5F03BFBE43AFA1886F0E7A4F6E5A0
:100A2300F00826F6E43B08F6E43A08F6D0E0FBD0FB
:100A3300E0FA22E4CFC0E0E4CEC0E0E4CDC0E0E4DD
:100A4300CCC0E075F020C3E633F608E633F608E6DB
:100A530033F608E633F6181818EC33FCED33FDEEE5
:100A630033FEEF33FFC3EC9709ED9709EE9709EFD8
:100A730097191919400FFFEC97FC09ED97FD09EE43
:100A830097FE191906D5F0BEECF709EDF709EEF755
:100A930009EFF7191919D0E0FCD0E0FDD0E0FED042
:100AA300E0FF222518C582C0E0E51934FFC583C0E5
:100AB300E0E518C3958224F810AF08858319858271
:100AC300188008858319858218D2AFCEF0A3E5205C
:100AD300F0A37808E608F0A3DEFAEFF0A3E581249B
:100AE300FAF8E608F0A3E608F0A3E608F0A308087E
:100AF300E608F0A3E608F0A315811581D0E0FED047
:100B0300E0F8158115811581E8C0E0EEC0E022C050
:100B1300D02518C582C0E0E51934FFC583C0E0E5E0
:100B230018C3958224F310AF088583198582188032
:100B330008858319858218D2AFC8F0A3E9F0A3EA28
:100B4300F0A3EBF0A37908E709F0A3D8FAECF0A33C
:100B5300EDF0A3EEF0A3EFF0A3D0E0F0A3D0E0F02C
:100B6300A3D0E0F0A3E520F0A3E5F0F0A322E97918
:100B73009EC608CAC608CBC608CCC6C370207996E1
:100B8300CACBCC7019798ECBCC70137986CC700E0E
:100B9300F9802ACA33CACB33CBCC33CC331930E7F1
:100BA300F2CCCBCA3350147004EA30E00DE4CA3AF5
:100BB300CACB3BCBCC3CCC500209C3E913C6CC18FF
:100BC3002313C6CB18C6CA18C6F922121254B90089
:100BD30003020C10E49003017858790B8002F0A310
:100BE300D8FCD9FA900D58AA82AB8390008678CDB1
:100BF30079018015E493A3AC82AD838A828B83F061
:100C0300A3AA82AB838C828D83D8E9D9E77582CD81
:100C13007583FB7403120F5D75826A7583287400F4
:100C2300120F5D851983851882E0C0E0A3E0F9A364
:100C3300E0FAA3E0FBA37808E0F608A3DFFAE0FC00
:100C4300A3E0FDA3E0FEA3E0FFA3E0C0E0A3E0C0B8
:100C5300E0A3E0F5D0A3E0F520A3E0A3F5F010AF07
:100C6300088583198582188008858319858218D29F
:100C7300AFD082D083D0E0F8D0E0320E0075F01010
:100C83008E1A8F1B85821F85831E85188285198383
:100C9300E0CEA3E0CF851F82851E83EBC9EAC8EDB2
:100CA300CBECCAC3E833C8E933C9EA33CAEB33CB65
:100CB300C3EA9EF51DEB9FF51CB35004AB1CAA1DA4
:100CC300EC33CCED33CDD5F0DAAE1AAF1B22D083A3
:100CD300D082ECC0E0EDC0E0E493A3FCE493A3FD79
:100CE300ED4C600D120DA9EC24FFFCED34FFFD80EB
:100CF300EFE493A3FCE493A3FDED4C600D120E46C9
:100D0300EC24FFFCED34FFFD80EFD0E0FDD0E0FCF0
:100D1300E493A3C0E0E493C0E022D083D082E9C08F
:100D2300E0E493A3C386F0C5F095F0F908E493A338
:100D330086F0C5F095F0700BE493A3C3994005E9E1
:100D4300048002A3E475F002A42582F582E5F03560
:100D530083F583D0E0F9E493A3C0E0E493C0E022F9
:100D6300851983851882E0A3FEE0A3F5207808E0C7
:100D7300A3F608DFFAE0A3FFE0A3C0E0E0A3C0E02E
:100D8300E0A3C0E0E0A3C0E0E0A3C0E010AF0885AB
:100D930082188583198008858218858319D2AFD07C
:100DA30083D082020F63C0E0C3E493960874019377
:100DB3009618400FE49366700808740193661870E0
:100DC300007019A3A3C3E49396087401939618A320
:100DD300A3400DD0E0D0E0D0E0020D0DA3A3A3A368
:100DE300A3A3D0E0227404800474028000CCC0E08A
:100DF300EDC0E0E518C39CCCAD1950011D10AF0642
:100E03008C188D1980068C188D19D2AF120EDFD075
:100E1300E0FDD0E0FC2274028000CCC0E0EDC0E035
:100E2300E518C39CCCAD1950011D10AF068C188D6D
:100E33001980068C188D19D2AF120E9BD0E0FDD00D
:100E4300E0FC22C0E0C0F088F0E493667008087408
:100E5300019366187000A8F0A3A3700BD0F0D0E044
:100E6300D0E0D0E0020D0DA3A3D0F0D0E022D083D8
:100E7300D082CCC0E0E493A36006120F3E1470FA54
:100E8300E493A360061210451470FAD0E0FCE493D7
:100E9300A3C0E0E493C0E022CAC0E0E493A3C58208
:100EA300CCC582C583CDC583F0A3C582CCC582C51D
:100EB30083CDC583DAE5D0E0CA22C0E0C0D0C082CA
:100EC300C083E58AA2E3500690050E7401F0758A8B
:100ED30000C2EBD083D082D0D0D0E032CAC0E0E0F1
:100EE300A3C582CCC582C583CDC583F0A3C582CCFF
:100EF300C582C583CDC583DAE6D0E0CA22C008C364
:100F0300E096F50808A3E096420808A3E096420895
:100F130008A3E09645087001D3D008227009080899
:100F230008226016181818C6C333C608C633C60885
:100F3300C633C608C633C6D5E0EA22C0E0E493A3AD
:100F4300D39C5010E493A3C39C400AD0E0D0E0D0DC
:100F5300E0020E8EA3A3A3D0E022C09FF59FE4730B
:100F6300D09F22D083D082C09FE493C0E0740193CA
:100F7300C0E0740293F59F227404800A7403800610
:100F8300740280027401C0E0F404120F96D0E012E0
:100F9300122F222518F58210AF08F51840021519F3
:100FA3008008F51840021519D2AF85198322C0D0E5
:100FB300251810AF08F518500205198008F51850C8
:100FC300020519D2AFD0D022BB0102E722C082C0F2
:100FD3008389828A83BB0003E08002E493D083D0B9
:100FE3008222C0E0C0D0E8C0E0E5A8D2AFC2C7A269
:100FF300E792AFD0E0F8D0D0D0E03260160808080E
:10100300C6C313C618C613C618C613C618C613C656
:10101300D5E0EA22C3E0C696F608A3E0C696F60832
:10102300A3E0C696F608A3E0C696F622251810AFED
:1010330008F518400215198008F51840021519D251
:10104300AF22C0E0E493A36C7009D0E0D0E0D0E01D
:10105300020E8EA3A3D0E022E76670100809E766AC
:10106300700A0809E76670040809E76622E06670FB
:101073001008A3E066700A08A3E066700408A3E002
:101083006622191919E7094709700AE709C333707A
:1010930005E733F4220922181818E6084608700AEF
:1010A300E608C3337005E633F4220822C3E096084A
:1010B300A3E09608A3E09608A3E096A2D265D033F6
:1010C30022C3E096F008A3E096F008A3E096F008A8
:1010D300A3E096F022E026F608A3E036F608A3E0A4
:1010E30036F608A3E036F622E026F008A3E036F051
:1010F30008A3E036F008A3E036F022E627F6080955
:10110300E637F60809E637F60809E637F622C0E0BF
:10111300E8C0E0E58124FCF8E6A2E7D0E0F8D0E0FF
:1011230022E657F60809E657F60809E657F60809CE
:10113300E657F622E056F608A3E056F608A3E05673
:10114300F608A3E056F622E056F008A3E056F008AE
:10115300A3E056F008A3E056F022E647F60809E6B6
:1011630047F60809E647F60809E647F6227004221F
:10117300600D18C6C333C608C633C6D5E0F41822BB
:10118300E4C396F608E496F608E496F608E496F6C1
:1011930022C3E09608A3E09608A3E09608A3E0968E
:1011A30022C6F4C608C6F4C608C6F4C608C6F4C602
:1011B30022600D08C6A2E713C618C613C6D5E0F30E
:1011C30022C3E7960809E7960809E7960809E79610
:1011D3002275D00075814075180175190300020B43
:1011E300CEE6F008A3E6F008A3E6F008A3E6F022B3
:1011F300E6084608C3134608336002E633F4226068
:101203000C08C6C313C618C613C6D5E0F422E0F60D
:1012130008A3E0F608A3E0F608A3E0F622E70947EF
:1012230009C3134709336002E733F422CAC0E0E677
:10123300F0A308DAFAD0E0FA22EAF0A3EBF0A3EC89
:10124300F0A3EDF022E0FAA3E0FBA3E0FCA3E0FDB2
:1012530022E5C754F84401F5C7790122E7C33319DE
:10126300471947194722E6C333184618461846223A
:101273002518F582E43519F58322C2AF75D69F028E
:10128300000022120F66862F00120F66AD2F001288
:101293000F66FE2F00120F66AE3000120F66663126
:1012A30000120F662E3200120F66EE3200120F6626
:1012B300323300120F66573300120F669A3300124F
:1012C3000F66E73300120F665D3500120F66E335D4
:1012D30000120F66013600120F662B3600120F66DE
:1012E300453600120F66543600120F665F36001241
:1012F3000F661F3700120F66783700120F663A38F1
:1013030000120F66423800120F66D63800120F66BD
:10131300423900120F666D3A00120F667E3A0012D0
:101323000F66033B00120F66923B00120F66EA3B07
:1013330000120F66AE3C00120F66D53C00120F661A
:10134300E73C00120F663A3D00120F66773D00122C
:101353000F66843D00120F66023F00120F6657406E
:1013630000120F66894000120F66154100120F66C6
:101373004E4100120F669A4100120F66AD420012F1
:101383000F66D14400120F66DC4400120F66E74477
:1013930000120F66F14400120F66FC4400120F6640
:1013A300164500120F66204500120F662A450012EB
:1013B3000F66354500120F665D4500120F66B8458E
:1013C30000120F66DC4500120F66004600120F661E
:1013D3005E4600120F66A24600120F66BE4600125A
:1013E3000F66354700120F666D4700120F66B94747
:1013F30000120F66164800120F66D04800120F66DF
:10140300B44A00120F660D4B00120F663D4C0012DA
:101413000F66634C00120F66DD4D00120F666851B4
:1014230000120F663A5300120F66035500120F663F
:10143300B05500120F66245700120F66C3570012EF
:101443000F66085800120F66725800120F66815813
:1014530000120F66015B00120F66AA5C00120F6692
:10146300175D00120F66F65D00120F66195F00121A
:101473000F66816000120F66A06000120F66F560B0
:1014830000120F66FA6100120F66226200120F66E5
:101493007A6200120F66596300120F669D63001291
:1014A3000F66E86300120F66536400120F669865B7
:1014B30000120F66FC6500120F664A6700120F6682
:1014C300B16900120F66E26900120F669A6B00128F
:1014D3000F66EF6B00120F66F36C00120F66906DD0
:1014E30000120F66E96D00120F669C6E00120F6604
:1014F3003E6F00120F66DE6F00120F6683700012DC
:101503000F660E8201120F664D8201120F669484DC
:1015130001120F66DE8401120F66F98501120F6650
:10152300698601120F669E8601120F6612880112E8
:101533000F66958A01120F66BE8B01120F66718CBE
:1015430001120F66CD9401120F66629501120F66A8
:10155300499801120F66429901120F66A39901126D
:101563000F66BF9A01120F66A49C01120F66B59E07
:1015730001120F660D9F01120F66DF9F01120F66A6
:1015830096A001120F66A0A001120F66CEA0011251
:101593000F668BA101120F6662A201120F6629A3C7
:1015A30001120F66DBA301120F6604A401120F667A
:1015B30026A401120F667CA601120F6654A701121E
:1015C3000F6698A701120F6600A801120F66B8A84C
:1015D30001120F66EAA801120F662EA901120F6607
:1015E30064A901120F66B0A901120F6605AA0112C0
:1015F3000F660AAA01120F665DAA01120F6682AA7C
:1016030001120F6691AB01120F66F5AB01120F6663
:1016130065AC01120F66F1AC01120F66BEAF011289
:101623000F66A2B001120F6625B201120F665BB4FA
:1016330001120F6609B501120F66B9B501120F66E3
:10164300FAB701120F669DB801120F66E4B80112D2
:101653000F6690BA01120F66A4BA01120F66AEBAF2
:1016630001120F66D6BA01120F66E2BA01120F66B3
:1016730001BB01120F66E6BC01120F661DBD01120C
:101683000F6627BD01120F665DBD01120F66ACBE6A
:1016930001120F66F0BE01120F6698BF01120F66AA
:1016A3007BC001120F6626C101120F6672C20112BE
:1016B3000F6670C301120F6616C401120F66B7C41A
:1016C30001120F66CEC401120F6605C501120F6623
:1016D3000FC501120F661AC501120F6638C5011234
:1016E3000F667CC501120F66D9C501120F66FEC5D0
:1016F30001120F6618C601120F66A4C601120F6607
:10170300C1C701120F661DC801120F6604C9011279
:101713000F662BC901120F669FC901120F661ACA01
:1017230001120F661ECB01120F6614CC01120F6655
:10173300C3CC01120F66D6CD01120F6672CE011211
:101743000F66F4CE01120F66D2CF01120F660AD0D4
:1017530001120F6662D001120F662BD101120F66C0
:101763004CD101120F66D3D101120F66F7D10112CA
:101773000F6619D201120F6662D201120F6678D476
:1017830001120F665BD501120F660CD601120F66AC
:1017930042D801120F6692D801120F66D2D80112F5
:1017A3000F6614D901120F6670D901120F669ED904
:1017B30001120F66C2D901120F6615DA01120F6604
:1017C30043DA01120F667CDA01120F66D1DA0112D5
:1017D3000F6637DB01120F66A1DC01120F66C4DE50
:1017E30001120F6631DF01120F665ADF01120F6615
:1017F300E5DF01120F664CE001120F6697E001125C
:101803000F66BBE001120F66DFE001120F663AE1DB
:1018130001120F6655E101120F660EE201120F6607
:1018230099A504120F66D8A504120F6678800212D8
:101833000F66BE8002120F669E8102120F66A0829F
:1018430002120F66A38302120F662F8502120F6620
:101853008D8502120F664A8602120F66688702128E
:101863000F66D98702120F66158802120F66638806
:1018730002120F666D8802120F66B18802120F669C
:101883000D8902120F66A88902120F66258A0212B9
:101893000F66F48A02120F668D8B02120F66AD8BF0
:1018A30002120F66E38B02120F66148C02120F668C
:1018B300D58C02120F66E58C02120F66398D021267
:1018C3000F66548D02120F66668D02120F666F8DBE
:1018D30002120F66C98D02120F66258E02120F6661
:1018E300718E02120F668C8E02120F66BD8E02126B
:1018F3000F66DA8E02120F66E68E02120F665A9098
:1019030002120F66739002120F66DA9002120F66CC
:10191300ED9002120F66FB9002120F66AF91021256
:101923000F66939202120F66999302120F66239425
:1019330002120F662D9402120F669A9402120F661A
:10194300B19402120F66E39402120F661C95021201
:101953000F66469502120F66A79502120F66C7958A
:1019630002120F66E59502120F662B9602120F669E
:10197300519702120F669E9702120F66CD970212BD
:101983000F66439802120F666B9802120F66A498B3
:1019930002120F66B29802120F660A9902120F66BC
:1019A300599902120F66989902120F66C89902128A
:1019B3000F66F49902120F66FF9902120F661D9AC1
:1019C30002120F66DF9A02120F66E99A02120F667D
:1019D300249B02120F663A9B02120F668F9B021220
:1019E3000F66A39B02120F66A09C02120F66B39CA4
:1019F30002120F66C89C02120F666A9D02120F66DE
:101A0300ED9D02120F66AB9E02120F66B69E021286
:101A13000F66E29F02120F66FE9F02120F6650A02E
:101A230002120F668FA002120F66A4A002120F66A5
:101A330006A102120F6695A102120F66E0A102121F
:101A43000F6631A402120F66AFA402120F6624A51B
:101A530002120F6646A702120F665EA702120F66F6
:101A630061A702120F666DA702120F6681A7021209
:101A73000F6689A702120F66BCA702120F666CA835
:101A830002120F66E2A802120F6655A902120F6630
:101A930009AA02120F66BEAA02120F66DDAA02127B
:101AA3000F667DAB02120F6689AB02120F66B4ABF1
:101AB30002120F66B7AB02120F6621AC02120F6659
:101AC30049AD02120F6621AE02120F66ACAE0212CE
:101AD3000F66C5AF02120F6682B002120F66BBB06B
:101AE30002120F66ECB002120F66AAB102120F6661
:101AF300DAB102120F66B5B202120F664EB30212CA
:101B03000F66D9B302120F668AB402120F660DB5BF
:101B130002120F663FB502120F6680B502120F66FE
:101B230059B003120F66BEB003120F66F6B003126C
:101B33000F6645B103120F6667B303120F664AB50A
:101B430003120F66A8B803120F66DDB803120F66FF
:101B5300FFB803120F6664B903120F669AB9031232
:101B63000F66BDB903120F66EAB903120F6646BAD0
:101B730003120F6647A403120F66C8A403120F666D
:101B8300FEA403120F6665A503120F66D8A60312FF
:101B93000F66F4A603120F6639A703120F66C7A7D1
:101BA30003120F6620A803120F6654A903120F66CF
:101BB30022AA03120F669AAA03120F6616AB031228
:101BC3000F6658AB03120F6699AB03120F66CDACC9
:101BD30003120F66CBAD03120F66F6AD03120F6649
:101BE30041AE03120F6688AE03120F661AAF0312DB
:101BF3000F66D3AF03120F6602A404120F664F8C55
:101C030004120F66608C04120F66838C04120F6635
:101C13008F8C04120F66AA8C04120F66F08C0412C8
:101C23000F661B8D04120F66388D04120F66B18D7B
:101C330004120F66DA8D04120F66748E04120F6697
:101C4300978E04120F664E9C04120F665F9C04125B
:101C53000F66B09C04120F66F59C04120F669F9DDD
:101C630004120F666FA204120F66A79A04120F667E
:101C7300FF9B04120F6692BA03120F6639BB03125D
:101C83000F6659BB03120F6680BB03120F6694BB2A
:101C930003120F66ECBB03120F661CBC03120F6624
:101CA3009DBD03120F6630E202120F6625BF0312B9
:101CB3000F6676BF03120F66B9BF03120F66FCBF30
:101CC30003120F6662C003120F6683C003120F660E
:101CD3000FC103120F6637C103120F66ABC10312A4
:101CE3000F6659C303120F6633C403120F668DC404
:101CF30003120F66369704120F66579704120F6686
:101D0300889804120F66B29804120F660C7D0012B5
:101D13000F667F7D00120F66422F00120F66AB7DA8
:101D230000120F66CF7000120F66D27000120F669A
:101D33008C7100120F66B77100120F66FE710012EC
:101D43000F66237200120F66447200120F667872D8
:101D530000120F66B17200120F66DA7300120F667B
:101D6300117400120F66317400120F66CC740012E6
:101D73000F66917500120F66C87500120F663D77E6
:101D830000120F66E07700120F66D97800120F6613
:101D9300027900120F66567900120F661C7A001240
:101DA3000F664A7A00120F66DF7B00120F66607CB3
:101DB30000120F66937C00120F669BCE03120F6610
:101DC300A5CE03120F66F1CE03120F665FCF031287
:101DD3000F6680CF03120F6697CF03120F6647D0AB
:101DE30003120F66DBD203120F66E4D203120F66EF
:101DF30037D303120F6660D303120F66C7D30312E0
:101E03000F6658D403120F669AD403120F66E4D4F4
:101E130003120F6643D503120F666FD503120F66C5
:101E230000D603120F663FD603120F667ED6031247
:101E33000F66B3D603120F66C5D603120F66D7D645
:101E430003120F6619D703120F6622D703120F6608
:101E5300D8D703120F6618D803120F6694E1031242
:101E63000F6667E203120F6681E203120F6692E2C6
:101E730003120F66A7E403120F66C6E403120F668C
:101E8300FE9004120F66349104120F667D910412C2
:101E93000F66CD9204120F6648E201120F6687E3C4
:101EA30001120F66C3E301120F6682E501120F668A
:101EB300ABE501120F663EE801120F6682E80112DC
:101EC3000F660BEA01120F66A3EA01120F660BEB12
:101ED30001120F66ACEB01120F66EEEB01120F66F7
:101EE3002EEC01120F66B9ED01120F6629EF0112F4
:101EF3000F664EF101120F667CF101120F66A3F11A
:101F030001120F66ACF101120F6607F201120F66A0
:101F13009AF201120F66B8F501120F6639F6011233
:101F23000F66D7FF01120F66EDFF01120F6638F53A
:101F330003120F664BF503120F66E8F503120F66E3
:101F430023F603120F663EF603120F6663F60312BF
:101F53000F66A8F603120F66D9F603120F660AF787
:101F630003120F6690F803120F663CA004120F666B
:101F730079A004120F66BBA004120F66CBA0041253
:101F83000F6660A104120F666AA104120F663093F4
:101F930004120F66469304120F66A1C403120F6660
:101FA300D7C403120F6603C603120F66DDC60312FE
:101FB3000F66D7C903120F664CCC03120F661BCDF5
:101FC30003120F6644CD03120F6674CE03120F661D
:101FD300349303120F66799303120F66629403120C
:101FE3000F66FB9403120F66459503120F66A795C0
:101FF30003120F66009603120F66E29703120F6631
:102003005F9803120F66899803120F66829A031270
:102013000F669D9A03120F66EC9A03120F66029BDA
:1020230003120F660F9B03120F663F9B03120F668B
:10203300589B03120F66679B03120F66C59B03121F
:102043000F661F9C03120F66719C03120F66849D1B
:1020530003120F66F19F03120F661FA003120F6690
:10206300ADA003120F660EA103120F6613A1031294
:102073000F664FA103120F66C0A103120F6668A279
:1020830003120F668DA203120F6697A203120F6647
:102093009AA203120F6609A303120F6624A3031265
:1020A3000F6637A303120F6663A303120F669EA383
:1020B30003120F66A1A303120F66DDA303120F66BB
:1020C300F0A303120F6617A403120F664BA50412A5
:1020D3000F6663A504120F66B2F702120F6601F8CA
:1020E30002120F66A3F902120F6661FB02120F665A
:1020F300A9FB02120F66CBFC02120F66FCFD021253
:102103000F661EFE02120F667AFE02120F66FCFEB7
:1021130002120F66008003120F662B8003120F66F4
:10212300188103120F669D8103120F660682031244
:102133000F66528203120F66D18203120F66638306
:1021430003120F66EF8303120F66318403120F66C7
:102153009D8803120F661D8A03120F665C8A0312A1
:102163000F663D8B03120F66408B03120F66F48BD1
:1021730003120F66298D03120F668A8F03120F66EF
:10218300169003120F663B9103120F661A92031205
:102193000F669C9203120F664CE402120F6606E56B
:1021A30002120F6678E502120F6687E502120F66C8
:1021B30001E602120F6670E602120F6677E702125B
:1021C3000F66A0E702120F6640E802120F668EE860
:1021D30002120F66FEE802120F66B7EB02120F66D9
:1021E3008EEC02120F66FBEC02120F6678EE0212FF
:1021F3000F662CEF02120F66DAEF02120F6635F04C
:1022030002120F66A0F002120F66A0F102120F660F
:102213007AF302120F668DF402120F6626F502128C
:102223000F6698F502120F665EF602120F66F5FF4F
:1022330003120F66F7FF03120F66A88E04120F66D0
:10224300D98E04120F66938F04120F66F98F04124E
:102253000F666A9004120F6665FC03120F6633FE65
:1022630003120F6630FF02120F6641FF02120F6660
:10227300E1FF02120F66EF9804120F66FD98041235
:102283000F6629A704120F6681A404120F6691A496
:1022930004120F66A9A404120F66F1A404120F66B8
:1022A3006DA104120F66F2A104120F6656A2041266
:1022B3000F66F7FF01120F6616EA03120F662BEA89
:1022C30003120F661CEB03120F665DEB03120F661E
:1022D30079EB03120F66F9EB03120F6612ED03128B
:1022E3000F6678ED03120F669CED03120F669DF8DF
:1022F30003120F66ABF803120F6625F903120F667C
:10230300FDF903120F6688FB03120F6600800412A7
:102313000F664E8004120F66EB8004120F669681DF
:1023230004120F66AE8104120F662A8204120F662E
:10233300408204120F66538204120F6661820412F4
:102343000F6641D803120F6696D803120F6692DA0E
:1023530003120F66C4DA03120F66E6DA03120F667E
:10236300FFDA03120F6618DB03120F6622DC031277
:102373000F66BDDC03120F66B69D04120F66DB9D6C
:1023830004120F66EB9D04120F661E9E04120F6665
:102393004F9E04120F66849E04120F66E69E04127B
:1023A3000F66F59E04120F66FF9E04120F66A58248
:1023B30004120F66CB8204120F66088304120F66A1
:1023C300178304120F66368304120F669E8304126A
:1023D3000F66A78304120F66068404120F662A840D
:1023E30004120F66E98404120F66F68404120F6662
:1023F300078504120F666CA604120F6689A60412E1
:102403000F6665E603120F66C3E703120F66D0E794
:1024130003120F66E3E703120F6602E803120F6667
:1024230018E803120F662CE803120F66AFE80312D5
:102433000F6612E903120F6699E903120F66F7E9B3
:1024430003120F6607EA03120F6669A304120F66ED
:102453008DA304120F66B5A304120F66DDA3041245
:102463000F66358504120F665C8504120F667D8541
:1024730004120F66E28504120F669B8704120F662F
:10248300B48704120F66C08704120F66D487041240
:102493000F66F28704120F66FC8704120F66068824
:1024A30004120F66198804120F666A8804120F66F5
:1024B300A38804120F66D28804120F6620890412BF
:1024C3000F666F8904120F668A8904120F66948956
:1024D30004120F66A58904120F66EB8904120F66B6
:1024E300FAA404120F6696F601120F66C2F60112E1
:1024F3000F66DEF601120F66F1F601120F6607F79B
:1025030001120F6673F701120F66A6F701120F6629
:10251300D5FB01120F66FBFC01120F662EFD0112A3
:102523000F667AFD01120F66B3FE01120F66DBFE22
:1025330001120F66F0FE01120F6600FF01120F6613
:1025430044FF01120F6699FF01120F66A9FF0112E2
:102553000F66099F04120F66249F04120F664D9F96
:1025630004120F66679F04120F668C9F04120F6696
:10257300AB9F04120F66C39F04120F66F19F0412F0
:102583000F660BA004120F6628A604120F66B8F19B
:1025930003120F66BFF103120F66CBF203120F662D
:1025A300FBF203120F6621F303120F6644F30312C7
:1025B3000F6666F303120F66A0F303120F6606F4A9
:1025C30003120F663FF403120F668BF403120F66B8
:1025D300B8F403120F66D8F403120F66569504126B
:1025E3000F666E9504120F66549604120F663397A6
:1025F30004120F66D4FE03120F6646FF03120F6622
:1026030084FF03120F66C5FF03120F66F6890412D7
:102613000F665C8A04120F66348B04120F66428BBA
:1026230004120F66518B04120F665B8B04120F6644
:10263300628B04120F66968B04120F66D78B0412FB
:102643000F66EAED03120F6609EE03120F6658EEEA
:1026530003120F6674EE03120F66A5EE03120F66E4
:10266300B5EE03120F66C2EE03120F66CFEE03122E
:102673000F66BBEF03120F66F9EF03120F6603F049
:1026830003120F6613F103120F661EF103120F6696
:1026930030F103120F6639F103120F6643F103128F
:1026A3000F66FCDC03120F661CE103120F662AE1BE
:1026B30003120F66E2A504120F66DEA604120F666C
:1026C300A8A604120F66D77F00120F660BA7041289
:1026D3000F66E3E002120F668EDE02120F662EDE35
:1026E30002120F66E6DD02120F6658DD02120F6654
:1026F3004BDD02120F6645DA02120F66A7D70212EC
:102703000F6670D602120F66072F00120F66E12EB6
:1027130000120F66C4D502120F660AD402120F66A6
:10272300C82E00120F66742E00120F66BAD1021261
:102733000F6641D102120F66E8D002120F6678D0FD
:1027430002120F664FD002120F662FCE02120F66CF
:10275300FBCD02120F66C8CD02120F66ACCD02127A
:102763000F66BBCC02120F6673CC02120F66BECA91
:1027730002120F663ECA02120F663BCA02120F66AE
:102783003BC902120F6609C902120F6646C802123C
:102793000F6671C602120F66D02D00120F66462D0A
:1027A30000120F66E52C00120F66932C00120F66C1
:1027B300812C00120F6627C602120F66F9C502129A
:1027C3000F66F6C502120F66E3C502120F6625E413
:1027D30002120F668EC502120F667DC502120F66C6
:1027E30073C402120F6609C402120F6607E40212D1
:1027F3000F668A7D00120F66B7C302120F6658C3B5
:1028030002120F6627C302120F66EFBF02120F6692
:10281300AFBF02120F66A3BF02120F6603BF0212FD
:102823000F6643BE02120F66C5BB02120F6656B98E
:1028330002120F6614B902120F66E8B702120F668E
:102843009DB702120F66DCB602120F661FB60212A4
:102853000F66B5B502120F66EFB502120F66D3E22B
:1028630002120F6643BE0300000080FBE473000105
:1028730036360101000102010001030100010401D8
:10288300060605020000070100340801000F0904D1
:1028930001010D0100FF0E080000170200001901DD
:1028A30000FF1A0100011B0100FE1C0100081D02AC
:1028B30000001F010001200100012102000023018B
:1028C300000F24020000260100012701000828024E
:1028D30000FF2A0100072B0102402C0100002D01FB
:1028E30000012E0100012F0100FF30010B1C3108F4
:1028F30000003A0100083B01000F2F010000030212
:10290300710230016002110270020102020202022E
:102913008002100261023A004100630273027202F4
:1029230062024302000213023800000200020402A2
:102933001202000200020002000204020402370035
:1029430037003C0244020002390000020002650223
:1029530000023502810200020502820283020002A4
:102963000300710030016000110070003102200388
:102973005004800010006100000014006300730025
:102983007200620043000000130006000000000014
:102993000400120000000000000000000400040016
:1029A300370037003C024400000000000000000034
:1029B3006500000035008100000005000000830071
:1029C300000003047104020460041104700402048F
:1029D30002040104020410046104000414046304E7
:1029E3007304720462044304000413040604000421
:1029F300000404041204000400040004000451044D
:102A030064000004000400044404000400040004FF
:102A13000004650400043504810464000504000413
:102A23008304000401037103010301030103010390
:102A33000103220302030103100300030003000345
:102A430000030003000300034203000324030603FF
:102A530000030003040312032503230325032303B5
:102A630004030403000300030003440300030003FF
:102A730023030003650321003503810300030503DA
:102A830000030003000301017101010101011101B0
:102A930001013101010101018001100161013B00CC
:102AA3001400630173017201620143010001130108
:102AB30006013D013500040112010001000100017E
:102AC300000104010401330133013C0144013201DB
:102AD300360000010001650100013500810100019C
:102AE3000501820183010001360001000600000098
:102AF3000F0000000000000000000000000003FFC2
:102B0300FF00000403FFFF0000FFFF0FF4010005B7
:102B1300C4040320000100000B00000000000000BB
:102B23000003010F0000D421130074210100D421FC
:102B330002002C21030032210400382105003E212C
:102B430006004A211100682114006E2115005C2142
:102B5300FFFF0000014A15067415086E150B8C154E
:102B630010C6140250150562150756150C2C150DC9
:102B73003E15FF000003EAF5E5D5D5C5B5A5959546
:102B83008585757565655555454535352525151572
:102B9300056A199A1970197619941988198219A056
:102BA30019A619AC19B8197C1964195E1900160F06
:102BB30000000B150B020002220F320000065A1A06
:102BC3006C1A721A3419781A2E193A196E18681871
:102BD300A418AA189E185618BA1AD81ADE1AC01AB8
:102BE300CC1AC61A303016181920231A1C1E300CA2
:102BF3000E020B040B0A0708000F00383C3E363B5D
:102C03003B352B432C303017181921301B1D1F3037
:102C1300000119161816161523030000034948422C
:102C23004D1817250502AE1A7E1A841A901A8A1AAD
:102C33008E19B219D21ABE19C41902040201010174
:102C43000109027A1880187418B0180000000000F7
:102C5300008618981800BE040A150004007F00E8D7
:102C6300030C00280000000000090308100C0A03ED
:102C7300080900040001FF1E1E0C05040F08C08292
:102C8300C0838A828B83E0D2E7F012208A023D332D
:102C9300C082C083790012314D125EF7C082C083B7
:102CA300900334125142D083D082C3E09CA3E09DB1
:102CB300500C126728FAA3E0122CC4600109023DEC
:102CC30033FBEA75F00BA4FAA8F075F00BEBA4281C
:102CD300FB900336E02AF8A3E03B8882F583E054B7
:102CE3000F2274F7120AA6890812314D1231F3AC80
:102CF300F075F00BE9A42CF9900336E028FEA3E06D
:102D030039FF7401650860067402650870208A82C1
:102D13008B831231DF12410F74026508701B12306E
:102D23009E12322670138E828F83E4F0800BEA2486
:102D330003FCEB1231C11231CDEEFAEFFB1227B0D7
:102D430002406B74F4120AA612705679008E828FB9
:102D530083E06076890A890B8065E50A75F00BA428
:102D6300FAA8F075F00BE50B122CD17046E50A7545
:102D7300F00BA4F8AAF075F00BE50B1232058E8266
:102D83008F83E08508828509831232E7850882856F
:102D93000983A312410FEE2403FCEF1231CA123A46
:102DA300F4125AE2AA08AB091227B079019003344E
:102DB3001254F1E50A2401F50AE50B3400F50B1270
:102DC30030A6E50A9AE50B9B409002571F74F51253
:102DD3000AA6EAFEEBFF740B121273123EFA750A8F
:102DE30001EC4D602BEC127072ED125EF71241068E
:102DF30079011227A4E5084509606F8508828509D2
:102E030083A31270607902AA08AB091227A4805A1F
:102E1300E5084509602B12605F124730123AF5123C
:102E23003210700CEEFAEFFB12279EE9F50A80CB05
:102E3300EE2403FA12314870317903EEFAEFFB8086
:102E4300CA8E828F83A3E064FE7003A3E0F4700B49
:102E5300EE24030A0A0A123148700CEEFAEFFB1251
:102E6300279EE9F50A8003750A00A90A7F03020D6C
:102E73006374F7120AA690033412407BEA4B602F67
:102E8300EA75F00BA4FAA8F075F00BEBA428FBEAA3
:102E9300FEEBFF121E8C90033612407B900336121A
:102EA30053366012EEFCEFFD7900121DCC800790C3
:102EB3000336E4F0A3F002406B900334124AA0C33C
:102EC300EE98EF9922C082C083EC4D60051226066E
:102ED30080097C087D007900121DCC023D3374F615
:102EE300120AA67900EA4B601878008808126397E3
:102EF300EB12672460047901780808E8C39408405A
:102F0300EA0238C974F7120AA674F312102FECFE02
:102F1300EDFF851882851983E4F004121273EAF039
:102F2300A3EB12586B7403121273AC82AD83EEFAE7
:102F3300EFFB122720EEFAEFFB12270E0240667416
:102F4300F7120AA674F312102FECFEEDFF85188218
:102F5300851983E4F0EAFCEBFD7403121273123259
:102F6300E074011212731241028E828F8312410F99
:102F730074FE68700374FF6960047901800279004C
:102F830002406674F7120AA6EAFEEBFF122FE47002
:102F930014122FEF8E828F83E0F4F88A828B83E002
:102FA30058F01227B0A90802406B74F7120AA6EA78
:102FB300FEEBFF7508008E828F83E06022122FE400
:102FC300701D122FEF8A828B83E08F838E82F8E04D
:102FD30058700CE0F88A828B83E048F01227B080A7
:102FE300C41227AAE9F508740165082212706B124E
:102FF30031F7123139FAA3E039FB2274F4120AA62D
:103003008A088B097C007D0012309E1231CD12316B
:103013005E12705D7900850882850983A3E064FEF2
:103023007003A3E0F460717E007F008062EEFAEF2C
:10303300122CC46057EEFAEFFBEA75F00BA4FAA862
:10304300F075F00BEBA428FB900336E02AF50AA3F6
:10305300E03BF50B850882850983A31257B9850ADE
:1030630082850B83A3E06A7003A3E06B701EE50AFD
:103073002403FAE50B123149700AE50A2403FCE53F
:103083000B1231CA1231527901126066123A2B12B5
:1030930030A6EE9AEF9B409502571FEA24030A0AD3
:1030A3000AEB22900334125C48C32274F3120AA67B
:1030B3008A088B098A828B83A312706012314D12A6
:1030C300705D750C0012309E12314970547E007F82
:1030D30000804912312BFAA3E0398A82F583E05448
:1030E3000F603612312BF50AA3E039F50BE50A24FC
:1030F30003FCE50B1231D43400FB122600E9640112
:103103007017850A82850B83A3125D09A312410FF1
:10311300123152750C01126066123A2B122EBC400A
:10312300B2A90C7F05020D63EEF8EFF9E875F00B19
:10313300A4F812313922AAF075F00BE9A42AF99008
:103143000336E02822EF12322022127071EB221292
:10315300315E123AFEEEF0A3EFF022E50812707230
:10316300E5092274F5120AA6EAFEEBFF8E828F832D
:10317300A31270607C007D00EE24030A0A0AEF129A
:1031830031CDEEFAEFFB1227AAE9F50A7401650ABD
:10319300702912706B1231F3AAF075F00BE9123239
:1031A30005850882F5831231DF123210700DE508B0
:1031B3002403FCE5091231C11231CD022E6D340016
:1031C300FDEE2403FAEF221231D43400FB12272040
:1031D300223400FDE5082403FAE50922A31231E4B1
:1031E300221231E822E0F8A3E0F98E828F83A32232
:1031F3001231F7223400F583124AA4E875F00BA4C8
:10320300F82212313FF508A3E039F50922E8F0A3CB
:10321300E9F0E5082403FAE50912322022123226E6
:103223006401223400FB12270EE92274F3120AA66A
:1032330074E612102F127056750C0175080075098B
:1032430000750A00750B00851882851983E4F0EE7A
:103253002403FCEF3400FD74031212731232E0E90D
:1032630064017023740B121273124106740112125B
:10327300731257BD7003A3E06960518518828519E5
:1032830083858208858309740D121273E41232E771
:10329300740E12127312410F740D121273AA82ABC1
:1032A30083121292E96401700B740D1212738582FA
:1032B3000A85830B780A120F83AC08AD09EEFAEF87
:1032C300FB1227987402120FB1E9F50CEEFAEFFB2B
:1032D30012128CA90C741A120FB10231261235D1B5
:1032E30012129822124076124AA022C082C083781A
:1032F30000790080031233DE1230A6E89AE99B506E
:1033030029E8FAE9FBEA75F00BA4FAACF075F00BC7
:10331300EBA42CFB900336E02AFCA3E03B8C82F564
:1033230083E0540F70CF790080027901023D33C0EE
:1033330082C083902C5C124AF6EC75F012A4FCA8B0
:10334300F075F012EDA428FD79FF7A007B08121DB9
:10335300CC023D3374F7120AA6E9FEEAFF7A007B3A
:1033630000780079008028E8FCE9FDEC75F012A4F0
:10337300FC85F00875F012EDA42508123811C39EE0
:10338300400AE0FCEFC39C40031239001233DE1203
:10339300380540D302406BC082C083780079008037
:1033A300031233DE1233D2501F123815F470F2E8D1
:1033B30075F012A4F8AAF075F012E9A42AF97400C2
:1033C30028FA740839FB80047A007B00023D3390AD
:1033D3002C5C1238CEC3E89AE99B22E8240108E961
:1033E3003400F92274F0120AA674F312102F8A0A19
:1033F3008B0B8C0C8D0D8908EC450D6016AA0CAB5C
:103403000D1212E68A0E8B0FAE0EAF0FEE4F600356
:103413000234A51212BC8A0E8B0FA80EA90FE8FE68
:10342300E9FFE849607C902C6A1235256022740319
:10343300650860067404650870167A04790312122D
:10344300B6902C6A12353C40077A007B0002352285
:10345300902C68123525601B7401650860067402A0
:103463006508700F7A0279011212B6902C68123532
:103473003C50D68518828519837401F01212731299
:103483005AE2AC0CAD0D74031212731235CA740BED
:10349300121273123EF11244C2E4125ACA1217AE48
:1034A3008004EE4F6068780074FF2508C3940450CD
:1034B3000278048E828F83125AE28E828F83A3A3B3
:1034C300A3A3E508F0E88E828F83A3A3A3A3A3128B
:1034D3005AEA1208C6E88E828F83A3A3A3A3A3A3E9
:1034E300A3A31242A674011242A6A3F0EE24101263
:1034F3005EF4E4F0A3123CAAA3F0123AF4E4F090D1
:1035030081AC121248EE240C125EF412123C1235F6
:103513002A4005900D5CE4F0121688EEFAEFFB02E8
:103523004AAA125BFE49227A0479001212B6902C41
:103533005C12670AEA98EB992212355575832C754C
:10354300825CE493C398F8A3E49399F9C3EA98EBF4
:103553009922E493F8740193F92274F2120AA6747F
:10356300F312102F8A088B09ECFEEDFF750A00EEAB
:10357300FAEFFB1212E68A0C8B0DA80CA90DE84991
:10358300603E88828983E065087004A3E065096072
:103593002F88828983A3A3A3A3E0C3940550211298
:1035A3005F0D8518828519837401F0121273125FFF
:1035B30011EEFCEFFD74031212731235CA750A0182
:1035C300A90A740D0255A81235D11212A422AA8297
:1035D300AB83122720851882851983AA82AB8322A5
:1035E30074F6120AA612361F600FA3A3A3A3E01456
:1035F300C3940450047901800279000238C974F637
:10360300120AA612361F600FA3A3A3A3E014C39448
:103613000250047901800279000238C91212E08A4B
:10362300828B83E58245832274F6120AA612361F23
:10363300600BA3A3A3A3E0700479018002790002C5
:1036430038C9C082C083EAFCEBFD7A007B00023DEF
:1036530030C082C0837C007D00023D3074F4120AC6
:10366300A674F312102FEAFEEBFF8C0A8D0BC3EC4A
:1036730094F8ED94FF4007EE4F7003023718750876
:1036830000750900802E8518828519837401F01254
:103693003A53121273123A6160137403121273AC29
:1036A30082AD83EEFAEFFB122600E97049E50824A8
:1036B300011238B1902C5CE4126992E50898E5098F
:1036C300995052E50875F012A4F8AAF075F012E5C6
:1036D30009A42AF912673D60D4EE4F70A974FF65FF
:1036E3000A700474FF650B60C4123A43650A7004E0
:1036F300A3E0650B70B7E50875F012A4F508A8F010
:1037030075F012E509A428F50974002508FA740870
:103713003509FB80047A007B0002571A74F4120AFD
:10372300A674F312102F7508001212E68A0A8B0B87
:10373300AE0AAF0BEE4F602A851882851983740198
:10374300124070F8A3E0F9740B12127312418A123B
:1037530012867C127D0079FFEEFAEFFB121DCC7509
:10376300080112352A5009900D5C7401F012168875
:10377300A90802571A74F7120AA6E9FE74FE6A70C2
:103783000374FF6B78007900700580521233DE12E8
:103793003805504AE8FCE9FDEC75F012A4FCAFF0E3
:1037A30075F012EDA42F123811F460E0E8FCE9FD86
:1037B300EC75F012A4FC75F012EDA42FFD74002C2F
:1037C300F58274083DF583E06A7003A3E06B70BC77
:1037D300800912381514C3940440171233DE1233D0
:1037E300D25018EE70EC12381564016005E06403E2
:1037F30070E9123A34FAA3E0FB80047AFE7BFF02FD
:10380300406B902C5C124AFAC3E89CE99D22123962
:103813003522E8FAE9FBEA75F012A4FAACF075F088
:1038230012EBA42CFB74042AF58274083BF583E0A5
:10383300221212F8023D33C082C083790180F274F0
:10384300F0120AA68A0A8B0B7A0479011212B68A3D
:103853000C8B0DEA450D603EEAC333FAEB33FB12E2
:103863001E8C8A088B09AE08AF09EE4F60237AFEDF
:103873007BFF1212FE74FE6A700374FF6B601B857C
:10388300088285098312407BE50824021238B1803F
:10389300E1750C0080047E007F00850A82850B831E
:1038A300E50CF0EEFAEFFB024AAFE5082407F50852
:1038B300E5093400F50922902C5C124AFAC3EA9C0C
:1038C300EB9D22120FB17F02020D63E493FA7401A0
:1038D30093FB22C082C0837A007B008004191239D3
:1038E300001238BA501012391FC3940550F0E97012
:1038F300EC12390980047A007B00023D33EA24018B
:103903000AEB3400FB22EA75F012A4FA75F012EB0D
:10391300A428FB74002AFA74083BFB22EAFCEBFDA3
:10392300EC75F012A4FCA8F075F012EDA42812397E
:103933003522FD74042CF58274083DF583E022746E
:10394300F7120AA674F312102F7E007F000239E7E4
:10395300E50875F017A4F8A9F01269A5FAA3E0FB2E
:10396300EEF8EFF9E875F012A4F8ACF075F012E98F
:10397300A42C123A426A7003A3E06B603FE508751A
:10398300F017A4F8AAF0EA1269A4F8A3E0F9740105
:10399300121273E0687003A3E0696020E50875F014
:1039A30017A4F8EAF9747C28FC740939FD7403122E
:1039B3001273AA82AB83122600E96014E50875F03E
:1039C30017A4F8A9F0747A28FA740939FB1217BA04
:1039D3000508902C6FE493F8E508C3985003023967
:1039E30053123A2B902C5C126CEB5039EEF8EFF932
:1039F300123A34F47003A3E0F460E6851882851963
:103A0300837401F0EEF8EFF9E875F012A4F875F09D
:103A130012E9A42AF9123A53121273123A6160C1DD
:103A230075080080AD024066EE24010EEF3400FFFE
:103A330022E875F012A4F8AAF075F012E9A42AF9A5
:103A4300123A4722740028F582740839F583E0227C
:103A5300740228F582740839124A9E740B22E8F026
:103A6300A3E912419212129EE922C082C0839003FD
:103A730041745CF0A37415F0023D3374F7120AA687
:103A8300EAFEEBFF900377E06408601BE0640460E8
:103A9300168E828F83E0540364017048123AF41245
:103AA30045AFE06406703D8E828F83A3A3E064FE7E
:103AB3007003A3E0F4602D8E828F83A3A3124102CF
:103AC300900368E0687003A3E069700BEE2415F5BA
:103AD30082EF1267246008121616E9F508800812AF
:103AE300161C80F67508C2EEFAEFFB121E92022F27
:103AF300A8EE123AF922240BF582EF3400F5832263
:103B030074F4120AA68A088B098A828B83E0F8A3CD
:103B1300E0FAE82AFAE43400FB121E8C8A0A8B0BC3
:103B2300AE0AAF0BEE4F6060850882850983E0FC27
:103B33007D007900121DCC8E828F83A3A312706047
:103B43001216588E828F83A3A3A3A312407B8508EA
:103B530082850983E0F8EE28F8EF340012410A85E4
:103B63000882850983A3E0C0E0125EF1D0E0F01281
:103B7300166AEE240E125EF4E9125710E0C0E0EE6E
:103B83002411125EF4D0E0F0EEFAEFFB02571F743B
:103B9300F4120AA674EB12102F8A088B098C0A8D73
:103BA3000BE9FE900377E064046005E064087004A9
:103BB30079C2802EA378081211E4EE90037E123DA1
:103BC300711211E47405121273E9F0740412127382
:103BD3007401F07407121273E4F090037774021205
:103BE3003CCE741502571C74F6120AA674EB12101D
:103BF3002FEAFEEBFF1253336003023C8E7A077BFE
:103C030000121E8C90033912407B12533360788E5E
:103C1300828F8312124890033A1245B212123C1259
:103C23006F24C0E0123C9AD0E0F0EE2405FAEF34A2
:103C330000FB8A088B098A82F583E0C0E0123C9579
:103C4300D0E0123CAAE0C0E0123C95A3D0E01240C1
:103C5300EF12124885188285198312123C888289D3
:103C630083E0C0E07405121273D0E0F0850882850A
:103C73000983E0C0E07404121273D0E0F0740712F9
:103C83001273123CCD8006791080027901741502FB
:103C930038C6123C9AA322900339E0FAA3E0F583D5
:103CA3008A82A3A3A3A3221244CA22C082C083127E
:103CB3005333600D900339125C36900339E4F0A35B
:103CC300F012158612175A023D33E412419212265E
:103CD3006C22C082C083900338E070031221621209
:103CE3001340804CC082C083900338E0900D5B701A
:103CF30004E4F0802D7401F0900338E0F460237C39
:103D030041E0C394415002E0FCECF8E0C398F0ECCE
:103D130075F0E8A4CCA8F075F003A428FD7A80120E
:103D23004B027A5B7B0D794112265480031212EC0D
:103D3300D083D082020F6374F4120AA674EB1210BC
:103D43002F8A088B098C0A8D0B9003777401123D1F
:103D5300711211E47405121273E9F07404121273F0
:103D63007403F07407121273123CCD023BE5124048
:103D7300FA78082274F7120AA67C01121352024041
:103D83006B74F2120AA674FC12102FE9851882854F
:103D93001983F0EAFEEBFF8C0A900375125142126D
:103DA300157A8A088B09EA4509700579CA023EEC3F
:103DB3008A828B83A3A3A3A3A3A3A3E064FE7003BC
:103DC300A3E0F4700579C3023EEC9003751257B972
:103DD3001217C0850882850983A3A3A3A3A3A3A362
:103DE300A3A3A3E00490038812404A74021212733F
:103DF3007402F014121273AA82AB831216C48A0CD3
:103E03008B0DAE0CAF0DEE4F7003023EE3123AF48E
:103E13001247247406F0A3A882A983900362125C5C
:103E230073124A7DF0EE2413125EF47401125AC227
:103E33007440F0A3E4125709A3A3123EF112410FF9
:103E4300EE2411125EF4E50AF0EEFAEFFB12131CF6
:103E5300E9FE6003023EE59003777409F01238AD82
:103E6300AA08FB794B1226548508828509831240E0
:103E73003C12410F90036AE0F8851882851983E0AC
:103E830068600CE090036A12418E79E11226549027
:103E93000E01124102900E03E0687003A3E0696013
:103EA3001A90033B12410F900E031257B912168258
:103EB300900E031251427A01124B027A007B049056
:103EC30003C2E0F9121F52900E03123EFA740278F5
:103ED30008121170AC08AD09FA7B04124B0480027E
:103EE3007E10900540E4F0EEF974040255A8123EEA
:103EF300F5221231E8A322E0F508A3E0F5092274C4
:103F0300F5120AA674E212102F851882851983EC24
:103F1300F0A3EDF0EAFEEBFF89087429121273E0B7
:103F2300F509742C121273E0F50A900377E0640428
:103F33006005E06408700579C2024034742A1212E5
:103F430073E064FE7003A3E0F4700579C3024034A8
:103F5300900377740312418E7950122654742A12F7
:103F63001273AA82AB83794B122654851882851962
:103F73008312404312410FE50890036AF0742A123A
:103F8300127312403C12410FE50990036212404A3A
:103F930074CE55094480C0E07412121273D0E0F05D
:103FA3007401250A900388F0740F1212737402F0DF
:103FB300742A1212731241027407121273E8F0A3E7
:103FC300E9124081741012127312410F7405121218
:103FD30073E508F0741B121273E4F090037D740F01
:103FE300F07A7D7B03795412265490037C740FF08E
:103FF3007A7C7B03794712265490037CE0C3940FA9
:1040030050237405121273E0C0E07402121273D0CD
:10401300E0F074041212737401F004121273AA8292
:10402300AB831226787405121273AA82AB8312260D
:104033005A741E120FB1022E6F124AA090036B2204
:10404300124AA090037522F0EEFCEFFD7A897B0300
:104053001226062274F7120AA6EB90037FF01215BC
:10406300688005740D120FB17F01020D6312407653
:10407300A3E0221240EFA322EAF0A3EBF0221240C6
:10408300F5F8A3E0F92274F7120AA674F812102FB8
:10409300EAFEEBFF7900900377E06408704485182B
:1040A3008285198374FDF0A374FFF0121652740213
:1040B30012127312407B7405121273E4124076E0FD
:1040C300C0E07404121273D0E01240EAC0E0740638
:1040D300121273D0E0F07407121273E412418E12BD
:1040E30016A674080240681240EFE022F08E828F19
:1040F30083221240FAE022F0851882851983221266
:104103004AA022E0F8A3E0F9EE123AF9E8F0A3E9B5
:10411300F022C082C083900349740CF0A37414F09E
:104123009003EF7400F0A37417F090034D7442F002
:10413300A37414F090034F740CF0A37414F0900361
:10414300517448F0A37414F0023D3374F4120AA6B8
:1041530074F912102F8A088B098C0A8D0B8518822B
:1041630085198378081211E47404121273E9F07448
:1041730005121273E4F07406121273E412418E12E4
:10418300132E740702571CE8F0A3E912419222127E
:1041930040FAAA82AB832274F4120AA68A088B0916
:1041A3008A828B83126069EE4F70030242A39003ED
:1041B3001212533660158A828B83A3A3E0F9EEFAB9
:1041C300EFFB9003131245B212286F8E828F83A3E5
:1041D300A3A3A3A3A3A3A3A3E0640270718E828FFE
:1041E30083A3A3A3A3A3A3E0540270030242758590
:1041F3000882850983A3A3E064E960768E828F83B6
:10420300A3A3A3A3A3A3A3A3A3A3E07014900E1536
:10421300E0048E828F83A3A3A3A3A3A3A3A3A3A337
:10422300F08E828F83A3A3A3A3A3A3A3A3A3A3E03B
:10423300141242A67404F0900E16125ABCE8F0A3AE
:10424300E9126B888B0BEA450B700312655B8E8258
:104253008F83A3A3A3A3A3A3A3A3A3E064026012D6
:104263008E828F83A3A3A3A3A3A3A3A3A3E0640624
:10427300702E8E828F83A3A3A3A3A3A3E0A2E050F7
:104283001F850882850983A3A3E0F9EEFAEFFB12E9
:1042930027568E828F83A3A3A3A3A3A3E054FEF088
:1042A30002571F1244CAA3A3A32274EC120AA674D2
:1042B300DD12102FEAFEEBFF8C088D097437121202
:1042C30073780C121211750A007405121273AC8202
:1042D300AD831226D87412121273E070087415128B
:1042E3001273E060207405121273E0A2E6501E8E72
:1042F300828F83A3A3A3A3A3A3A3A3A31257B91238
:1043030016DCE9600879031225EE0244B074051245
:104313001273E0540C64047005750B018003750B74
:1043230000E0A2E55019750A01E50BA2E040101266
:1043330070671257B5122762E96004790480C87464
:1043430005121273E0A2E650227406121273E054AF
:104353000370187405121273E0540C640C600CE0C3
:10436300540C640860057510018003751000740512
:10437300121273E05403F8740268700C127067121F
:1043830057B512285E0244B0740168703AE510A272
:10439300E050031244B87405121273A882A98374FF
:1043A30003121273E8F0A3E9124A9485188285195F
:1043B300831244C2E0C0E07402121273D0E01241CF
:1043C3008E1228460244B0E860030244B090035FB3
:1043D300E0640170108E828F83A3A3A3A3A3A3E041
:1043E300700302433E74221212737402124A9474CD
:1043F3001A12127312410FE510A2E050087405124D
:1044030012731244B8E50BA2E0506AEE240FF58252
:10441300EF126724C0E07417121273D0E0F0900318
:104423001412533670030244B01216588A128B13B7
:10443300A812A913741A121273E0687003A3E06937
:10444300706B780C120F7B780A120F877808120FA3
:1044530083A910740C121273AC82AD8374211212EF
:1044630073AA82AB839003141245AF12286F7407AB
:10447300120FB18038780C120F7B780A120F8778ED
:1044830008120F83900375120DECEE2412F582EFE0
:1044930012644E7423121273AC82AD83740E121223
:1044A30073AA82AB8312274A7409120FB1742312C1
:1044B3000FB1026B53127067125C441226D222E8CA
:1044C300F0A3E91244CA22126591A3A3A32274F7AD
:1044D300120AA612204202406B74F7120AA6122097
:1044E3005402406BC082C08312204E023D3374F7E6
:1044F300120AA612205A02406B74F7120AA6740914
:10450300121273E0F5087808120F871220667401FF
:10451300024068C082C083122072023D33C082C051
:1045230083122078023D3374F7120AA612207E020A
:10453300406B74F7120AA6EAFEEBFF890874016563
:104543000870147900121484902C7AE493FC790097
:10455300EEFAEFFB1213FA02406B74F4120AA6741C
:10456300F912102FE9FE8A088B098C0A8D0B74133C
:104573001212731257B990058A1253366027EE85CB
:104583001882851983F0740112127378081211E4EA
:10459300EAF8EBF9740512127312418A90058A1234
:1045A30045AF12286F024185FB90034BE0F8A3E06F
:1045B300F58388822274F7120AA6900D5EE0F97ED5
:1045C30000800B126710540D64017001190E12471D
:1045D300B25003E970ED02406B74F7120AA6900D16
:1045E3005FE0F97E00800B126710548D64817001C7
:1045F300190E1247B25003E970ED02406B74F212C8
:104603000AA6890BE975F006A4240CF508E5F01257
:1046130038B58A0CE508250CFAE5093400FB121EAF
:104623008C8A0C8B0DAE0CAF0DEE4F6027AC08AD32
:10463300097900121DCC123AF4E50BF0EE2508F8C7
:10464300EF3509F98E828F83A3A3A3A3A3A3A3A307
:10465300A312410FEEFAEFFB0255AB74F6120AA652
:10466300EAFEEBFF1213D6900D5DE0F8E9C3984024
:10467300099003451257B91213DCEE2402F8EF1226
:104683005DB9900347125C73900347E004F0EEFAC0
:10469300EFFB1213E2850882850983E0026264C09E
:1046A30082C08379009003458001091257B98A8239
:1046B3008B83E582458370F2023D3374F7120AA6B9
:1046C300EAFEEBFFEE4F6056900345125336604E01
:1046D300888289837A007B00EE65827003EF6583AD
:1046E300600FAA82AB83124724E5824583602F8043
:1046F300E7900345124730687002EF698E828F831B
:1047030070081241029003458003126B6512410F3A
:10471300EEFAEFFB122816EEFAEFFB121E9202409E
:104723006B12472822124AA48882898322124AA044
:10473300EE22C082C083900345800488828983125D
:104743005336600B88828983125142EC4D70EC8A98
:10475300828B83E4F0A3F0E8496006888289838032
:104763000390034512407B023D3374F7120AA6906F
:10477300034580048A828B831247AD4B60257E00FC
:1047830080010E1247B250ECEE75F006A4FCADF0BA
:10479300EA2CFCEB3DFDEC2410F582ED124802708F
:1047A300E180047A007B0002406B125C48EA22122B
:1047B300480BEEC3982274F7120AA67D0080010D00
:1047C300124807EDC3985034ED75F006A4FEA8F027
:1047D300E8FFEA2EFEEB3FFFEE2410F582EF1248CE
:1047E3000270DCED75F006A4FEE8FFEA2EFAEB3F5B
:1047F300FBEA2411F582EB1267244CF002406B12A2
:104803006730692212480B22127071EB3400F58372
:10481300E0F82274F6120AA61214FC7A007B0080D8
:1048230025EAF8EBF9E875F006A4F8ACF075F006A4
:10483300E9A42C125C1D126F32A3E4125D13F0A3E2
:10484300126F381270AF902C6412353440D37A0053
:104853007B00801C8A088B0974037808121170127C
:1048630056D7A374FEF0A304125AFCA3E41270AF4C
:10487300902C6E1248B540DC7A007B00801D8A08BC
:104883008B097403780812117074A2126398740C64
:10489300126BEA74FEF0A3041270AF902C741248EA
:1048A300B540DB902C78E493900353F01248BF0299
:1048B30038C9E493F8C3EA98EB9400227CE87D03BB
:1048C3007A107B009003C2E0F9121F4C2274F0129D
:1048D3000AA674F512102F8A088B09890A8C0BE932
:1048E300A2E050147508FC7509FFA2E15005D2E45B
:1048F300024992D2E30249921255977003A3E069E9
:1049030070057900024A5FAC0A7902AA08AB091262
:1049130014D8E960EDE50AF50C780C120F877902DB
:104923007CFE7DFFAA08AB09125312120FB1E96096
:1049330003024A5DE50AC2E5F50A9003B5E070514A
:10494300E50AA2E6404B7403121273AC82AD83AA4C
:1049530008AB09122708E97032124C338A0C8B0D0D
:10496300A80CA90DE8FEE9FFE8496025EE24020A38
:104973000AEF123226601AEE2402FCEF3400FD74B3
:1049830003121273AA82AB83122606E50AD2E5F557
:104993000A900348E0F50C900368E0F50EA3E0F5F8
:1049A3000F780E120F837D017C00900348E0F9AA73
:1049B3000EAB0F1214907402120FB1E9F890034872
:1049C300E004F0E86003024A5DE50AA2E5500474DE
:1049D3000E80027406C0E07401121273D0E01260FC
:1049E3007A8A0E8B0FAE0EAF0FEE4F6069124A7DBF
:1049F300124A94888289837401F07478550AA31249
:104A03007077E50C127077A3E508F0E509124A6C9C
:104A1300E4F0E50AA2E5500F7403121273AC82AD01
:104A230083E82406124A638E828F83A3A374FDF066
:104A3300A374FFF0E50B6015902C7BE493F8E50B72
:104A4300C3985009EE2413125EF4E50BF0EEFAEF6F
:104A5300FB12131C80067910800279C7740B8049FE
:104A6300FAE93400FB1226062288828983A3A3A3D2
:104A7300A3124A7822125DECA322EE2417123AFB0A
:104A83007401F0121652EE241A123AFBEAF0A3EB69
:104A930022F012706B3400124A9E22F583124AA44C
:104AA30022E0F8A3E0F922740D120FB17F08020D82
:104AB3006374F6120AA67A007B1012656860089088
:104AC30003D47401F08029900628E06401900E134A
:104AD3007006E0FC79018004E0FC79037A007B0036
:104AE3001213FA902C62124AF67A007B10124B04CE
:104AF3000238C9124AFA22E493FC740193FD227B23
:104B0300009003C2E0F9121F462274EC120AA68A2F
:104B1300088B098C0C8D0D890E74141212731254A8
:104B2300F17416121273E0F510A3E0F5111216DCFE
:104B3300E960077AFF7BFF024C30900625E06402B0
:104B43006003024C237900AA08AB091214DEA90EF4
:104B53001214D28A128B13AE12AF13EE4F700302EC
:104B63004C0B8E828F83A3A3A3A3A3E064018E8245
:104B73008F83A3A370691257B98E828F83A3A3A3D4
:104B8300A3A3A3E054186043902C79E4938E828FFF
:104B930083A3A3A3A3F0EA650C7003EB650D601474
:104BA300EA650A7003EB650B600AEA65107003EBB4
:104BB3006511701F7810120F83AC0AAD0BAA0CABF2
:104BC3000D1217D87402120FB18008900367126593
:104BD30052A3F074FE6A700374FF6B601D804EA3D2
:104BE300A3A3E0640360298E828F83A3A3A3A3A35B
:104BF300E0640470057AFE024B388E828F83A3A390
:104C0300A3A3A3E0640270089003B4E064027010ED
:104C1300124C338B0BEA450B6006AA08AB09800DD7
:104C2300AA08AB099003491245AF12286F026B53D0
:104C330090037512531812179C2274F7120AA6EAEE
:104C4300FEEBFF1212CEE9700AEEFAEFFB1212DA54
:104C5300E96006EEFAEFFB80047AFE7BFF02406B0D
:104C630074F0120AA68A0A8B0B8C0E8D0F890975B4
:104C730008001216DCE979006003024DDAAA0AABD8
:104C83000B1214DEA9091214D28A0C8B0DAE0CAFD1
:104C93000DEE4F60198E828F83A3A3A3A3A3E064B9
:104CA3000270559003B4E064027003024DD8AA0A5F
:104CB300AB0B90034F1245AF12286F1212E08A0C10
:104CC3008B0DA80CA90DE8497003024DD888828981
:104CD30083A3A3A3A3A3E0A2E04003024DD8750CD2
:104CE30001A2E150687901AC0AAD0BAA0EAB0F1219
:104CF300142AE97064024DD88E828F83A3A3A3A3E1
:104D0300A3E064037005750C0280528E828F83A327
:104D1300A3A3A3A3E064016003024DD8900375121B
:104D230051428E828F8312512E8A0C8B0DA80CA9AF
:104D33000DE84960D1902C72E493FA88828983E06C
:104D4300C39A50C2A3E06003024DD880B988828918
:104D530083A3A3A3A3A3D2E1F0EE4F603A8E828F85
:104D630083A3A3A3A3A3A3E05418602B7508018E08
:104D7300828F83A3A3120DEC750CFE750DFF780CC7
:104D8300120F837900AC0AAD0BAA0EAB0F1214F00D
:104D93007404120FB1803E900368E0650E7004A3A3
:104DA300E0650F7014902C7AE493FCA909AA0AAB6E
:104DB3000B1213FA750801801CA90CAC0AAD0BAADF
:104DC3000EAB0F12142AE9700C750801A909AA0A7F
:104DD300AB0B121484A908024AAF74EA120AA67430
:104DE300F012102F8A0C8B0D8C088D097426121269
:104DF30073E0F514A3E0F5157512069003F512534D
:104E0300366023900375125142AA08AB091217C6E4
:104E13008A108B11EA4511600D8A828B83A3E0709F
:104E2300057900025116E50C241DF50EE50D34003D
:104E3300F50F850E82125322F51388828983A3A36B
:104E4300A3E0FA88828983A3A3A3A3E0F9EA240059
:104E5300FEE439FFAA08AB0912148A850E82850F76
:104E630083125160E029F50BE50AA2E550037512A0
:104E73000E7487550A70177418550A6418600FE585
:104E83000C2417F582E50D1267246512600779017A
:104E93001225EE808C530A78C3EE94F8EF94FF50FA
:104EA3001D7900EEFAEFFB1251206012888289838C
:104EB300A3A3A3A3A3A3E054186003024E2478087A
:104EC300120F837D00125153120FB1E9F874036876
:104ED3007003024E24E86003024F8F7418550A7062
:104EE30003025044E50AD2E0F50AA2E45004D2E1F9
:104EF300F50AA90A1257B212512060538882898396
:104F0300A3A3A3A3A3A3E05418604488828983A323
:104F1300A3A3A3A3E064017036E5104511603090AC
:104F230003751251428882898312512E8A0E8B0F88
:104F3300A80EA90FE849601788828983A3E0600F50
:104F4300851082851183A312626F5003024E24E5FC
:104F53000AF50E780E120F87125146120FB1E9703F
:104F63002B7C007D0085148285158374FFF0A3F0EC
:104F7300850C82850D83A3A3A3A3A3A3A3A3E060AE
:104F830003125137A90B1257B212206C8514828574
:104F93001583E0F47003A3E0F460399003B4E06494
:104FA300027003024E241254E2E0FAA3E01245AB6E
:104FB30012286FEA65087003EB65096003024E244B
:104FC300EEFAEF1245AB12286F851482851583EA3A
:104FD300F0A3EBF07808120F837D01125153120FE7
:104FE300B1A90AEEFAEFFB1214DE8A088B09A808AE
:104FF300A909900368E0687003A3E06960030251A4
:1050030007EEFAEFFB1212E08A088B09A808A90938
:10501300E849606E88828983A3A3A3A3E064016047
:105023000D88828983A3A3A3A3E064027054851827
:1050330082851983AC82AD83EEFAEFFB12270880D9
:1050430055900361E0600FE50AF50E780E120F87A5
:10505300125146120FB1E50AF50E780E120F877939
:10506300027CFE7DFFEEFAEFFB125312120FB1E941
:105073006003024F8F85148285158374FFF0A302AA
:105083004FD6121652EAFCEBFD851882851983AAC6
:1050930082AB83122606850C82850D83A3A3A3A36B
:1050A300A3A3A3A3E06401700F1251377408121273
:1050B30073AA82AB831226061252EC125EFB4430B3
:1050C300F5087808120F8774011212738582088518
:1050D30083097808120F83740B1212738582088573
:1050E30083097808120F83E513F5087808120F87F0
:1050F3007900EEFCEFFD1257B21214247406120F5E
:10510300B1024E241252EC125EF7125160E50BF01D
:1051130012166A7410120FB17F0E020D631214D2AD
:105123008A0E8B0FA80EA90FE84922A3A3125C488D
:105133001217C622E50C2415F582E50D123AFE126C
:105143005AD6227901AC08AD09125C3D12531222E2
:10515300AC0BA913125C3D121490740222125F036C
:10516300A3A3A3A32274F0120AA674F012102F8A29
:105173000C8B0DECFAEDFB750F089003F51253360B
:1051830060141262688A828B83E58245836007A379
:10519300E070030252E71252EC3400125322F50B73
:1051A300888289831252F5E0FBEC2400FEE43BFF86
:1051B30088828983A3A31252F5A3A3E0FBECF5082D
:1051C300E43BF50988828983A3A3A3A3A3A3A3E054
:1051D300F50EE50AA2E45003750F10A2E55006741C
:1051E30008250FF50F748F550A700FE50C2417F57A
:1051F30082E50D126724650F600879011225EE021E
:1052030052E7530A707800E50AA2E450221252ECE6
:105213001267242408FCA3E03400FD7408121273FF
:10522300AA82AB831226067808E50AC2E4F50AE5EA
:105233000AA2E550281252EC12672428F8A3E0349E
:1052430000F9E82408FCE93400FD851882851983F8
:10525300AA82AB83122606E50AC2E5F50AAC0EA9BB
:105263000BEEFAEFFB121496E9F87403686075907D
:105273000368E06E7003A3E06F605EE87054E50AB4
:10528300F50F780F120F87125303120FB1E9705401
:10529300780A120F87740112127385820C85830DAD
:1052A300780C120F83740B12127385820C85830D95
:1052B300780C120F83E50BF50A780A120F87A90EF3
:1052C300AC08AD09EEFAEFFB1214247406120FB109
:1052D3008012740468700D80B7780A120F87125316
:1052E30003120FB17410024AACE50C241DF582E5DC
:1052F3000D22A3A3A3E0FC88828983A3A3A3A322F3
:1053030079011254E9123AFE12531812531222125F
:10531300144E740122E0FCA3E0FDAA08AB0922F5B8
:1053230083124728A3E0F50A88828983A3A3E02296
:10533300900339125CA42274E8120AA674F51210C1
:105343002FEAFEEBFF8C088D098914742312127364
:10535300E0F50F7424121273E0F512A3E0F5137451
:1053630026121273E0F516A3E0F5177428121273D0
:10537300E0F50EA90F12149C8A108B1174011212FE
:10538300737408F0E50EA2E450037410F0E50EA266
:10539300E55004E02408F0851882851983AA82ABBE
:1053A300831216C48A0C8B0DEA450D70030254C98F
:1053B300EA2417F582EB1254DB121652E50C241A79
:1053C300F582E50D125EF712407B7403121273AC83
:1053D30082AD83AA10AB11122708E9601D1254D3C2
:1053E3007403121273A882A983E50C2418F582E5CD
:1053F3000D125EF7E8F0A3E98024E50EA2E4501F46
:10540300E5106E7003E5116F70151254D3E50C248B
:1054130018F582E50D125EF7E512F0A3E513F0121D
:1054230054E21254F1850A82F5837402F0A3E50E67
:105433001254F9E50FF0EE850A82850B83A3A3A32B
:10544300F0EF850A82850B83A3A3A3A31254F9A3C8
:10545300A3A3E508F0E509850A82850B83A3A3A32B
:10546300A3A3A3F0AA10AB1112148AE92514850A89
:1054730082850B83A3A3A3A3A3A3A3F0750800E5CD
:105483000EA2E45011AC12AD13E50A2408FAE50BA1
:10549300124A65750808E50EA2E55014AC16AD175F
:1054A300E50A2508F8E50B3400F9E82408124A63F5
:1054B300850C82850D83A3A3E510F0A3E511F0AA63
:1054C3000CAB0D12131C740B120FB17F10020D6382
:1054D300E50C2416F582E50D123AFE7401F0221252
:1054E30054E9123AFE22E50C127072E50D22E0F542
:1054F3000AA3E0F50B22F0850A82850B83A3A3227E
:1055030074F2120AA68A088B09ECFEEDFF890A7968
:10551300001255977003A3E06970047901807375D5
:105523000B01900368E065087004A3E06509601F40
:10553300750B00780B120F87A90AEEFCEFFDAA0882
:10554300AB091217187401120FB1E9F50B804179F9
:1055530000EEFAEFFB1214D2EA4B602B8A828B83A4
:10556300A3A3A3A3A3A3E05418601C7508FE7509A5
:10557300FF7808120F838A828B83A3A3120DEC1288
:105583006E87120FB180097901EEFAEFFB1213B2A5
:10559300A90B80141214DE8A0C8B0DA80CA90D9094
:1055A3000368E06822120FB17F06020D6374F412E0
:1055B3000AA67508EA75090A7A10126B8F8B0BEA33
:1055C300450B70031248BF900353E014F0700C9026
:1055D3002C78E493900353F01214EA7E007F00804A
:1055E3006C850882850983A3A3A3A3E06059F460B3
:1055F30056E5082404F582E50912654C70498508CF
:1056030082850983A3A3A3A3A3E06403701979028A
:10561300850882850983125142850882850983A3FF
:10562300A31257B912142A850882850983A3A3A359
:10563300A3A3E06401601085088285098374FEF0EA
:10564300A304125709E4F0123A2B1238AD902C66DA
:10565300126CEB408C7E007F0080391215F88E08A7
:105663008F097403780812117074622508FC740C96
:105673003509FD7A367B141215E6EA4B70DD8E0888
:105683008F09740378081211701256D7126F32E41F
:10569300F0123A2B902C6EE493F8C3EE98EF94003B
:1056A300501B8E088F09740378081211701256DF8D
:1056B300E82407F582E912654C70D680A17E007F4D
:1056C30000800A1256EA600214F0123A2B126CE8B8
:1056D30040F180481256DF8882898322746225084C
:1056E300F8740C3509F922EEF8EFF9E875F006A421
:1056F300F8AAF075F006E9A42AF9740228F5827471
:105703000C39F583E022125710A3A3A322F08508D6
:1057130082850983A3A322740D120FB17F04020DA6
:105723006374F7120AA674E112102FECFEEDFF75F5
:105733000800EE4F60728A828B83E0241C12657D21
:1057430012533660638A828B831257B98518828518
:105753001983AC82AD83EA241BF582EB12644EEA13
:10576300241CF582EB1257B512163A740B121273FE
:105773001257BD7003A3E069702E7402121273E016
:1057830064017024741D1212731245AFE06401703A
:1057930017741D1212731245B1A3A3E0F88E828F02
:1057A30083E0687003750801A908741F024068123A
:1057B30054E93400F583125C48221231E4E0682294
:1057C30074F4120AA6E97024790090034D1245AFD0
:1057D30012286F8A0A8B0BAE0AAF0B74FE6E70032E
:1057E30074FF6F701A902C75E49360137901900322
:1057F3004D1245AF12286F8A0A8B0BAE0AAF0B12FC
:105803001688023B8B74F6120AA674F312102F1239
:105813001DE48A088B09AE08AF09900368E06E7037
:1058230003A3E06F60E912165EEA6E7002EB6F602D
:10583300DEEEFAEFFB1216DCE970D4EE4F60D08592
:105843001882851983E4F004121273EEF0A3EF12A9
:10585300586BE970BA74FE6E700374FF6F60B0EE3C
:10586300FAEFFB740D0238C612419212129222C053
:1058730082C083121688023D337F0A020D6374F2DD
:10588300120AA6EAFEEBFF8C0A8D0B8908740E122E
:105893001273E0F50974FC6E700374FF6F70057981
:1058A300000255AB79001214DE8A0C8B0DAE0CAFDF
:1058B3000D900368E06E7003A3E06F7006E509A224
:1058C300E650DCA909126D75706179007AFE7BFFE1
:1058D300126D7570567418550970030259B8780023
:1058E300790080031233DE902C661233D540030215
:1058F30059B8E8FAE9FBEA75F007A4FAACF075F0D9
:1059030007EBA42CFB74F02AF582740A3BF583E0C1
:10591300541870D0E875F007A4F8AAF075F007E9F9
:10592300A42AF974EA28F8740A39F988828983A3C6
:10593300A3A3A3A3A3E05418600974185509700323
:105943000258A288828983EEF0A3EFF074FE650A01
:10595300700474FF650B6003125ADC88828983A389
:10596300A3A3A3A3A3E509F0A2E0500D8882898332
:10597300A3A3A3A3A3A3D2E2F07401650888828939
:1059830083A3A3A3A3A370387401125AFCE0541891
:105993006028902C79E49388828983A3A3A3A3121C
:1059A3005ACA1217C68B0DEA450D60030258A27836
:1059B300007900803979020258A4900367E080D708
:1059C300E0640170030258A288828983A3A3A3A37E
:1059D300A3A3E054186007902C79E4938004900308
:1059E30066E0124A6CE508F00258A21233DE902CEE
:1059F3006FE493FAC3E89AE9940040030258A27A49
:105A0300007B00804BEAFCEBFDEC75F007A4FCAED9
:105A1300F075F007EDA42EFD74EC2CF582740A3DAD
:105A2300F583126069E8FCE9FDEC75F017A4FC85C9
:105A3300F00975F017EDA42509FD747A2CF582742D
:105A4300093DF583E06E7003A3E06F609E12390099
:105A5300902C661238BD40AD124AF6EC6A7002ED26
:105A63006B7088E875F017A4F8AAF075F017E9A42D
:105A73002AF9747A28FE740939FF7C177D007900AE
:105A8300EEFAEFFB121DCC8E828F83125AE2900343
:105A930075125ABCA3A3A3A3A3A3E8F0A3E9125AC4
:105AA300C27401F0EE240E125EF47401125AEA126B
:105AB30008C6125EF1E80259EA123EF5A3A322F0EA
:105AC300EE240F123AFB22F0125AD3AA0AAB0B228E
:105AD300900375E0FCA3E0FD2288828983A3A3E5FC
:105AE3000AF0A3E50BF022F0902C72E4932401F862
:105AF300E43400F97A027B0022124A78A32274ED7F
:105B0300120AA68A088B09890E125C2640057905BC
:105B1300025BFB1220B4AA08AB09125CF8902C6458
:105B2300125BFE650A7003E9650B70077AFE7BFF63
