:020000040000FA
:06000000020EDF020560A4
:0300130002058360
:03002B00020D16AD
:03003B000205D8E3
:0300530002049113
:03007B00022083DD
:100083000204F50101FF0503019B149B149B149BC0
:1000930014571351139B14942100000000F6210000
:1000A3000000000C0000000C0001060A1010000004
:1000B3000000000000000000ED160000000000003A
:1000C30000000000FF05090A06FF0A0000091903E2
:1000D30019FD1807000500000000000000000000E3
:1000E300000000000000000000000000020000000B
:1000F300000000000000000100010101000D0500E7
:1001030000005E05E80364006400B8010202000019
:100113001000050207051E02051E0A03B80B0201A3
:100123000213020202020612120EFE7004181818BD
:1001330022120F2B700D74FFF61819F61819F61802
:1001430019F622E7548066F6120F74700F120F6AC5
:1001530070F014F608F608F608F680D1120F6A70EC
:100163000CF608F608768008E6447F80EC120DCD85
:10017300700C120DA360BFE65480F6E480BB120D31
:10018300A3700519191980A5E869700C763F1876D4
:100193008018F618F6E8F922E6CDC0E018ECC0E0C6
:1001A300E633CD33CDD313F6E719FCE7191933CC76
:1001B30033C3947F400ECD9D502408E65480F6E46B
:1001C30018F6800FF4043D14501408E6447FF61823
:1001D3007680E418F618F6D0E0FCD0E0FD22CCD30C
:1001E30013CCFD18E4C6CBC0E018E4C6CAC0E008CF
:1001F30008ED08C633E613F618E433C675F003C3F7
:10020300CA97CA09CB97CB199C40047D08802EBDA1
:1002130000030202D416B6FF050606081618C3CA61
:1002230033CACB33CB33CA27CA09CB37CB193CC329
:100233007D08803E187D0820E75CC633C6CA33CAF2
:10024300CB33CB33DDF1D5F0EB30E77BCA97CA096B
:10025300CB974ACB199C406F4B7025E620E0218059
:1002630066187D08C3CA97CA09CB97CB199CD3C616
:1002730033C6CA33CACB33CB3350C9DDE7D5F0E13C
:10028300D3E4C636C608C636C608C636C608C6365A
:10029300C61818188031C3CA97CA09CB97CB199CC3
:1002A300B34097C633C6CA33CACB33CB33DD34D559
:1002B300F02EC6A2E0C640C8CA27CA09CB37194ADE
:1002C30070BECB3CB480B90808E63308E633601F40
:1002D300181818D0E0FAD0E0FBD0E0FCD0E0FD2203
:1002E300187D08CA27CA09CB37CB193CD3808013A2
:1002F300F618E4B67F11F618B6FF0EF618C60470AA
:10030300D20808768080CAF618F618F680C500125F
:100313000EFE604F120F2B6012E7548066F6120D2B
:10032300A07011120F6A703B090909F4F618F61848
:10033300F618F622120DCA7015120F740808086019
:10034300EAE6447FF618768018E4F618F622120FD0
:10035300746016120F6A7012E4F608F608F608E6DF
:100363005480F609090918181822EAC0E0EBC0E026
:10037300ECC0E0EDC0E0E687F0A4FBACF008E68754
:10038300F0A42CFCE435F0FA1809E687F0A42C4B12
:1003930060027401CA35F0FCE433FB09E687F0D24E
:1003A300F7A42CCB35F0FC1908E687F0A42BCC3549
:1003B300F0FBE433FD0819E687F0D2E7A42C4ACB1F
:1003C30035F0CD3400FC09E687F0D2E7A42DCC3517
:1003D300F0FDE433FA0918E687F0D2F7A42CCD3503
:1003E300F0CA3400FC08E687F0D2E7D2F7A42ACC9F
:1003F30035F07A7E20E70B0ACB33CBCD33CDCC332C
:10040300CC33CB3350147004ED30E00ED2F1E4CD95
:100413003DCDCC3CCC3B5005DA05C2F1EB547FC655
:100423003308E63392F0FBE73309E733C39A502DE1
:100433002B70190C0D4C4D70151806E608C333705C
:100443000D20F10AA2F013F6E418800B4024E4F621
:1004530030F002768018F618F618F68024D33B1491
:10046300501074FFA2F013F6187680E418F618F60D
:10047300800FA2F013F618E63303F618ECF618ED26
:10048300F6D0E0FDD0E0FCD0E0FBD0E0FA22C0E003
:1004930074F21208AFA2AFE433FED2AFE5A7FFE5D3
:1004A300A1F5085F54106006121C4575A1EFE5081D
:1004B3005F54086008121C4B75A1F7802BEFA2E074
:1004C300C0D0E508A2E092F0120E2C158182F05004
:1004D30017906198E0F890072DE0C398A2D265D0F9
:1004E300335002E8F075A1FEEEA2E092AF7F010265
:1004F300096BC0E074F21208AFA2AFE433FED2AFCF
:100503009061A4E0F8759B00E59158540860087564
:1005130091F7121C8D802AE591585410600875914B
:10052300EF121C93801BE8A2E0C0D0E591A2E092F9
:10053300F0120E2C158182F05007E0C2E0F0121D7C
:10054300D19061A3E0F8E5E9585404600E121DA7A9
:1005530075E9FB906193E0A2E640F2808BC0E07402
:10056300F21208AFA2AFE433FED2AF9061A5E0F878
:10057300E5BF585404600675BFFB121DE90204EB86
:10058300C0E0C0D0E8C0E0E9C0E0C082C083E5C1FC
:10059300C0E0900699E0F8741828F58274063400D8
:1005A300F583D0E0F0900698E0F8A3E0687006E5E4
:1005B3009590069BF0900699E004F0C39480400266
:1005C300E4F0A374C6F0D083D082D0E0F9D0E0F891
:1005D300D0D0D0E032C0E0C0D0E8C0E0C008C0094D
:1005E300C082C08390071CE0F8A3E0687008539AA8
:1005F300FBA374018026C2E990071CE0F50874018F
:100603002508F0749C2508F58274063400F583E010
:10061300F5C190071CE0C394804002E4F0D083D07E
:1006230082D009D00880A6C3E498F8E499F91206A9
:100633006B8026C3E49AFAE49BFBE920E7E9120600
:100643006BE498F8E499F922C3E498F8E499F91271
:10065300066BE498F8E499F9C3E49AFAE49BFB2265
:10066300EB20E7CFE920E7E0B90010BB0008E88AF8
:10067300F084F8AAF022E4FBC8FA22EB70227B1084
:10068300C833C8C933C9335007C39AC3DBF28006E2
:100693009A50012ADBEAC833F4C8C933F4C9FA22F1
:1006A30075F008E4C833C8C933C933C99AC99B5024
:1006B30004C92AC93BD5F0ECFBC833F4C8E4C9FA32
:1006C3002212070420F01430E72B74FFFCFBFA74AA
:1006D3007F8022E4FCFBFA7480801AB48008BC009B
:1006E300F2BB00EF800F50EBF9E4C39AFAE49BFBF3
:1006F300E49CFCE499C6CC18C6CB18C6CA18C6F944
:1007030022E4C9C608CAC608CBC6D3330308CCC67D
:100713003392F0C3947F402E94184019C9B907044B
:10072300CACBCC225025C309CA33CACB33CBCC3373
:10073300CC33D9F422F4600DC9CCC313CB13CBCA89
:1007430013CAD9F6CC22E4FCFBFA2214FCFBFA22EE
:10075300080808EAC0E0EBC0E086F0E7A4FA18094D
:1007630086F0E7A42AFA180986F0E7A42AFA1809FA
:1007730086F0E7A42AFA1986F0E7A4FBE5F02AFA43
:10078300190886F0E7A42BFBE5F03AFA190886F07E
:10079300E7A42BFBE5F03AFA18180986F0E7A4C59D
:1007A300F02BFBE43AFA1908E7C5F0C6A426F6E5F0
:1007B300F03BFBE43AFA1886F0E7A4F6E5F00826E6
:1007C300F6E43B08F6E43A08F6D0E0FBD0E0FA2280
:1007D300E4CFC0E0E4CEC0E0E4CDC0E0E4CCC0E0D0
:1007E30075F020C3E633F608E633F608E633F60879
:1007F300E633F6181818EC33FCED33FDEE33FEEF59
:1008030033FFC3EC9709ED9709EE9709EF97191991
:1008130019400FFFEC97FC09ED97FD09EE97FE19C0
:100823001906D5F0BEECF709EDF709EEF709EFF776
:10083300191919D0E0FCD0E0FDD0E0FED0E0FF2292
:100843002518C582C0E0E51934FFC583C0E0E5186B
:10085300C3958224F810AF08858319858218800810
:10086300858319858218D2AFCEF0A3E520F0A37853
:1008730008E608F0A3DEFAEFF0A3E58124FAF8E630
:1008830008F0A3E608F0A3E608F0A30808E608F0DA
:10089300A3E608F0A315811581D0E0FED0E0F8159A
:1008A3008115811581E8C0E0EEC0E022C0D0251893
:1008B300C582C0E0E51934FFC583C0E0E518C395E0
:1008C3008224F310AF0885831985821880088583F5
:1008D30019858218D2AFC8F0A3E9F0A3EAF0A3EB1D
:1008E300F0A37908E709F0A3D8FAECF0A3EDF0A39D
:1008F300EEF0A3EFF0A3D0E0F0A3D0E0F0A3D0E0BC
:10090300F0A3E520F0A3E5F0F0A322E9799EC60861
:10091300CAC608CBC608CCC6C370207996CACBCC4E
:100923007019798ECBCC70137986CC700EF9802A2E
:10093300CA33CACB33CBCC33CC331930E7F2CCCB6D
:10094300CA3350147004EA30E00DE4CA3ACACB3B10
:10095300CBCC3CCC500209C3E913C6CC182313C635
:10096300CB18C6CA18C6F922851983851882E0C038
:10097300E0A3E0F9A3E0FAA3E0FBA37808E0F6081C
:10098300A3DFFAE0FCA3E0FDA3E0FEA3E0FFA3E006
:10099300C0E0A3E0C0E0A3E0F5D0A3E0F520A3E02E
:1009A300A3F5F010AF088583198582188008858325
:1009B30019858218D2AFD082D083D0E0F8D0E0324C
:1009C300120F5FB90003020A05E4900301787B79F3
:1009D300098002F0A3D8FCD9FA900B7BAA82AB83DF
:1009E30090008678A679018015E493A3AC82AD8349
:1009F3008A828B83F0A3AA82AB838C828D83D8E90E
:100A0300D9E775828D7583F97402120C8E75829BFA
:100A13007583207400120C8E0875F0108E1A8F1BCC
:100A230085821F85831E851882851983E0CEA3E006
:100A3300CF851F82851E83EBC9EAC8EDCBECCAC301
:100A4300E833C8E933C9EA33CAEB33CBC3EA9EF5CB
:100A53001DEB9FF51CB35004AB1CAA1DEC33CCED6E
:100A630033CDD5F0DAAE1AAF1B22D083D082ECC0DF
:100A7300E0EDC0E0E493A3FCE493A3FDED4C600D33
:100A8300120B45EC24FFFCED34FFFD80EFE493A350
:100A9300FCE493A3FDED4C600D120BE2EC24FFFC90
:100AA300ED34FFFD80EFD0E0FDD0E0FCE493A3C084
:100AB300E0E493C0E022851983851882E0A3FEE079
:100AC300A3F5207808E0A3F608DFFAE0A3FFE0A38C
:100AD300C0E0E0A3C0E0E0A3C0E0E0A3C0E0E0A387
:100AE300C0E010AF088582188583198008858218B5
:100AF300858319D2AFD083D082020C94D083D08265
:100B0300E9C0E0E493A3C386F0C5F095F0F908E4E7
:100B130093A386F0C5F095F0700BE493A3C39940BB
:100B230005E9048002A3E475F002A42582F582E5B9
:100B3300F03583F583D0E0F9E493A3C0E0E493C0F8
:100B4300E022C0E0C3E49396087401939618400F23
:100B5300E49366700808740193661870007019A313
:100B6300A3C3E49396087401939618A3A3400DD0EE
:100B7300E0D0E0D0E0020AA9A3A3A3A3A3A3D0E0FB
:100B8300227404800474028000CCC0E0EDC0E0E570
:100B930018C39CCCAD1950011D10AF068C188D19CC
:100BA30080068C188D19D2AF120C2FD0E0FDD0E047
:100BB300FC2274028000CCC0E0EDC0E0E518C39CC9
:100BC300CCAD1950011D10AF068C188D1980068C01
:100BD300188D19D2AF120C0DD0E0FDD0E0FC22C06D
:100BE300E0C0F088F0E49366700808740193661817
:100BF3007000A8F0A3A3700BD0F0D0E0D0E0D0E059
:100C0300020AA9A3A3D0F0D0E022CAC0E0E493A3D0
:100C1300C582CCC582C583CDC583F0A3C582CCC5AF
:100C230082C583CDC583DAE5D0E0CA22CAC0E0E03D
:100C3300A3C582CCC582C583CDC583F0A3C582CCB1
:100C4300C582C583CDC583DAE6D0E0CA2270090820
:100C53000808226016181818C6C333C608C633C658
:100C630008C633C608C633C6D5E0EA22C008C3E0C7
:100C730096F50808A3E096420808A3E09642080800
:100C8300A3E09645087001D3D00822C09FF59FE4E6
:100C930073D09F22D083D082C09FE493C0E07401BD
:100CA30093C0E0740293F59F222518F58210AF08D4
:100CB300F518400215198008F51840021519D2AF2E
:100CC300851983227404800A7403800674028002E7
:100CD3007401C0E0F404120CACD0E0120F3A22BB52
:100CE3000102E722C082C08389828A83BB0003E0BA
:100CF3008002E493D083D08222C0D0251810AF089D
:100D0300F518500205198008F51850020519D2AFDD
:100D1300D0D022C0E0C0D0E8C0E0E5A8D2AFC2C7BF
:100D2300A2E792AFD0E0F8D0D0D0E0326016080846
:100D330008C6C313C618C613C618C613C618C613E7
:100D4300C6D5E0EA22C3E0C696F608A3E0C696F647
:100D530008A3E0C696F608A3E0C696F62225181067
:100D6300AF08F518400215198008F5184002151947
:100D7300D2AF22E066701008A3E066700A08A3E011
:100D830066700408A3E06622E76670100809E76648
:100D9300700A0809E76670040809E766221818183C
:100DA300E6084608700AE608C3337005E633F42202
:100DB3000822C3E09608A3E09608A3E09608A3E000
:100DC30096A2D265D03322191919E7094709700A87
:100DD300E709C3337005E733F4220922C3E096F031
:100DE30008A3E096F008A3E096F008A3E096F022AB
:100DF300E627F60809E637F60809E637F60809E6AE
:100E030037F622E026F608A3E036F608A3E036F626
:100E130008A3E036F622E026F008A3E036F008A3A4
:100E2300E036F008A3E036F022C0E0E8C0E0E58158
:100E330024FCF8E6A2E7D0E0F8D0E022E056F6087A
:100E4300A3E056F608A3E056F608A3E056F622E61A
:100E530057F60809E657F60809E657F60809E6576C
:100E6300F622E056F008A3E056F008A3E056F00897
:100E7300A3E056F022E647F60809E647F60809E636
:100E830047F60809E647F622700422600D18C6C328
:100E930033C608C633C6D5E0F41822E4C396F60871
:100EA300E496F608E496F608E496F622C6F4C60835
:100EB300C6F4C608C6F4C608C6F4C622C3E096083C
:100EC300A3E09608A3E09608A3E09622C3E796085A
:100ED30009E7960809E7960809E7962275D0007591
:100EE3008140751801751903000209C3E6F008A3D0
:100EF300E6F008A3E6F008A3E6F022E6084608C3F6
:100F0300134608336002E633F422600C08C6C313A9
:100F1300C618C613C6D5E0F422E0F608A3E0F60827
:100F2300A3E0F608A3E0F622E7094709C31347093C
:100F3300336002E733F422CAC0E0E6F0A308DAFA2A
:100F4300D0E0FA22EAF0A3EBF0A3ECF0A3EDF02259
:100F5300E0FAA3E0FBA3E0FCA3E0FD22E5C754F81D
:100F63004401F5C7790122E7C333194719471947E4
:100F730022E6C333184618461846222518F582E49C
:100F83003519F58322C2AF75D69F02000022120CD9
:100F930097D45B00120C97265C00120C97875C00B9
:100FA300120C97115D00120C97B55D00120C970996
:100FB3005E00120C97225E00120C97485E00120C22
:100FC30097835E00120C97CC5E00120C971D5F0096
:100FD300120C97CD5F00120C97856000120C974D91
:100FE3006100120C972A6200120C97B06200120C77
:100FF30097BF6200120C97CA6200120C97DB630062
:10100300120C97EC6300120C97716400120C97009A
:101013006500120C97586500120C97226600120C9B
:1010230097536600120C97906600120C979D66000A
:10103300120C972C6800120C978F6900120C97A260
:101043006A00120C97E96C00120C97F46C00120CF6
:1010530097FE6C00120C97096D00120C97136D002C
:10106300120C971D6D00120C97286D00120C97330C
:101073006D00120C97646D00120C97886D00120CB2
:1010830097AC6D00120C97116E00120C97556E0001
:10109300120C97716E00120C97E86E00120C9720D9
:1010A3006F00120C976C6F00120C97C96F00120C33
:1010B30097AB7100120C97317200120C970C7300EE
:1010C300120C970D7600120C97627600120C978E15
:1010D3007600120C97DA7700120C972A7800120C1C
:1010E300977F7800120C97807900120C97187A007A
:1010F300120C979A7A00120C973A7B00120C9716EF
:101103002400120C974F2400120C97292600120C6E
:1011130097682600120C97B22600120C97572700E7
:10112300120C97B62700120C97EA2700120C975758
:101133002800120C97742900120C977C2A00120CB9
:1011430097372B00120C97792E00120C97222F0041
:10115300120C97163000120C97773000120C9794EC
:101163003100120C97A13300120C97583400120C63
:1011730097623400120C97953400120C975C35007B
:10118300120C97F73500120C975C3600120C9785FA
:101193003600120C97A73600120C97D63800120CA3
:1011A30097AD3900120C97F13900120C975E3A0093
:1011B300120C97193B00120C974B3B00120C978FA4
:1011C3003B00120C97C23B00120C97173C00120C09
:1011D300976C3C00120C97003D00120C97623D0087
:1011E300120C97CA3D00120C97733F00120C975BC9
:1011F3004000120C979D4100120C97CB4300120C38
:10120300978B4400120C97BA4600120C975D470067
:10121300120C979B4700120C97474900120C975BDF
:101223004900120C97654900120C978F4900120C64
:10123300979B4900120C97BA4900120C97714A0008
:10124300120C97B04A00120C97BA4A00120C976E10
:101253004B00120C976D4C00120C97664D00120C4C
:1012630097034E00120C97A54E00120C97BC4E002C
:10127300120C97F34E00120C97114F00120C975556
:101283004F00120C977A4F00120C97605000120C0B
:1012930097CC5000120C97465100120C97555200F0
:1012A300120C97945300120C97F65300120C97B03C
:1012B3005400120C97D35400120C97A75500120C2C
:1012C30097F25500120C97345600120C979E560055
:1012D300120C97CC5600120C97055700120C972A44
:1012E3005700120C97B25700120C97D55900120CE5
:1012F30097345A00120C97C85A00120C97345B00AB
:10130300120C97885B00120C97C39603120C97027A
:101313009703120C97AAB101120C9704B201120C95
:101323009760B201120C97ACB201120C97C7B201CD
:10133300120C97F8B201120C9715B301120C9721F6
:10134300B301120C9795B401120C97AEB401120CB1
:101353009715B501120C9728B501120C9736B501F4
:10136300120C97EAB501120C97CEB601120C97D462
:10137300B701120C975AB801120C9764B801120CFA
:1013830097D1B801120C97E8B801120C971AB9015A
:10139300120C9753B901120C977DB901120C97DE09
:1013A300B901120C97FEB901120C971CBA01120C69
:1013B3009762BA01120C9788BB01120C97D5BB0137
:1013C300120C9704BC01120C977ABC01120C97A261
:1013D300BC01120C97DBBC01120C97E9BC01120C87
:1013E3009741BD01120C9790BD01120C97CFBD011F
:1013F300120C97FFBD01120C972BBE01120C9736EE
:10140300BE01120C9754BE01120C9716BF01120CA9
:101413009720BF01120C975BBF01120C9771BF019C
:10142300120C977ABF01120C97CFBF01120C97E3EE
:10143300BF01120C97E0C001120C97F3C001120C0C
:101443009708C101120C97AAC101120C972DC20172
:10145300120C97EBC201120C97F6C201120C971CE7
:10146300C401120C9738C401120C978AC401120CE0
:1014730097C9C401120C97DEC401120C9720C50151
:10148300120C976DC701120C97EBC701120C975EF4
:10149300C801120C9780CA01120C9798CA01120C4A
:1014A300979BCA01120C97A7CA01120C97BBCA01DA
:1014B300120C97C3CA01120C97F6CA01120C97A615
:1014C300CB01120C971CCC01120C978FCC01120C80
:1014D3009743CD01120C97F8CD01120C9717CE014B
:1014E300120C97B7CE01120C97C3CE01120C97EED4
:1014F300CE01120C97F1CE01120C975BCF01120CA7
:101503009783D001120C975BD101120C97E6D1019E
:10151300120C97FFD201120C97BCD301120C97F552
:10152300D301120C9726D401120C97C6D401120CC6
:1015330097F6D401120C97D1D501120C976AD601F4
:10154300120C97F5D601120C97A6D701120C972807
:10155300D801120C975AD801120C979BD801120C80
:1015630097A4B602120C9709B702120C9741B7025F
:10157300120C9790B702120C97B2B902120C9795FE
:10158300BB02120C97F3BE02120C9728BF02120C77
:10159300974ABF02120C97AFBF02120C97E5BF0226
:1015A300120C9708C002120C9735C002120C9791C7
:1015B300C002120C9792AA02120C9713AB02120CE0
:1015C3009749AB02120C97B0AB02120C9723AD02F2
:1015D300120C973FAD02120C9784AD02120C9712B6
:1015E300AE02120C976BAE02120C979FAF02120C55
:1015F300976DB002120C97E5B002120C9761B1021D
:10160300120C97A3B102120C97E4B102120C9718B3
:10161300B302120C9716B402120C9741B402120CC7
:10162300978CB402120C97D3B402120C9765B502CF
:10163300120C971EB602120C97E7FB02120C97F8D6
:10164300FB02120C971BFC02120C9727FC02120CD4
:101653009742FC02120C9788FC02120C97B3FC020F
:10166300120C97D0FC02120C9749FD02120C9772D0
:10167300FD02120C970CFE02120C972FFE02120CA5
:1016830097EA8803120C97FB8803120C974C890383
:10169300120C97918903120C973B8A03120C9770D3
:1016A3009203120C97D88503120C97308703120C00
:1016B30097189603120C977F8703120C97A0870342
:1016C300120C97838803120C97AD8803120C97189A
:1016D300FD01120C978BFD01120C9796FD01120C64
:1016E30097B7FD01120C97559E02120C97589E0254
:1016F300120C97129F02120C973D9F02120C9784B3
:101703009F02120C97A99F02120C97CA9F02120CF8
:1017130097FE9F02120C9737A002120C9760A1024A
:10172300120C9797A102120C97B7A102120C9752B1
:10173300A202120C9717A302120C974EA302120CCB
:1017430097C3A402120C9766A502120C975FA60218
:10175300120C97A7A201120C97DCA602120C97A2F7
:10176300A702120C97D0A702120C9765A902120CBC
:1017730097E6A902120C9719AA02120C978ED202AD
:10178300120C97DAD202120C9748D302120C976903
:10179300D302120C9719D402120C9722D402120C02
:1017A3009775D402120C979ED402120C9705D5029A
:1017B300120C9796D502120C97D8D502120C97C229
:1017C3005B00120C9781D602120C9712D702120CEF
:1017D3009751D702120C9790D702120C97C5D702D4
:1017E300120C97D7D702120C97E9D702120C972B3A
:1017F300D802120C9734D802120C97FCD802120CA0
:1018030097A58B03120C97158C03120C970080037A
:10181300120C97368003120C977F8003120C97CF1C
:101823008103120C97D0D801120C970FDA01120C16
:10183300974BDA01120C970ADC01120C9733DC0187
:10184300120C97C6DE01120C970ADF01120C979354
:10185300E001120C972BE101120C9793E101120C9A
:101863009734E201120C9776E201120C97B6E2016B
:10187300120C9741E401120C97B1E501120C97D6B3
:10188300E701120C9704E801120C972BE801120CE4
:101893009734E801120C97BBE801120C97D9EB01BE
:1018A300120C97E47F00120C97EFE502120C9702DB
:1018B300E602120C979FE602120C97DAE602120C6C
:1018C30097F5E602120C971AE702120C975FE702EC
:1018D300120C9790E702120C97C1E702120C97477C
:1018E300E902120C97039403120C97409403120C11
:1018F30097829403120C97929403120C970C84030F
:10190300120C97228403120C97E38403120C971E84
:10191300CA02120C974FCA02120C9769CB02120C1F
:101923009743CC02120C974FCF02120C97C4D102EB
:10193300120C97A48F02120C97E98F02120C979343
:101943009002120C973B9102120C97989102120C81
:1019530097F19102120C97BB9302120C97389402E1
:10196300120C97629402120C971F9602120C973A6C
:101973009602120C97899602120C979F9602120CEC
:1019830097AC9602120C97DC9602120C97F2960211
:10199300120C97019702120C975A9702120C97B4E4
:1019A3009702120C97069802120C97109902120CC8
:1019B30097879B02120C97219C02120C976C9C0236
:1019C300120C97D09C02120C97ED9C02120C97F00C
:1019D3009C02120C97F39C02120C97669D02120C48
:1019E30097819D02120C97AD9D02120C97E89D0200
:1019F300120C97EB9D02120C97FE9D02120C972579
:101A03009E02120C979C9403120C97A89403120C39
:101A130097E29403120C97008002120C972B80021A
:101A2300120C97ED8002120C97728102120C97DB55
:101A33008102120C97278202120C97A68202120CC3
:101A430097388302120C97C48302120C9706840200
:101A5300120C974F8802120C97CF8902120C970E23
:101A63008A02120C97D78A02120C978B8B02120CE4
:101A7300973B8D02120C97C78D02120C975AEC01FB
:101A8300120C9714ED01120C9786ED01120C979529
:101A9300ED01120C970FEE01120C977EEE01120C62
:101AA3009788EF01120C97B1EF01120C9751F001D7
:101AB300120C979FF001120C970FF101120C974330
:101AC300F201120C971FF301120C9790F301120C01
:101AD300970DF501120C97CFF501120C976AF601D9
:101AE300120C97C5F601120C9730F701120C9734BC
:101AF300F801120C97F5F901120C9794FA01120CE4
:101B03009706FB01120C97C3FB01120C97F1FF011F
:101B1300120C97F3FF01120C97328203120C976396
:101B23008203120C971D8303120C97838303120CF9
:101B33009719FA02120C97FF9703120C9710980348
:101B4300120C9740FE02120C974EFE02120C972ABB
:101B53009803120C979F9503120C97AF9503120CE1
:101B630097C79503120C970F9603120C9773900364
:101B7300120C97F89003120C975C9103120C97FACE
:101B83007F00120C971F9503120C97399503120CC3
:101B93009754E902120C9762E902120C97DCE902EE
:101BA300120C97B4EA02120C973FEC02120C9797AF
:101BB300EF02120C97E5EF02120C9782F002120C5F
:101BC300972DF102120C9745F102120C97C1F10205
:101BD300120C97D7F102120C97EAF102120C97F844
:101BE300F102120C9725D902120C977AD902120C22
:101BF3009776DB02120C97A8DB02120C97CADB0262
:101C0300120C97E3DB02120C97FCDB02120C970613
:101C1300DD02120C97A1DD02120C97528A03120CFB
:101C230097778A03120C97878A03120C97BA8A0351
:101C3300120C97EB8A03120C97208B03120C9782DA
:101C43008B03120C97918B03120C979B8B03120C33
:101C5300973CF202120C9762F202120C979FF20267
:101C6300120C97AEF202120C97CDF202120C9735BA
:101C7300F302120C973EF302120C979DF302120C1F
:101C830097C1F302120C9780F402120C978DF402A1
:101C9300120C979EF402120C97969703120C97B3AB
:101CA3009703120C97337C00120C97917D00120C52
:101CB300979E7D00120C97B17D00120C97D07D008A
:101CC300120C97E67D00120C97FA7D00120C977D9B
:101CD3007E00120C97E07E00120C97677F00120CB7
:101CE30097C57F00120C97D57F00120C976A930358
:101CF300120C978E9303120C97B69303120C97DE74
:101D03009303120C97CCF402120C97F3F402120C07
:101D13009714F502120C9779F502120C9732F70219
:101D2300120C974BF702120C9757F702120C976B92
:101D3300F702120C9789F702120C9793F702120C11
:101D4300979DF702120C97B0F702120C9701F80255
:101D5300120C973AF802120C9769F802120C97B713
:101D6300F802120C9706F902120C9721F902120CD1
:101D7300972BF902120C973CF902120C9782F90285
:101D8300120C97729603120C97DDC002120C97097E
:101D9300C102120C9725C102120C9738C102120C12
:101DA300974EC102120C97BAC102120C97EDC102F1
:101DB300120C971CC602120C9742C702120C97759D
:101DC300C702120C97C1C702120C97FAC802120C71
:101DD3009722C902120C9737C902120C9747C902FE
:101DE300120C978BC902120C97E0C902120C97F0E0
:101DF300C902120C972D8E03120C97488E03120CF6
:101E030097718E03120C978B8E03120C97B08E036F
:101E1300120C97CF8E03120C97E78E03120C9715B3
:101E23008F03120C972F8F03120C97529703120CE8
:101E3300976FE202120C9776E202120C9782E3028A
:101E4300120C97B2E302120C97D8E302120C97FB21
:101E5300E302120C971DE402120C9757E402120CD2
:101E630097BDE402120C97F6E402120C9742E502C6
:101E7300120C976FE502120C978FE502120C9775FF
:101E83009103120C97879103120C976A9203120C19
:101E9300976D9203120C97608F03120C97D28F03E6
:101EA300120C97109003120C97519003120C97EF9A
:101EB3008C03120C97558D03120C9784EC02120CB1
:101EC30097A0EC02120C97EFEC02120C970BED02A9
:101ED300120C973CED02120C974CED02120C973842
:101EE300EE02120C9742EE02120C974FEE02120C06
:101EF300975FEF02120C9773EF02120C977CEF02BD
:101F0300120C97E0DD02120C9700E202120C970507
:101F1300E202120C970C9703120C97D29703120C40
:101F230097FBA101120C974CA001120C97079E017D
:101F3300120C977E9D01120C97259D01120C97B9E7
:101F43009C01120C97909C01120C97839A01120C1E
:101F5300974F9A01120C9765B001120C9747B00185
:101F6300120C971C9A01120C97009A01120C970FEE
:101F7300AF01120C976CAE01120C971C9901120C55
:101F830097D49801120C97099701120C978996011F
:101F9300120C97869601120C97A09501120C976E5E
:101FA3009501120C97AB9401120C97D69201120C67
:101FB300978C9201120C975E9201120C975B92011F
:101FC300120C97489201120C97E09101120C97CFD3
:101FD3009101120C97B49001120C974A9001120CC4
:101FE3009719AD01120C97CAAA01120C9765AA01A1
:101FF300120C971DAA01120C9790A901120C970DB0
:102003009001120C97AE8F01120C977D8F01120C69
:102013009783A901120C97388C01120C97298B0115
:10202300120C97B88A01120C977D8A01120C9781C2
:10203300A601120C9722D602120C97488A01120CA1
:10204300973C8A01120C979C8901120C97E3880133
:10205300120C97B68601120C97428401120C97005A
:102063008401120C97CB8201120C97808201120C0F
:1020730097B28101120C97098101120C97DF80013D
:10208300758A00C2EB32120C97A58001120C97D30C
:10209300A301120C9788A60200000080FBE47300E2
:1020A30001363601010001020100010301000104B0
:1020B30001060605020000070100340801000F09AC
:1020C3000401010D0100FF0E0800001702000019B2
:1020D3000100FF1A0100011B0100FE1C0100081D85
:1020E3000200001F01000120010001210200002362
:1020F30001000F2402000026010001270100082827
:102103000200FF2A0100072B0102402C0100002DD1
:102113000100012E0100012F0100FF30010B1C31D2
:102123000800003A0100083B01000F2F01000001E5
:1021330001710101010101110101013101010101DC
:10214300018001100161013B0014006301730172FE
:1021530001620143010001130106013D0135000441
:102163000112010001000100010001040104013317
:102173000133013C014401320136000001000165D5
:102183000100013500810100010501820183010085
:102193000103007100300160001100700031022062
:1021A30003500480001000610000001400630073FA
:1021B30000720062004300000013000600000000EC
:1021C30000040012000000000000000000040004EE
:1021D30000370037003C024400000000000000000C
:1021E3000065000000350081000000050000008349
:1021F3000000000103710301030103010301030153
:10220300032203020301031003000300030003007E
:102213000300030003000342030003240306030037
:1022230003000304031203250323032503230304E9
:102233000304030003000300034403000300032318
:102243000300036503210035038103000305030035
:1022530003000300030302710230016002110270E4
:10226300020102020202028002100261023A0041EC
:102273000063027302720262024302000213023815
:102283000000020002040212020002000200020027
:102293000204020402370037003C02440200023900
:1022A30000000200026502000235028102000205FD
:1022B3000282028302000236000100060000000FC2
:1022C3000000000000000000000000000003FFFF0A
:1022D30000000403FFFF0000FFFF0FF4010005C42B
:1022E300040320000100000B0000000000000000B8
:1022F30003010F0100B91A02002F1A0300351A0453
:10230300003B1A0500411A06004D1A1100651A1404
:10231300006B1A15005F1AFFFF0000B113E113B73A
:1023230013BD13DB13CF13C913E713ED13F313FF1C
:1023330013C313AB13A51303EAF5E5D5D5C5B5A5AB
:1023430095958585757565655555454535352525BA
:102353001515050A8311024D11055F110753110C61
:102363002F110D4111FF000000160F00000B150B7C
:10237300020002220F320000069B14AD14B3147B3B
:1023830013B91475138113FB1419151F1501150DBA
:102393001507150C0E020B040B0A0708000F003873
:1023A3003C3E363B3B352B432C00011916181616C1
:1023B3001523030000034948424D18172505023031
:1023C3003017181921301B1D1F30303016181920F3
:1023D300231A1C1E30EF14BF14C514D114CB14D50B
:1023E30013F913131505140B14020402010101015F
:1023F300090200000000000000BE040AE803040014
:1024030015000E002800040C0A030908FF1E1E0F06
:10241300040C0574F7120843E99003B0F0900365C8
:10242300E4F0121E7F9003B5E4F0A3F09003B1F043
:10243300A3F01212BB121E85900334E4F0A3F090B4
:10244300241293FA7902121EF10250C774F2120891
:1024530043EAFEEBFF548060699003B0E0F9121782
:10246300AD8A088B09EA4509604F7C0080010CECBA
:1024730075F003A4F8A9F0745628F582742339F58E
:1024830083E493F4602CE493F88508828B83E068FB
:1024930070DCAA08EC75F003A4F8745728F582746D
:1024A3002339F583E493C0E0740193F583D082125A
:1024B30020A0AA08AB091217A1EEFAEF6480FB0271
:1024C300261CEF5420601D1211DD8A088B09EA4592
:1024D30009600A121141AA08AB091217A1EEFAEF1B
:1024E300642080DAEEA2E0501A90036AE0640F7071
:1024F3000B790012110BE9600312261FEE6401FA37
:10250300EF80BB542070030225EA750C00123B0CCC
:102513008B09EA450970107C027D007A207B0090CC
:1025230003B0E0F91218C77C0079047A007B00122B
:1025330011B98A088B098018850882850983A3A3AA
:10254300A3A3A3A3A3A3A37401F0850A08850B097E
:10255300E5084509606D7C007904AA08AB091211EE
:10256300B98A0A8B0B750C01E5082404F8E50912F6
:1025730038B024FFF0A3E034FF125B7F70CC8508F2
:1025830082850983A3A3A3A3A3A3A3A3A3A3E06413
:102593000170A5850882850983A3A3A3A3A3A3E050
:1025A30054047094850882850983A3A3A3A3A3A3DA
:1025B300A3A3A37406F07AB785088285098312273B
:1025C3004B80871211897C0079017A007B001211FC
:1025D300B98B09EA45097009E50C70057A20124A9E
:1025E30066EE6420022502EF5402600B1212B5EE70
:1025F300FAEF64020224C1EF54046019124BFD1276
:102603004B1D7901900363124E81121051EEFAEFC4
:1026130064040224C17A007B00022852900BFC124E
:102623002F0912112322C082C08374EA120D608520
:102633001882851983AA82AB83794B121EC774084B
:10264300120F7E7402F07409120F7EAA82AB837993
:1026530050121EC77413120F7EE4125050121EE55F
:10266300741602402A74F712084374E1120D60EAEB
:10267300FEEBFFEE4F6033851882851983AC82AD84
:10268300831212017406120F7EE0601E7417120F7C
:102693007EE0FD7401120F7EE0FCEEFAEFFB7900A1
:1026A300121F5DE9600479A4800279000250C274AC
:1026B300F6120843EAFEEBFF8E828F83A3A3A3A344
:1026C300A3A3E05440601B12553F12281960067AF9
:1026D300FF7BFF801A8E828F83123CB6FAA3E0FB46
:1026E300800312122574FE6A700374FF6B6041123B
:1026F300553F124AAA121279E98E828F836006121D
:102703002744E480051227447401F07C117D118E67
:10271300828F83124E81121EEBE9F5087015EE4F7E
:1027230060097901EEFAEFFB121195A908024ADB61
:102733007508CDAA088E828F8312274BE960DF804C
:10274300EAE0240D12418522E0240C124185E0F9D0
:1027530012111D2274F6120843E9FEEAFF7A0F7B79
:102763000012179BEA4B60198A828B83740CF0EE7C
:10277300A3A3F0EF8A828B83A3F0124B0679008028
:102783002FEEF91211BF8A088B09A808A909E84995
:10279300601C88828983A3A3A3A3A3A3A3A3A37475
:1027A300061257A6E0F91210D5EEF912119B791013
:1027B300024ADBC082C08390036AE0640F7014EAAC
:1027C3004B6010900365E064086005E064047003E7
:1027D3001227D9024054EAFCEBFD7A017B009003F7
:1027E300B0E0F91218C122C082C0837900EA241D27
:1027F300F582EB123CB324FD600B14600824FD60EA
:102803000424FD7001090240548E828F83A3A3A385
:10281300A3A3A3A3A3A312281D22123CFBFB121202
:1028230079E9228E828F83A3A3A3A3A3A3A3A3A344
:1028330012281D6402228E828F83A3A3A3A3A3A3C2
:10284300A3A3A312404B900356E06822120CFC7F13
:1028530006020AB974F412084374FD120D608A0863
:102863008B098A828B83A3A3E0F91211BF8A0A8B97
:102873000BAE0AAF0BEE4F700302295E850882850B
:102883000983A3E064F16030850882850983A3E0AE
:1028930064CD6024850882850983A3E0641A6018E7
:1028A300850882850983A3E064E9600C8508828535
:1028B3000983A3E064E170087900121195E9706C53
:1028C300850882850983A3E0C0E07402120F7ED0DD
:1028D300E012402FEEF0A3EF1233778518828519AB
:1028E30083AA82AB837005121039800312126174BC
:1028F30002120F7EE064E970338E828F8312296A9D
:10290300750A01780A120CD3750AE9780A120CD3F6
:10291300E508240CF582E509122E59123354FCA361
:10292300E0FD8A828B8312336E120CFC8E828F83BE
:10293300A3A3A3A3A3A3A3A3A3E0640270108E8203
:102943008F83A3A3A3A3A3A3A3A3A37406F08508C0
:1029530082850983A3A3E0F912119B121189900CBC
:1029630000122622022F0EE0F8A3E0F9E8FAE9FBB1
:102973002274F4120843EAFEEBFF7508008E828F7F
:1029830083A3A3A3A3A3E060427508088E828F8369
:10299300A3A3A3A3A3A3A3A3123F5E8B0BEA450B9D
:1029A300601075082C8E828F83A3A3A3A3A3E0D208
:1029B300E0F08E828F83A3A3A3A3A3E05403640157
:1029C3006003022A5D430811022A5DEE2418122FC8
:1029D3001B6033EE241A122F1B700F122839700359
:1029E300A3E06970757508228070EE241BF582EFF1
:1029F300122A62241AF582EF12337FEE241912553C
:102A0300731210C38054122826700375080112280C
:102A1300397003A3E0697006E508D2E1F508E5081B
:102A230060158E828F83A3A3E07006E508D2E5804C
:102A330004E508D2E6F50812280C64017006E508DF
:102A4300D2E0F5088E828F83A3A3E0600D122A7073
:102A530064016006E508C2E0F508A908022F131215
:102A63003CA1122A6922E0FCA3E0FDEE22123C9B6A
:102A7300123CD3F9121267E922C082C08379018A1A
:102A8300828B83A3A3E0C394024001198A828B83C0
:102A9300A3A3A3A3E0C39402400279008A828B8399
:102AA300A3A3A3A3A3A3A3A3A3E064F87003A3E036
:102AB300F460458A828B83A3A3A3A3A3A3A3A3A3A5
:102AC300E064F97003A3E0F4602E8A828B83A3A3EE
:102AD300A3A3A3A3A3A3A3E064FA7003A3E0F460F6
:102AE300178A828B83A3A3A3A3A3A3A3A3A3E064B3
:102AF300FB7003A3E0F4700279008A828B83A3A3A3
:102B0300A3E0F8900353E06860027900902411E495
:102B130093C394805013EA2411122B2F902411E4B1
:102B230093C333C39850027900024054F582EB12E9
:102B33004B36F82274F012084374DE120D60EAFE7D
:102B4300EBFF8E828F83A3A3A3A3E0600E900BFE03
:102B5300124AD26006900BFE1226227403120F7ED5
:102B6300AC82AD838E828F83A3A3A3124B541253E3
:102B73008DE9600F7403120F7EAA82AB8312113B9F
:102B8300E970087901121E91022E4EEE241B123CAD
:102B9300A67410120F7E124B1D7409120F7EE06093
:102BA30021741A120F7EE0FD7404120F7EE0FC8E76
:102BB300828F83124E7F7901121F5DE960047902CF
:102BC30080C37403120F7EAA82AB83121135E9F519
:102BD3000A7409120F7EE0702A90034DE06024749A
:102BE30022550A6422601C7442550A644270CF74F1
:102BF30020120F7E122E64600A7420120F7E122E92
:102C03005D70BBE9A2E650417403120F7EAA82AB4A
:102C130083121129E97003022B867420120F7E128E
:102C23003CB66403700F7420120F7EA3124AC4A330
:102C3300E0640D60147403120F7EAA82AB83121238
:102C43008BE964017003022E4EEE242C122E5612D1
:102C5300318A7003A3E069701C7508007808120CB0
:102C6300D37808120CD3EE242E125573122E6A1247
:102C7300336E120CFC7409120F7EE07003022D2BCD
:102C8300122E6A124E811212D98A088B09EA45095B
:102C93007003022DC87404120F7EE0F88E828F83B6
:102CA300A3A3E028F8A3E03400F9E8240DF582E9B2
:102CB300122B328A828B83A3A3A3E068601CE88A69
:102CC300828B83A3A3A3F0908084120F5385088281
:102CD300850983A3A3A3A3120F477904E9120F7EE7
:102CE30012536A2AF8A3E034008882F583A3AA82E8
:102CF300AB8312178F8A0C8B0D8C0E8D0F85088278
:102D0300850983A3A3A3A3780C120C6F4003022E9F
:102D13004E90807C780C120E06850882850983A369
:102D2300A3A3A3780C120EEF900365E0640460087C
:102D3300E064096003022E4EE50AA2E54003022E79
:102D430006EE242E122F1B851882851983F0EE249C
:102D53002F122F1BC0E07401120F7ED0E0F0EE247F
:102D630030122F1BC0E07402120F7ED0E0F07414F7
:102D7300120F7EE064017027740E120F7E123CACBA
:102D8300EE2412122F1B687003A3E0697011740CF8
:102D9300120F7E12283370077414120F7EE4F0EEC4
:102DA3002424122E56120B847404120F7EAC82ADAF
:102DB300837407120F7EAA82AB8312103F7404122E
:102DC3000CFC022E4E9003AAE064016003022D2B3B
:102DD3007420120F7E122E647009E50AA2E65003D6
:102DE300022D2B7410120F7EE0F47003A3E0F46045
:102DF3005AEEFCEFFD7403120F7EAA82AB8312110D
:102E0300478048A2E650447420120F7E124E907001
:102E13001A741A120F7EE0640270307403120F7E6C
:102E2300AA82AB83790012125580207420120F7E80
:102E3300122E5D7016741A120F7EE06404700C7407
:102E430003120F7EAA82AB8312124F742202523CEA
:102E5300EE240BF582EF123CA122125551E06407D8
:102E630022123CD3640622EE242A123C9E122A69C3
:102E73002412123C9E2274F4120843EAFEEBFF8CE8
:102E8300088D099005B9E0600F1228397003A3E09B
:102E93006970051210B1804F7900124E741210E15F
:102EA3008A828B83E58245836035A3A3A3A3A3A36F
:102EB300E05418602AE508241BF582E509122E590F
:102EC300120B8812354A122E59120B88EE2418124F
:102ED3005573122EEC1210F37404120CFC80087953
:102EE30000122EEC1210B780278E828F83A3A3A328
:102EF300A3A3A3A3A3A3122A69240BF582EF122F82
:102F030005223400F583123CFBFB227403120CFCF4
:102F13007F04020AB9EE2417F582EF124B362274AE
:102F2300F712084374F7120D60EAFEEBFF90036596
:102F3300E06403600DE064016008E064096003027B
:102F430030048E828F83A3E06003022FE37C007D35
:102F5300007A027B00121E8BEE2402FAEF1238B7BE
:102F6300123CAC900356124B1D7953121ECD7900BF
:102F7300123009E064096009900363124E81121252
:102F8300D38518828519837401124AF390036574FB
:102F930004F07401120F7EAA82AB83794A121EC712
:102FA3007401120F7EAC82AD837A5B7B03121EA980
:102FB3009003561253837A037B00121E8B9003599E
:102FC3001253837A047B00121E8B900350E0A2E31A
:102FD3005004D2F08002C2F0124AE012261F801E73
:102FE3008E828F83A3AE82AF83FC7D007A037B1036
:102FF300121E8B8E828F83E0F9123009E4F01211D6
:103003007174090250C4900363122F091210519076
:10301300036522C082C083900334124AD2701F908A
:103023000365E014600924FC600A14600C800F90AF
:10303300033C8032900338802D90033A8028E8497E
:10304300600890033512334E700C8A828B83A3E0A1
:10305300F9121045801B9003351235E670051212E4
:10306300A9800E9003D2124AD26006124AC41220DB
:10307300A002405474F412084374FB120D608A08D2
:103083008B097A0F7B0012179B8A0A8B0BAE0AAF50
:103093000BEE4F700302317E8E828F8312504E7976
:1030A30050121EC7850882850983A3E0600302319D
:1030B30066900363E0F47003A3E0F4603490036369
:1030C300E064FE7003A3E0F460278518828519830A
:1030D30012318A7003A3E06960178508828509832A
:1030E300A374EA1233847A637B037950121ECD8072
:1030F30072851882851983125532124B1D7A567BBD
:10310300037953121EC7900356124B4E124B1D7A6E
:10311300597B03794B121EC77A587B0379E1121E40
:10312300C790036AE0C3940F5021900358E0C0E0B6
:103133007402120F7ED0E0F07404120F7E7401F05B
:1031430004120F7EAA82AB83121EDF750A00780A6F
:10315300120CD3780A120CD3900C1EE0F9123365CB
:10316300120CFC850882850983123183A3F0900336
:10317300657403F0EEFAEFFB124B067405022F1091
:10318300A3E08E828F8322125536E0682212418C8F
:103193002274F512084374D8120D608A088B098AC9
:1031A300828B83A3A3A3123CD87415120F7EAC8227
:1031B300AD838A828B83A3A3A3A3A3A3A3A3123365
:1031C30054FAA3E0FB1211777415120F7EE0706BB3
:1031D300850882850983A3A3A3A3A3A3A3A3E0C311
:1031E300940B40578E828F83A3A3A3A3A3A3A3A36C
:1031F300E064027046EE240B122F1BF4703D900323
:1032030065E06402603AE064066035900334124A74
:10321300D2600512334E604F900365E06408600589
:10322300E0640470167417120F7EE0F9741C120F19
:103233007EAC82AD83124E7412117D7428025A2C17
:10324300900334124AD2701F7508007808120CD309
:103253007808120CD3EE2410122E5612558B123905
:103263009F12336E120CFC8E828F83124DF0123834
:10327300C9123CAC7402120F7E124B1DEE240D12C8
:103283002F1BC0E07404120F7ED0E0123377F508D1
:10329300A3E0F509740F7808120F0D7405120F7E61
:1032A300E508F07419120F7EE0C0E07406120F7E79
:1032B300D0E0F0741B120F7EE0C0E07407120F7EA3
:1032C300D0E0F07416120F7EE0C0E07409120F7E96
:1032D300D0E0F07417120F7EE0C0E07408120F7E86
:1032E300D0E0F0EE2410122F1BC0E0740A120F7E00
:1032F300D0E0F0741A120F7EE0C0E0740B120F7E60
:10330300D0E0F07427120F7EE0C0E0740C120F7E41
:10331300D0E0F0741C120F7EA982AA8389088A095F
:10332300750A007808120CCB7C087D007410120F0C
:103333007EAA82AB83124681120CFC851882851902
:1033430083AA82AB8312104B02323E1235EC640126
:1033530022E0F98A828B83A3A3A3A3A3A3A3A3A39A
:10336300E022900363125387900359122F0912121C
:1033730037740222F0EE240B124B3322124B36FA2F
:1033830022F07A567B03795312338F22121ECD7AA1
:10339300597B03794B121ECD22F01255962274F2FB
:1033A30012084374F8120D60EAFEEBFF8C0A8D0BD2
:1033B300890C851882851983AC82AD8375838075EA
:1033C30082487408120C2FF50DEEFCEFFD85188270
:1033D300851983AA82AB83124D517003750D019039
:1033E30003B1803BEEFCEFFDE508240BFAE509345D
:1033F30000124D50601E850882850983A3A3E065F2
:103403000C7011850882850983E0650A7004A3E0C6
:10341300650B6038E5082414F582E509122E59126C
:1034230038C1E50845096024E50DA2E040B68508EA
:1034330082850983E0650A7004A3E0650B70D58576
:103443000882850983A3A3E0650C70C8AA08AB09A9
:10345300740802284FC082C0839003B102405174A4
:10346300F71208439003B1123CFB8012EA2414F5CF
:1034730082EB122E59123CD812181FEEFAEFFBEA18
:103483004B70E99003B1E4F0A3F00250C77F070249
:103493000AB974F1120843EAFEEBFF890A8C088D1E
:1034A300098E828F83E08C828D83123F68AE82AF58
:1034B30083E01247411246B2C4124741123553E02A
:1034C30054038C828D831246B0A2E2E4338C828D46
:1034D300831246AF131313541F1247411246AEA271
:1034E300E7E4338C828D83A3A3A3A31235538E0CFD
:1034F3008F0D750E00780C120CCB7C087D00E5084F
:1035030024071252F6120CFC1253618E0C8F0D78A5
:103513000C120CCB7C037D00E508240F1252F6122B
:103523000CFCE50AC3940F40148E828F83A3A3A3DC
:10353300E0C0E012354A122E59D0E0800612354A17
:1035430012579AF0023490E5082412F582E5092215
:10355300A3A3123F6C0EAF832274F412084374F9D1
:10356300120D60EAFEEBFF8908900334124AD26021
:103573000E1235E67009EEFAEFFB1212A3805F908C
:103583000363E06E7003A3E06F705374016508601A
:10359300097A777B03124D5170447A007B02123B08
:1035A300108B0BEA450B7036900366120F53851888
:1035B30082851983120F4790036CE0C0E0740412F4
:1035C3000F7ED0E0F07405120F7E7401F0740612C2
:1035D3000F7E12504E121015E9609B12101B7407D8
:1035E300022F101235EC640222125552A3A3A3A397
:1035F300A3A3E02274F51208438A088B098A828BFD
:1036030083A3AE82AF83E0F91210698E828F83E0C9
:1036130064EB600C850882850983A3E064E170098B
:10362300850882850983A3E4F012261F750A0178B1
:103633000A120CD3850882850983A3E0F50878086C
:10364300120CD37900123365120CFC121189025A41
:103653002FEAF0A3EBF002405474F61208439003F0
:10366300B4E0701B7C0079017A007B001211B9EA87
:103673004B600C8A828B83124AD2600312111702A9
:103683004ADBC082C083123AF8401079FF1211B3AB
:10369300E9F890240AE493C39850047901800279ED
:1036A3000002405474F01208438A088B09890B7591
:1036B3000C008A828B83A3A3A3A3A3A3A3A3E0F9F0
:1036C3001211BF8A0E8B0FAE0EAF0F750A01EE4FAC
:1036D3006003023785850882850983A3A3A3A3A377
:1036E300A3125383850882850983A3A3A3A3A3A35A
:1036F300A3124481124E811211A78A0C8B0DAE0CBA
:10370300AF0DEE4F70030238A88E828F83A3A3A35D
:10371300A3E4F0A3F0E508240B1238B4E0C0E012F0
:103723002E53D0E0F012127FEE240CF582EF124AF2
:10373300A6E508240EF582E509123CA9EE240EF550
:1037430082EF124B1A750C01EE2406F8EF1238B013
:10375300547FF0A3E054FC1255E8E05404600302E4
:10376300380B900C0412447274077808120E8B8E77
:10377300828F83A3A3A3A3A3A3E04508F0A3E045FB
:1037830009F08E828F83A3A3A3A31238BF74077893
:1037930008120F0DE5085407F508E50B607A8E82D1
:1037A3008F83A3A3A3A3A3A3A3A3A374021246B3C8
:1037B300240D124181E0A2E2500B900351124B4EB3
:1037C300A3A3124B1DE508700302387DEE2406F80F
:1037D300EF3400F9E8FAE9FB8A828B83E0547FFC3B
:1037E300A3E054FCFDE50824FFF508E434FFF509E4
:1037F30074077808120E8BEC4508F8ED4509F98A31
:10380300828B83124B1D80728E828F83A3A3A3A30B
:10381300A3A3E04480023784E5087005750A00809D
:10382300598E828F83A3A3A3A3A3A3E05420601282
:10383300121795EA547F245F8E828F83A3A3A3A3D9
:1038430080238E828F83A3A3A3A3A3A3E05410603A
:103853000A121795EA540F240A80DD8E828F83A300
:10386300A3A3A37401F0A3E41238C97404123B07A1
:103873008B09EA45097003124A99E50CA2E0502826
:103883008E828F83A3A3A3A31250B4F9EEFAEFFBA6
:103893001211ADE96012124AC86003123C91EEFAAC
:1038A300EFFB12181F750A00A90A02523F124C11AE
:1038B30022FAE5093400FB8A828B8322A3A3E0F575
:1038C30008A3E0F509221238CD22125312A3A3A3B1
:1038D300A3A32274F412084374F7120D607E00123E
:1038E30011BFEA4B70030239988A828B83A3A3A387
:1038F300A3A3A3A3A3A3E0640660030239988A8267
:103903008B83A3A3A3A3A3A3A3E0FF8A828B831226
:103913004194E0C0E07408120F7ED0E0123CCC1258
:103923004D57124B1D1211D1EF5408606685188252
:103933008519831253837A007B001211A18B0BEA42
:10394300450B704F900363123DBC121EF77C007D44
:10395300007A007B0080288E828F83123CB6F4703D
:1039630003A3E0F4602D90036312399F124E81127A
:103973001BEBE9641A601C7C007D00EEFAEFFB127E
:1039830011A18A0A8B0BAE0AAF0BEE4F70C97900F7
:10399300121EFD7E01EEF97409022F101239A322C3
:1039A300E0FCA3E0FD8E828F8322C082C083EA4BBA
:1039B30070059003B580068A828B83A3A3123BBC58
:1039C30060258A828B83A3A3A3A3A3A3A3E05408A4
:1039D30060E5EC4D60158A828B83123CB66C7003F4
:1039E300A3E06D70D280047A007B0002405474F22D
:1039F300120843EAFEEBFF890A8C088D097A107BD3
:103A030000121819EA4B603F8A828B83A3A3A3A3F6
:103A1300A3A3A3A3A3E4123CBAA3E50A125558A394
:103A2300123A548A828B83A3A3A3A3E4F0A3123C88
:103A3300C6A3F01253ECEA240CF582EB123F5812A2
:103A43003A4DA3A3F0A3F0022852A3F08A828B83FA
:103A530022A3A3E508F0A3E509F02274F4120843B6
:103A6300EAFEEBFF89088C0A8D0BEE4F605574015B
:103A73006508701479011211B3E9F890240EE493E8
:103A8300C398500F7911806A74046508702F123A35
:103A9300F840F18E828F83A3A3A3A3A3A3A3A3A31D
:103AA300E508123F68A3125AB98E828F83A3A3E459
:103AB300F0A3F09003B5124AD26021800D74026521
:103AC3000860D079C1802BE0F8A3124B47A3A3125F
:103AD3003BBC88828983A3A370ED80039003B5EE7A
:103AE300F0A3EF123B078B0BEA450B7003124A99C5
:103AF3007900022F1379041211B3E9F8902415E425
:103B030093C39822F0123B0C227A207B009003B0DF
:103B1300E0F91218D322C082C083E9F87900900338
:103B2300B5801D8A828B83A3A3A3A3A3A3A3A3A36B
:103B3300E068600574FF687001098A828B83A3A320
:103B4300123BBC70DE02405474F7120843EA4B7018
:103B5300059003B580068A828B83A3A3123BBC60C6
:103B6300248A828B83A3A3A3A3A3A3A3A3A3E06910
:103B730070E4EC60148A828B83E0240D125374A2E8
:103B8300E240D380047A007B000250C7C082C08326
:103B93009003B580068A828B83A3A3123BBC601279
:103BA3008A828B83A3A3A3A3A3A3A3A3E06970E542
:103BB30080047A007B00024054122F09EA4B2274DE
:103BC300F21208438A0A8B0B8C0C8D0D7508007555
:103BD3000900EA450B602E9003B580068E828F8321
:103BE300A3A3123C0F601EAC0CAD0DEEFAEFFB85E8
:103BF3000A82850B831220A0E9640170DFEEF8EFDF
:103C0300F988088909AA08AB09022852E0FEA3E053
:103C1300FFEE4F2274F71208439003B5123CAC7CBD
:103C2300007D00800DE8FCE9FD88828983A3A3124F
:103C33003CACE8496030EA687002EB6970E79003D6
:103C4300B5124E81E86A7002E96B88828983A3A367
:103C53007008123CAC9003B58009123CAC8C828D89
:103C630083A3A3124B1D0250C774F7120843EAFE45
:103C7300EBFFEE4F60151211CB123CDE124AC86007
:103C830003123C91EEFAEFFB12181F0250C7EE2409
:103C93000C123C9E123CF322EE241DF582EF3400FD
:103CA300F58322F582EF123CA112404B22F582EFFD
:103CB300123CA1123CD322123CBE22125560A3A394
:103CC300A3A322123CBEA3A322123A4E123CD32238
:103CD30012554BE022E0FEA3E0FF228E828F83E0A9
:103CE300241C124185123CF38E828F83123CF322F3
:103CF300123CFBFB12181F22E0FAA3E022C082C091
:103D030083EAFCEBFDEC4D700479058044EC24FB65
:103D1300F582ED34FF124AD07007123D57E0F4608C
:103D2300051217A180E39003B0E0C0E0123D57D025
:103D3300E0F090240BE493F97AB77B031217CBE9F5
:103D43006401700B7A007B20124A9D79008002790E
:103D530004024054EC24FFF582ED34FFF583227412
:103D6300F4120843A2AFE433F508C2AF9003B712CD
:103D73003C0F6038EE24FBF582EF34FF124AD07A11
:103D8300007B209003B06005124AA08005E0F91281
:103D930017D7E4F50AF50B780A120CCFEEFCEFFD0A
:103DA3007AB77B031217C57402120CFCE508A2E074
:103DB30092AFEEFAEFFB022F131253878518828519
:103DC3001983AA82AB832274F212084374FC120D86
:103DD30060EAFEEBFF750AFE750BFF12118FE960B7
:103DE300057911023F4DEE2415122F1B6037900CFD
:103DF30018E0C43354E0F8E0333354FC48C0E0EE39
:103E03002415122E56D0E0123F68123F5E8B09EA4A
:103E130045096011750AFFEE240F122F1B4404128B
:103E23004B2BD2E0F08E828F831228176006EE248C
:103E330012123F55EE2413122F1B7010902411E41D
:103E430093C0E0EE2413122E56D0E0F08E828F83BF
:103E5300E0A2E750045403801CEE2414122F1B70BD
:103E630015900342E0C0E0EE2414122E56D0E0F089
:103E7300900342E004F0EE2411122F1B640170162C
:103E83009005B0E0600D90034DE0700A8E828F8341
:103E9300E07003123F528E828F83E064017013EE51
:103EA300240B123CB064027009EE240F122F1B4442
:103EB30040F0851882851983AC82AD83EEFAEFFB5F
:103EC3001211F58A088B0974FE650A700374FFF4F6
:103ED30070098E828F83A3A3125302EA4509606699
:103EE3008E828F83E0C0E07401120F7ED0E0F07405
:103EF30002120F7E1253F07401120F7E85820C851D
:103F0300830D780C120CCFEE240F122E56120B8851
:103F1300EE240E122F1BF50C780C120CD3900356C3
:103F2300120B887407120F7EE0F9AC0AAD0B121165
:103F3300EF7407120CFCE9FE74106E700BAA08AB49
:103F43000912181F80027E10EEF9740402284FEE46
:103F53002411F582EF123CA1E4F022A3122F097978
:103F6300FF121FF322123F6C22F08E828F83A32253
:103F7300C082C08374DE120D608A828B83A3A3A3E5
:103F8300A3123CAC740E120F7EE8F0A3E912404278
:103F9300740C120F7E12403B240DF582EB122F1E80
:103FA300C0E0741A120F7ED0E0F012524FEB123CB5
:103FB300A97420120F7E12403B2415F582EB122FB9
:103FC3001EC0E07408120F7ED0E0F0EA241CF582D4
:103FD300EB123CA97412120F7E12403B2411F5829E
:103FE300EB122F1EC0E07409120F7ED0E012402F97
:103FF30074FFF07401120F7E74FFF07402120F7ECF
:1040030074FFF0908084120B847404120F7EAC82D0
:10401300AD837407120F7EAA82AB8312103F740420
:10402300120CFC79007422120CFC802512403322FE
:10403300F085188285198322E8F0A3E9F0EA2212B9
:104043003A4EA312404A22A3E0F8A3E0F922124E0B
:1040530081D083D082020C9474EC12084374EE1264
:104063000D608A128B13ECFEEDFF89097426120F83
:104073007E1253027428120F7EE0F5107429120F7A
:104083007E124176742B120F7EE0F50EA3E0F50F3E
:104093007508107A1E7B001218197402120F7E1213
:1040A3004AAA7402120F7E124AD2700302416F852C
:1040B3001882851983AA82AB837950124985124EDF
:1040C300817402120F7E124194A3124AAA74101231
:1040D3000F7E125ABB7402120F7EE0240B12418131
:1040E3007402F0120F7E1241947402F0120F7E12CA
:1040F30055431253F07402120F7E124E96E509F0E7
:104103007402120F7EE0240C124181E510F0740258
:10411300120F7E12417EE512F0A3E513F07408122C
:104123000F7EE50CF0A3E50DF0740A120F7EE51087
:10413300F0850E82850F83C082C083740D120F7EBB
:10414300AC82AD83D083D0827403120C2FF9740236
:10415300120F7EAA82AB83121195E9640170057573
:10416300080080087402120F7E123C97A90874128B
:10417300025319E0F50CA3E0F50D22E0241C1241D3
:104183008522F8A3E012418C223400F988828983C6
:1041930022124E89A3A3A3A3A32274EE120843EA17
:1041A300FEEBFF8C088D098E828F83A37408124B5C
:1041B30066E060088E828F83A37410F0122F18605C
:1041C300098E828F83A3E02408F0EE2415122F1B9F
:1041D30060088E828F83A3E004F08E828F83A3A373
:1041E300A3A3A3A3E060198E828F83A3A3A3A3A396
:1041F300A3A3E0C3332402F88E828F83A3E028F0C5
:10420300EE2411122F1B6005750B0E8003750B0036
:104213008E828F83A3C082C083EE240D122F1BD006
:1042230083D082F8E028250B8C828D83F0EE241155
:10423300122F1B600512469128F085088285098399
:10424300E0C39475400975080075090002437FE0D7
:10425300FA7B0012549E700302437FEEFAEFFB12C7
:1042630011FBEA850882850983124AABEE2402F822
:10427300EF1231901244791243BBF0EE2404080884
:10428300EF1231901248BBA31243BBA3A3F0EE2459
:10429300131243A1F0EE24141243A1A3F0750A08EC
:1042A300EE2416122F1B6010EE2418125380E5081B
:1042B3002408125581750A10122F186016EE241A5D
:1042C300125380850A0CE508250C125581740825C4
:1042D3000AF50A8E828F83A3A3A3A3A3A3E0605945
:1042E300EE2407F510EF3400F511851082F583E015
:1042F300C0E0124388122E59D0E01243ABE0C0E075
:10430300124388122E59D0E01243ABA312439412E6
:104313000CCB851082851183E0C333FCE433FD8528
:104323000A0CE508250C1252F6120CFC8510828546
:104333001183E0C333250AF50AEE2415122F1B60FF
:104343000BC0E0124388122E59D0E0F0122E531204
:104353004394120CCBEE240D122F1BFC7D00850B16
:104363000A8E828F83A3E0F8E50828F8E509340074
:10437300F9E8250AFAE91252F9120CFCAA08AB096A
:104383007F0A020AB9850A0CE508250CF582E509BE
:1043930022E0F50CA3E0F50D750E00780C22123C1B
:1043A3009E1243C5A3A3A322F0050A8E828F83A383
:1043B300A3A3A3A3A3A3A322A3A31255ECA31243D2
:1043C300C5221248BFA3A32274F61208438A828B24
:1043D30083E0FC90035312447274027808120E8B2C
:1043E300EC4508FCAD09EA241212446C7406780803
:1043F300120E8BEC4508FCED4509FDEA2415F58208
:10440300EB122F1E6004780180027800E4C8F9EDF6
:1044130049FDEA2411F582EB122F1EF50888097471
:10442300097808120E8BED4509FDEA241612446C37
:10443300740B7808120E8BED4509FDEA241712441C
:104443006C740C7808120E8BED4509FD8A828B8300
:10445300A3A3A3A3A3A3124472740A7808120E8B16
:10446300ECFAED4509FB024ADBF582EB123CA1E0D5
:10447300F50875090022E085088285098322A3E0F7
:10448300F98508828509832274EE1208438A0A8B10
:104493000BECFEEDFF750F01E9C39408500579009D
:1044A30002467E8E828F83E9F01248E4E960037549
:1044B3000F001248C88E828F83124912EE12525097
:1044C300EF124907C0E0EE2411122E56D0E0124835
:1044D300FFC0E0EE2412122E56D0E0123F6874089B
:1044E30012530AA3A3A3E060151248B0EE2413F5F8
:1044F30082EF124B1A8E828F83A3E02408F08E8200
:104503008F83A3A3A3A3A3A3A3A3E060218E828F7E
:1045130083A38582088583091248F3EE2415F58267
:10452300EF124B1A850882850983E02408F08E82F6
:104533008F83A3A3A3A3A3E0601A8E828F83A38593
:1045430082088583091248D78E828F83A3A3A3A3EE
:10455300A31246A3EE2419123F55EE241B123F5516
:10456300A3124B5EE07003024612EE2419F8EF34F7
:1045730000F98E828F83A3858208858309E0FAE59B
:104583000A2AF582E50B122F1E888289831246A31D
:10459300FAE50A2AF582E50B122F1EC0E0EE241A73
:1045A300122E56D0E01246A388828983E06059F820
:1045B300902414E493C398500575110C8008EE24DD
:1045C30019122F1BF5118E828F83A3E0F8E50A28B9
:1045D300F50CE50B124687120CCBE511C333FCE453
:1045E30033FD7A7F7B0A124681120CFCEE241B12E8
:1045F3002E56747FF0A3740AF0E511C333F88508CF
:1046030082850983E0288006EE2418125797F08EDE
:10461300828F83A3E0F88E828F83E0C398500302D6
:1046230044A1A3E0FA8A08E50A2508F8E50B34005B
:10463300F9EE241DF582EF124C261246B3C39AC03D
:10464300E0EE2417122E56D0E0124B23602BEE24FB
:1046530017F8EF3400F9880889098882F583E02484
:10466300F2124C07240EFAA3E03400FB88828983FC
:10467300124AAA124691C398F0A90F024383121754
:104683007D7403223400F50D750E00780C2290031F
:104693004EE0F9121F57E9F8850882850983E02265
:1046A300F0850882850983E004F022A3A3A3A3A3D2
:1046B300F08E828F83E02274F41208438A088B09F8
:1046C300EA124748F0EA1313543F124741A3A3A346
:1046D300F0EAC41313124748A3A3F0EB12473A12AC
:1046E30047527409780A120F0D1247381247517452
:1046F3000A780A120F0DE50A5401C0E0EC2418F5FC
:1047030082ED122E59D0E0124757740B780A120F1C
:104713000D124738A3124751740C780A120F0D1269
:104723004738A3A3A3A3A3A3A3A3F0740D780812EC
:104733000F0D022A5DE50A54018C828D8322540FEA
:104743008C828D832254038C828D83A3A322A3A303
:10475300A3A3A3A3F08A0A8B0B22C082C083790090
:104763008A828B83A3A3A3A3A3A3E090034D600F2B
:10477300E070228A828B83A3A3E07019098016E07C
:1047830060138A828B83124E78900356E06A70031B
:10479300A3E06B70E702405474F01208438A0A8B5B
:1047A3000B890C8C088D091248E41248C8850882CD
:1047B300850983124912E508125250E50912490787
:1047C300C0E0E5082411F582E509122E59D0E01264
:1047D30048FFC0E012354A122E59D0E0124C2E7415
:1047E30008124C4760111248B0E5082413124C22FA
:1047F300124C2EE02408F0850882850983A3A3A325
:10480300A3A3A3A3A3E06017850882850983A3124A
:1048130048EFE5082415124C221246B32408F0850C
:104823000882850983A3A3A3A3A3E0601985088253
:10483300850983A3AE82AF831248D7850882850991
:10484300831246AE04F0AA08AB0912120DE9F50D66
:104853007056850882850983A3A3A3A3A3A3124843
:10486300BB7014E0FA8A0EE50A250EF8E50B124B2D
:104873000FE50CC39A80211248EFE8240EF8E912E1
:104883004B0F90034EE0F9121F578E828F83E0F88F
:10489300E50CC39824F2C399C0E0E5082417F58218
:1048A300E509122E59D0E0F0A90D02523FE50A2482
:1048B30008F8E50B3400F9221248BF22E08508828C
:1048C300850983A322850A82850B83A3A312492822
:1048D300E0F9EA22E0F8E50A28F582E50B124B3607
:1048E300228A828B8312524412120722AE82AF8332
:1048F300E0F8E50A28F8E50B3400F92212493BA356
:10490300A3A3E022123CA1E8124934A3A3E022A30B
:10491300A3A3A3A3A3A3A3A3124934124928A3A324
:10492300E0F9EAF822E0FA850A82850B83A3A3A3C0
:1049330022F0A3E912493B22F0850A82850B83A367
:10494300A3A3A322C082C0837AC57B0379E2121E8C
:10495300C77AC57B03024054C082C08390035602CA
:104963004051C082C08374FE120D60851882851980
:1049730083AA82AB83794B124985124E817402025A
:10498300402A121EC785188285198322C082C083DC
:10499300794A121EC702405474F61208439003CD9D
:1049A300E0FE04F0EEF91211BF8B09EA450970ED40
:1049B300EE60EAF9024ADB74F0120843EAFEEBFF09
:1049C3008C088D09890A7410120F7EE0F50B74119F
:1049D300120F7EE0F50C1212D9EA4B7013E50C703E
:1049E30042A90AAC08AD09EEFAEFFB1212F1806E90
:1049F300E50A6021EA2402F582EB122F1E850A08DC
:104A03002508F8E4340013E813F070098A828B83D5
:104A1300A3A37401F0E50C6045E50B70068A828B55
:104A230083E4F07401650C7035E50B9003D47004D6
:104A3300E4F0802AE004F0900C05E0F89003D4E061
:104A4300C398401AE4F0900359E06E7003A3E06F3B
:104A5300700CEEFAEFFB7901121063124A640252F2
:104A63003F7A017B009003B0E0F91218CD22C08297
:104A7300C08374016A7001EB70077A01124A9B804C
:104A830012900BFC124AAAEA4B60051227D9800345
:104A9300124A640240547A207B009003B0E0F9127A
:104AA30017D1223400F583EAF0A3EBF022C082C0D1
:104AB30083900BFE023654C082C083900C000236F2
:104AC3005412555222EE240CF582EF3400F5831272
:104AD300404BE84922120CFC7F02020AB9A2F0E41F
:104AE30033851882851983124AFC7952121ECD220E
:104AF300124AFC7942121ECD22F0AA82AB8322AA6B
:104B030008AB099003B0E0F91217A7223400F9E5C6
:104B130008241DF582E509123CA1E8F0A3E9F0227F
:104B230012530EA3A3E022A3F0EE2415124B33225B
:104B3300F582EF3400F583E022124B40223400F576
:104B430083E0F8A3E0F98882898322E0F8124B54CA
:104B530022A3E0F98E828F83A3A322F0EE241812FE
:104B63003C9E22F0EE2416123C9E2274F41208435B
:104B7300EAFEEBFF7A007B04124A68124BFD124BEC
:104B83001D9003657409F01212198A088B09AC0889
:104B9300AD09EE2413122E56124E81124D516401AB
:104BA30070487A0F124BF060418A828B8374021231
:104BB3004C07FAA3E0FB8A828B83A3E0FC8A828BF7
:104BC30083A3A3E0FBEC850882850983A3A3124A90
:104BD300AB88828983124E85124479124B2AFAA339
:104BE300E0FB794A121ECD124B02022F137B0012F7
:104BF300179B8A088B09EA45092290033612404B1A
:104C0300900C0022F0EE241DF8EF124C11221241F9
:104C13008CE022124C1A223400F5837401F022F541
:104C230082E509123CA1E8F0A3E922124C322212D8
:104C33004C3622F0850882850983A322124C36A3C1
:104C4300A3A3A322124C3FA3A3E022125058121293
:104C53006D22EE2417F582EF124C1A121219EE246C
:104C63001A123C9EEAF0A3EBF02274F41208437488
:104C7300F3120D608908EAFEEBFF7C0D7D007900DD
:104C8300851882851983AA82AB83121789EE241DA6
:104C9300122E56125543A3E0F8741F58600A790187
:104CA300121E917900024D48E8A2E55008740C12D7
:104CB3000F7E7401F0E8A2E75008740B120F7E74A4
:104CC30001F0E8A2E6740A5008120F7E7401F08026
:104CD30008120F7EE064017005EE24138003EE24B6
:104CE300151253807402120F7EAA82AB83121EA97F
:104CF300122E53124D56124B1D740A120F7EE0648E
:104D030001703312280C703B1212258A0A8B0BA8F0
:104D13000AA90BEE240B122F1B687003A3E0697022
:104D230022121219EAFCEBFD7402120F7EAA82AB67
:104D330083124D51600D851882851983AA82AB8336
:104D430012105DA908740D022F10EEFAEFFB121E6C
:104D5300A3E922E0124D5B22F8A3E0F985188285CE
:104D630019832274F612084374F3120D608A088BB8
:104D730009ECFEEDFF7C0D7D007900851882851915
:104D830083AA82AB831256C4A3A3A3A3A3A3A3A3FF
:104D9300A3124DF0124DF9F8A2E55008740B120F4F
:104DA3007E7401F0E8A2E75008740A120F7E7401C2
:104DB300F0E8A2E6EE500424138002241512538077
:104DC3007402120F7E124DE2A3A3E0C0E0740C1232
:104DD3000F7ED0E0125050121057740D024AD8AA19
:104DE30082AB83121EA985088285098322E0124DB6
:104DF3005BE8F0A3E922F0123C9B125547A3E022A3
:104E030074F712084374E1120D60EAFEEBFF8E8221
:104E13008F83124E85A3A3A3E0A2E050518E828F0D
:104E23008312296C8A828B83A3A3A3A3A3A3E05435
:104E3300FE124E9D8A828B83124E96E0F98A828BF4
:104E430083E0241CFAA3E01238B7124E8112121326
:104E5300E9701B741D120F7E124E9070118518821B
:104E6300851983AC82AD83EEFAEFFB12125B02501D
:104E7300C28E828F83A3A3A3A3A3A3A3A3A3122F4F
:104E83000922124E892212554BA3A3A322123CD30B
:104E9300640422E0241B12418522124033AC82AD0C
:104EA3008322E9F87900740468600A740A6860056B
:104EB300740368700109020C9474F61208438A8221
:104EC3008B837420F0A3A37401F01210098A088B5A
:104ED30009AE08AF09EE4F60108E828F837401F024
:104EE3009003A3E07003124C55EEFAEFFB024ADB8A
:104EF300C082C0839003B97401F0E9A2E350037444
:104F030003F0E9A2E15004E0D2E2F002405474F667
:104F130012084379007C008A088B097808120AFF7B
:104F2300F8FF07444F424F424F424F424F3B4F3FE0
:104F33004F444F384F0C80097C0480050C80F67C6D
:104F4300089003B9E05C6003098003EC6001090287
:104F53004ADB74F61208438A828B83E07012A31231
:104F63004AD2600C8A828B83124E80121FD5800432
:104F73007A007B00024ADB74F512084374F3120DC6
:104F8300608A088B09ECFEEDFF750A12EA45097089
:104F9300057900025049900356E065087004A3E0C8
:104FA30065097014121219EAFCEBFD124D4D7005E0
:104FB300750A018003750A00851882851983E4F058
:104FC30004120F7EE508F0A3E509125050120FCD2D
:104FD300E960277403120F7EAA82AB83120FB5E92F
:104FE30064017016750A017403120F7EAC82AD83DF
:104FF300124D4D6021750A00801C7412650A7016EB
:105003009003A2E06402700EEEFCEFFDAA08AB0968
:10501300120FE5E970DFEEFCEFFDAA08AB091212EF
:10502300DFE9F8740A687005750A01801774A068CF
:105033007012EEFCEFFDAA08AB091212EBAA08AB43
:10504300091212FDA90A740D025A2C74021250544B
:105053002212505822124033AA82AB832274F712D1
:105063000843EAFEEBFF8E828F83A3A3A3A3A3A32C
:10507300A3A3E06015EE2415122E56122EF9121278
:1050830085E964017004790180258E828F83A3A34F
:10509300A3A3A3A3A3E06015EE2413122E5612506C
:1050A300B4FAA3E0FB121285E9640160D9790080A8
:1050B300131239A3A3A3A3A3A3A3A3A3A3E02274BB
:1050C3001F120CFC7F01020AB974F012084374FD2D
:1050D300120D608A088B09ECFEEDFF890B74131225
:1050E3000F7EE0F50C750A017401120F7E74041231
:1050F300557B6048E50C601DEA2417F582EB1257D7
:105103009A1255698A828B83E0D2E7F0EA2414F578
:1051130082EB123F5812524FEB124B3C7403125A5C
:10512300BDEE88828983A3A3F0EF88828983A3A33A
:10513300123A4D123A54121003E9F50AA90A7403FC
:1051430002523C74EC12084374F5120D608A0A8B08
:105153000B890C8C0E8D0F741F120F7EE0F50D74EE
:1051630020120F7EE0F510A3E0F5117E01EE120F81
:105173007E740AF0E97007E50DC333240AF0125375
:105183002170030252231253367409F0A3E50CC4B1
:105193003354E0450D125348E50C702D7C008023F9
:1051A300ECC333F8E433F9E51028F8E51139F9884D
:1051B30082898312523088828983123183F0A30E4D
:1051C300AF830CECC3950D40D7E5082417F582E5B2
:1051D30009124C16121219E508241AF582E5091270
:1051E3004AA67403120F7EAC82AD83AA0AAB0B12DC
:1051F3000FBBE96019E5082416F582E50912522A66
:10520300120F7EA882A983E5082418124B1685087D
:1052130082850983125AB9AA08AB09121003E9FE61
:10522300EEF9740B025319124C1A740322E08E82A6
:105233008F83F0A3AE82AF8322120CFC7F08020A95
:10524300B9123CFBF9EA2400E439FB22EA240BF50A
:10525300822274EE1208438A0C8B0D890E8C088D02
:10526300097412120F7EE0F50F7413120F7E12539E
:1052730002900521124AD26077E50FC333F8E43375
:10528300F9E8240EFAE93400FB12179B8A108B11FC
:10529300AE10AF11EE4F60588E828F8374D4F0A39B
:1052A300A3E50CF0A3E50D12530AE50EF0AC08AD2F
:1052B30009EE2405FAEF125584EE240D122E56E55D
:1052C3000FF0850A08850B09750A007808120CCBC4
:1052D300E50FC333FCE433FDEE240EFAEF1252F96B
:1052E300120CFCEEFAEFFB9005211255431220A09D
:1052F300024383FAE5093400FB12177D740322E0AD
:10530300F50AA3E0F50B2212530E221253122212B6
:105313003F6CA3A3A322120CFC7F0C020AB98518CD
:1053230082851983AA82AB8312126D8A088B09EADC
:10533300450922EA240BF582EB124B36FEA3E0FF6C
:105343008E828F8322F0A3AE82AF83AC0EAD0FEEBD
:10535300FAEFFB12535A22121EA912536122EE24B2
:1053630008FEEF3400FF22E0FA8E828F83A3A3E0CE
:1053730022FEA3E03400FF8E828F83E022123C9E44
:1053830012538722E0FCA3E0FD22122F091212011F
:105393002274F6120843EAFEEBFF9003BA801388E7
:1053A300828983E06E7003A3E06F603A8882898309
:1053B300A3A3124AD270E87A047B001218198A0850
:1053C3008B09A808A909E849601C888289831253BC
:1053D300F09003BA124E8188828983A3A3124AAA4A
:1053E3009003BA124B1D024ADB8A828B83EEF0A331
:1053F300EFF02274F41208437E009003BA80070E84
:1054030088828983A3A3124AD270F4EEC333FAE4E9
:1054130033FB12549E607E7F009003BA80248882FF
:105423008983125383EFC333FAE433FBE5082AF588
:1054330082E5093BF583ECF0A3EDF00F88828983C5
:10544300A3A3124AD270D79003AB1228467003A3CA
:10545300E06978087019120CCFEEF50A780A120C7D
:10546300D37C777D0379009003AB1254A9801A1281
:105473000CCFEEF50A780A120CD37C777D03790002
:105483009003AB124E811212977403120CFCAA08FC
:10549300AB0912181F12101B022F131218198A08B6
:1054A3008B09EA450922122F0912129D22C082C0DC
:1054B3008380128A828B83A3A3123CAC9003BA121B
:1054C3004B1D12181F9003BA123BBC70E6024054E6
:1054D30074F6120843900363123CD89003CE12551E
:1054E30032124B1D7ACE7B037950121ECD9003CE20
:1054F300122A65FAEFFB1212F79003CE123CD890F2
:105503000523124AD260257A067B0012179BEA4BC9
:10551300601A8A828B8374D5F0A3A3E412555804CE
:105523001255699005231255431220A0024ADB123B
:10553300553622E0F8A3E0F9900363228E828F832D
:105543001255472212554B22E0F812555122A3E07F
:10555300F58388822212555C2212556022F08A82DA
:105563008B83A3A3A32212555CA3EEF0A3EFF02237
:10557300F582EF124B36F922124C4EEA4B22FAE532
:10558300093400FB121EA922124B55A3A3A3A3A304
:10559300A3A32290240CE4932401F8E43400F97AC1
:1055A300027B002274F71208437E008004125B70B2
:1055B3000E12569440F77E00EE1255D374FEF0A3FC
:1055C300041255E8E4F00EEEC3940340EB0250C717
:1055D30075F003A4F8A9F074BC28F8740339F988AA
:1055E300828983A3221255EC22F088828983227454
:1055F300F71208437F0080010F902409E493F8EF2A
:10560300C3985026EF1257806A7003A3E06B70E8CB
:10561300125B1D6C7003A3E06D600A74FF6C700372
:1056230074FF6D70D312568B80047A007B00025096
:10563300C774F61208437CFF7DFF7AFE7BFF1212CC
:10564300C1EA4B70407508008036E50875F017A471
:10565300F8A9F0741A28F5827409125792600C7431
:105663001928F58274091257927013740B28FE746B
:105673000939FF8E828F8312579FEEFAEFFB0508DD
:105683001256FA40C5024ADB740B28FA740939FB37
:1056930022902409E493F8EEC3982274F712084386
:1056A300EAFEEBFFEE4F60101256BE74FEF0A30449
:1056B300125AC314F0A304F00250C77C177D00797B
:1056C300001217898E828F832274F7120843EAFE31
:1056D300EBFF7508008018E50875F017A4F8A9F02A
:1056E300125B287003A3E06F6003125B7805081256
:1056F30056FA40E30250C7902409E493F8E508C33F
:10570300982274F61208431212C18A088B09A8085A
:10571300A909E849600AE8240DFAE93400FB80048A
:105723007A007B00024ADB74F41208438A0A8B0B6B
:10573300ECFEEDFF750800750900802EE50975F094
:1057430017A4F8A9F0125B63601EE5091257806580
:105753000A7004A3E0650B700375080AEEFCEFFD05
:10576300125A1F60034308A00509902409E493F823
:10577300E509C3985004E50860C2022A5D75F01775
:10578300A4F8A9F012578B22740B28F582740939F7
:10579300F583E022F582EF123CA1E422122F0912D5
:1057A30010F9221255ECA3A3A3A3A3A3A3A32274CA
:1057B300F21208438A088B09ECFEEDFF740E120FF8
:1057C3007E125302750C007C007D01801012179528
:1057D300E50CF5F0EA84ACF0750C007D00780079F7
:1057E30000800312595C1259B8400302587EE8FA4C
:1057F300E9FBEA75F017A4FA85F00D75F017EBA431
:10580300250D1259947003A3E0F460D71259726501
:10581300087004A3E0650960CA1259726E7003A38D
:10582300E06F60BF125972650A7004A3E0650B60F4
:10583300B2E8FAE9FBEA75F017A4FA75F017EBA4DE
:10584300250DFB74192AF582740912595350947467
:10585300016D050C608DE50CC39C4087E875F0175E
:10586300A4F8AAF075F017E9A42AF9740B28F582B5
:10587300740939F583124E810259507800790080FA
:105883000312595C1259C54003025937E8FAE9FB80
:10589300EA75F012A4FA85F00D1259A464FE7003A0
:1058A300A3E0F460DC12599A65087004A3E065096B
:1058B30060CF12599A6E7003A3E06F60C412599AB5
:1058C300650A7004A3E0650B60B7E8FAE9FBEA75C3
:1058D300F012A4FA75F012EBA4250DFB749A2AF5C5
:1058E3008274071259535099E8FAE9FBEA75F012EA
:1058F300A4FA75F012EBA4250D12596564016081B9
:10590300E06402700302588474016D050C70030295
:105913005884E50CC39C5003025884E875F012A424
:10592300F8AAF075F012E9A42AF9749128F58274A3
:1059330007025875E50C6011EC700E7401650C607C
:10594300030257D07C010257DB7AFE7BFF02285209
:105953003BF583E014C3940622E8240108E93400EC
:10596300F922FB74952AF58274073BF583E022E85C
:10597300FAE9FBEA75F017A4FA75F017EBA4250D05
:1059830012598722FB740B2AF58274093BF583E0D5
:105993002212598764FE22E8FAE9FBEA75F012A4A1
:1059A300FA75F012EBA4250DFB74912AF5827407A6
:1059B3003BF583E022902409E493FAC3E89AE9943F
:1059C3000022902403E493FA740193FBC3E89AE959
:1059D3009B2274F51208438A088B09ECFEEDFF75D0
:1059E3000A008002050A902409E493F8E50AC398A3
:1059F3005028EEFCEFFDE50A75F017A4F8A9F012A4
:105A03005A1F60E0E50A75F017A4F8A9F0740B2893
:105A1300F582740939F583123A568010740D28FA09
:105A2300740939FB121EA3E922120CFC7F03020A3C
:105A3300B974F01208438A088B098C0A8D0B890C00
:105A43001212C78A0E8B0FAE0EAF0FEE4F605512B8
:105A530056BEE508F0A3E509125AC3125ABBE50C7A
:105A6300600AEE240F122E56E50C8006EE240F1268
:105A73005AB3F09003D0124AD2601A9003AAE0649A
:105A8300017008EE240E1257978010EE240E122E8A
:105A93005674078006EE240E125AB312339C120674
:105AA30063125AAA02523FEE240D123C9EE8F022E2
:105AB300123C9E740122A3A3E50AF0A3E50BF02296
:105AC3001238CDA32274F51208438A088B09ECFE21
:105AD300EDFF750A00800F125B287003A3E06F606F
:105AE30003125B78050A902409E493F8E50AC39846
:105AF3005025E50A75F017A4F8A9F0125B1D650897
:105B03007004A3E0650970CF741528F58274093910
:105B1300F5831253F080CD025A2F741528F5827441
:105B23000912579222741528F58274091257926E3E
