:020000040000FA
:060000000211390207970E
:030013000207BA27
:03002B00020F7051
:03003B0002080FA9
:030053000206C8DA
:03007B00020E670B
:1000830002072C0101FF050301E916E916E916E948
:1000930016A5159F15E916FA23000000005C24003D
:1000A3000000000C0000000C0001060A1010000004
:1000B30000000000000000003B19000000000000E9
:1000C30000000000FFFF000000004B1B451B010068
:1000D3000500000000000000000000000000000018
:1000E300000000000000000200000000000000000B
:1000F300000001000101010008050000005905E8A6
:100103000364006400B80102020000100005020746
:10011300051E02051E0A03B80B02010213020202A6
:100123000206121211856046121158603DE968708B
:1001330008F618F618F618F622748067F712015AB3
:10014300090909748067F722121158601D1211857D
:100153007005191919801A120FFA701F12100FC3A4
:100163007003E6673319191940071818182208088D
:100173000874FFF618F618F618F62212100F601717
:100183001211C4702192F01211CE7019501720F081
:1001930014080808090909E7F61819E7F61819E712
:1001A300F61819E7F6221211CE60E6E869701F0807
:1001B30008E62480F608E436F618547FB47F0CE68C
:1001C30054806007F6E418F618F622181822E9C6D8
:1001D300CC08C6CD08C6CE08C6CFC0E0E8C0E0EA6A
:1001E300C0E0EBC0E009E9F809E7FA09E7FBE6F943
:1001F30018E6F8C3EC98ED99EE9AEBC2E7F5F0EF49
:10020300C2E795F0500E600CEBCFFBEACEFAE9CDD6
:10021300F9E8CCF8EAA2E7D2E7FAEB33FB13F5F0FF
:10022300EEA2E7D2E7FEEF33FFC5F013A2E730E615
:1002330001B313C5F0C3C0E0C0F07F00C39BFB60F4
:100243005B9418600C401AD0E023F9D0E0F8020365
:10025300298AF0E9486003D2F0E4AFF0FAF9F880B4
:100263003BEB30E40D89F0EA6003D2F0E4AFF0F940
:10027300CAF8EB30E30D88F0EF6002D2F0AFF0E4A0
:10028300CAC9F8EB54076014FBC3EA13FAE913F97C
:10029300E813F8EF135002D2E0FFDBEDD0E0C0E04B
:1002A30030E739C3E49FFFF5F0EC98FC42F0ED9999
:1002B300FD42F0EE9AFE42F0D0E0F9D0E0F8E5F02E
:1002C300607AE923F9EE20E742D8028067C3EF336F
:1002D300FFEC33FCED33FDEE33FE80EAEC28FCED5E
:1002E30039FDEE3AFED0E023F9D0E0F84002801B5E
:1002F300C3EE13FEED13FDEC13FCEF135002D2E03B
:10030300FF08B800067F7F74FF802EEF3350178CF1
:10031300F020F00260100CBC000C0DBD00080EBEF6
:10032300000408E860DFE933E813FFEE2313FE4F10
:100333004D4C8008E95480FFE4FEFDFCEE33EF33BF
:10034300F47004FCFD7E80D0E0FBD0E0FAD0E0F84E
:10035300D0E0CFC618CEC618CDC618CCC6F9221227
:100363001158700418181822121185700D74FFF6B5
:100373001819F61819F61819F622E7548066F612BA
:1003830011CE700F1211C470F014F608F608F608B7
:10039300F680D11211C4700CF608F608768008E6D0
:1003A300447F80EC121012700C120FFD60BFE654F4
:1003B30080F6E480BB120FFD700519191980A5E8BA
:1003C30069700C763F18768018F618F6E8F922E67D
:1003D300CDC0E018ECC0E0E633CD33CDD313F6E760
:1003E30019FCE7191933CC33C3947F400ECD9D50CC
:1003F3002408E65480F6E418F6800FF4043D145004
:100403001408E6447FF6187680E418F618F6D0E070
:10041300FCD0E0FD22CCD313CCFD18E4C6CBC0E066
:1004230018E4C6CAC0E00808ED08C633E613F61898
:10043300E433C675F003C3CA97CA09CB97CB199C9B
:1004430040047D08802EBD000302050B16B6FF0590
:100453000606081618C3CA33CACB33CB33CA27CA16
:1004630009CB37CB193CC37D08803E187D0820E7B4
:100473005CC633C6CA33CACB33CB33DDF1D5F0EB1D
:1004830030E77BCA97CA09CB974ACB199C406F4B7D
:100493007025E620E0218066187D08C3CA97CA0943
:1004A300CB97CB199CD3C633C6CA33CACB33CB3312
:1004B30050C9DDE7D5F0E1D3E4C636C608C636C673
:1004C30008C636C608C636C61818188031C3CA9778
:1004D300CA09CB97CB199CB34097C633C6CA33CA54
:1004E300CB33CB33DD34D5F02EC6A2E0C640C8CA29
:1004F30027CA09CB37194A70BECB3CB480B9080868
:10050300E63308E633601F181818D0E0FAD0E0FB92
:10051300D0E0FCD0E0FD22187D08CA27CA09CB37FA
:10052300CB193CD3808013F618E4B67F11F618B6C6
:10053300FF0EF618C60470D20808768080CAF61833
:10054300F618F680C500121158604F12118560121B
:10055300E7548066F6120FFA70111211C4703B094A
:100563000909F4F618F618F618F62212100F70158A
:100573001211CE08080860EAE6447FF61876801860
:10058300E4F618F6221211CE60161211C47012E4AA
:10059300F608F608F608E65480F60909091818184B
:1005A30022EAC0E0EBC0E0ECC0E0EDC0E0E687F09B
:1005B300A4FBACF008E687F0A42CFCE435F0FA18B1
:1005C30009E687F0A42C4B60027401CA35F0FCE401
:1005D30033FB09E687F0D2F7A42CCB35F0FC1908DE
:1005E300E687F0A42BCC35F0FBE433FD0819E6874E
:1005F300F0D2E7A42C4ACB35F0CD3400FC09E687D2
:10060300F0D2E7A42DCC35F0FDE433FA0918E687E0
:10061300F0D2F7A42CCD35F0CA3400FC08E687F0FD
:10062300D2E7D2F7A42ACC35F07A7E20E70B0ACBA7
:1006330033CBCD33CDCC33CC33CB3350147004ED2B
:1006430030E00ED2F1E4CD3DCDCC3CCC3B5005DACD
:1006530005C2F1EB547FC63308E63392F0FBE73370
:1006630009E733C39A502D2B70190C0D4C4D70159F
:100673001806E608C333700D20F10AA2F013F6E45E
:1006830018800B4024E4F630F002768018F618F652
:1006930018F68024D33B14501074FFA2F013F618FD
:1006A3007680E418F618F6800FA2F013F618E633F6
:1006B30003F618ECF618EDF6D0E0FDD0E0FCD0E040
:1006C300FBD0E0FA22C0E074F2120AE6A2AFE433F0
:1006D300FED2AFE5A7FFE5A1F5085F54106006124F
:1006E3001E7B75A1EFE5085F54086008121E817533
:1006F300A1F7802BEFA2E0C0D0E508A2E092F012B0
:100703001086158182F05017906198E0F8900728C1
:10071300E0C398A2D265D0335002E8F075A1FEEE93
:10072300A2E092AF7F01020BFAC0E074F2120AE674
:10073300A2AFE433FED2AF9061A4E0F8759B00E56D
:100743009158540860087591F7121EC3802AE591E9
:1007530058541060087591EF121EC9801BE8A2E07F
:10076300C0D0E591A2E092F0121086158182F0507C
:1007730007E0C2E0F01220079061A3E0F8E5E95832
:100783005404600E121FDD75E9FB906193E0A2E64D
:1007930040F2808BC0E074F2120AE6A2AFE433FEAB
:1007A300D2AF9061A5E0F8E5BF585404600675BF69
:1007B300FB12201F020722C0E0C0D0E8C0E0E9C05E
:1007C300E0C082C083E5C1C0E0900694E0F87413F2
:1007D30028F58274063400F583D0E0F0900693E0A8
:1007E300F8A3E0687006E595900696F0900694E00D
:1007F30004F0C394804002E4F0A374C6F0D083D025
:1008030082D0E0F9D0E0F8D0D0D0E032C0E0C0D060
:10081300E8C0E0C008C009C082C083900717E0F8B1
:10082300A3E0687008539AFBA374018026C2E99081
:100833000717E0F50874012508F074972508F58279
:1008430074063400F583E0F5C1900717E0C3948084
:100853004002E4F0D083D082D009D00880A6C3E45C
:1008630098F8E499F91208A28026C3E49AFAE49B63
:10087300FBE920E7E91208A2E498F8E499F922C316
:10088300E498F8E499F91208A2E498F8E499F9C312
:10089300E49AFAE49BFB22EB20E7CFE920E7E0B9F7
:1008A3000010BB0008E88AF084F8AAF022E4FBC831
:1008B300FA22EB70227B10C833C8C933C9335007FF
:1008C300C39AC3DBF280069A50012ADBEAC833F4E9
:1008D300C8C933F4C9FA2275F008E4C833C8C93368
:1008E300C933C99AC99B5004C92AC93BD5F0ECFB4B
:1008F300C833F4C8E4C9FA2212093B20F01430E7E4
:100903002B74FFFCFBFA747F8022E4FCFBFA7480F7
:10091300801AB48008BC00F2BB00EF800F50EBF9E3
:10092300E4C39AFAE49BFBE49CFCE499C6CC18C6A6
:10093300CB18C6CA18C6F922E4C9C608CAC608CB6A
:10094300C6D3330308CCC63392F0C3947F402E94AE
:10095300184019C9B90704CACBCC225025C309CA08
:1009630033CACB33CBCC33CC33D9F422F4600DC9A7
:10097300CCC313CB13CBCA13CAD9F6CC22E4FCFBEA
:10098300FA2214FCFBFA22080808EAC0E0EBC0E0F4
:1009930086F0E7A4FA180986F0E7A42AFA1809866C
:1009A300F0E7A42AFA180986F0E7A42AFA1986F0D0
:1009B300E7A4FBE5F02AFA190886F0E7A42BFBE588
:1009C300F03AFA190886F0E7A42BFBE5F03AFA1897
:1009D300180986F0E7A4C5F02BFBE43AFA1908E7F7
:1009E300C5F0C6A426F6E5F03BFBE43AFA1886F018
:1009F300E7A4F6E5F00826F6E43B08F6E43A08F641
:100A0300D0E0FBD0E0FA22E4CFC0E0E4CEC0E0E4E3
:100A1300CDC0E0E4CCC0E075F020C3E633F608E6D1
:100A230033F608E633F608E633F6181818EC33FC09
:100A3300ED33FDEE33FEEF33FFC3EC9709ED97097A
:100A4300EE9709EF97191919400FFFEC97FC09ED81
:100A530097FD09EE97FE191906D5F0BEECF709EDDF
:100A6300F709EEF709EFF7191919D0E0FCD0E0FD0B
:100A7300D0E0FED0E0FF222518C582C0E0E519349E
:100A8300FFC583C0E0E518C3958224F810AF08853D
:100A930083198582188008858319858218D2AFCE81
:100AA300F0A3E520F0A37808E608F0A3DEFAEFF060
:100AB300A3E58124FAF8E608F0A3E608F0A3E60824
:100AC300F0A30808E608F0A3E608F0A31581158152
:100AD300D0E0FED0E0F8158115811581E8C0E0EE85
:100AE300C0E022C0D02518C582C0E0E51934FFC597
:100AF30083C0E0E518C3958224F310AF08858319FA
:100B03008582188008858319858218D2AFC8F0A31F
:100B1300E9F0A3EAF0A3EBF0A37908E709F0A3D87F
:100B2300FAECF0A3EDF0A3EEF0A3EFF0A3D0E0F026
:100B3300A3D0E0F0A3D0E0F0A3E520F0A3E5F0F02C
:100B4300A322E9799EC608CAC608CBC608CCC6C389
:100B530070207996CACBCC7019798ECBCC7013796F
:100B630086CC700EF9802ACA33CACB33CBCC33CCB4
:100B7300331930E7F2CCCBCA3350147004EA30E0B7
:100B83000DE4CA3ACACB3BCBCC3CCC500209C3E9F7
:100B930013C6CC182313C6CB18C6CA18C6F922121B
:100BA30011B9B90003020BE4E490030178767909E3
:100BB3008002F0A3D8FCD9FA900B76AA82AB83907B
:100BC300008678A179018015E493A3AC82AD838A72
:100BD300828B83F0A3AA82AB838C828D83D8E9D9DD
:100BE300E77582E97583FA7402120EE8758201755E
:100BF30083237400120EE8851983851882E0C0E010
:100C0300A3E0F9A3E0FAA3E0FBA37808E0F608A3C6
:100C1300DFFAE0FCA3E0FDA3E0FEA3E0FFA3E0C056
:100C2300E0A3E0C0E0A3E0F5D0A3E0F520A3E0A3B8
:100C3300F5F010AF0885831985821880088583191C
:100C4300858218D2AFD082D083D0E0F8D0E032E8EA
:100C53000375F0108E1A8F1B85821F85831E8518DE
:100C630082851983E0CEA3E0CF851F82851E83EBA7
:100C7300C9EAC8EDCBECCAC3E833C8E933C9EA33E0
:100C8300CAEB33CBC3EA9EF51DEB9FF51CB35004AF
:100C9300AB1CAA1DEC33CCED33CDD5F0DAAE1AAFD5
:100CA3001B22D083D082ECC0E0EDC0E0E493A3FC30
:100CB300E493A3FDED4C600D120D7DEC24FFFCEDE0
:100CC30034FFFD80EFE493A3FCE493A3FDED4C60BC
:100CD3000D120E1AEC24FFFCED34FFFD80EFD0E083
:100CE300FDD0E0FCE493A3C0E0E493C0E0228519C7
:100CF30083851882E0A3FEE0A3F5207808E0A3F63D
:100D030008DFFAE0A3FFE0A3C0E0E0A3C0E0E0A3B4
:100D1300C0E0E0A3C0E0E0A3C0E010AF0885821804
:100D23008583198008858218858319D2AFD083D033
:100D330082020EEED083D082E9C0E0E493A3C3869F
:100D4300F0C5F095F0F908E493A386F0C5F095F0AB
:100D5300700BE493A3C3994005E9048002A3E475EF
:100D6300F002A42582F582E5F03583F583D0E0F91E
:100D7300E493A3C0E0E493C0E022C0E0C3E493960D
:100D8300087401939618400FE49366700808740181
:100D930093661870007019A3A3C3E49396087401B3
:100DA300939618A3A3400DD0E0D0E0D0E0020CE16D
:100DB300A3A3A3A3A3A3D0E022740480047402809A
:100DC30000CCC0E0EDC0E0E518C39CCCAD195001E8
:100DD3001D10AF068C188D1980068C188D19D2AF93
:100DE300120E89D0E0FDD0E0FC2274028000CCC05A
:100DF300E0EDC0E0E518C39CCCAD1950011D10AF68
:100E0300068C188D1980068C188D19D2AF120E45D9
:100E1300D0E0FDD0E0FC22C0E0C0F088F0E49366AF
:100E230070080874019366187000A8F0A3A3700BF0
:100E3300D0F0D0E0D0E0D0E0020CE1A3A3D0F0D01A
:100E4300E022CAC0E0E493A3C582CCC582C583CDAA
:100E5300C583F0A3C582CCC582C583CDC583DAE53E
:100E6300D0E0CA22C0E0C0D0C082C083E58AA2E33A
:100E730050069004C17401F0758A00C2EBD083D090
:100E830082D0D0D0E032CAC0E0E0A3C582CCC58214
:100E9300C583CDC583F0A3C582CCC582C583CDC52B
:100EA30083DAE6D0E0CA22C008C3E096F50808A3B7
:100EB300E096420808A3E096420808A3E096450896
:100EC3007001D3D008227009080808226016181888
:100ED30018C6C333C608C633C608C633C608C633E6
:100EE300C6D5E0EA22C09FF59FE473D09F22D0834A
:100EF300D082C09FE493C0E0740193C0E074029376
:100F0300F59F222518F58210AF08F5184002151930
:100F13008008F51840021519D2AF8519832274048D
:100F2300800A74038006740280027401C0E0F40432
:100F3300120F06D0E012119422BB0102E722C082F5
:100F4300C08389828A83BB0003E08002E493D08359
:100F5300D08222C0D0251810AF08F5185002051909
:100F63008008F51850020519D2AFD0D022C0E0C0D6
:100F7300D0E8C0E0E5A8D2AFC2C7A2E792AFD0E005
:100F8300F8D0D0D0E0326016080808C6C313C618DC
:100F9300C613C618C613C618C613C6D5E0EA22C3BD
:100FA300E0C696F608A3E0C696F608A3E0C696F652
:100FB30008A3E0C696F622251810AF08F5184002DC
:100FC30015198008F51840021519D2AF22E0667092
:100FD3001008A3E066700A08A3E066700408A3E0A3
:100FE3006622E76670100809E766700A0809E76673
:100FF30070040809E76622181818E6084608700AFC
:10100300E608C3337005E633F4220822191919E7F9
:10101300094709700AE709C3337005E733F4220966
:1010230022C3E09608A3E09608A3E09608A3E096FF
:10103300A2D265D03322C3E096F008A3E096F0086D
:10104300A3E096F008A3E096F022E627F60809E667
:1010530037F60809E637F60809E637F622E026F6FA
:1010630008A3E036F608A3E036F608A3E036F62236
:10107300E026F008A3E036F008A3E036F008A3E08A
:1010830036F022C0E0E8C0E0E58124FCF8E6A2E700
:10109300D0E0F8D0E022E056F608A3E056F608A325
:1010A300E056F608A3E056F622E657F60809E65797
:1010B300F60809E657F60809E657F622E056F0085F
:1010C300A3E056F008A3E056F008A3E056F022E6AA
:1010D30047F60809E647F60809E647F60809E6472A
:1010E300F622700422600D18C6C333C608C633C681
:1010F300D5E0F41822E4C396F608E496F608E496DD
:10110300F608E496F622C6F4C608C6F4C608C6F482
:10111300C608C6F4C622C3E09608A3E09608A3E077
:101123009608A3E09622C3E7960809E7960809E71D
:10113300960809E7962275D00075814075180175E8
:10114300190300020BA2E6F008A3E6F008A3E6F0F9
:1011530008A3E6F022E6084608C3134608336002F4
:10116300E633F422600C08C6C313C618C613C6D5EB
:10117300E0F422E0F608A3E0F608A3E0F608A3E013
:10118300F622E7094709C3134709336002E733F43B
:1011930022CAC0E0E6F0A308DAFAD0E0FA22EAF0C5
:1011A300A3EBF0A3ECF0A3EDF022E0FAA3E0FBA3A2
:1011B300E0FCA3E0FD22E5C754F84401F5C779013B
:1011C30022E7C33319471947194722E6C3331846A1
:1011D30018461846222518F582E43519F58322C2EC
:1011E300AF75D69F02000022120EF1EC5E00120EC4
:1011F300F1765F00120EF11A6000120EF16E6000BC
:10120300120EF1876000120EF1AD6000120EF1E8CC
:101213006000120EF1316100120EF1826100120EB4
:10122300F1326200120EF1EA6200120EF1B26300B3
:10123300120EF18F6400120EF1156500120EF124E7
:101243006500120EF12F6500120EF1406600120EBA
:10125300F1516600120EF1D66600120EF1656700B9
:10126300120EF1BD6700120EF1876800120EF1B87D
:101273006800120EF1F56800120EF1026900120EF9
:10128300F1916A00120EF1F46B00120EF1076D007A
:10129300120EF14E6F00120EF1596F00120EF16330
:1012A3006F00120EF16E6F00120EF1786F00120EC6
:1012B300F1826F00120EF18D6F00120EF1986F0024
:1012C300120EF1C96F00120EF1ED6F00120EF11143
:1012D3007000120EF1767000120EF1BA7000120E49
:1012E300F1D67000120EF14D7100120EF1857100EE
:1012F300120EF1D17100120EF12E7200120EF110C6
:101303007400120EF1967400120EF1717500120E34
:10131300F1727800120EF1C77800120EF1F3780023
:10132300120EF13F7A00120EF18F7A00120EF1E4E1
:101333007A00120EF1E57B00120EF17D7C00120E95
:10134300F1FF7C00120EF19F7D00120EF17B26004F
:10135300120EF1B42600120EF18E2800120EF1CDFA
:101363002800120EF1172900120EF1BC2900120EEB
:10137300F11B2A00120EF14F2A00120EF1BC2A00B3
:10138300120EF1D92B00120EF1E12C00120EF19C7A
:101393002D00120EF1DE3000120EF1873100120E15
:1013A300F17B3200120EF1DC3200120EF1F9330040
:1013B300120EF1063600120EF1BD3600120EF1C701
:1013C3003600120EF1FA3600120EF1C13700120E7A
:1013D300F15C3800120EF1C13800120EF1EA380048
:1013E300120EF10C3900120EF13B3B00120EF112FA
:1013F3003C00120EF1563C00120EF1C33C00120EDB
:10140300F17E3D00120EF1B03D00120EF1F43D00ED
:10141300120EF1273E00120EF17C3E00120EF1D1A6
:101423003E00120EF1653F00120EF1C73F00120E8F
:10143300F12F4000120EF1D84100120EF1C042000C
:10144300120EF1024400120EF1304600120EF1F0BA
:101453004600120EF11F4900120EF1C24900120E8E
:10146300F1004A00120EF1AC4B00120EF1C04B001A
:10147300120EF1CA4B00120EF1F44B00120EF100E2
:101483004C00120EF11F4C00120EF1D64C00120E3E
:10149300F1154D00120EF11F4D00120EF1D34D0048
:1014A300120EF1D24E00120EF1CB4F00120EF16864
:1014B3005000120EF10A5100120EF1215100120ECA
:1014C300F1585100120EF1765100120EF1BA51008B
:1014D300120EF1DF5100120EF1C55200120EF1315E
:1014E3005300120EF1AB5300120EF1BA5400120E58
:1014F300F1F95500120EF15B5600120EF11557006B
:10150300120EF1385700120EF10C5800120EF1575B
:101513005800120EF1995800120EF1035900120EE1
:10152300F1315900120EF16A5900120EF18F590070
:10153300120EF1175A00120EF13A5C00120EF199D5
:101543005C00120EF12D5D00120EF1995D00120E7A
:10155300F1ED5D00120EF16E9903120EF1AD9903D8
:10156300120EF1C6B101120EF120B201120EF17C7E
:10157300B201120EF1C8B201120EF1E3B201120E62
:10158300F114B301120EF131B301120EF13DB301A7
:10159300120EF1B1B401120EF1CAB401120EF131FF
:1015A300B501120EF144B501120EF152B501120E3E
:1015B300F106B601120EF1EAB601120EF1F0B7010F
:1015C300120EF176B801120EF180B801120EF1ED90
:1015D300B801120EF104B901120EF136B901120E5F
:1015E300F16FB901120EF199B901120EF1FAB901B5
:1015F300120EF11ABA01120EF138BA01120EF17E6F
:10160300BA01120EF1A4BB01120EF1F1BB01120ECD
:10161300F120BC01120EF196BC01120EF1BEBC0109
:10162300120EF1F7BC01120EF105BD01120EF15DB0
:10163300BD01120EF1ACBD01120EF1EBBD01120E94
:10164300F11BBE01120EF147BE01120EF152BE0193
:10165300120EF170BE01120EF132BF01120EF13CF7
:10166300BF01120EF177BF01120EF18DBF01120EF1
:10167300F196BF01120EF1EBBF01120EF1FFBF0194
:10168300120EF1FCC001120EF10FC101120EF12472
:10169300C101120EF1C6C101120EF149C201120EAF
:1016A300F107C301120EF112C301120EF138C40186
:1016B300120EF154C401120EF1A6C401120EF1E58B
:1016C300C401120EF1FAC401120EF13CC501120E4F
:1016D300F189C701120EF107C801120EF17AC80190
:1016E300120EF19CCA01120EF1B4CA01120EF1B727
:1016F300CA01120EF1C3CA01120EF1D7CA01120EAA
:10170300F1DFCA01120EF112CB01120EF1C2CB01AD
:10171300120EF138CC01120EF1ABCC01120EF15FB7
:10172300CD01120EF114CE01120EF133CE01120EC1
:10173300F1D3CE01120EF1DFCE01120EF10ACF0169
:10174300120EF10DCF01120EF177CF01120EF19FA0
:10175300D001120EF177D101120EF102D201120E55
:10176300F11BD301120EF1D8D301120EF111D401E2
:10177300120EF142D401120EF1E2D401120EF11253
:10178300D501120EF1EDD501120EF186D601120E1E
:10179300F111D701120EF1C2D701120EF144D80193
:1017A300120EF176D801120EF1B7D801120EF1A480
:1017B300B602120EF109B702120EF141B702120E70
:1017C300F190B702120EF1B2B902120EF195BB02FB
:1017D300120EF1F3BE02120EF128BF02120EF14AED
:1017E300BF02120EF1AFBF02120EF1E5BF02120EDD
:1017F300F108C002120EF135C002120EF191C002BF
:10180300120EF192AA02120EF113AB02120EF1495B
:10181300AB02120EF1B0AB02120EF123AD02120EA7
:10182300F13FAD02120EF184AD02120EF112AE02BF
:10183300120EF16BAE02120EF19FAF02120EF16D9A
:10184300B002120EF1E5B002120EF161B102120EF6
:10185300F1A3B102120EF1E4B102120EF118B302B8
:10186300120EF116B402120EF141B402120EF18CF3
:10187300B402120EF1D3B402120EF165B502120EC8
:10188300F11EB602120EF1008003120EF111800355
:10189300120EF1348003120EF1408003120EF15B3D
:1018A3008003120EF1A18003120EF1CC8003120EFD
:1018B300F1E98003120EF1628103120EF18B8103B1
:1018C300120EF1258203120EF1488203120EF1A4C7
:1018D3008D03120EF1B58D03120EF1068E03120E57
:1018E300F14B8E03120EF1F58E03120EF1A2940347
:1018F300120EF1527E00120EF1AA7F00120EF19C1D
:10190300FF02120EF1398C03120EF15A8C03120EE0
:10191300F13D8D03120EF1678D03120EF134FD01BB
:10192300120EF1A7FD01120EF1B2FD01120EF1D359
:10193300FD01120EF1559E02120EF1589E02120E77
:10194300F1129F02120EF13D9F02120EF1849F02CB
:10195300120EF1A99F02120EF1CA9F02120EF1FE9E
:101963009F02120EF137A002120EF160A102120EB5
:10197300F197A102120EF1B7A102120EF152A202C7
:10198300120EF117A302120EF14EA302120EF1C3AF
:10199300A402120EF166A502120EF15FA602120E48
:1019A300F188A602120EF1DCA602120EF19DA60129
:1019B300120EF1D0A702120EF165A902120EF1E682
:1019C300A902120EF119AA02120EF18ED202120E00
:1019D300F1DAD202120EF148D302120EF169D302E8
:1019E300120EF119D402120EF122D402120EF17565
:1019F300D402120EF19ED402120EF105D502120E7C
:101A0300F196D502120EF1D8D502120EF122D602AA
:101A1300120EF181D602120EF112D702120EF18BC1
:101A23005E00120EF190D702120EF1C5D702120E0C
:101A3300F1D7D702120EF1E9D702120EF12BD80219
:101A4300120EF134D802120EF1FCD802120EF195E7
:101A53009503120EF1598203120EF18F8203120EB7
:101A6300F1D88203120EF1288403120EF1ECD8018F
:101A7300120EF12BDA01120EF167DA01120EF126C2
:101A8300DC01120EF14FDC01120EF1E2DE01120E47
:101A9300F126DF01120EF1AFE001120EF147E10171
:101AA300120EF1AFE101120EF150E201120EF192AA
:101AB300E201120EF1D2E201120EF15DE401120E07
:101AC300F1CDE501120EF1F2E701120EF120E8016A
:101AD300120EF147E801120EF150E801120EF1D790
:101AE300E801120EF1F5EB01120EF1D59A03120E75
:101AF300F1E6E902120EF1F9E902120EF196EA0299
:101B0300120EF1D1EA02120EF1ECEA02120EF111F9
:101B1300EB02120EF156EB02120EF187EB02120EDC
:101B2300F1B8EB02120EF13EED02120EF10897032B
:101B3300120EF1459703120EF1879703120EF197D8
:101B43009703120EF18B8403120EF1A18403120E7C
:101B5300F11ECA02120EF14FCA02120EF169CB0234
:101B6300120EF143CC02120EF14FCF02120EF1C44A
:101B7300D102120EF1A48F02120EF1E98F02120E9E
:101B8300F1939002120EF13B9102120EF198910221
:101B9300120EF1F19102120EF1BB9302120EF13803
:101BA3009402120EF1629402120EF11F9602120EAB
:101BB300F13A9602120EF1899602120EF19F9602E5
:101BC300120EF1AC9602120EF1DC9602120EF1F235
:101BD3009602120EF1019702120EF15A9702120E9B
:101BE300F1B49702120EF1069802120EF110990247
:101BF300120EF1879B02120EF1219C02120EF16C60
:101C03009C02120EF1D09C02120EF1ED9C02120EF8
:101C1300F1F09C02120EF1F39C02120EF1669D028A
:101C2300120EF1819D02120EF1AD9D02120EF1E82A
:101C33009D02120EF1EB9D02120EF1FE9D02120E99
:101C4300F1259E02120EF1A19703120EF1AD970337
:101C5300120EF1E79703120EF1008002120EF12B20
:101C63008002120EF1ED8002120EF1728102120E49
:101C7300F1DB8102120EF1278202120EF1A682021B
:101C8300120EF1388302120EF1C48302120EF10612
:101C93008402120EF14F8802120EF1CF8902120E46
:101CA300F10E8A02120EF1D78A02120EF18B8B0209
:101CB300120EF13B8D02120EF1C78D02120EF17658
:101CC300EC01120EF130ED01120EF1A2ED01120E34
:101CD300F1B1ED01120EF12BEE01120EF19AEE01AC
:101CE300120EF1A4EF01120EF1CDEF01120EF16D00
:101CF300F001120EF1BBF001120EF12BF101120EE5
:101D0300F15FF201120EF13BF301120EF1ACF3019C
:101D1300120EF129F501120EF1EBF501120EF18607
:101D2300F601120EF1E1F601120EF14CF701120E5B
:101D3300F150F801120EF111FA01120EF1B0FA018D
:101D4300120EF122FB01120EF1DFFB01120EF1F96B
:101D53009A03120EF1FB9A03120EF1A78803120ED7
:101D6300F1D88803120EF1928903120EF1F8890358
:101D7300120EF175FB02120EF1AA9A03120EF1BBB9
:101D83009A03120EF1818A03120EF18F8A03120E47
:101D9300F1009B03120EF1A49803120EF1B4980301
:101DA300120EF1CC9803120EF1149903120EF1A541
:101DB3009203120EF12A9303120EF18E9303120E65
:101DC300F1F97F00120EF1249803120EF13E9803ED
:101DD300120EF14BED02120EF159ED02120EF1D378
:101DE300ED02120EF1ABEE02120EF136F002120EFC
:101DF300F1B18603120EF10A8703120EF1B58703C0
:101E0300120EF1CD8703120EF1498803120EF15F12
:101E13008803120EF16D8803120EF125D902120EFA
:101E2300F17AD902120EF176DB02120EF1A8DB026F
:101E3300120EF1CADB02120EF1E3DB02120EF1FC09
:101E4300DB02120EF106DD02120EF1A1DD02120E0B
:101E5300F10C8F03120EF1318F03120EF1418F0338
:101E6300120EF1748F03120EF1A58F03120EF1DA25
:101E73008F03120EF13C9003120EF14B9003120EDE
:101E8300F1559003120EF198F302120EF1BEF30214
:101E9300120EF1FBF302120EF10AF402120EF129F3
:101EA300F402120EF191F402120EF19AF402120EE0
:101EB300F1F9F402120EF11DF502120EF1DCF50236
:101EC300120EF1E9F502120EF1FAF502120EF141CA
:101ED3009A03120EF15E9A03120EF1B5E202120E8C
:101EE300F113E402120EF120E402120EF133E402C4
:101EF300120EF152E402120EF168E402120EF17CAA
:101F0300E402120EF1FFE402120EF162E502120E78
:101F1300F1E9E502120EF147E602120EF157E6026D
:101F2300120EF16F9603120EF1939603120EF1BB8C
:101F33009603120EF1E39603120EF128F602120E27
:101F4300F14FF602120EF170F602120EF1D5F602FF
:101F5300120EF18EF802120EF1A7F802120EF1B36F
:101F6300F802120EF1C7F802120EF1E5F802120E92
:101F7300F1EFF802120EF1F9F802120EF10CF90268
:101F8300120EF15DF902120EF196F902120EF1C56D
:101F9300F902120EF113FA02120EF162FA02120E94
:101FA300F17DFA02120EF187FA02120EF198FA028B
:101FB300120EF1DEFA02120EF11D9903120EF1DD7B
:101FC300C002120EF109C102120EF125C102120E56
:101FD300F138C102120EF14EC102120EF1BAC10262
:101FE300120EF1EDC102120EF11CC602120EF142E5
:101FF300C702120EF175C702120EF1C1C702120E0B
:10200300F1FAC802120EF122C902120EF137C90207
:10201300120EF147C902120EF18BC902120EF1E042
:10202300C902120EF1F0C902120EF15F9003120EF3
:10203300F17A9003120EF1A39003120EF1BD9003F7
:10204300120EF1E29003120EF1019103120EF11937
:102053009103120EF1479103120EF1619103120ED7
:10206300F1FD9903120EF166E602120EF16DE6021E
:10207300120EF179E702120EF1A9E702120EF1CF67
:10208300E702120EF1F2E702120EF114E802120E49
:10209300F14EE802120EF1B4E802120EF1EDE8027D
:1020A300120EF139E902120EF166E902120EF186FF
:1020B300E902120EF1A79303120EF1B99303120E64
:1020C300F19C9403120EF19F9403120EF19291036B
:1020D300120EF1049203120EF1429203120EF183D7
:1020E3009203120EF143FD02120EF1A9FD02120E2C
:1020F300F181FE02120EF18FFE02120EF19EFE021C
:10210300120EF1A8FE02120EF1AFFE02120EF1E35F
:10211300FE02120EF124FF02120EF17BF002120EE8
:10212300F197F002120EF1E6F002120EF102F10243
:10213300120EF133F102120EF143F102120EF12FDE
:10214300F202120EF139F202120EF146F202120EEF
:10215300F156F302120EF16AF302120EF173F30257
:10216300120EF1E0DD02120EF100E202120EF10591
:10217300E202120EF1B79903120EF17D9A03120EC9
:10218300F1EFA301120EF1C3A201120EF117A20186
:10219300120EF168A001120EF1239E01120EF19AA4
:1021A3009D01120EF1419D01120EF1D59C01120EFB
:1021B300F1AC9C01120EF1395E00120EF1275E00A4
:1021C300120EF19F9A01120EF16B9A01120EF18118
:1021D300B001120EF163B001120EF1389A01120E22
:1021E300F11C9A01120EF1389901120EF1F09801C7
:1021F300120EF1259701120EF1A59601120EF1A20E
:102203009601120EF1BC9501120EF18A9501120E80
:10221300F1C79401120EF1F29201120EF1A892018C
:10222300120EF17A9201120EF1779201120EF164FD
:102233009201120EF1FC9101120EF1EB9101120EBB
:10224300F1D09001120EF12BAF01120EF188AE0105
:10225300120EF135AD01120EF1E6AA01120EF18153
:10226300AA01120EF1669001120EF1299001120ECD
:10227300F1CA8F01120EF139AA01120EF1998F01E1
:10228300120EF1548C01120EF1458B01120EF1D492
:102293008A01120EF1ACA901120EF151D702120EEE
:1022A300F1998A01120EF1648A01120EF1588A0122
:1022B300120EF1B88901120EF1FF8801120EF1D24C
:1022C3008601120EF15E8401120EF11C8401120EBE
:1022D300F1E78201120EF19C8201120EF1CE81010F
:1022E300120EF1258101120EF1C18001120EF1FBD4
:1022F3008001120EF19FA901120EF1A2A7020000A4
:102303000080FBE473000136360101000102010085
:102313000103010001040106060502000007010094
:10232300340801000F090401010D0100FF0E08002C
:102333000017020000190100FF1A0100011B010030
:10234300FE1C0100081D0200001F01000120010006
:1023530001210200002301000F24020000260100D6
:102363000127010008280200FF2A0100072B0102B0
:10237300402C0100002D0100012E0100012F01005E
:10238300FF30010B1C310800003A0100083B01003B
:102393000F2F010000010171010101010111010170
:1023A300013101010101018001100161013B0014B0
:1023B300006301730172016201430100011301060D
:1023C300013D01350004011201000100010001007B
:1023D3000104010401330133013C0144013201369C
:1023E30000000100016501000135008101000105C4
:1023F30001820183010001030071003001600011BB
:1024030000700031022003500480001000610000BE
:1024130000140063007300720062004300000013A5
:10242300000600000000000400120000000000008D
:1024330000000004000400370037003C02440000A1
:10244300000000000000006500000035008100006E
:102453000005000000830000000103710301030174
:102463000301030103010322030203010310030019
:1024730003000300030003000300030003420300FF
:1024830003240306030003000304031203250323A9
:10249300032503230304030403000300030003448D
:1024A30003000300032303000365032100350381B5
:1024B300030003050300030003000303027102305A
:1024C3000160021102700201020202020280021084
:1024D3000261023A00410063027302720262024324
:1024E300020002130238000002000204021202007A
:1024F3000200020002000204020402370037003C1B
:1025030002440200023900000200026502000235A3
:1025130002810200020502820283020002360001E8
:1025230000060000000F0000000000000000000093
:1025330000000003FFFF00000403FFFF0000FFFF94
:102543000FF4010005C4040320000100000B000088
:1025530000000000000003010F0100FB1C020071DA
:102563001C0300771C04007D1C0500831C06008FE0
:102573001C1100A71C1400AD1C1500A11CFFFF00BB
:1025830000FF152F1605160B1629161D16171635DF
:10259300163B1641164D161116F915F31503EAF5F8
:1025A300E5D5D5C5B5A595958585757565655555E8
:1025B3004545353525251515050AD113029B130508
:1025C300AD1307A1130C7D130D8F13FF000000162D
:1025D3000F00000B150B020002220F32000006E968
:1025E30016FB160117C9150717C315CF154917672A
:1025F300176D174F175B1755170C0E020B040B0AB9
:102603000708000F00383C3E363B3B352B432C007C
:102613000119161816161523030000034948424DE5
:102623001817250502303017181921301B1D1F30CC
:10263300303016181920231A1C1E303D170D17139E
:10264300171F171917231647166117531659160222
:10265300040201010101090200000000000000BEA4
:10266300040A040015000E00280008040C0A0309DC
:1026730008FF1E1E0F040C0574F7120A7AE9900373
:10268300B0F0900365E4F01220B59003B5E4F0A335
:10269300F09003B1F0A3F01215091220BB9003349C
:1026A300E4F0A3F090267793FA79021221510253B2
:1026B3002C74F2120A7AEAFEEBFF548060699003ED
:1026C300B0E0F91219FB8A088B09EA4509604F7CCF
:1026D3000080010CEC75F003A4F8A9F074BC28F594
:1026E30082742539F583E493F4602CE493F8850828
:1026F300828B83E06870DCAA08EC75F003A4F8749D
:10270300BD28F582742539F583E493C0E074019301
:10271300F583D082122306AA08AB091219EFEEFA49
:10272300EF6480FB022881EF5420601D12142B8A72
:10273300088B09EA4509600A12138FAA08AB09122C
:1027430019EFEEFAEF642080DAEEA2E0501A90035C
:102753006AE0640F700B7900121359E960031228C1
:1027630084EE6401FAEF80BB5420700302284F7596
:102773000C00123D718B09EA450970107C027D0043
:102783007A207B009003B0E0F9121B0F7C007904E0
:102793007A007B001214078A088B09801885088247
:1027A300850983A3A3A3A3A3A3A3A3A37401F08570
:1027B3000A08850B09E5084509606D7C007904AAC0
:1027C30008AB091214078A0A8B0B750C01E5082460
:1027D30004F8E509123B1524FFF0A3E034FF125D72
:1027E300E470CC850882850983A3A3A3A3A3A3A331
:1027F300A3A3A3E0640170A5850882850983A3A32D
:10280300A3A3A3A3E054047094850882850983A33A
:10281300A3A3A3A3A3A3A3A37406F07AB7850882F3
:102823008509831229B080871213D77C0079017A36
:10283300007B001214078B09EA45097009E50C7047
:10284300057A20124CCBEE6420022767EF54026016
:102853000B121503EEFAEF6402022726EF5404600D
:1028630019124E62124D8279019003631250E612DF
:10287300129FEEFAEF64040227267A007B00022AF5
:10288300B7900BF212316E12137122C082C083749F
:10289300EA120FBA851882851983AA82AB83794B12
:1028A30012212774081211D87402F074091211D876
:1028B300AA82AB83795012212774131211D8E41220
:1028C30052B5122145741602428F74F7120A7A74B4
:1028D300E1120FBAEAFEEBFFEE4F603385188285F3
:1028E3001983AC82AD8312144F74061211D8E060C1
:1028F3001E74171211D8E0FD74011211D8E0FCEE1A
:10290300FAEFFB79001221D5E9600479A4800279FA
:102913000002532774F6120A7AEAFEEBFF8E828FC7
:1029230083A3A3A3A3A3A3E05440601B1257A41241
:102933002A7E60067AFF7BFF801A8E828F83123F86
:102943001BFAA3E0FB800312147374FE6A70037412
:10295300FF6B60411257A4124D0F1214C7E98E8208
:102963008F8360061229A9E480051229A97401F056
:102973007C5F7D138E828F831250E612214BE9F523
:10298300087015EE4F60097901EEFAEFFB1213E3BD
:10299300A908024D407508CDAA088E828F8312299B
:1029A300B0E960DF80EAE0240D1243EA22E0240C60
:1029B3001243EAE0F912136B2274F6120A7AE9FE63
:1029C300EAFF7A0F7B001219E9EA4B60198A828BBE
:1029D30083740CF0EEA3A3F0EF8A828B83A3F0122F
:1029E3004D6B7900802FEEF912140D8A088B09A81C
:1029F30008A909E849601C88828983A3A3A3A3A328
:102A0300A3A3A3A37406125A0BE0F9121323EEF93E
:102A13001213E97910024D40C082C08390036AE02B
:102A2300640F7014EA4B6010900365E0640860055E
:102A3300E064047003122A3E0242B9EAFCEBFD7A19
:102A4300017B009003B0E0F9121B0922C082C0830E
:102A53007900EA241DF582EB123F1824FD600B1464
:102A6300600824FD600424FD7001090242B98E82CE
:102A73008F83A3A3A3A3A3A3A3A3A3122A82221294
:102A83003F60FB1214C7E9228E828F83A3A3A3A303
:102A9300A3A3A3A3A3122A826402228E828F83A3F9
:102AA300A3A3A3A3A3A3A3A31242B0900356E068D6
:102AB30022120F567F06020CF174F4120A7A74FD87
:102AC300120FBA8A088B098A828B83A3A3E0F912B7
:102AD300140D8A0A8B0BAE0AAF0BEE4F7003022B59
:102AE300C3850882850983A3E064F1603085088289
:102AF300850983A3E064CD6024850882850983A3C7
:102B0300E0641A6018850882850983A3E064E9609C
:102B13000C850882850983A3E064E17008790012BB
:102B230013E3E9706C850882850983A3E0C0E07430
:102B3300021211D8D0E0124294EEF0A3EF1235DC6A
:102B4300851882851983AA82AB8370051212878048
:102B5300031214AF74021211D8E064E970338E8249
:102B63008F83122BCF750A01780A120F2D750AE98C
:102B7300780A120F2DE508240CF582E5091230BE00
:102B83001235B9FCA3E0FD8A828B831235D3120F71
:102B9300568E828F83A3A3A3A3A3A3A3A3A3E064BB
:102BA3000270108E828F83A3A3A3A3A3A3A3A3A3C3
:102BB3007406F0850882850983A3A3E0F91213E95B
:102BC3001213D7900BF6122887023173E0F8A3E0B3
:102BD300F9E8FAE9FB2274F4120A7AEAFEEBFF75CC
:102BE30008008E828F83A3A3A3A3A3E0604275088A
:102BF300088E828F83A3A3A3A3A3A3A3A31241C37A
:102C03008B0BEA450B601075082C8E828F83A3A370
:102C1300A3A3A3E0D2E0F08E828F83A3A3A3A3A3F5
:102C2300E0540364016003022CC2430811022CC266
:102C3300EE24181231806033EE241A123180700FA3
:102C4300122A9E7003A3E06970757508228070EEE6
:102C5300241BF582EF122CC7241AF582EF1235E4F8
:102C6300EE24191257D81213118054122A8B7003B1
:102C7300750801122A9E7003A3E0697006E508D265
:102C8300E1F508E50860158E828F83A3A3E0700643
:102C9300E508D2E58004E508D2E6F508122A716456
:102CA300017006E508D2E0F5088E828F83A3A3E0C6
:102CB300600D122CD564016006E508C2E0F508A991
:102CC30008023178123F06122CCE22E0FCA3E0FD6D
:102CD300EE22123F00123F38F91214B5E922C082E6
:102CE300C08379018A828B83A3A3E0C3940240014A
:102CF300198A828B83A3A3A3A3E0C394024002791E
:102D0300008A828B83A3A3A3A3A3A3A3A3A3E064A7
:102D1300F87003A3E0F460458A828B83A3A3A3A383
:102D2300A3A3A3A3A3E064F97003A3E0F4602E8A32
:102D3300828B83A3A3A3A3A3A3A3A3A3E064FA7097
:102D430003A3E0F460178A828B83A3A3A3A3A3A3A3
:102D5300A3A3A3E064FB7003A3E0F4700279008AE9
:102D6300828B83A3A3A3E0F8900353E06860027906
:102D730000902676E493C394805013EA2411122D15
:102D830094902676E493C333C398500279000242A9
:102D9300B9F582EB124D9BF82274F0120A7A74DEB5
:102DA300120FBAEAFEEBFF8E828F83A3A3A3A3E0E5
:102DB300600E900BF4124D376006900BF4122887C7
:102DC30074031211D8AC82AD838E828F83A3A3A325
:102DD300124DB91255F2E9600F74031211D8AA8289
:102DE300AB83121389E9700879011220C70230B34B
:102DF300EE241B123F0B74101211D8124D8274096A
:102E03001211D8E06021741A1211D8E0FD74041273
:102E130011D8E0FC8E828F831250E479011221D500
:102E2300E96004790280C374031211D8AA82AB83C8
:102E3300121383E9F50A74091211D8E0702A90037A
:102E43004DE060247422550A6422601C7442550AC2
:102E5300644270CF74201211D81230C9600A7420F2
:102E63001211D81230C270BBE9A2E65041740312AA
:102E730011D8AA82AB83121377E97003022DEB7486
:102E8300201211D8123F1B6403700F74201211D843
:102E9300A3124D29A3E0640D601474031211D8AA80
:102EA30082AB831214D9E9640170030230B3EE24B8
:102EB3002C1230BB1233EF7003A3E069701C75084A
:102EC300007808120F2D7808120F2DEE242E1257BA
:102ED300D81230CF1235D3120F5674091211D8E01D
:102EE3007003022F901230CF1250E61215278A0872
:102EF3008B09EA4509700302302D74041211D8E0DE
:102F0300F88E828F83A3A3E028F8A3E03400F9E8C6
:102F1300240DF582E9122D978A828B83A3A3A3E064
:102F230068601CE88A828B83A3A3A3F09080A0121D
:102F330011AD850882850983A3A3A3A31211A179E7
:102F430004E91211D81255CF2AF8A3E0340088827D
:102F5300F583A3AA82AB831219DD8A0C8B0D8C0E29
:102F63008D0F850882850983A3A3A3A3780C120E72
:102F7300AA40030230B3908098780C121060850841
:102F830082850983A3A3A3A3780C12114990036537
:102F9300E064046008E0640960030230B3E50AA258
:102FA300E5400302306BEE242E12318085188285B2
:102FB3001983F0EE242F123180C0E074011211D86E
:102FC300D0E0F0EE2430123180C0E074021211D848
:102FD300D0E0F074141211D8E064017027740E125B
:102FE30011D8123F11EE2412123180687003A3E04E
:102FF300697011740C1211D8122A98700774141284
:1030030011D8E4F0EE24241230BB120DBC74041268
:1030130011D8AC82AD8374071211D8AA82AB831284
:10302300128D7404120F560230B39003AAE06401A8
:103033006003022F9074201211D81230C97009E571
:103043000AA2E65003022F9074101211D8E0F47014
:1030530003A3E0F4605AEEFCEFFD74031211D8AA47
:1030630082AB831213958048A2E650447420121158
:10307300D81250F5701A741A1211D8E06402703025
:1030830074031211D8AA82AB8379001214A380208F
:1030930074201211D81230C27016741A1211D8E0AB
:1030A3006404700C74031211D8AA82AB8312149DAA
:1030B30074220254A1EE240BF582EF123F06221272
:1030C30057B6E0640722123F38640622EE242A1220
:1030D3003F03122CCE2412123F032274F4120A7AF5
:1030E300EAFEEBFF8C088D099005B4E0600F122A0D
:1030F3009E7003A3E06970051212FF804F790012DE
:1031030050D912132F8A828B83E58245836035A3BE
:10311300A3A3A3A3A3E05418602AE508241BF58204
:10312300E5091230BE120DC01237AF1230BE120DB8
:10313300C0EE24181257D8123151121341740412DD
:103143000F568008790012315112130580278E82A1
:103153008F83A3A3A3A3A3A3A3A3A3122CCE240B64
:10316300F582EF12316A223400F583123F60FB22AD
:103173007403120F567F04020CF1EE2417F582EF4D
:10318300124D9B2274F7120A7A74F7120FBAEAFEF1
:10319300EBFF900365E06403600DE064016008E009
:1031A300640960030232698E828F83A3E0600302A5
:1031B30032487C007D007A027B001220C1EE24029B
:1031C300FAEF123B1C123F11900356124D827953B2
:1031D30012212D790012326EE064096009900363B5
:1031E3001250E61215218518828519837401124D38
:1031F300589003657404F074011211D8AA82AB834A
:10320300794A12212774011211D8AC82AD837A5BFB
:103213007B031220DF9003561255E87A037B0012DA
:1032230020C19003591255E87A047B001220C19003
:103233000350E0A2E35004D2F08002C2F0124D45E5
:10324300122884801E8E828F83A3AE82AF83FC7D7F
:10325300007A037B101220C18E828F83E0F9123231
:103263006EE4F01213BF7409025329900363123101
:103273006E12129F90036522C082C08390033412A2
:103283004D37701F900365E014600924FC600A1435
:10329300600C800F90033C8032900338802D9003A4
:1032A3003A8028E84960089003351235B3700C8AD8
:1032B300828B83A3E0F9121293801B90033512389B
:1032C3004B70051214F7800E9003D2124D3760062F
:1032D300124D291223060242B974F4120A7A74FBBE
:1032E300120FBA8A088B097A0F7B001219E98A0A2E
:1032F3008B0BAE0AAF0BEE4F70030233E38E828F5C
:10330300831252B37950122127850882850983A33A
:10331300E060030233CB900363E0F47003A3E0F4B3
:103323006034900363E064FE7003A3E0F4602785D8
:1033330018828519831233EF7003A3E06960178540
:103343000882850983A374EA1235E97A637B0379DA
:103353005012212D80728518828519831257971276
:103363004D827A567B037953122127900356124DCF
:10337300B3124D827A597B03794B1221277A587BFA
:103383000379E112212790036AE0C3940F5021903F
:103393000358E0C0E074021211D8D0E0F0740412B4
:1033A30011D87401F0041211D8AA82AB8312213F01
:1033B300750A00780A120F2D780A120F2D900C143B
:1033C300E0F91235CA120F56850882850983123334
:1033D300E8A3F09003657403F0EEFAEFFB124D6B74
:1033E3007405023175A3E08E828F832212579BE00E
:1033F30068221243F12274F5120A7A74D8120FBAB2
:103403008A088B098A828B83A3A3A3123F3D741579
:103413001211D8AC82AD838A828B83A3A3A3A3A307
:10342300A3A3A31235B9FAA3E0FB1213C5741512B3
:1034330011D8E0706B850882850983A3A3A3A3A396
:10344300A3A3A3E0C3940B40578E828F83A3A3A3AC
:10345300A3A3A3A3A3E064027046EE240B1231805E
:10346300F4703D900365E06402603AE06406603501
:10347300900334124D3760051235B3604F900365E6
:10348300E064086005E06404701674171211D8E054
:10349300F9741C1211D8AC82AD831250D91213CB1C
:1034A3007428025C91900334124D37701F75080025
:1034B3007808120F2D7808120F2DEE24101230BB4E
:1034C3001257F0123C041235D3120F568E828F839B
:1034D300125055123B2E123F1174021211D8124D85
:1034E30082EE240D123180C0E074041211D8D0E0B2
:1034F3001235DCF508A3E0F509740F78081211679B
:1035030074051211D8E508F074191211D8E0C0E05F
:1035130074061211D8D0E0F0741B1211D8E0C0E089
:1035230074071211D8D0E0F074161211D8E0C0E07D
:1035330074091211D8D0E0F074171211D8E0C0E06A
:1035430074081211D8D0E0F0EE2410123180C0E0DC
:10355300740A1211D8D0E0F0741A1211D8E0C0E046
:10356300740B1211D8D0E0F074271211D8E0C0E028
:10357300740C1211D8D0E0F0741C1211D8A982AACD
:103583008389088A09750A007808120F257C087D4B
:103593000074101211D8AA82AB831248E6120F5698
:1035A300851882851983AA82AB831212990234A3E8
:1035B300123851640122E0F98A828B83A3A3A3A367
:1035C300A3A3A3A3A3E0229003631255EC90035992
:1035D30012316E121485740222F0EE240B124D98F0
:1035E30022124D9BFA22F07A567B0379531235F45B
:1035F3002212212D7A597B03794B12212D22F012AD
:1036030057FB2274F2120A7A74F8120FBAEAFEEB2D
:10361300FF8C0A8D0B890C851882851983AC82ADCA
:10362300837583807582587408120E89F50DEEFC3C
:10363300EFFD851882851983AA82AB83124FB6707A
:1036430003750D019003B1803BEEFCEFFDE508240B
:103653000BFAE5093400124FB5601E85088285090F
:1036630083A3A3E0650C7011850882850983E06557
:103673000A7004A3E0650B6038E5082414F582E5BD
:10368300091230BE123B26E50845096024E50DA268
:10369300E040B6850882850983E0650A7004A3E0EB
:1036A300650B70D5850882850983A3A3E0650C703B
:1036B300C8AA08AB097408022AB4C082C083900365
:1036C300B10242B674F7120A7A9003B1123F6080D6
:1036D30012EA2414F582EB1230BE123F3D121A6730
:1036E300EEFAEFFBEA4B70E99003B1E4F0A3F002CA
:1036F300532C7F07020CF174F1120A7AEAFEEBFFF6
:10370300890A8C088D098E828F83E08C828D8312C7
:1037130041CDAE82AF83E01249A6124917C41249C4
:10372300A61237B8E054038C828D83124915A2E2A6
:10373300E4338C828D83124914131313541F1249DB
:10374300A6124913A2E7E4338C828D83A3A3A3A318
:103753001237B88E0C8F0D750E00780C120F257C66
:10376300087D00E508240712555B120F561255C653
:103773008E0C8F0D780C120F257C037D00E5082439
:103783000F12555B120F56E50AC3940F40148E8235
:103793008F83A3A3A3E0C0E01237AF1230BED0E003
:1037A30080061237AF1259FFF00236F5E5082412EE
:1037B300F582E50922A3A31241D10EAF832274F44B
:1037C300120A7A74F9120FBAEAFEEBFF8908900322
:1037D30034124D37600E12384B7009EEFAEFFB12BC
:1037E30014F1805F900363E06E7003A3E06F705386
:1037F3007401650860097A777B03124FB670447AC7
:10380300007B02123D758B0BEA450B703690036605
:103813001211AD8518828519831211A190036CE0F2
:10382300C0E074041211D8D0E0F074051211D874FA
:1038330001F074061211D81252B3121263E9609B9D
:103843001212697407023175123851640222125739
:10385300B7A3A3A3A3A3A3E02274F5120A7A8A0849
:103863008B098A828B83A3AE82AF83E0F91212B7EE
:103873008E828F83E064EB600C850882850983A3C5
:10388300E064E17009850882850983A3E4F01228C6
:1038930084750A01780A120F2D850882850983A38E
:1038A300E0F5087808120F2D79001235CA120F5669
:1038B3001213D7025C94EAF0A3EBF00242B974F658
:1038C300120A7A9003B4E0701B7C0079017A007BC2
:1038D30000121407EA4B600C8A828B83124D376007
:1038E30003121365024D40C082C083123D5D401038
:1038F30079FF121401E9F890266FE493C3985004FA
:103903007901800279000242B974F0120A7A8A08B6
:103913008B09890B750C008A828B83A3A3A3A3A3B2
:10392300A3A3A3E0F912140D8A0E8B0FAE0EAF0FF3
:10393300750A01EE4F60030239EA8508828509831F
:10394300A3A3A3A3A3A31255E8850882850983A390
:10395300A3A3A3A3A3A31246E61250E61213F58A68
:103963000C8B0DAE0CAF0DEE4F7003023B0D8E8230
:103973008F83A3A3A3A3E4F0A3F0E508240B123BD6
:1039830019E0C0E01230B8D0E0F01214CDEE240CF0
:10399300F582EF124D0BE508240EF582E509123F7F
:1039A3000EEE240EF582EF124D7F750C01EE240608
:1039B300F8EF123B15547FF0A3E054FC12584DE08E
:1039C30054046003023A70900BFA1246D7740778D6
:1039D300081210E58E828F83A3A3A3A3A3A3E045BC
:1039E30008F0A3E04509F08E828F83A3A3A3A3125B
:1039F3003B2474077808121167E5085407F508E5B6
:103A03000B607A8E828F83A3A3A3A3A3A3A3A3A3F1
:103A13007402124918240D1243E6E0A2E2500B90FF
:103A23000351124DB3A3A3124D82E5087003023A6A
:103A3300E2EE2406F8EF3400F9E8FAE9FB8A828B18
:103A430083E0547FFCA3E054FCFDE50824FFF50864
:103A5300E434FFF509740778081210E5EC4508F81B
:103A6300ED4509F98A828B83124D8280728E828F93
:103A730083A3A3A3A3A3A3E044800239E9E50870C9
:103A830005750A0080598E828F83A3A3A3A3A3A3E2
:103A9300E0542060121219E3EA547F245F8E828F70
:103AA30083A3A3A3A380238E828F83A3A3A3A3A310
:103AB300A3E05410600A1219E3EA540F240A80DDCC
:103AC3008E828F83A3A3A3A37401F0A3E4123B2EDE
:103AD3007404123D6C8B09EA45097003124CFEE530
:103AE3000CA2E050288E828F83A3A3A3A3125319A1
:103AF300F9EEFAEFFB1213FBE96012124D2D60038E
:103B0300123EF6EEFAEFFB121A67750A00A90A02D3
:103B130054A4124E7622FAE5093400FB8A828B8381
:103B230022A3A3E0F508A3E0F50922123B322212F7
:103B33005577A3A3A3A3A32274F4120A7A74F712EA
:103B43000FBA7E0012140DEA4B7003023BFD8A820A
:103B53008B83A3A3A3A3A3A3A3A3A3E064066003EC
:103B6300023BFD8A828B83A3A3A3A3A3A3A3E0FFAA
:103B73008A828B831243F9E0C0E074081211D8D013
:103B8300E0123F31124FBC124D8212141FEF540842
:103B930060668518828519831255E87A007B0012C6
:103BA30013EF8B0BEA450B704F9003631240211206
:103BB30021577C007D007A007B0080288E828F83D2
:103BC300123F1BF47003A3E0F4602D900363123CD7
:103BD300041250E6121E21E9641A601C7C007D0069
:103BE300EEFAEFFB1213EF8A0A8B0BAE0AAF0BEE62
:103BF3004F70C9790012215D7E01EEF9740902311B
:103C030075123C0822E0FCA3E0FD8E828F8322C064
:103C130082C083EA4B70059003B580068A828B834A
:103C2300A3A3123E2160258A828B83A3A3A3A3A30C
:103C3300A3A3E0540860E5EC4D60158A828B8312E0
:103C43003F1B6C7003A3E06D70D280047A007B008D
:103C53000242B974F2120A7AEAFEEBFF890A8C086F
:103C63008D097A107B00121A61EA4B603F8A828BBE
:103C730083A3A3A3A3A3A3A3A3A3E4123F1FA3E527
:103C83000A1257BDA3123CB98A828B83A3A3A3A3B1
:103C9300E4F0A3123F2BA3F0125651EA240CF58251
:103CA300EB1241BD123CB2A3A3F0A3F0022AB7A3C7
:103CB300F08A828B8322A3A3E508F0A3E509F0220F
:103CC30074F4120A7AEAFEEBFF89088C0A8D0BEE74
:103CD3004F60557401650870147901121401E9F8F5
:103CE300902673E493C398500F7911806A74046526
:103CF30008702F123D5D40F18E828F83A3A3A3A38F
:103D0300A3A3A3A3A3E5081241CDA3125D1E8E8234
:103D13008F83A3A3E4F0A3F09003B5124D37602182
:103D2300800D7402650860D079C1802BE0F8A3127E
:103D33004DACA3A3123E2188828983A3A370ED8097
:103D4300039003B5EEF0A3EF123D6C8B0BEA450B2A
:103D53007003124CFE79000231787904121401E9E0
:103D6300F890267AE493C39822F0123D71227A20C8
:103D73007B009003B0E0F9121B1B22C082C083E9D1
:103D8300F879009003B5801D8A828B83A3A3A3A334
:103D9300A3A3A3A3A3E068600574FF687001098A65
:103DA300828B83A3A3123E2170DE0242B974F71201
:103DB3000A7AEA4B70059003B580068A828B83A347
:103DC300A3123E2160248A828B83A3A3A3A3A3A36C
:103DD300A3A3A3E06970E4EC60148A828B83E024DC
:103DE3000D1255D9A2E240D380047A007B0002531E
:103DF3002CC082C0839003B580068A828B83A3A3E1
:103E0300123E2160128A828B83A3A3A3A3A3A3A33D
:103E1300A3E06970E580047A007B000242B91231A5
:103E23006EEA4B2274F2120A7A8A0A8B0B8C0C8D7F
:103E33000D750800750900EA450B602E9003B580E7
:103E4300068E828F83A3A3123E74601EAC0CAD0D4D
:103E5300EEFAEFFB850A82850B83122306E96401E0
:103E630070DFEEF8EFF988088909AA08AB09022A7E
:103E7300B7E0FEA3E0FFEE4F2274F7120A7A900335
:103E8300B5123F117C007D00800DE8FCE9FD8882BE
:103E93008983A3A3123F11E8496030EA687002EBFB
:103EA3006970E79003B51250E6E86A7002E96B881F
:103EB300828983A3A37008123F119003B58009126E
:103EC3003F118C828D83A3A3124D8202532C74F76E
:103ED300120A7AEAFEEBFFEE4F6015121419123F35
:103EE30043124D2D6003123EF6EEFAEFFB121A67F2
:103EF30002532CEE240C123F03123F5822EE241DD2
:103F0300F582EF3400F58322F582EF123F06124269
:103F1300B022F582EF123F06123F3822123F2322CE
:103F23001257C5A3A3A3A322123F23A3A322123C88
:103F3300B3123F38221257B0E022E0FEA3E0FF2283
:103F43008E828F83E0241C1243EA123F588E828FA5
:103F530083123F5822123F60FB121A6722E0FAA332
:103F6300E022C082C083EAFCEBFDEC4D70047905CE
:103F73008044EC24FBF582ED34FF124D35700712BB
:103F83003FBCE0F460051219EF80E39003B0E0C09A
:103F9300E0123FBCD0E0F0902670E493F97AB77B4F
:103FA30003121A19E96401700B7A007B20124D0287
:103FB3007900800279040242B9EC24FFF582ED34E2
:103FC300FFF5832274F4120A7AA2AFE433F508C230
:103FD300AF9003B7123E746038EE24FBF582EF34E2
:103FE300FF124D357A007B209003B06005124D051A
:103FF3008005E0F9121A25E4F50AF50B780A120F89
:1040030029EEFCEFFD7AB77B03121A137402120F29
:1040130056E508A2E092AFEEFAEFFB0231781255B3
:10402300EC851882851983AA82AB832274F2120A63
:104033007A74FC120FBAEAFEEBFF750AFE750BFFEA
:104043001213DDE9600579110241B2EE2415123134
:10405300806037900C0EE0C43354E0F8E0333354FF
:10406300FC48C0E0EE24151230BBD0E01241CD1263
:1040730041C38B09EA45096011750AFFEE240F124B
:1040830031804404124D90D2E0F08E828F83122A45
:104093007C6006EE24121241BAEE241312318070B2
:1040A30010902676E493C0E0EE24131230BBD0E0E8
:1040B300F08E828F83E0A2E750045403801CEE2429
:1040C300141231807015900342E0C0E0EE24141204
:1040D30030BBD0E0F0900342E004F0EE2411123143
:1040E30080640170169005ABE0600D90034DE070A5
:1040F3000A8E828F83E070031241B78E828F83E032
:1041030064017013EE240B123F1564027009EE2450
:104113000F1231804440F0851882851983AC82AD3B
:1041230083EEFAEFFB1214438A088B0974FE650AC7
:10413300700374FFF470098E828F83A3A3125567F3
:10414300EA450960668E828F83E0C0E07401121134
:10415300D8D0E0F074021211D8125655740112111E
:10416300D885820C85830D780C120F29EE240F124B
:1041730030BB120DC0EE240E123180F50C780C12F8
:104183000F2D900356120DC074071211D8E0F9AC2D
:104193000AAD0B12143D7407120F56E9FE74106E2C
:1041A300700BAA08AB09121A6780027E10EEF9742D
:1041B30004022AB4EE2411F582EF123F06E4F02242
:1041C300A312316E79FF122277221241D122F08E8F
:1041D300828F83A322C082C08374DE120FBA8A82C5
:1041E3008B83A3A3A3A3123F11740E1211D8E8F07B
:1041F300A3E91242A7740C1211D81242A0240DF5A0
:1042030082EB123183C0E0741A1211D8D0E0F0129D
:1042130054B4EB123F0E74201211D81242A024158D
:10422300F582EB123183C0E074081211D8D0E0F0AC
:10423300EA241CF582EB123F0E74121211D81242BB
:10424300A02411F582EB123183C0E074091211D856
:10425300D0E012429474FFF074011211D874FFF08D
:1042630074021211D874FFF09080A0120DBC740474
:104273001211D8AC82AD8374071211D8AA82AB8312
:1042830012128D7404120F5679007422120F568085
:104293002512429822F085188285198322E8F0A31B
:1042A300E9F0EA22123CB3A31242AF22A3E0F8A33F
:1042B300E0F9221250E6D083D082020EEE74EC12A3
:1042C3000A7A74EE120FBA8A128B13ECFEEDFF8991
:1042D3000974261211D812556774281211D8E0F503
:1042E3001074291211D81243DB742B1211D8E0F584
:1042F3000EA3E0F50F7508107A1E7B00121A617485
:10430300021211D8124D0F74021211D8124D3770C8
:10431300030243D4851882851983AA82AB8379501B
:10432300124BEA1250E674021211D81243F9A31287
:104333004D0F74101211D8125D2074021211D8E0BF
:10434300240B1243E67402F01211D81243F97402DB
:10435300F01211D81257A812565574021211D8121E
:1043630050FBE509F074021211D8E0240C1243E665
:10437300E510F074021211D81243E3E512F0A3E53D
:1043830013F074081211D8E50CF0A3E50DF0740ACC
:104393001211D8E510F0850E82850F83C082C08389
:1043A300740D1211D8AC82AD83D083D08274031202
:1043B3000E89F974021211D8AA82AB831213E3E9AE
:1043C30064017005750800800874021211D8123E4A
:1043D300FCA908741202557EE0F50CA3E0F50D224A
:1043E300E0241C1243EA22F8A3E01243F122340032
:1043F300F988828983221250EEA3A3A3A3A3227474
:10440300EE120A7AEAFEEBFF8C088D098E828F8307
:10441300A37408124DCBE060088E828F83A37410BF
:10442300F012317D60098E828F83A3E02408F0EEC1
:10443300241512318060088E828F83A3E004F08EEE
:10444300828F83A3A3A3A3A3A3E060198E828F8388
:10445300A3A3A3A3A3A3A3E0C3332402F88E828F51
:1044630083A3E028F0EE24111231806005750B0E52
:104473008003750B008E828F83A3C082C083EE24DA
:104483000D123180D083D082F8E028250B8C828DE9
:1044930083F0EE241112318060051248F628F0856E
:1044A3000882850983E0C39475400975080075097E
:1044B300000245E4E0FA7B0012570370030245E46F
:1044C300EEFAEFFB121449EA850882850983124D3F
:1044D30010EE2402F8EF1233F51246DE124620F0F6
:1044E300EE24040808EF1233F5124B20A3124620E2
:1044F300A3A3F0EE2413124606F0EE24141246068C
:10450300A3F0750A08EE24161231806010EE241809
:104513001255E5E50824081257E6750A1012317D95
:104523006016EE241A1255E5850A0CE508250C12CF
:1045330057E67408250AF50A8E828F83A3A3A3A3E3
:10454300A3A3E06059EE2407F510EF3400F51185BD
:104553001082F583E0C0E01245ED1230BED0E012C8
:104563004610E0C0E01245ED1230BED0E012461016
:10457300A31245F9120F25851082851183E0C333F9
:10458300FCE433FD850A0CE508250C12555B120F7C
:1045930056851082851183E0C333250AF50AEE247C
:1045A30015123180600BC0E01245ED1230BED0E031
:1045B300F01230B81245F9120F25EE240D12318096
:1045C300FC7D00850B0A8E828F83A3E0F8E5082823
:1045D300F8E5093400F9E8250AFAE912555E120FE5
:1045E30056AA08AB097F0A020CF1850A0CE50825D7
:1045F3000CF582E50922E0F50CA3E0F50D750E003C
:10460300780C22123F0312462AA3A3A322F0050A21
:104613008E828F83A3A3A3A3A3A3A3A322A3A312E3
:104623005851A312462A22124B24A3A32274F61232
:104633000A7A8A828B83E0FC9003531246D7740272
:1046430078081210E5EC4508FCAD09EA241212467D
:10465300D1740678081210E5EC4508FCED4509FD18
:10466300EA2415F582EB1231836004780180027825
:1046730000E4C8F9ED49FDEA2411F582EB12318318
:10468300F5088809740978081210E5ED4509FDEA73
:1046930024161246D1740B78081210E5ED4509FD76
:1046A300EA24171246D1740C78081210E5ED450977
:1046B300FD8A828B83A3A3A3A3A3A31246D7740A61
:1046C30078081210E5ECFAED4509FB024D40F5823E
:1046D300EB123F06E0F50875090022E085088285A4
:1046E300098322A3E0F98508828509832274EE12E7
:1046F3000A7A8A0A8B0BECFEEDFF750F01E9C3946E
:1047030008500579000248E38E828F83E9F0124B4B
:1047130049E96003750F00124B2D8E828F83124B74
:1047230077EE1254B5EF124B6CC0E0EE2411123049
:10473300BBD0E0124B64C0E0EE24121230BBD0E0D9
:104743001241CD740812556FA3A3A3E06015124B59
:1047530015EE2413F582EF124D7F8E828F83A3E033
:104763002408F08E828F83A3A3A3A3A3A3A3A3E010
:1047730060218E828F83A3858208858309124B581B
:10478300EE2415F582EF124D7F850882850983E0BB
:104793002408F08E828F83A3A3A3A3A3E0601A8EC1
:1047A300828F83A3858208858309124B3C8E828F77
:1047B30083A3A3A3A3A3124908EE24191241BAEEBB
:1047C300241B1241BAA3124DC3E07003024877EED3
:1047D3002419F8EF3400F98E828F83A3858208852C
:1047E3008309E0FAE50A2AF582E50B123183888210
:1047F3008983124908FAE50A2AF582E50B12318307
:10480300C0E0EE241A1230BBD0E012490888828936
:1048130083E06059F8902679E493C39850057511A5
:104823000C8008EE2419123180F5118E828F83A338
:10483300E0F8E50A28F50CE50B1248EC120F25E524
:1048430011C333FCE433FD7A7A7B0A1248E6120F74
:1048530056EE241B1230BB747AF0A3740AF0E511F0
:10486300C333F8850882850983E0288006EE24187F
:104873001259FCF08E828F83A3E0F88E828F83E03F
:10488300C3985003024706A3E0FA8A08E50A2508FD
:10489300F8E50B3400F9EE241DF582EF124E8B126E
:1048A3004918C39AC0E0EE24171230BBD0E0124D72
:1048B30088602BEE2417F8EF3400F98808890988FB
:1048C30082F583E024F2124E6C240EFAA3E0340046
:1048D300FB88828983124D0F1248F6C398F0A90F03
:1048E3000245E81219CB7403223400F50D750E004E
:1048F300780C2290034EE0F91221CFE9F885088263
:10490300850983E022F0850882850983E004F0228B
:10491300A3A3A3A3A3F08E828F83E02274F4120ACD
:104923007A8A088B09EA1249ADF0EA1313543F124D
:1049330049A6A3A3A3F0EAC413131249ADA3A3F09A
:10494300EB12499F1249B77409780A121167124989
:104953009D1249B6740A780A121167E50A5401C018
:10496300E0EC2418F582ED1230BED0E01249BC749D
:104973000B780A12116712499DA31249B6740C7879
:104983000A12116712499DA3A3A3A3A3A3A3A3F090
:10499300740D7808121167022CC2E50A54018C8247
:1049A3008D8322540F8C828D832254038C828D83BA
:1049B300A3A322A3A3A3A3A3A3F08A0A8B0B22C0BE
:1049C30082C08379008A828B83A3A3A3A3A3A3E0DA
:1049D30090034D600FE070228A828B83A3A3E07063
:1049E30019098016E060138A828B831250DD9003CD
:1049F30056E06A7003A3E06B70E70242B974F012E9
:104A03000A7A8A0A8B0B890C8C088D09124B49127E
:104A13004B2D850882850983124B77E5081254B51F
:104A2300E509124B6CC0E0E5082411F582E5091293
:104A330030BED0E0124B64C0E01237AF1230BED0AC
:104A4300E0124E937408124EAC6011124B15E50838
:104A53002413124E87124E93E02408F085088285B2
:104A63000983A3A3A3A3A3A3A3A3E0601785088239
:104A7300850983A3124B54E5082415124E87124966
:104A8300182408F0850882850983A3A3A3A3A3E0C0
:104A93006019850882850983A3AE82AF83124B3CDC
:104AA30085088285098312491304F0AA08AB091209
:104AB300145BE9F50D7056850882850983A3A3A3CA
:104AC300A3A3A3124B207014E0FA8A0EE50A250E65
:104AD300F8E50B124D74E50CC39A8021124B54E890
:104AE300240EF8E9124D7490034EE0F91221CF8E93
:104AF300828F83E0F8E50CC39824F2C399C0E0E504
:104B0300082417F582E5091230BED0E0F0A90D02A2
:104B130054A4E50A2408F8E50B3400F922124B24C7
:104B230022E0850882850983A322850A82850B8377
:104B3300A3A3124B8DE0F9EA22E0F8E50A28F582F7
:104B4300E50B124D9B228A828B831254A9121455B2
:104B530022AE82AF83E0F8E50A28F8E50B3400F9CA
:104B630022124BA0A3A3A3E022123F06E8124B9903
:104B7300A3A3E022A3A3A3A3A3A3A3A3A3124B9939
:104B8300124B8DA3A3E0F9EAF822E0FA850A8285A5
:104B93000B83A3A3A322F0A3E9124BA022F0850A5F
:104BA30082850B83A3A3A3A322C082C0837AC57B80
:104BB3000379E21221277AC57B030242B9C082C07E
:104BC300839003560242B6C082C08374FE120FBAAA
:104BD300851882851983AA82AB83794B124BEA121B
:104BE30050E6740202428F122127851882851983A9
:104BF30022C082C083794A1221270242B974F61275
:104C03000A7A9003CDE0FE04F0EEF912140D8B093D
:104C1300EA450970EDEE60EAF9024D4074F0120ABC
:104C23007AEAFEEBFF8C088D09890A74101211D8F9
:104C3300E0F50B74111211D8E0F50C121527EA4BAD
:104C43007013E50C7042A90AAC08AD09EEFAEFFB4C
:104C530012153F806EE50A6021EA2402F582EB1209
:104C63003183850A082508F8E4340013E813F0704B
:104C7300098A828B83A3A37401F0E50C6045E50BDD
:104C830070068A828B83E4F07401650C7035E50B42
:104C93009003D47004E4F0802AE004F0900BFBE06E
:104CA300F89003D4E0C398401AE4F0900359E06EFF
:104CB3007003A3E06F700CEEFAEFFB79011212B1EF
:104CC300124CC90254A47A017B009003B0E0F9129C
:104CD3001B1522C082C08374016A7001EB70077ACE
:104CE30001124D008012900BF2124D0FEA4B60053A
:104CF300122A3E8003124CC90242B97A207B0090EB
:104D030003B0E0F912229B223400F583EAF0A3EB0F
:104D1300F022C082C083900BF40238B9C082C083F2
:104D2300900BF60238B91257B722EE240CF582EF36
:104D33003400F5831242B0E84922120F567F020273
:104D43000CF1A2F0E433851882851983124D617941
:104D53005212212D22124D61794212212D22F0AAE5
:104D630082AB8322AA08AB099003B0E0F91219F5CC
:104D7300223400F9E508241DF582E509123F06E80F
:104D8300F0A3E9F022125573A3A3E022A3F0EE24CB
:104D930015124D9822F582EF3400F583E022124D6F
:104DA300A5223400F583E0F8A3E0F9888289832201
:104DB300E0F8124DB922A3E0F98E828F83A3A322D8
:104DC300F0EE2418123F0322F0EE2416123F0322C2
:104DD30074F4120A7AEAFEEBFF7A007B04124CCDDC
:104DE300124E62124D829003657409F01214678AA1
:104DF300088B09AC08AD09EE24131230BB1250E640
:104E0300124FB6640170487A0F124E5560418A8280
:104E13008B837402124E6CFAA3E0FB8A828B83A30A
:104E2300E0FC8A828B83A3A3E0FBEC8508828509DF
:104E330083A3A3124D10888289831250EA1246DE9F
:104E4300124D8FFAA3E0FB794A12212D124D67020E
:104E530031787B001219E98A088B09EA4509229007
:104E630003361242B0900BF622F0EE241DF8EF1237
:104E73004E76221243F1E022124E7F223400F58354
:104E83007401F022F582E509123F06E8F0A3E92256
:104E9300124E9722124E9B22F0850882850983A326
:104EA30022124E9BA3A3A3A322124EA4A3A3E022E8
:104EB3001252BD1214BB22EE2417F582EF124E7F5D
:104EC300121467EE241A123F03EAF0A3EBF02274E4
:104ED300F4120A7A74F3120FBA8908EAFEEBFF7C24
:104EE3000D7D007900851882851983AA82AB831210
:104EF30019D7EE241D1230BB1257A8A3E0F8741F74
:104F030058600A79011220C77900024FADE8A2E583
:104F13005008740C1211D87401F0E8A2E750087419
:104F23000B1211D87401F0E8A2E6740A50081211AA
:104F3300D87401F080081211D8E064017005EE24E2
:104F4300138003EE24151255E574021211D8AA82B8
:104F5300AB831220DF1230B8124FBB124D82740A9A
:104F63001211D8E064017033122A71703B1214736A
:104F73008A0A8B0BA80AA90BEE240B1231806870E6
:104F830003A3E0697022121467EAFCEBFD740212BA
:104F930011D8AA82AB83124FB6600D85188285198A
:104FA30083AA82AB831212ABA908740D023175EE8A
:104FB300FAEFFB1220D9E922E0124FC022F8A3E056
:104FC300F98518828519832274F6120A7A74F3120A
:104FD3000FBA8A088B09ECFEEDFF7C0D7D0079008A
:104FE300851882851983AA82AB83125929A3A3A3A7
:104FF300A3A3A3A3A3A312505512505EF8A2E55096
:1050030008740B1211D87401F0E8A2E75008740A6F
:105013001211D87401F0E8A2E6EE500424138002C2
:1050230024151255E574021211D8125047A3A3E0B8
:10503300C0E0740C1211D8D0E01252B51212A5744C
:105043000D024D3DAA82AB831220DF8508828509BC
:105053008322E0124FC0E8F0A3E922F0123F0012CE
:1050630057ACA3E02274F7120A7A74E1120FBAEA7A
:10507300FEEBFF8E828F831250EAA3A3A3E0A2E08C
:1050830050518E828F83122BD18A828B83A3A3A349
:10509300A3A3A3E054FE1251028A828B831250FB16
:1050A300E0F98A828B83E0241CFAA3E0123B1C12F2
:1050B30050E6121461E9701B741D1211D81250F5D9
:1050C3007011851882851983AC82AD83EEFAEFFBEC
:1050D3001214A90253278E828F83A3A3A3A3A3A38E
:1050E300A3A3A312316E221250EE221257B0A3A330
:1050F300A322123F38640422E0241B1243EA221243
:105103004298AC82AD8322E9F87900740468600A9E
:10511300740A686005740368700109020EEE74F680
:10512300120A7A8A828B837420F0A3A37401F0128B
:1051330012578A088B09AE08AF09EE4F60108E82B2
:105143008F837401F09003A3E07003124EBAEEFA5A
:10515300EFFB024D40C082C0839003B97401F0E9B4
:10516300A2E350037403F0E9A2E15004E0D2E2F0B9
:105173000242B974F6120A7A79007C008A088B0914
:105183007808120D37F8FF07A951A751A751A75166
:10519300A751A051A451A9519D510C80097C0480B1
:1051A300050C80F67C089003B9E05C60030980037A
:1051B300EC600109024D4074F6120A7A8A828B83ED
:1051C300E07012A3124D37600C8A828B831250E574
:1051D30012224180047A007B00024D4074F5120ACA
:1051E3007A74F3120FBA8A088B09ECFEEDFF750A85
:1051F30012EA4509700579000252AE900356E06544
:10520300087004A3E065097014121467EAFCEBFD4F
:10521300124FB27005750A018003750A0085188262
:10522300851983E4F0041211D8E508F0A3E5091207
:1052330052B512121BE9602774031211D8AA82AB6C
:1052430083121203E964017016750A0174031211C3
:10525300D8AC82AD83124FB26021750A00801C74F2
:1052630012650A70169003A2E06402700EEEFCEF62
:10527300FDAA08AB09121233E970DFEEFCEFFDAAB9
:1052830008AB0912152DE9F8740A687005750A014F
:10529300801774A0687012EEFCEFFDAA08AB091228
:1052A3001539AA08AB0912154BA90A740D025C91B2
:1052B30074021252B9221252BD22124298AA82AB30
:1052C300832274F7120A7AEAFEEBFF8E828F83A39E
:1052D300A3A3A3A3A3A3A3E06015EE24151230BBDD
:1052E30012315E1214D3E964017004790180258EB2
:1052F300828F83A3A3A3A3A3A3A3E06015EE241328
:105303001230BB125319FAA3E0FB1214D3E9640160
:1053130060D979008013123C08A3A3A3A3A3A3A37A
:10532300A3A3E022741F120F567F01020CF174F045
:10533300120A7A74FD120FBA8A088B09ECFEEDFF8C
:10534300890B74131211D8E0F50C750A017401125C
:1053530011D874041257E06048E50C601DEA241765
:10536300F582EB1259FF1257CE8A828B83E0D2E784
:10537300F0EA2414F582EB1241BD1254B4EB124D42
:10538300A17403125D22EE88828983A3A3F0EF88C0
:10539300828983A3A3123CB2123CB9121251E9F5DC
:1053A3000AA90A74030254A174EC120A7A74F5125E
:1053B3000FBA8A0A8B0B890C8C0E8D0F741F121176
:1053C300D8E0F50D74201211D8E0F510A3E0F51123
:1053D3007E01EE1211D8740AF0E97007E50DC333AC
:1053E300240AF0125586700302548812559B7409DF
:1053F300F0A3E50CC43354E0450D1255ADE50C7034
:105403002D7C008023ECC333F8E433F9E51028F84E
:10541300E51139F988828983125495888289831228
:1054230033E8F0A30EAF830CECC3950D40D7E5082A
:105433002417F582E509124E7B121467E508241A36
:10544300F582E509124D0B74031211D8AC82AD83BA
:10545300AA0AAB0B121209E96019E5082416F582B2
:10546300E50912548F1211D8A882A983E5082418DC
:10547300124D7B850882850983125D1EAA08AB093C
:10548300121251E9FEEEF9740B02557E124E7F742F
:105493000322E08E828F83F0A3AE82AF8322120FAA
:1054A300567F08020CF1123F60F9EA2400E439FB4D
:1054B30022EA240BF5822274EE120A7A8A0C8B0DEF
:1054C300890E8C088D0974121211D8E0F50F74132C
:1054D3001211D812556790051C124D376077E50FEE
:1054E300C333F8E433F9E8240EFAE93400FB121964
:1054F300E98A108B11AE10AF11EE4F60588E828F78
:105503008374D4F0A3A3E50CF0A3E50D12556FE566
:105513000EF0AC08AD09EE2405FAEF1257E9EE24BC
:105523000D1230BBE50FF0850A08850B09750A00DB
:105533007808120F25E50FC333FCE433FDEE240E88
:10554300FAEF12555E120F56EEFAEFFB90051C129E
:1055530057A81223060245E8FAE5093400FB12199D
:10556300CB740322E0F50AA3E0F50B221255732254
:10557300125577221241D1A3A3A322120F567F0CF7
:10558300020CF1851882851983AA82AB831214BB9E
:105593008A088B09EA450922EA240BF582EB124DAE
:1055A3009BFEA3E0FF8E828F8322F0A3AE82AF83A4
:1055B300AC0EAD0FEEFAEFFB1255BF221220DF1235
:1055C30055C622EE2408FEEF3400FF22E0FA8E8255
:1055D3008F83A3A3E022FEA3E03400FF8E828F8398
:1055E300E022123F031255EC22E0FCA3E0FD22125D
:1055F300316E12144F2274F6120A7AEAFEEBFF9010
:1056030003BA801388828983E06E7003A3E06F601E
:105613003A88828983A3A3124D3770E87A047B000A
:10562300121A618A088B09A808A909E849601C882D
:105633008289831256559003BA1250E68882898371
:10564300A3A3124D0F9003BA124D82024D408A82DA
:105653008B83EEF0A3EFF02274F4120A7A7E0090AB
:1056630003BA80070E88828983A3A3124D3770F48F
:10567300EEC333FAE433FB125703607E7F009003DB
:10568300BA8024888289831255E8EFC333FAE4335E
:10569300FBE5082AF582E5093BF583ECF0A3EDF081
:1056A3000F88828983A3A3124D3770D79003AB125F
:1056B3002AAB7003A3E06978087019120F29EEF57D
:1056C3000A780A120F2D7C777D0379009003AB12C1
:1056D300570E801A120F29EEF50A780A120F2D7C45
:1056E300777D0379009003AB1250E61214E574033F
:1056F300120F56AA08AB09121A67121269023178FF
:10570300121A618A088B09EA45092212316E1214B2
:10571300EB22C082C08380128A828B83A3A3123FB1
:10572300119003BA124D82121A679003BA123E21E6
:1057330070E60242B974F6120A7A900363123F3D8F
:105743009003CE125797124D827ACE7B0379501273
:10575300212D9003CE122CCAFAEFFB1215459003AC
:10576300CE123F3D90051E124D3760257A067B0011
:105773001219E9EA4B601A8A828B8374D5F0A3A3CA
:10578300E41257BD041257CE90051E1257A81223D8
:1057930006024D4012579B22E0F8A3E0F990036301
:1057A300228E828F831257AC221257B022E0F81256
:1057B30057B622A3E0F5838882221257C1221257DB
:1057C300C522F08A828B83A3A3A3221257C1A3EE1F
:1057D300F0A3EFF022F582EF124D9BF922124EB3A4
:1057E300EA4B22FAE5093400FB1220DF22124DBAFC
:1057F300A3A3A3A3A3A3A322902671E4932401F854
:10580300E43400F97A027B002274F7120A7A7E00EC
:105813008004125DD50E1258F940F77E00EE12583F
:105823003874FEF0A30412584DE4F00EEEC3940353
:1058330040EB02532C75F003A4F8A9F074BC28F8CC
:10584300740339F988828983A32212585122F0887C
:105853008289832274F7120A7A7F0080010F9026CF
:105863006EE493F8EFC3985026EF1259E56A70037C
:10587300A3E06B70E8125D826C7003A3E06D600AB5
:1058830074FF6C700374FF6D70D31258F080047A48
:10589300007B0002532C74F6120A7A7CFF7DFF7A98
:1058A300FE7BFF12150FEA4B70407508008036E54A
:1058B3000875F017A4F8A9F0741528F58274091275
:1058C30059F7600C741428F58274091259F7701390
:1058D300740628FE740939FF8E828F83125A04EEF0
:1058E300FAEFFB050812595F40C5024D40740628C4
:1058F300FA740939FB2290266EE493F8EEC39822DA
:1059030074F7120A7AEAFEEBFFEE4F601012592386
:1059130074FEF0A304125D2814F0A304F002532CC8
:105923007C177D0079001219D78E828F832274F73A
:10593300120A7AEAFEEBFF7508008018E50875F095
:1059430017A4F8A9F0125D8D7003A3E06F60031232
:105953005DDD050812595F40E302532C90266EE487
:1059630093F8E508C3982274F6120A7A12150F8A7F
:10597300088B09A808A909E849600AE8240DFAE98F
:105983003400FB80047A007B00024D4074F4120A59
:105993007A8A0A8B0BECFEEDFF750800750900800F
:1059A3002EE50975F017A4F8A9F0125DC8601EE58D
:1059B300091259E5650A7004A3E0650B70037508C5
:1059C3000AEEFCEFFD125C8460034308A005099016
:1059D300266EE493F8E509C3985004E50860C20213
:1059E3002CC275F017A4F8A9F01259F022740628F6
:1059F300F582740939F583E022F582EF123F06E45C
:105A03002212316E12134722125851A3A3A3A3A348
:105A1300A3A3A32274F2120A7A8A088B09ECFEED7F
:105A2300FF740E1211D8125567750C007C007D01AE
:105A330080101219E3E50CF5F0EA84ACF0750C0064
:105A43007D00780079008003125BC1125C1D400366
:105A5300025AE3E8FAE9FBEA75F017A4FA85F00DB8
:105A630075F017EBA4250D125BF97003A3E0F46046
:105A7300D7125BD765087004A3E0650960CA125B9F
:105A8300D76E7003A3E06F60BF125BD7650A700423
:105A9300A3E0650B60B2E8FAE9FBEA75F017A4FA34
:105AA30075F017EBA4250DFB74142AF58274091203
:105AB3005BB8509474016D050C608DE50CC39C407C
:105AC30087E875F017A4F8AAF075F017E9A42AF986
:105AD300740628F582740939F5831250E6025BB522
:105AE300780079008003125BC1125C2A4003025BD9
:105AF3009CE8FAE9FBEA75F012A4FA85F00D125C52
:105B03000964FE7003A3E0F460DC125BFF650870B8
:105B130004A3E0650960CF125BFF6E7003A3E06F1F
:105B230060C4125BFF650A7004A3E0650B60B7E80D
