:020000040000FA
:060000000211390207990C
:030013000207BC25
:03002B00020F7051
:03003B00020811A7
:030053000206CAD8
:03007B00020E670B
:1000830002072E0101FF050301E916E916E916E946
:1000930016A5159F15E91606240000000068240024
:1000A3000000000C0000000C0001060A1010000004
:1000B30000000000000000003B19000000000000E9
:1000C30000000000FFFF000000004B1B451B010068
:1000D3000500000000000000000000000000000018
:1000E30000000000000000FFFF020000000000000D
:1000F300000000000100010101000305000000549D
:1001030005E80364006400B8010202000002000570
:100113000207051E02051E0A03B80B0201021302A1
:1001230002020206121211856046121158603DE95F
:10013300687008F618F618F618F622748067F71236
:10014300015C090909748067F722121158601D12B6
:1001530011857005191919801A120FFA701F1210E0
:100163000FC37003E66733191919400718181822CB
:1001730008080874FFF618F618F618F62212100F7E
:1001830060171211C4702192F01211CE701950171A
:1001930020F014080808090909E7F61819E7F61802
:1001A30019E7F61819E7F6221211CE60E6E869702E
:1001B3001F0808E62480F608E436F618547FB47F57
:1001C3000CE654806007F6E418F618F62218182295
:1001D300E9C6CC08C6CD08C6CE08C6CFC0E0E8C085
:1001E300E0EAC0E0EBC0E009E9F809E7FA09E7FB58
:1001F300E6F918E6F8C3EC98ED99EE9AEBC2E7F549
:10020300F0EFC2E795F0500E600CEBCFFBEACEFAAD
:10021300E9CDF9E8CCF8EAA2E7D2E7FAEB33FB132E
:10022300F5F0EEA2E7D2E7FEEF33FFC5F013A2E746
:1002330030E601B313C5F0C3C0E0C0F07F00C39B39
:10024300FB605B9418600C401AD0E023F9D0E0F80F
:1002530002032B8AF0E9486003D2F0E4AFF0FAF925
:10026300F8803BEB30E40D89F0EA6003D2F0E4AFB1
:10027300F0F9CAF8EB30E30D88F0EF6002D2F0AF8B
:10028300F0E4CAC9F8EB54076014FBC3EA13FAE9B4
:1002930013F9E813F8EF135002D2E0FFDBEDD0E0DF
:1002A300C0E030E739C3E49FFFF5F0EC98FC42F07F
:1002B300ED99FD42F0EE9AFE42F0D0E0F9D0E0F87D
:1002C300E5F0607AE923F9EE20E742D8028067C3BC
:1002D300EF33FFEC33FCED33FDEE33FE80EAEC2825
:1002E300FCED39FDEE3AFED0E023F9D0E0F8400210
:1002F300801BC3EE13FEED13FDEC13FCEF13500252
:10030300D2E0FF08B800067F7F74FF802EEF3350E2
:10031300178CF020F00260100CBC000C0DBD00081F
:100323000EBE000408E860DFE933E813FFEE231391
:10033300FE4F4D4C8008E95480FFE4FEFDFCEE3394
:10034300EF33F47004FCFD7E80D0E0FBD0E0FAD004
:10035300E0F8D0E0CFC618CEC618CDC618CCC6F983
:1003630022121158700418181822121185700D7476
:10037300FFF61819F61819F61819F622E7548066CD
:10038300F61211CE700F1211C470F014F608F608AD
:10039300F608F680D11211C4700CF608F6087680C0
:1003A30008E6447F80EC121012700C120FFD60BF40
:1003B300E65480F6E480BB120FFD7005191919800D
:1003C300A5E869700C763F18768018F618F6E8F9F8
:1003D30022E6CDC0E018ECC0E0E633CD33CDD31335
:1003E300F6E719FCE7191933CC33C3947F400ECDDC
:1003F3009D502408E65480F6E418F6800FF4043D7B
:1004030014501408E6447FF6187680E418F618F6BC
:10041300D0E0FCD0E0FD22CCD313CCFD18E4C6CB56
:10042300C0E018E4C6CAC0E00808ED08C633E61306
:10043300F618E433C675F003C3CA97CA09CB97CB42
:10044300199C40047D08802EBD000302050D16B6DD
:10045300FF050606081618C3CA33CACB33CB33CA03
:1004630027CA09CB37CB193CC37D08803E187D08CA
:1004730020E75CC633C6CA33CACB33CB33DDF1D5F1
:10048300F0EB30E77BCA97CA09CB974ACB199C405C
:100493006F4B7025E620E0218066187D08C3CA975C
:1004A300CA09CB97CB199CD3C633C6CA33CACB333D
:1004B300CB3350C9DDE7D5F0E1D3E4C636C608C671
:1004C30036C608C636C608C636C61818188031C3DD
:1004D300CA97CA09CB97CB199CB34097C633C6CAF0
:1004E30033CACB33CB33DD34D5F02EC6A2E0C640BE
:1004F300C8CA27CA09CB37194A70BECB3CB480B9E6
:100503000808E63308E633601F181818D0E0FAD05D
:10051300E0FBD0E0FCD0E0FD22187D08CA27CA0921
:10052300CB37CB193CD3808013F618E4B67F11F692
:1005330018B6FF0EF618C60470D20808768080CA73
:10054300F618F618F680C500121158604F1211857F
:100553006012E7548066F6120FFA70111211C4701C
:100563003B090909F4F618F618F618F62212100FCB
:1005730070151211CE08080860EAE6447FF6187673
:100583008018E4F618F6221211CE60161211C47008
:1005930012E4F608F608F608E65480F60909091885
:1005A300181822EAC0E0EBC0E0ECC0E0EDC0E0E6E2
:1005B30087F0A4FBACF008E687F0A42CFCE435F04C
:1005C300FA1809E687F0A42C4B60027401CA35F0CF
:1005D300FCE433FB09E687F0D2F7A42CCB35F0FC1F
:1005E3001908E687F0A42BCC35F0FBE433FD08199A
:1005F300E687F0D2E7A42C4ACB35F0CD3400FC09D2
:10060300E687F0D2E7A42DCC35F0FDE433FA0918E0
:10061300E687F0D2F7A42CCD35F0CA3400FC08E607
:1006230087F0D2E7D2F7A42ACC35F07A7E20E70B05
:100633000ACB33CBCD33CDCC33CC33CB3350147047
:1006430004ED30E00ED2F1E4CD3DCDCC3CCC3B50BB
:1006530005DA05C2F1EB547FC63308E63392F0FBAB
:10066300E73309E733C39A502D2B70190C0D4C4D0A
:1006730070151806E608C333700D20F10AA2F013B3
:10068300F6E418800B4024E4F630F002768018F686
:1006930018F618F68024D33B14501074FFA2F013FD
:1006A300F6187680E418F618F6800FA2F013F61801
:1006B300E63303F618ECF618EDF6D0E0FDD0E0FCD7
:1006C300D0E0FBD0E0FA22C0E074F2120AE8A2AF55
:1006D300E433FED2AFE5A7FFE5A1F5085F54106050
:1006E30006121E8775A1EFE5085F54086008121E05
:1006F3008D75A1F7802BEFA2E0C0D0E508A2E092B0
:10070300F0121086158182F05017906198E0F890EE
:100713000723E0C398A2D265D0335002E8F075A155
:10072300FEEEA2E092AF7F01020BFCC0E074F21276
:100733000AE8A2AFE433FED2AF9061A4E0F8759B60
:1007430000E59158540860087591F7121ECF802A6E
:10075300E59158541060087591EF121ED5801BE87F
:10076300A2E0C0D0E591A2E092F01210861581823A
:10077300F05007E0C2E0F01220139061A3E0F8E527
:10078300E9585404600E121FE975E9FB906193E088
:10079300A2E640F2808BC0E074F2120AE8A2AFE452
:1007A30033FED2AF9061A5E0F8E5BF58540460066C
:1007B30075BFFB12202B020724C0E0C0D0E8C0E0C5
:1007C300E9C0E0C082C083E5C1C0E090068FE0F8D5
:1007D300740E28F58274063400F583D0E0F0900699
:1007E3008EE0F8A3E0687006E595900691F0900618
:1007F3008FE004F0C394804002E4F0A374C6F0D009
:1008030083D082D0E0F9D0E0F8D0D0D0E032C0E09D
:10081300C0D0E8C0E0C008C009C082C083900712FE
:10082300E0F8A3E0687008539AFBA374018026C222
:10083300E9900712E0F50874012508F07492250881
:10084300F58274063400F583E0F5C1900712E0C326
:1008530094804002E4F0D083D082D009D00880A6EF
:10086300C3E498F8E499F91208A48026C3E49AFA39
:10087300E49BFBE920E7E91208A4E498F8E499F97A
:1008830022C3E498F8E499F91208A4E498F8E499E7
:10089300F9C3E49AFAE49BFB22EB20E7CFE920E7D4
:1008A300E0B90010BB0008E88AF084F8AAF022E45B
:1008B300FBC8FA22EB70227B10C833C8C933C93393
:1008C3005007C39AC3DBF280069A50012ADBEAC8B9
:1008D30033F4C8C933F4C9FA2275F008E4C833C83D
:1008E300C933C933C99AC99B5004C92AC93BD5F036
:1008F300ECFBC833F4C8E4C9FA2212093D20F01412
:1009030030E72B74FFFCFBFA747F8022E4FCFBFAD4
:100913007480801AB48008BC00F2BB00EF800F50D3
:10092300EBF9E4C39AFAE49BFBE49CFCE499C6CCA0
:1009330018C6CB18C6CA18C6F922E4C9C608CAC65F
:1009430008CBC6D3330308CCC63392F0C3947F409D
:100953002E94184019C9B90704CACBCC225025C319
:1009630009CA33CACB33CBCC33CC33D9F422F460AA
:100973000DC9CCC313CB13CBCA13CAD9F6CC22E40B
:10098300FCFBFA2214FCFBFA22080808EAC0E0EB9D
:10099300C0E086F0E7A4FA180986F0E7A42AFA185B
:1009A3000986F0E7A42AFA180986F0E7A42AFA19B7
:1009B30086F0E7A4FBE5F02AFA190886F0E7A42BF2
:1009C300FBE5F03AFA190886F0E7A42BFBE5F03AC9
:1009D300FA18180986F0E7A4C5F02BFBE43AFA19D4
:1009E30008E7C5F0C6A426F6E5F03BFBE43AFA189F
:1009F30086F0E7A4F6E5F00826F6E43B08F6E43AC9
:100A030008F6D0E0FBD0E0FA22E4CFC0E0E4CEC0A9
:100A1300E0E4CDC0E0E4CCC0E075F020C3E633F6FB
:100A230008E633F608E633F608E633F6181818EC4A
:100A330033FCED33FDEE33FEEF33FFC3EC9709EDEB
:100A43009709EE9709EF97191919400FFFEC97FCD7
:100A530009ED97FD09EE97FE191906D5F0BEECF7DF
:100A630009EDF709EEF709EFF7191919D0E0FCD0F2
:100A7300E0FDD0E0FED0E0FF222518C582C0E0E50E
:100A83001934FFC583C0E0E518C3958224F810AF7D
:100A9300088583198582188008858319858218D271
:100AA300AFCEF0A3E520F0A37808E608F0A3DEFAC2
:100AB300EFF0A3E58124FAF8E608F0A3E608F0A333
:100AC300E608F0A30808E608F0A3E608F0A31581FA
:100AD3001581D0E0FED0E0F8158115811581E8C0BD
:100AE300E0EEC0E022C0D02518C582C0E0E519348D
:100AF300FFC583C0E0E518C3958224F310AF0885D2
:100B030083198582188008858319858218D2AFC816
:100B1300F0A3E9F0A3EAF0A3EBF0A37908E709F067
:100B2300A3D8FAECF0A3EDF0A3EEF0A3EFF0A3D07B
:100B3300E0F0A3D0E0F0A3D0E0F0A3E520F0A3E53C
:100B4300F0F0A322E9799EC608CAC608CBC608CC32
:100B5300C6C370207996CACBCC7019798ECBCC7072
:100B6300137986CC700EF9802ACA33CACB33CBCC27
:100B730033CC331930E7F2CCCBCA3350147004EAC8
:100B830030E00DE4CA3ACACB3BCBCC3CCC50020993
:100B9300C3E913C6CC182313C6CB18C6CA18C6F9A3
:100BA300221211B9B90003020BE6E4900301787134
:100BB30079098002F0A3D8FCD9FA900B71AA82AB11
:100BC3008390008678A379018015E493A3AC82AD6A
:100BD300838A828B83F0A3AA82AB838C828D83D892
:100BE300E9D9E775822D7583FB7402120EE87582CD
:100BF3000D7583237400120EE8851983851882E02E
:100C0300C0E0A3E0F9A3E0FAA3E0FBA37808E0F6D1
:100C130008A3DFFAE0FCA3E0FDA3E0FEA3E0FFA34B
:100C2300E0C0E0A3E0C0E0A3E0F5D0A3E0F520A39B
:100C3300E0A3F5F010AF0885831985821880088535
:100C43008319858218D2AFD082D083D0E0F8D0E068
:100C53003275F0108E1A8F1B85821F85831E8518AF
:100C630082851983E0CEA3E0CF851F82851E83EBA7
:100C7300C9EAC8EDCBECCAC3E833C8E933C9EA33E0
:100C8300CAEB33CBC3EA9EF51DEB9FF51CB35004AF
:100C9300AB1CAA1DEC33CCED33CDD5F0DAAE1AAFD5
:100CA3001B22D083D082ECC0E0EDC0E0E493A3FC30
:100CB300E493A3FDED4C600D120D7DEC24FFFCEDE0
:100CC30034FFFD80EFE493A3FCE493A3FDED4C60BC
:100CD3000D120E1AEC24FFFCED34FFFD80EFD0E083
:100CE300FDD0E0FCE493A3C0E0E493C0E0228519C7
:100CF30083851882E0A3FEE0A3F5207808E0A3F63D
:100D030008DFFAE0A3FFE0A3C0E0E0A3C0E0E0A3B4
:100D1300C0E0E0A3C0E0E0A3C0E010AF0885821804
:100D23008583198008858218858319D2AFD083D033
:100D330082020EEED083D082E9C0E0E493A3C3869F
:100D4300F0C5F095F0F908E493A386F0C5F095F0AB
:100D5300700BE493A3C3994005E9048002A3E475EF
:100D6300F002A42582F582E5F03583F583D0E0F91E
:100D7300E493A3C0E0E493C0E022C0E0C3E493960D
:100D8300087401939618400FE49366700808740181
:100D930093661870007019A3A3C3E49396087401B3
:100DA300939618A3A3400DD0E0D0E0D0E0020CE16D
:100DB300A3A3A3A3A3A3D0E022740480047402809A
:100DC30000CCC0E0EDC0E0E518C39CCCAD195001E8
:100DD3001D10AF068C188D1980068C188D19D2AF93
:100DE300120E89D0E0FDD0E0FC2274028000CCC05A
:100DF300E0EDC0E0E518C39CCCAD1950011D10AF68
:100E0300068C188D1980068C188D19D2AF120E45D9
:100E1300D0E0FDD0E0FC22C0E0C0F088F0E49366AF
:100E230070080874019366187000A8F0A3A3700BF0
:100E3300D0F0D0E0D0E0D0E0020CE1A3A3D0F0D01A
:100E4300E022CAC0E0E493A3C582CCC582C583CDAA
:100E5300C583F0A3C582CCC582C583CDC583DAE53E
:100E6300D0E0CA22C0E0C0D0C082C083E58AA2E33A
:100E730050069004BC7401F0758A00C2EBD083D095
:100E830082D0D0D0E032CAC0E0E0A3C582CCC58214
:100E9300C583CDC583F0A3C582CCC582C583CDC52B
:100EA30083DAE6D0E0CA22C008C3E096F50808A3B7
:100EB300E096420808A3E096420808A3E096450896
:100EC3007001D3D008227009080808226016181888
:100ED30018C6C333C608C633C608C633C608C633E6
:100EE300C6D5E0EA22C09FF59FE473D09F22D0834A
:100EF300D082C09FE493C0E0740193C0E074029376
:100F0300F59F222518F58210AF08F5184002151930
:100F13008008F51840021519D2AF8519832274048D
:100F2300800A74038006740280027401C0E0F40432
:100F3300120F06D0E012119422BB0102E722C082F5
:100F4300C08389828A83BB0003E08002E493D08359
:100F5300D08222C0D0251810AF08F5185002051909
:100F63008008F51850020519D2AFD0D022C0E0C0D6
:100F7300D0E8C0E0E5A8D2AFC2C7A2E792AFD0E005
:100F8300F8D0D0D0E0326016080808C6C313C618DC
:100F9300C613C618C613C618C613C6D5E0EA22C3BD
:100FA300E0C696F608A3E0C696F608A3E0C696F652
:100FB30008A3E0C696F622251810AF08F5184002DC
:100FC30015198008F51840021519D2AF22E0667092
:100FD3001008A3E066700A08A3E066700408A3E0A3
:100FE3006622E76670100809E766700A0809E76673
:100FF30070040809E76622181818E6084608700AFC
:10100300E608C3337005E633F4220822191919E7F9
:10101300094709700AE709C3337005E733F4220966
:1010230022C3E09608A3E09608A3E09608A3E096FF
:10103300A2D265D03322C3E096F008A3E096F0086D
:10104300A3E096F008A3E096F022E627F60809E667
:1010530037F60809E637F60809E637F622E026F6FA
:1010630008A3E036F608A3E036F608A3E036F62236
:10107300E026F008A3E036F008A3E036F008A3E08A
:1010830036F022C0E0E8C0E0E58124FCF8E6A2E700
:10109300D0E0F8D0E022E056F608A3E056F608A325
:1010A300E056F608A3E056F622E657F60809E65797
:1010B300F60809E657F60809E657F622E056F0085F
:1010C300A3E056F008A3E056F008A3E056F022E6AA
:1010D30047F60809E647F60809E647F60809E6472A
:1010E300F622700422600D18C6C333C608C633C681
:1010F300D5E0F41822E4C396F608E496F608E496DD
:10110300F608E496F622C6F4C608C6F4C608C6F482
:10111300C608C6F4C622C3E09608A3E09608A3E077
:101123009608A3E09622C3E7960809E7960809E71D
:10113300960809E7962275D00075814075180175E8
:10114300190300020BA4E6F008A3E6F008A3E6F0F7
:1011530008A3E6F022E6084608C3134608336002F4
:10116300E633F422600C08C6C313C618C613C6D5EB
:10117300E0F422E0F608A3E0F608A3E0F608A3E013
:10118300F622E7094709C3134709336002E733F43B
:1011930022CAC0E0E6F0A308DAFAD0E0FA22EAF0C5
:1011A300A3EBF0A3ECF0A3EDF022E0FAA3E0FBA3A2
:1011B300E0FCA3E0FD22E5C754F84401F5C779013B
:1011C30022E7C33319471947194722E6C3331846A1
:1011D30018461846222518F582E43519F58322C2EC
:1011E300AF75D69F02000022120EF1FA5E00120EB6
:1011F300F1845F00120EF1286000120EF17C600092
:10120300120EF1956000120EF1BB6000120EF1F6A2
:101213006000120EF13F6100120EF1906100120E98
:10122300F1406200120EF1F86200120EF1C0630089
:10123300120EF19D6400120EF1236500120EF132BD
:101243006500120EF13D6500120EF14E6600120E9E
:10125300F15F6600120EF1E46600120EF17367008F
:10126300120EF1CB6700120EF1956800120EF1C653
:101273006800120EF1036900120EF1106900120EDC
:10128300F19F6A00120EF1026C00120EF1156D004F
:10129300120EF15C6F00120EF1676F00120EF17106
:1012A3006F00120EF17C6F00120EF1866F00120EAA
:1012B300F1906F00120EF19B6F00120EF1A66F00FA
:1012C300120EF1D76F00120EF1FB6F00120EF11F19
:1012D3007000120EF1847000120EF1C87000120E2D
:1012E300F1E47000120EF15B7100120EF1937100C4
:1012F300120EF1DF7100120EF13C7200120EF11E9C
:101303007400120EF1A47400120EF17F7500120E18
:10131300F1807800120EF1D57800120EF1017900F8
:10132300120EF14D7A00120EF19D7A00120EF1F2B7
:101333007A00120EF1F37B00120EF18B7C00120E79
:10134300F10D7D00120EF1AD7D00120EF189260024
:10135300120EF1C22600120EF19C2800120EF1DBD0
:101363002800120EF1252900120EF1CA2900120ECF
:10137300F1292A00120EF15D2A00120EF1CA2A0089
:10138300120EF1E72B00120EF1EF2C00120EF1AA50
:101393002D00120EF1EC3000120EF1953100120EF9
:1013A300F1893200120EF1EA3200120EF107340015
:1013B300120EF1143600120EF1CB3600120EF1D5D7
:1013C3003600120EF1083700120EF1CF3700120E5D
:1013D300F16A3800120EF1CF3800120EF1F838001E
:1013E300120EF11A3900120EF1493B00120EF120D0
:1013F3003C00120EF1643C00120EF1D13C00120EBF
:10140300F18C3D00120EF1BE3D00120EF1023E00C2
:10141300120EF1353E00120EF18A3E00120EF1DF7C
:101423003E00120EF1733F00120EF1D53F00120E73
:10143300F13D4000120EF1E64100120EF1CE4200E2
:10144300120EF1104400120EF13E4600120EF1FE90
:101453004600120EF12D4900120EF1D04900120E72
:10146300F10E4A00120EF1BA4B00120EF1CE4B00F0
:10147300120EF1D84B00120EF1024C00120EF10EB7
:101483004C00120EF12D4C00120EF1E44C00120E22
:10149300F1234D00120EF12D4D00120EF1E14D001E
:1014A300120EF1E04E00120EF1D94F00120EF1763A
:1014B3005000120EF1185100120EF12F5100120EAE
:1014C300F1665100120EF1845100120EF1C8510061
:1014D300120EF1ED5100120EF1D35200120EF13F34
:1014E3005300120EF1B95300120EF1C85400120E3C
:1014F300F1075600120EF1695600120EF123570040
:10150300120EF1465700120EF11A5800120EF16531
:101513005800120EF1A75800120EF1115900120EC5
:10152300F13F5900120EF1785900120EF19D590046
:10153300120EF1255A00120EF1485C00120EF1A7AB
:101543005C00120EF13B5D00120EF1A75D00120E5E
:10155300F1FB5D00120EF1329903120EF171990342
:10156300120EF1EAB101120EF144B201120EF1A012
:10157300B201120EF1ECB201120EF107B301120E19
:10158300F138B301120EF155B301120EF161B3013B
:10159300120EF1D5B401120EF1EEB401120EF15593
:1015A300B501120EF168B501120EF176B501120EF6
:1015B300F12AB601120EF10EB701120EF114B801A1
:1015C300120EF19AB801120EF1A4B801120EF11124
:1015D300B901120EF128B901120EF15AB901120E16
:1015E300F193B901120EF1BDB901120EF11EBA0148
:1015F300120EF13EBA01120EF15CBA01120EF1A203
:10160300BA01120EF1C8BB01120EF115BC01120E84
:10161300F144BC01120EF1BABC01120EF1E2BC019D
:10162300120EF11BBD01120EF129BD01120EF18143
:10163300BD01120EF1D0BD01120EF10FBE01120E4B
:10164300F13FBE01120EF16BBE01120EF176BE0127
:10165300120EF194BE01120EF156BF01120EF1608B
:10166300BF01120EF19BBF01120EF1B1BF01120EA9
:10167300F1BABF01120EF10FC001120EF123C00126
:10168300120EF120C101120EF133C101120EF14805
:10169300C101120EF1EAC101120EF16DC201120E67
:1016A300F12BC301120EF136C301120EF15CC4011A
:1016B300120EF178C401120EF1CAC401120EF1091F
:1016C300C501120EF11EC501120EF160C501120E05
:1016D300F1ADC701120EF12BC801120EF19EC80124
:1016E300120EF1C0CA01120EF1D8CA01120EF1DBBB
:1016F300CA01120EF1E7CA01120EF1FBCA01120E62
:10170300F103CB01120EF136CB01120EF1E6CB0140
:10171300120EF15CCC01120EF1CFCC01120EF1834B
:10172300CD01120EF138CE01120EF157CE01120E79
:10173300F1F7CE01120EF103CF01120EF12ECF01FC
:10174300120EF131CF01120EF19BCF01120EF1C334
:10175300D001120EF19BD101120EF126D201120E0D
:10176300F13FD301120EF1FCD301120EF135D40176
:10177300120EF166D401120EF106D501120EF136E6
:10178300D501120EF111D601120EF1AAD601120ED5
:10179300F135D701120EF1E6D701120EF168D80127
:1017A300120EF19AD801120EF1DBD801120EF1A438
:1017B300B602120EF109B702120EF141B702120E70
:1017C300F190B702120EF1B2B902120EF195BB02FB
:1017D300120EF1F3BE02120EF128BF02120EF14AED
:1017E300BF02120EF1AFBF02120EF1E5BF02120EDD
:1017F300F108C002120EF135C002120EF191C002BF
:10180300120EF192AA02120EF113AB02120EF1495B
:10181300AB02120EF1B0AB02120EF123AD02120EA7
:10182300F13FAD02120EF184AD02120EF112AE02BF
:10183300120EF16BAE02120EF19FAF02120EF16D9A
:10184300B002120EF1E5B002120EF161B102120EF6
:10185300F1A3B102120EF1E4B102120EF118B302B8
:10186300120EF116B402120EF141B402120EF18CF3
:10187300B402120EF1D3B402120EF165B502120EC8
:10188300F11EB602120EF1008003120EF111800355
:10189300120EF1348003120EF1408003120EF15B3D
:1018A3008003120EF1A18003120EF1CC8003120EFD
:1018B300F1E98003120EF1628103120EF18B8103B1
:1018C300120EF1258203120EF1488203120EF1EA81
:1018D3008B03120EF1FB8B03120EF14C8C03120ED1
:1018E300F1918C03120EF13B8D03120EF10C940354
:1018F300120EF1438A03120EF19B8B03120EF18732
:101903009803120EF1607E00120EF1817E00120E1A
:10191300F1647F00120EF18E7F00120EF1D88F0357
:10192300120EF1589003120EF1639003120EF18C14
:101933009003120EF1559E02120EF1589E02120EE2
:10194300F1129F02120EF13D9F02120EF1849F02CB
:10195300120EF1A99F02120EF1CA9F02120EF1FE9E
:101963009F02120EF137A002120EF160A102120EB5
:10197300F197A102120EF1B7A102120EF152A202C7
:10198300120EF117A302120EF14EA302120EF1C3AF
:10199300A402120EF166A502120EF15FA602120E48
:1019A300F188A602120EF1DCA602120EF1A2A70222
:1019B300120EF1C1A601120EF165A902120EF1E693
:1019C300A902120EF119AA02120EF10BD302120E82
:1019D300F157D302120EF1C5D302120EF1E6D30270
:1019E300120EF196D402120EF19FD402120EF1F2EE
:1019F300D402120EF11BD502120EF182D502120E81
:101A0300F113D602120EF155D602120EF19FD60231
:101A1300120EF1FED602120EF18FD702120EF1CE84
:101A2300D702120EF1995E00120EF142D802120E85
:101A3300F154D802120EF166D802120EF1A8D802A0
:101A4300120EF1B1D802120EF179D902120EF1FF82
:101A53009403120EF1598203120EF18F8203120EB8
:101A6300F1D88203120EF1288403120EF110D9016A
:101A7300120EF14FDA01120EF18BDA01120EF14A56
:101A8300DC01120EF173DC01120EF106DF01120EFE
:101A9300F14ADF01120EF1D3E001120EF16BE10105
:101AA300120EF1D3E101120EF174E201120EF1B63E
:101AB300E201120EF1F6E201120EF181E401120EBF
:101AC300F1F1E501120EF116E801120EF144E801FD
:101AD300120EF16BE801120EF174E801120EF1FB24
:101AE300E801120EF119EC01120EF1E0FF02120EE1
:101AF300F163EA02120EF176EA02120EF113EB021F
:101B0300120EF14EEB02120EF169EB02120EF18E80
:101B1300EB02120EF1D3EB02120EF104EC02120EE1
:101B2300F135EC02120EF1BBED02120EF1729603C7
:101B3300120EF1AF9603120EF1F19603120EF1019C
:101B43009703120EF18B8403120EF1A18403120E7C
:101B5300F11ECA02120EF14FCA02120EF181CB021C
:101B6300120EF161CC02120EF164CF02120EF14893
:101B7300D102120EF12BD202120EF1A48F02120E19
:101B8300F1E98F02120EF1939002120EF13B9102D2
:101B9300120EF1989102120EF1F19102120EF1BBA5
:101BA3009302120EF1389402120EF1629402120E95
:101BB300F11F9602120EF13A9602120EF189960265
:101BC300120EF19F9602120EF1AC9602120EF1DC88
:101BD3009602120EF1F29602120EF1019702120E04
:101BE300F15A9702120EF1B49702120EF1069802FF
:101BF300120EF1109902120EF1879B02120EF121BF
:101C03009C02120EF16C9C02120EF1D09C02120E79
:101C1300F1ED9C02120EF1F09C02120EF1F39C0204
:101C2300120EF1669D02120EF1819D02120EF1ADAC
:101C33009D02120EF1E89D02120EF1EB9D02120EAF
:101C4300F1FE9D02120EF1259E02120EF10B970377
:101C5300120EF1179703120EF1519703120EF100B2
:101C63008002120EF12B8002120EF1ED8002120E91
:101C7300F1728102120EF1DB8102120EF127820250
:101C8300120EF1A68202120EF1388302120EF1C473
:101C93008302120EF1068402120EF14F8802120E15
:101CA300F1CF8902120EF10E8A02120EF1D78A02C7
:101CB300120EF18B8B02120EF13B8D02120EF1C745
:101CC3008D02120EF19AEC01120EF154ED01120E77
:101CD300F1C6ED01120EF1D5ED01120EF14FEE0139
:101CE300120EF1BEEE01120EF1C8EF01120EF1F168
:101CF300EF01120EF191F001120EF1DFF001120E5D
:101D0300F14FF101120EF183F201120EF15FF301B3
:101D1300120EF1D0F301120EF14DF501120EF10F77
:101D2300F601120EF1AAF601120EF105F701120ED9
:101D3300F170F701120EF174F801120EF135FA0188
:101D4300120EF1D4FA01120EF146FB01120EF10349
:101D5300FC01120EF17A9A03120EF17C9A03120E11
:101D6300F1B18603120EF1E28603120EF19C870392
:101D7300120EF1028803120EF1B9FB02120EF141A9
:101D83009A03120EF1529A03120EF18B8803120E6C
:101D9300F1998803120EF1819A03120EF10E980342
:101DA300120EF11E9803120EF1369803120EF17EF5
:101DB3009803120EF10F9203120EF1949203120E76
:101DC300F1F89203120EF1F87F00120EF18E9703D1
:101DD300120EF1A89703120EF1C8ED02120EF1D6FE
:101DE300ED02120EF150EE02120EF128EF02120E66
:101DF300F1B3F002120EF171F602120EF1BFF60208
:101E0300120EF15CF702120EF107F802120EF11F27
:101E1300F802120EF19BF802120EF1B1F802120E43
:101E2300F1C4F802120EF1A2D902120EF1F7D9028F
:101E3300120EF1F3DB02120EF125DC02120EF14752
:101E4300DC02120EF160DC02120EF179DC02120EDA
:101E5300F183DD02120EF11EDE02120EF1528D032A
:101E6300120EF1778D03120EF1878D03120EF1BA64
:101E73008D03120EF1EB8D03120EF1208E03120E61
:101E8300F1828E03120EF1918E03120EF19B8E03DB
:101E9300120EF162FD01120EF188FD01120EF1C561
:101EA300FD01120EF1D4FD01120EF1F3FD01120E2C
:101EB300F15BFE01120EF164FE01120EF1C3FE018D
:101EC300120EF1E7FE01120EF1A6FF01120EF1B39D
:101ED300FF01120EF1C4FF01120EF1059A03120E57
:101EE300F1229A03120EF132E302120EF190E40290
:101EF300120EF19DE402120EF1B0E402120EF1CFC4
:101F0300E402120EF1E5E402120EF1F9E402120EFC
:101F1300F17CE502120EF1DFE502120EF166E60234
:101F2300120EF1C4E602120EF1D4E602120EF1D93A
:101F33009503120EF1FD9503120EF1259603120E71
:101F4300F14D9603120EF10BF402120EF132F4026C
:101F5300120EF153F402120EF1B8F402120EF1D282
:101F6300F802120EF1EBF802120EF1F7F802120E5C
:101F7300F10BF902120EF129F902120EF133F902F3
:101F8300120EF13DF902120EF150F902120EF1A1F7
:101F9300F902120EF1DAF902120EF109FA02120E27
:101FA300F157FA02120EF1A6FA02120EF1C1FA0269
:101FB300120EF1CBFA02120EF1DCFA02120EF1222A
:101FC300FB02120EF1E19803120EF1DDC002120EB4
:101FD300F109C102120EF125C102120EF138C1023C
:101FE300120EF14EC102120EF1BAC102120EF1ED40
:101FF300C102120EF11CC602120EF142C702120EEA
:10200300F175C702120EF1C1C702120EF1FAC8022E
:10201300120EF122C902120EF137C902120EF14754
:10202300C902120EF18BC902120EF1E0C902120E9F
:10203300F1F0C902120EF1A58E03120EF1C08E0348
:10204300120EF1E98E03120EF1038F03120EF12823
:102053008F03120EF1478F03120EF15F8F03120EDF
:10206300F18D8F03120EF1A78F03120EF1C19903A5
:10207300120EF1E3E602120EF1EAE602120EF1F697
:10208300E702120EF126E802120EF14CE802120EDC
:10209300F16FE802120EF191E802120EF1CBE802A1
:1020A300120EF131E902120EF16AE902120EF1B6D3
:1020B300E902120EF1E3E902120EF103EA02120E33
:1020C300F1119303120EF1239303120EF1069403FD
:1020D300120EF1099403120EF1FC9003120EF16E2D
:1020E3009103120EF1AC9103120EF1ED9103120E56
:1020F300F187FD02120EF1EDFD02120EF1C5FE0293
:10210300120EF1D3FE02120EF1E2FE02120EF1ECF8
:10211300FE02120EF1F3FE02120EF127FF02120E5F
:10212300F168FF02120EF1F8F002120EF114F1023F
:10213300120EF163F102120EF17FF102120EF1B0F1
:10214300F102120EF1C0F102120EF1ACF202120E04
:10215300F1B6F202120EF1C3F202120EF1D3F30240
:10216300120EF1E7F302120EF1F0F302120EF15D1B
:10217300DE02120EF17DE202120EF182E202120E73
:10218300F17B9903120EF1CB7F00120EF113A40120
:10219300120EF1E7A201120EF13BA201120EF18C15
:1021A300A001120EF1479E01120EF1BE9D01120E07
:1021B300F1659D01120EF1F99C01120EF1D09C0103
:1021C300120EF1475E00120EF1355E00120EF1C3DE
:1021D3009A01120EF18F9A01120EF1A5B001120E9F
:1021E300F187B001120EF15C9A01120EF1409A01CF
:1021F300120EF15C9901120EF1149901120EF149BC
:102203009701120EF1C99601120EF1C69601120E34
:10221300F1E09501120EF1AE9501120EF1EB94016E
:10222300120EF1169301120EF1CC9201120EF19ED1
:102233009201120EF19B9201120EF1889201120E7D
:10224300F1209201120EF10F9201120EF1F490019E
:10225300120EF14FAF01120EF1ACAE01120EF15995
:10226300AD01120EF10AAB01120EF1A5AA01120E75
:10227300F18A9001120EF14D9001120EF1EE8F01D1
:10228300120EF15DAA01120EF1BD8F01120EF1784B
:102293008C01120EF1698B01120EF1F88A01120EF4
:1022A300F1D0A901120EF10DD802120EF1BD8A016F
:1022B300120EF1888A01120EF17C8A01120EF1DCF2
:1022C3008901120EF1238901120EF1F68601120E15
:1022D300F1828401120EF1408401120EF10B83018D
:1022E300120EF1C08201120EF1F28101120EF149B8
:1022F3008101120EF1E58001120EF11F8101120E10
:10230300F1C3A901120EF1D0A70200000080FBE483
:1023130073000136360101000102010001030100CF
:10232300010401060605020000070100340801004C
:102333000F090401010D0100FF0E08000017020040
:1023430000190100FF1A0100011B0100FE1C01001E
:10235300081D0200001F01000120010001210200ED
:10236300002301000F2402000026010001270100C1
:1023730008280200FF2A0100072B0102402C01005C
:10238300002D0100012E0100012F0100FF30010B80
:102393001C310800003A0100083B01000F2F010027
:1023A300000101710101010101110101013101016B
:1023B3000101018001100161013B001400630173FD
:1023C300017201620143010001130106013D013560
:1023D30000040112010001000100010001040104D5
:1023E30001330133013C0144013201360000010095
:1023F30001650100013500810100010501820183AE
:102403000100010300710030016000110070003110
:1024130002200350048000100061000000140063D8
:102423000073007200620043000000130006000006
:10243300000000040012000000000000000000047F
:10244300000400370037003C024400000000000095
:102453000000006500000035008100000005000059
:102463000083000000010371030103010301030161
:10247300030103220302030103100300030003000B
:1024830003000300030003000342030003240306C5
:10249300030003000304031203250323032503237B
:1024A30003040304030003000300034403000300C5
:1024B30003230300036503210035038103000305A0
:1024C30003000300030003030271023001600211E1
:1024D3000270020102020202028002100261023A49
:1024E300004100630273027202620243020002139C
:1024F300023800000200020402120200020002007D
:1025030002000204020402370037003C02440200C6
:102513000239000002000265020002350281020056
:102523000205028202830200023600010006000057
:10253300000F000000000000000000000000000386
:10254300FFFF00000403FFFF0000FFFF0FF4010083
:1025530005C4040320000100000B0000000000007C
:10256300000003010F0100011D0200771C03007D21
:102573001C0400831C0500891C0600951C1100AD7A
:102583001C1400B31C1500A71CFFFF0000FF152F30
:102593001605160B1629161D16171635163B16416A
:1025A300164D161116F915F31503EAF5E5D5D5C53C
:1025B300B5A5959585857575656555554545353538
:1025C30025251515050AD113029B1305AD1307A184
:1025D300130C7D130D8F13FF000000160F00000B6B
:1025E300150B020002220F32000006E916FB16014A
:1025F30017C9150717C315CF15491767176D174F58
:10260300175B1755170C0E020B040B0A0708000F74
:1026130000383C3E363B3B352B432C000119161842
:1026230016161523030000034948424D18172505C4
:1026330002303017181921301B1D1F303030161887
:102643001920231A1C1E303D170D1713171F1719B6
:102653001723164716611753165916020402010170
:102663000101090200000000000000BE040AE803A3
:10267300040015000E00280008040C0A030908FFD3
:102683001E1E0F040C0574F7120A7CE99003B0F0C8
:10269300900365E4F01220C19003B5E4F0A3F09039
:1026A30003B1F0A3F01215091220C7900334E4F02C
:1026B300A3F090268593FA790212215D02533A74AE
:1026C300F2120A7CEAFEEBFF548060699003B0E0EB
:1026D300F91219FB8A088B09EA4509604F7C0080CF
:1026E300010CEC75F003A4F8A9F074C828F5827402
:1026F3002539F583E493F4602CE493F88508828B01
:1027030083E06870DCAA08EC75F003A4F874C928A8
:10271300F582742539F583E493C0E0740193F5835E
:10272300D082122312AA08AB091219EFEEFAEF6452
:1027330080FB02288FEF5420601D12142B8A088B14
:1027430009EA4509600A12138FAA08AB091219EFA7
:10275300EEFAEF642080DAEEA2E0501A90036AE00A
:10276300640F700B7900121359E96003122892EE7B
:102773006401FAEF80BB5420700302285D750C00DE
:10278300123D7F8B09EA450970107C027D007A2097
:102793007B009003B0E0F9121B0F7C0079047A00F0
:1027A3007B001214078A088B098018850882850923
:1027B30083A3A3A3A3A3A3A3A3A37401F0850A08DC
:1027C300850B09E5084509606D7C007904AA08AB0F
:1027D300091214078A0A8B0B750C01E5082404F807
:1027E300E509123B2324FFF0A3E034FF125DF270EE
:1027F300CC850882850983A3A3A3A3A3A3A3A3A32F
:10280300A3E0640170A5850882850983A3A3A3A31C
:10281300A3A3E054047094850882850983A3A3A32A
:10282300A3A3A3A3A3A37406F07AB785088285099B
:10283300831229BE80871213D77C0079017A007B2B
:10284300001214078B09EA45097009E50C70057A33
:1028530020124CD9EE6420022775EF5402600B124C
:102863001503EEFAEF6402022734EF5404601912E1
:102873004E70124D9079019003631250F412129F1F
:10288300EEFAEF64040227347A007B00022AC59033
:102893000BEF12317C12137122C082C08374EA12CF
:1028A3000FBA851882851983AA82AB83794B1221CB
:1028B3003374081211D87402F074091211D8AA8261
:1028C300AB83795012213374131211D8E41252C31B
:1028D300122151741602429D74F7120A7C74E1129C
:1028E3000FBAEAFEEBFFEE4F60338518828519833A
:1028F300AC82AD8312144F74061211D8E0601E74BB
:10290300171211D8E0FD74011211D8E0FCEEFAEFB2
:10291300FB79001221E1E9600479A48002790002C5
:10292300533574F6120A7CEAFEEBFF8E828F83A383
:10293300A3A3A3A3A3E05440601B1257B2122A8C93
:1029430060067AFF7BFF801A8E828F83123F29FAFB
:10295300A3E0FB800312147374FE6A700374FF6BAD
:1029630060411257B2124D1D1214C7E98E828F8334
:1029730060061229B7E480051229B77401F07C5F61
:102983007D138E828F831250F4122157E9F508705C
:1029930015EE4F60097901EEFAEFFB1213E3A90874
:1029A300024D4E7508CDAA088E828F831229BEE987
:1029B30060DF80EAE0240D1243F822E0240C124386
:1029C300F8E0F912136B2274F6120A7CE9FEEAFFAF
:1029D3007A0F7B001219E9EA4B60198A828B8374A0
:1029E3000CF0EEA3A3F0EF8A828B83A3F0124D7950
:1029F3007900802FEEF912140D8A088B09A808A913
:102A030009E849601C88828983A3A3A3A3A3A3A382
:102A1300A3A37406125A19E0F9121323EEF9121341
:102A2300E97910024D4EC082C08390036AE0640FBF
:102A33007014EA4B6010900365E064086005E0647D
:102A4300047003122A4C0242C7EAFCEBFD7A017BB5
:102A5300009003B0E0F9121B0922C082C083790001
:102A6300EA241DF582EB123F2624FD600B14600857
:102A730024FD600424FD7001090242C78E828F8306
:102A8300A3A3A3A3A3A3A3A3A3122A9022123F6EDB
:102A9300FB1214C7E9228E828F83A3A3A3A3A3A34C
:102AA300A3A3A3122A906402228E828F83A3A3A3DB
:102AB300A3A3A3A3A3A31242BE900356E0682212CA
:102AC3000F567F06020CF174F4120A7C74FD120F88
:102AD300BA8A088B098A828B83A3A3E0F912140DA7
:102AE3008A0A8B0BAE0AAF0BEE4F7003022BD18514
:102AF3000882850983A3E064F16030850882850933
:102B030083A3E064CD6024850882850983A3E06400
:102B13001A6018850882850983A3E064E9600C853F
:102B23000882850983A3E064E1700879001213E346
:102B3300E9706C850882850983A3E0C0E074021202
:102B430011D8D0E01242A2EEF0A3EF1235EA8518B5
:102B530082851983AA82AB837005121287800312C0
:102B630014AF74021211D8E064E970338E828F833C
:102B7300122BDD750A01780A120F2D750AE9780AFE
:102B8300120F2DE508240CF582E5091230CC12351D
:102B9300C7FCA3E0FD8A828B831235E1120F568EA8
:102BA300828F83A3A3A3A3A3A3A3A3A3E06402701D
:102BB300108E828F83A3A3A3A3A3A3A3A3A37406AB
:102BC300F0850882850983A3A3E0F91213E91213A0
:102BD300D7900BF3122895023181E0F8A3E0F9E8CE
:102BE300FAE9FB2274F4120A7CEAFEEBFF75080093
:102BF3008E828F83A3A3A3A3A3E060427508088EEC
:102C0300828F83A3A3A3A3A3A3A3A31241D18B0B5B
:102C1300EA450B601075082C8E828F83A3A3A3A3B0
:102C2300A3E0D2E0F08E828F83A3A3A3A3A3E054F7
:102C33000364016003022CD0430811022CD0EE245C
:102C43001812318E6033EE241A12318E700F122A4D
:102C5300AC7003A3E06970757508228070EE241BC5
:102C6300F582EF122CD5241AF582EF1235F2EE24F9
:102C7300191257E61213118054122A99700375081A
:102C830001122AAC7003A3E0697006E508D2E1F5EE
:102C930008E50860158E828F83A3A3E07006E5081C
:102CA300D2E58004E508D2E6F508122A7F640170B4
:102CB30006E508D2E0F5088E828F83A3A3E0600DBA
:102CC300122CE364016006E508C2E0F508A90802D6
:102CD3003186123F14122CDC22E0FCA3E0FDEE222D
:102CE300123F0E123F46F91214B5E922C082C08387
:102CF30079018A828B83A3A3E0C394024001198ADA
:102D0300828B83A3A3A3A3E0C39402400279008A26
:102D1300828B83A3A3A3A3A3A3A3A3A3E064F870B9
:102D230003A3E0F460458A828B83A3A3A3A3A3A395
:102D3300A3A3A3E064F97003A3E0F4602E8A828B5B
:102D430083A3A3A3A3A3A3A3A3A3E064FA7003A3EE
:102D5300E0F460178A828B83A3A3A3A3A3A3A3A3F3
:102D6300A3E064FB7003A3E0F4700279008A828B12
:102D730083A3A3A3E0F8900353E068600279009073
:102D83002684E493C394805013EA2411122DA29055
:102D93002684E493C333C398500279000242C7F5F3
:102DA30082EB124DA9F82274F0120A7C74DE120F22
:102DB300BAEAFEEBFF8E828F83A3A3A3A3E0600E88
:102DC300900BF1124D456006900BF1122895740398
:102DD3001211D8AC82AD838E828F83A3A3A3124D2D
:102DE300C7125600E9600F74031211D8AA82AB838D
:102DF300121389E9700879011220D30230C1EE243D
:102E03001B123F1974101211D8124D90740912112C
:102E1300D8E06021741A1211D8E0FD74041211D89D
:102E2300E0FC8E828F831250F279011221E1E96076
:102E330004790280C374031211D8AA82AB831213DC
:102E430083E9F50A74091211D8E0702A90034DE062
:102E530060247422550A6422601C7442550A644239
:102E630070CF74201211D81230D7600A7420121157
:102E7300D81230D070BBE9A2E6504174031211D8C6
:102E8300AA82AB83121377E97003022DF97420121F
:102E930011D8123F296403700F74201211D8A312A2
:102EA3004D37A3E0640D601474031211D8AA82ABEA
:102EB300831214D9E9640170030230C1EE242C1289
:102EC30030C91233FD7003A3E069701C75080078E4
:102ED30008120F2D7808120F2DEE242E1257E6122A
:102EE30030DD1235E1120F5674091211D8E0700368
:102EF300022F9E1230DD1250F41215278A088B0917
:102F0300EA4509700302303B74041211D8E0F88ECD
:102F1300828F83A3A3E028F8A3E03400F9E8240D0B
:102F2300F582E9122DA58A828B83A3A3A3E06860AF
:102F33001CE88A828B83A3A3A3F09080B81211ADFF
:102F4300850882850983A3A3A3A31211A17904E9A8
:102F53001211D81255DD2AF8A3E034008882F583D4
:102F6300A3AA82AB831219DD8A0C8B0D8C0E8D0FF5
:102F7300850882850983A3A3A3A3780C120EAA4014
:102F8300030230C19080BC780C12106085088285E2
:102F93000983A3A3A3A3780C121149900365E064EA
:102FA300046008E0640960030230C1E50AA2E54059
:102FB30003023079EE242E12318E8518828519830F
:102FC300F0EE242F12318EC0E074011211D8D0E03C
:102FD300F0EE243012318EC0E074021211D8D0E02A
:102FE300F074141211D8E064017027740E1211D812
:102FF300123F1FEE241212318E687003A3E0697032
:1030030011740C1211D8122AA6700774141211D855
:10301300E4F0EE24241230C9120DBC74041211D84A
:10302300AC82AD8374071211D8AA82AB8312128DBE
:103033007404120F560230C19003AAE064016003C6
:10304300022F9E74201211D81230D77009E50AA2FC
:10305300E65003022F9E74101211D8E0F47003A3FC
:10306300E0F4605AEEFCEFFD74031211D8AA82ABB0
:10307300831213958048A2E6504474201211D8128B
:103083005103701A741A1211D8E064027030740379
:103093001211D8AA82AB8379001214A38020742062
:1030A3001211D81230D07016741A1211D8E06404B9
:1030B300700C74031211D8AA82AB8312149D74226C
:1030C3000254AFEE240BF582EF123F14221257C4C1
:1030D300E0640722123F46640622EE242A123F11BF
:1030E300122CDC2412123F112274F4120A7CEAFE21
:1030F300EBFF8C088D099005AFE0600F122AAC70CE
:1031030003A3E06970051212FF804F79001250E7A4
:1031130012132F8A828B83E58245836035A3A3A391
:10312300A3A3A3E05418602AE508241BF582E5094C
:103133001230CC120DC01237BD1230CC120DC0EEBE
:1031430024181257E612315F1213417404120F56FA
:103153008008790012315F12130580278E828F83D6
:10316300A3A3A3A3A3A3A3A3A3122CDC240BF582E1
:10317300EF123178223400F583123F6EFB22740381
:10318300120F567F04020CF1EE2417F582EF124D55
:10319300A92274F7120A7C74F7120FBAEAFEEBFF46
:1031A300900365E06403600DE064016008E0640976
:1031B30060030232778E828F83A3E060030232566C
:1031C3007C007D007A027B001220CDEE2402FAEF10
:1031D300123B2A123F1F900356124D90795312212E
:1031E30039790012327CE06409600990036312505C
:1031F300F41215218518828519837401124D669086
:1032030003657404F074011211D8AA82AB83794A5E
:1032130012213374011211D8AC82AD837A5B7B0324
:103223001220EB9003561255F67A037B001220CD41
:103233009003591255F67A047B001220CD90035067
:10324300E0A2E35004D2F08002C2F0124D531228E0
:1032530092801E8E828F83A3AE82AF83FC7D007A21
:10326300037B101220CD8E828F83E0F912327CE42F
:10327300F01213BF740902533790036312317C12A7
:10328300129F90036522C082C083900334124D4580
:10329300701F900365E014600924FC600A14600C3D
:1032A300800F90033C8032900338802D90033A8046
:1032B30028E84960089003351235C1700C8A828B67
:1032C30083A3E0F9121293801B90033512385970CF
:1032D300051214F7800E9003D2124D456006124D6D
:1032E300371223120242C774F4120A7C74FB120FC2
:1032F300BA8A088B097A0F7B001219E98A0A8B0BA9
:10330300AE0AAF0BEE4F70030233F18E828F83123E
:1033130052C17950122133850882850983A3E06065
:10332300030233D9900363E0F47003A3E0F4603441
:10333300900363E064FE7003A3E0F46027851882C2
:103343008519831233FD7003A3E069601785088232
:10335300850983A374EA1235F77A637B03795012E4
:10336300213980728518828519831257A5124D90D1
:103373007A567B037953122133900356124DC112AF
:103383004D907A597B03794B1221337A587B037919
:10339300E112213390036AE0C3940F502190035844
:1033A300E0C0E074021211D8D0E0F074041211D816
:1033B3007401F0041211D8AA82AB8312214B750A4F
:1033C30000780A120F2D780A120F2D900C11E0F9D4
:1033D3001235D8120F568508828509831233F6A356
:1033E300F09003657403F0EEFAEFFB124D79740568
:1033F300023183A3E08E828F83221257A9E06822D1
:103403001243FF2274F5120A7C74D8120FBA8A0889
:103413008B098A828B83A3A3A3123F4B74151211CA
:10342300D8AC82AD838A828B83A3A3A3A3A3A3A3D4
:10343300A31235C7FAA3E0FB1213C574151211D8F2
:10344300E0706B850882850983A3A3A3A3A3A3A329
:10345300A3E0C3940B40578E828F83A3A3A3A3A39C
:10346300A3A3A3E064027046EE240B12318EF47022
:103473003D900365E06402603AE0640660359003C2
:1034830034124D4560051235C1604F900365E06409
:10349300086005E06404701674171211D8E0F9741B
:1034A3001C1211D8AC82AD831250E71213CB7428CF
:1034B300025C9F900334124D45701F750800780815
:1034C300120F2D7808120F2DEE24101230C9125747
:1034D300FE123C121235E1120F568E828F83125068
:1034E30063123B3C123F1F74021211D8124D90EE2F
:1034F300240D12318EC0E074041211D8D0E01235BD
:10350300EAF508A3E0F509740F780812116774054A
:103513001211D8E508F074191211D8E0C0E074064E
:103523001211D8D0E0F0741B1211D8E0C0E0740778
:103533001211D8D0E0F074161211D8E0C0E074096B
:103543001211D8D0E0F074171211D8E0C0E074085B
:103553001211D8D0E0F0EE241012318EC0E0740ABC
:103563001211D8D0E0F0741A1211D8E0C0E0740B35
:103573001211D8D0E0F074271211D8E0C0E0740C17
:103583001211D8D0E0F0741C1211D8A982AA838931
:10359300088A09750A007808120F257C087D0074D3
:1035A300101211D8AA82AB831248F4120F56851851
:1035B30082851983AA82AB831212990234B112381D
:1035C3005F640122E0F98A828B83A3A3A3A3A3A34D
:1035D300A3A3A3E0229003631255FA900359123177
:1035E3007C121485740222F0EE240B124DA62212D3
:1035F3004DA9FA22F07A567B03795312360222122E
:1036030021397A597B03794B12213922F012580957
:103613002274F2120A7C74F8120FBAEAFEEBFF8CE2
:103623000A8D0B890C851882851983AC82AD83754D
:1036330083807582777408120E89F50DEEFCEFFD19
:10364300851882851983AA82AB83124FC4700375D0
:103653000D019003B1803BEEFCEFFDE508240BFA6E
:10366300E5093400124FC3601E850882850983A3D0
:10367300A3E0650C7011850882850983E0650A70F3
:1036830004A3E0650B6038E5082414F582E509120C
:1036930030CC123B34E50845096024E50DA2E04037
:1036A300B6850882850983E0650A7004A3E0650B8B
:1036B30070D5850882850983A3A3E0650C70C8AA29
:1036C30008AB097408022AC2C082C0839003B10206
:1036D30042C474F7120A7C9003B1123F6E8012EA5F
:1036E3002414F582EB1230CC123F4B121A67EEFA18
:1036F300EFFBEA4B70E99003B1E4F0A3F002533A15
:103703007F07020CF174F1120A7CEAFEEBFF890ACF
:103713008C088D098E828F83E08C828D831241DB2E
:10372300AE82AF83E01249B4124925C41249B412E0
:1037330037C6E054038C828D83124923A2E2E4331B
:103743008C828D83124922131313541F1249B4120E
:103753004921A2E7E4338C828D83A3A3A3A3123769
:10376300C68E0C8F0D750E00780C120F257C087D0C
:1037730000E5082407125569120F561255D48E0C12
:103783008F0D780C120F257C037D00E508240F12A2
:103793005569120F56E50AC3940F40148E828F8326
:1037A300A3A3A3E0C0E01237BD1230CCD0E0800663
:1037B3001237BD125A0DF0023703E5082412F582C1
:1037C300E50922A3A31241DF0EAF832274F4120A88
:1037D3007C74F9120FBAEAFEEBFF890890033412E6
:1037E3004D45600E1238597009EEFAEFFB1214F1D1
:1037F300805F900363E06E7003A3E06F7053740106
:10380300650860097A777B03124FC470447A007BA2
:1038130002123D838B0BEA450B703690036612113F
:10382300AD8518828519831211A190036CE0C0E065
:1038330074041211D8D0E0F074051211D87401F099
:1038430074061211D81252C1121263E9609B12124C
:1038530069740702318312385F6402221257C5A3C9
:10386300A3A3A3A3A3E02274F5120A7C8A088B09FD
:103873008A828B83A3AE82AF83E0F91212B78E8262
:103883008F83E064EB600C850882850983A3E06481
:10389300E17009850882850983A3E4F012289275F3
:1038A3000A01780A120F2D850882850983A3E0F5A2
:1038B300087808120F2D79001235D8120F561213FB
:1038C300D7025CA2EAF0A3EBF00242C774F6120A35
:1038D3007C9003B4E0701B7C0079017A007B0012BA
:1038E3001407EA4B600C8A828B83124D45600312E6
:1038F3001365024D4EC082C083123D6B401079FFA9
:10390300121401E9F890267DE493C39850047901D9
:10391300800279000242C774F0120A7C8A088B097C
:10392300890B750C008A828B83A3A3A3A3A3A3A3F0
:10393300A3E0F912140D8A0E8B0FAE0EAF0F750AAA
:1039430001EE4F60030239F8850882850983A3A33A
:10395300A3A3A3A31255F6850882850983A3A3A372
:10396300A3A3A3A31246F41250F41213F58A0C8BEB
:103973000DAE0CAF0DEE4F7003023B1B8E828F8397
:10398300A3A3A3A3E4F0A3F0E508240B123B27E0D1
:10399300C0E01230C6D0E0F01214CDEE240CF58254
:1039A300EF124D19E508240EF582E509123F1CEECE
:1039B300240EF582EF124D8D750C01EE2406F8EFFF
:1039C300123B23547FF0A3E054FC12585BE05404F1
:1039D3006003023A7E900BF71246E57407780812EB
:1039E30010E58E828F83A3A3A3A3A3A3E04508F0CE
:1039F300A3E04509F08E828F83A3A3A3A3123B32D6
:103A030074077808121167E5085407F508E50B6099
:103A13007A8E828F83A3A3A3A3A3A3A3A3A37402D6
:103A2300124926240D1243F4E0A2E2500B900351F5
:103A3300124DC1A3A3124D90E5087003023AF0EEB4
:103A43002406F8EF3400F9E8FAE9FB8A828B83E075
:103A5300547FFCA3E054FCFDE50824FFF508E4349F
:103A6300FFF509740778081210E5EC4508F8ED45F1
:103A730009F98A828B83124D9080728E828F83A381
:103A8300A3A3A3A3A3E044800239F7E50870057557
:103A93000A0080598E828F83A3A3A3A3A3A3E05418
:103AA3002060121219E3EA547F245F8E828F83A36E
:103AB300A3A3A380238E828F83A3A3A3A3A3A3E0A3
:103AC3005410600A1219E3EA540F240A80DD8E822F
:103AD3008F83A3A3A3A37401F0A3E4123B3C740458
:103AE300123D7A8B09EA45097003124D0CE50CA2CD
:103AF300E050288E828F83A3A3A3A3125327F9EE4A
:103B0300FAEFFB1213FBE96012124D3B6003123F05
:103B130004EEFAEFFB121A67750A00A90A0254B2FF
:103B2300124E8422FAE5093400FB8A828B8322A396
:103B3300A3E0F508A3E0F50922123B4022125585C4
:103B4300A3A3A3A3A32274F4120A7C74F7120FBADB
:103B53007E0012140DEA4B7003023C0B8A828B83A6
:103B6300A3A3A3A3A3A3A3A3A3E064066003023CAC
:103B73000B8A828B83A3A3A3A3A3A3A3E0FF8A82BD
:103B83008B83124407E0C0E074081211D8D0E0120E
:103B93003F3F124FCA124D9012141FEF5408606634
:103BA3008518828519831255F67A007B001213EF6C
:103BB3008B0BEA450B704F90036312402F12216366
:103BC3007C007D007A007B0080288E828F83123FE9
:103BD30029F47003A3E0F4602D900363123C1212E6
:103BE30050F4121E2DE9641A601C7C007D00EEFA6D
:103BF300EFFB1213EF8A0A8B0BAE0AAF0BEE4F707B
:103C0300C979001221697E01EEF974090231831228
:103C13003C1622E0FCA3E0FD8E828F8322C082C08B
:103C230083EA4B70059003B580068A828B83A3A336
:103C3300123E2F60258A828B83A3A3A3A3A3A3A3EE
:103C4300E0540860E5EC4D60158A828B83123F29AE
:103C53006C7003A3E06D70D280047A007B00024293
:103C6300C774F2120A7CEAFEEBFF890A8C088D09FD
:103C73007A107B00121A61EA4B603F8A828B83A31E
:103C8300A3A3A3A3A3A3A3A3E4123F2DA3E50A1213
:103C930057CBA3123CC78A828B83A3A3A3A3E4F0CD
:103CA300A3123F39A3F012565FEA240CF582EB12FC
:103CB30041CB123CC0A3A3F0A3F0022AC5A3F08A10
:103CC300828B8322A3A3E508F0A3E509F02274F411
:103CD300120A7CEAFEEBFF89088C0A8D0BEE4F601B
:103CE300557401650870147901121401E9F89026DE
:103CF30081E493C398500F7911806A740465087046
:103D03002F123D6B40F18E828F83A3A3A3A3A3A3A2
:103D1300A3A3A3E5081241DBA3125D2C8E828F833C
:103D2300A3A3E4F0A3F09003B5124D456021800DE9
:103D33007402650860D079C1802BE0F8A3124DBAF4
:103D4300A3A3123E2F88828983A3A370ED800390DF
:103D530003B5EEF0A3EF123D7A8B0BEA450B70032C
:103D6300124D0C79000231867904121401E9F8909E
:103D73002688E493C39822F0123D7F227A207B00A9
:103D83009003B0E0F9121B1B22C082C083E9F879CB
:103D9300009003B5801D8A828B83A3A3A3A3A3A34F
:103DA300A3A3A3E068600574FF687001098A828B8E
:103DB30083A3A3123E2F70DE0242C774F7120A7C5C
:103DC300EA4B70059003B580068A828B83A3A31206
:103DD3003E2F60248A828B83A3A3A3A3A3A3A3A3BD
:103DE300A3E06970E4EC60148A828B83E0240D12F3
:103DF30055E7A2E240D380047A007B0002533AC025
:103E030082C0839003B580068A828B83A3A3123E6C
:103E13002F60128A828B83A3A3A3A3A3A3A3A3E0EC
:103E23006970E580047A007B000242C712317CEAA4
:103E33004B2274F2120A7C8A0A8B0B8C0C8D0D7543
:103E43000800750900EA450B602E9003B580068EC5
:103E5300828F83A3A3123E82601EAC0CAD0DEEFADB
:103E6300EFFB850A82850B83122312E9640170DF5D
:103E7300EEF8EFF988088909AA08AB09022AC5E018
:103E8300FEA3E0FFEE4F2274F7120A7C9003B512F3
:103E93003F1F7C007D00800DE8FCE9FD888289835B
:103EA300A3A3123F1FE8496030EA687002EB697010
:103EB300E79003B51250F4E86A7002E96B888289CF
:103EC30083A3A37008123F1F9003B58009123F1FFD
:103ED3008C828D83A3A3124D9002533A74F7120A76
:103EE3007CEAFEEBFFEE4F6015121419123F5112DC
:103EF3004D3B6003123F04EEFAEFFB121A670253C5
:103F03003AEE240C123F11123F6622EE241DF58275
:103F1300EF3400F58322F582EF123F141242BE22E2
:103F2300F582EF123F14123F4622123F31221257FD
:103F3300D3A3A3A3A322123F31A3A322123CC112F2
:103F43003F46221257BEE022E0FEA3E0FF228E820C
:103F53008F83E0241C1243F8123F668E828F8312F4
:103F63003F6622123F6EFB121A6722E0FAA3E02299
:103F7300C082C083EAFCEBFDEC4D700479058044FC
:103F8300EC24FBF582ED34FF124D437007123FCA58
:103F9300E0F460051219EF80E39003B0E0C0E01293
:103FA3003FCAD0E0F090267EE493F97AB77B031200
:103FB3001A19E96401700B7A007B20124D10790005
:103FC300800279040242C7EC24FFF582ED34FFF549
:103FD300832274F4120A7CA2AFE433F508C2AF90D3
:103FE30003B7123E826038EE24FBF582EF34FF12F2
:103FF3004D437A007B209003B06005124D1380057A
:10400300E0F91222A7E4F50AF50B780A120F29EE5C
:10401300FCEFFD7AB77B03121A137402120F56E5F5
:1040230008A2E092AFEEFAEFFB0231861255FA8551
:104033001882851983AA82AB832274F2120A7C74D4
:10404300FC120FBAEAFEEBFF750AFE750BFF1213A3
:10405300DDE9600579110241C0EE241512318E604D
:1040630037900C0BE0C43354E0F8E0333354FC488E
:10407300C0E0EE24151230C9D0E01241DB1241D169
:104083008B09EA45096011750AFFEE240F12318E80
:104093004404124D9ED2E0F08E828F83122A8A60EE
:1040A30006EE24121241C8EE241312318E701090C2
:1040B3002684E493C0E0EE24131230C9D0E0F08EDE
:1040C300828F83E0A2E750045403801CEE24141271
:1040D300318E7015900342E0C0E0EE24141230C913
:1040E300D0E0F0900342E004F0EE241112318E642C
:1040F3000170169005A6E0600D90034DE0700A8EE6
:10410300828F83E070031241C58E828F83E0640146
:104113007013EE240B123F2364027009EE240F1276
:10412300318E4440F0851882851983AC82AD83EECD
:10413300FAEFFB1214438A088B0974FE650A7003B5
:1041430074FFF470098E828F83A3A3125575EA4519
:104153000960668E828F83E0C0E074011211D8D0AB
:10416300E0F074021211D812566374011211D8854B
:10417300820C85830D780C120F29EE240F1230C99F
:10418300120DC0EE240E12318EF50C780C120F2D89
:10419300900356120DC074071211D8E0F9AC0AADA2
:1041A3000B12143D7407120F56E9FE74106E700B58
:1041B300AA08AB09121A6780027E10EEF974040292
:1041C3002AC2EE2411F582EF123F14E4F022A31267
:1041D300317C79FF122283221241DF22F08E828FFB
:1041E30083A322C082C08374DE120FBA8A828B83B8
:1041F300A3A3A3A3123F1F740E1211D8E8F0A3E9DF
:104203001242B5740C1211D81242AE240DF582EB92
:10421300123191C0E0741A1211D8D0E0F01254C2D6
:10422300EB123F1C74201211D81242AE2415F582F2
:10423300EB123191C0E074081211D8D0E0F0EA24F7
:104243001CF582EB123F1C74121211D81242AE24D9
:1042530011F582EB123191C0E074091211D8D0E04C
:104263001242A274FFF074011211D874FFF07402A9
:104273001211D874FFF09080B8120DBC740412119F
:10428300D8AC82AD8374071211D8AA82AB83121201
:104293008D7404120F5679007422120F5680251262
:1042A30042A622F085188285198322E8F0A3E9F05B
:1042B300EA22123CC1A31242BD22A3E0F8A3E0F913
:1042C300221250F4D083D082020EEE74EC120A7CD8
:1042D30074EE120FBA8A128B13ECFEEDFF89097488
:1042E300261211D812557574281211D8E0F51074DE
:1042F300291211D81243E9742B1211D8E0F50EA339
:10430300E0F50F7508107A1E7B00121A6174021211
:1043130011D8124D1D74021211D8124D45700302AB
:1043230043E2851882851983AA82AB837950124BA5
:10433300F81250F474021211D8124407A3124D1D3F
:1043430074101211D8125D2E74021211D8E0240BCE
:104353001243F47402F01211D81244077402F012DB
:1043630011D81257B612566374021211D81251099A
:10437300E509F074021211D8E0240C1243F4E5109D
:10438300F074021211D81243F1E512F0A3E513F011
:1043930074081211D8E50CF0A3E50DF0740A12119C
:1043A300D8E510F0850E82850F83C082C083740D1B
:1043B3001211D8AC82AD83D083D0827403120E89DC
:1043C300F974021211D8AA82AB831213E3E96401D0
:1043D3007005750800800874021211D8123F0AA9EB
:1043E30008741202558CE0F50CA3E0F50D22E024CD
:1043F3001C1243F822F8A3E01243FF223400F98889
:10440300828983221250FCA3A3A3A3A32274EE12D6
:104413000A7CEAFEEBFF8C088D098E828F83A374DE
:1044230008124DD9E060088E828F83A37410F012B6
:10443300318B60098E828F83A3E02408F0EE24156C
:1044430012318E60088E828F83A3E004F08E828FF8
:1044530083A3A3A3A3A3A3E060198E828F83A3A343
:10446300A3A3A3A3A3E0C3332402F88E828F83A361
:10447300E028F0EE241112318E6005750B0E8003D7
:10448300750B008E828F83A3C082C083EE240D122E
:10449300318ED083D082F8E028250B8C828D83F077
:1044A300EE241112318E600512490428F08508822A
:1044B300850983E0C39475400975080075090002F6
:1044C30045F2E0FA7B0012571170030245F2EEFA4F
:1044D300EFFB121449EA850882850983124D1EEE0B
:1044E3002402F8EF1234031246EC12462EF0EE24A7
:1044F300040808EF123403124B2EA312462EA3A373
:10450300F0EE2413124614F0EE2414124614A3F012
:10451300750A08EE241612318E6010EE2418125517
:10452300F3E50824081257F4750A1012318B60164C
:10453300EE241A1255F3850A0CE508250C1257F4DC
:104543007408250AF50A8E828F83A3A3A3A3A3A3CA
:10455300E06059EE2407F510EF3400F51185108261
:10456300F583E0C0E01245FB1230CCD0E012461ECA
:10457300E0C0E01245FB1230CCD0E012461EA3127D
:104583004607120F25851082851183E0C333FCE4AF
:1045930033FD850A0CE508250C125569120F568563
:1045A3001082851183E0C333250AF50AEE24151220
:1045B300318E600BC0E01245FB1230CCD0E0F0121C
:1045C30030C6124607120F25EE240D12318EFC7DE4
:1045D30000850B0A8E828F83A3E0F8E50828F8E5AF
:1045E300093400F9E8250AFAE912556C120F56AAA4
:1045F30008AB097F0A020CF1850A0CE508250CF5C6
:1046030082E50922E0F50CA3E0F50D750E00780CA8
:1046130022123F11124638A3A3A322F0050A8E8269
:104623008F83A3A3A3A3A3A3A3A322A3A312585F2C
:10463300A312463822124B32A3A32274F6120A7C29
:104643008A828B83E0FC9003531246E57402780858
:104653001210E5EC4508FCAD09EA24121246DF749A
:104663000678081210E5EC4508FCED4509FDEA243F
:1046730015F582EB1231916004780180027800E431
:10468300C8F9ED49FDEA2411F582EB123191F508E1
:104693008809740978081210E5ED4509FDEA241626
:1046A3001246DF740B78081210E5ED4509FDEA2484
:1046B300171246DF740C78081210E5ED4509FD8AE0
:1046C300828B83A3A3A3A3A3A31246E5740A78084A
:1046D3001210E5ECFAED4509FB024D4EF582EB12A3
:1046E3003F14E0F50875090022E0850882850983F7
:1046F30022A3E0F98508828509832274EE120A7CDD
:104703008A0A8B0BECFEEDFF750F01E9C394085089
:104713000579000248F18E828F83E9F0124B57E945
:104723006003750F00124B3B8E828F83124B85EE15
:104733001254C3EF124B7AC0E0EE24111230C9D0E9
:10474300E0124B72C0E0EE24121230C9D0E01241E5
:10475300DB740812557DA3A3A3E06015124B23EE6F
:104763002413F582EF124D8D8E828F83A3E02408EC
:10477300F08E828F83A3A3A3A3A3A3A3A3E06021AB
:104783008E828F83A3858208858309124B66EE246C
:1047930015F582EF124D8D850882850983E0240883
:1047A300F08E828F83A3A3A3A3A3E0601A8E828FCC
:1047B30083A3858208858309124B4A8E828F83A344
:1047C300A3A3A3A3124916EE24191241C8EE241B76
:1047D3001241C8A3124DD1E07003024885EE24199B
:1047E300F8EF3400F98E828F83A3858208858309CD
:1047F300E0FAE50A2AF582E50B1231918882898372
:10480300124916FAE50A2AF582E50B123191C0E046
:10481300EE241A1230C9D0E012491688828983E047
:104823006059F8902687E493C398500575110C805E
:1048330008EE241912318EF5118E828F83A3E0F8CE
:10484300E50A28F50CE50B1248FA120F25E511C30A
:1048530033FCE433FD7A757B0A1248F4120F56EEEB
:10486300241B1230C97475F0A3740AF0E511C33325
:10487300F8850882850983E0288006EE2418125AF9
:104883000AF08E828F83A3E0F88E828F83E0C39831
:104893005003024714A3E0FA8A08E50A2508F8E55D
:1048A3000B3400F9EE241DF582EF124E99124926BE
:1048B300C39AC0E0EE24171230C9D0E0124D9660BF
:1048C3002BEE2417F8EF3400F9880889098882F55C
:1048D30083E024F2124E7A240EFAA3E03400FB881C
:1048E300828983124D1D124904C398F0A90F024512
:1048F300F61219CB7403223400F50D750E00780CF3
:104903002290034EE0F91221DBE9F885088285093C
:1049130083E022F0850882850983E004F022A3A3C3
:10492300A3A3A3F08E828F83E02274F4120A7C8AFD
:10493300088B09EA1249BBF0EA1313543F1249B436
:10494300A3A3A3F0EAC413131249BBA3A3F0EB126E
:1049530049AD1249C57409780A1211671249AB129D
:1049630049C4740A780A121167E50A5401C0E0ECDD
:104973002418F582ED1230CCD0E01249CA740B78BA
:104983000A1211671249ABA31249C4740C780A12B4
:1049930011671249ABA3A3A3A3A3A3A3A3F0740D0D
:1049A3007808121167022CD0E50A54018C828D839A
:1049B30022540F8C828D832254038C828D83A3A374
:1049C30022A3A3A3A3A3A3F08A0A8B0B22C082C0B2
:1049D3008379008A828B83A3A3A3A3A3A3E0900379
:1049E3004D600FE070228A828B83A3A3E0701909C4
:1049F3008016E060138A828B831250EB900356E09B
:104A03006A7003A3E06B70E70242C774F0120A7C7A
:104A13008A0A8B0B890C8C088D09124B57124B3B5E
:104A2300850882850983124B85E5081254C3E5097D
:104A3300124B7AC0E0E5082411F582E5091230CC67
:104A4300D0E0124B72C0E01237BD1230CCD0E0126E
:104A53004EA17408124EBA6011124B23E5082413B9
:104A6300124E95124EA1E02408F085088285098331
:104A7300A3A3A3A3A3A3A3A3E06017850882850927
:104A830083A3124B62E5082415124E95124926247E
:104A930008F0850882850983A3A3A3A3A3E0601973
:104AA300850882850983A3AE82AF83124B4A8508AA
:104AB3008285098312492104F0AA08AB0912145B09
:104AC300E9F50D7056850882850983A3A3A3A3A3E3
:104AD300A3124B2E7014E0FA8A0EE50A250EF8E5B0
:104AE3000B124D82E50CC39A8021124B62E8240E0F
:104AF300F8E9124D8290034EE0F91221DB8E828F8A
:104B030083E0F8E50CC39824F2C399C0E0E50824D8
:104B130017F582E5091230CCD0E0F0A90D0254B2AA
:104B2300E50A2408F8E50B3400F922124B3222E09F
:104B3300850882850983A322850A82850B83A3A323
:104B4300124B9BE0F9EA22E0F8E50A28F582E50B2F
:104B5300124DA9228A828B831254B712145522AEA6
:104B630082AF83E0F8E50A28F8E50B3400F9221256
:104B73004BAEA3A3A3E022123F14E8124BA7A3A3B7
:104B8300E022A3A3A3A3A3A3A3A3A3124BA7124B04
:104B93009BA3A3E0F9EAF822E0FA850A82850B8356
:104BA300A3A3A322F0A3E9124BAE22F0850A8285C8
:104BB3000B83A3A3A3A322C082C0837AC57B0379FB
:104BC300E21221337AC57B030242C7C082C08390BD
:104BD30003560242C4C082C08374FE120FBA851802
:104BE30082851983AA82AB83794B124BF81250F456
:104BF300740202429D12213385188285198322C0D3
:104C030082C083794A1221330242C774F6120A7CA6
:104C13009003CDE0FE04F0EEF912140D8B09EA4582
:104C23000970EDEE60EAF9024D4E74F0120A7CEA67
:104C3300FEEBFF8C088D09890A74101211D8E0F578
:104C43000B74111211D8E0F50C121527EA4B7013EF
:104C5300E50C7042A90AAC08AD09EEFAEFFB121598
:104C63003F806EE50A6021EA2402F582EB1231915E
:104C7300850A082508F8E4340013E813F070098A5C
:104C8300828B83A3A37401F0E50C6045E50B7006EA
:104C93008A828B83E4F07401650C7035E50B900315
:104CA300D47004E4F0802AE004F0900BF8E0F8906C
:104CB30003D4E0C398401AE4F0900359E06E700304
:104CC300A3E06F700CEEFAEFFB79011212B1124CF4
:104CD300D70254B27A017B009003B0E0F9121B159E
:104CE30022C082C08374016A7001EB70077A0112DB
:104CF3004D0E8012900BEF124D1DEA4B6005122AE8
:104D03004C8003124CD70242C77A207B009003B039
:104D1300E0F9121A1F223400F583EAF0A3EBF02224
:104D2300C082C083900BF10238C7C082C083900B4E
:104D3300F30238C71257C522EE240CF582EF340074
:104D4300F5831242BEE84922120F567F02020CF18C
:104D5300A2F0E433851882851983124D6F795212BC
:104D6300213922124D6F794212213922F0AA82ABE6
:104D73008322AA08AB099003B0E0F91219F5223493
:104D830000F9E508241DF582E509123F14E8F0A3B4
:104D9300E9F022125581A3A3E022A3F0EE24151219
:104DA3004DA622F582EF3400F583E022124DB322A3
:104DB3003400F583E0F8A3E0F98882898322E0F8E0
:104DC300124DC722A3E0F98E828F83A3A322F0EEB4
:104DD3002418123F1122F0EE2416123F112274F40C
:104DE300120A7CEAFEEBFF7A007B04124CDB124EC4
:104DF30070124D909003657409F01214678A088B42
:104E030009AC08AD09EE24131230C91250F4124F45
:104E1300C4640170487A0F124E6360418A828B83A7
:104E23007402124E7AFAA3E0FB8A828B83A3E0FC1E
:104E33008A828B83A3A3E0FBEC850882850983A385
:104E4300A3124D1E888289831250F81246EC124D2C
:104E53009DFAA3E0FB794A122139124D750231867E
:104E63007B001219E98A088B09EA45092290033667
:104E73001242BE900BF322F0EE241DF8EF124E8483
:104E8300221243FFE022124E8D223400F583740177
:104E9300F022F582E509123F14E8F0A3E922124E4D
:104EA300A522124EA922F0850882850983A3221226
:104EB3004EA9A3A3A3A322124EB2A3A3E02212528C
:104EC300CB1214BB22EE2417F582EF124E8D12146F
:104ED30067EE241A123F11EAF0A3EBF02274F412E6
:104EE3000A7C74F3120FBA8908EAFEEBFF7C0D7D8E
:104EF300007900851882851983AA82AB831219D79A
:104F0300EE241D1230C91257B6A3E0F8741F58607F
:104F13000A79011220D37900024FBBE8A2E55008B9
:104F2300740C1211D87401F0E8A2E75008740B1244
:104F330011D87401F0E8A2E6740A50081211D8746B
:104F430001F080081211D8E064017005EE2413808B
:104F530003EE24151255F374021211D8AA82AB83FF
:104F63001220EB1230C6124FC9124D90740A12115F
:104F7300D8E064017033122A7F703B1214738A0ADB
:104F83008B0BA80AA90BEE240B12318E687003A3B6
:104F9300E0697022121467EAFCEBFD74021211D867
:104FA300AA82AB83124FC4600D851882851983AA28
:104FB30082AB831212ABA908740D023183EEFAEFB0
:104FC300FB1220E5E922E0124FCE22F8A3E0F98597
:104FD30018828519832274F6120A7C74F3120FBAAD
:104FE3008A088B09ECFEEDFF7C0D7D0079008518A6
:104FF30082851983AA82AB83125937A3A3A3A3A3E0
:10500300A3A3A3A312506312506CF8A2E550087433
:105013000B1211D87401F0E8A2E75008740A1211B8
:10502300D87401F0E8A2E6EE50042413800224159C
:105033001255F374021211D8125055A3A3E0C0E025
:10504300740C1211D8D0E01252C31212A5740D02BF
:105053004D4BAA82AB831220EB85088285098322FC
:10506300E0124FCEE8F0A3E922F0123F0E1257BA36
:10507300A3E02274F7120A7C74E1120FBAEAFEEB82
:10508300FF8E828F831250F8A3A3A3E0A2E05051B6
:105093008E828F83122BDF8A828B83A3A3A3A3A386
:1050A300A3E054FE1251108A828B83125109E0F956
:1050B3008A828B83E0241CFAA3E0123B2A1250F469
:1050C300121461E9701B741D1211D812510370116F
:1050D300851882851983AC82AD83EEFAEFFB121437
:1050E300A90253358E828F83A3A3A3A3A3A3A3A350
:1050F300A312317C221250FC221257BEA3A3A32277
:10510300123F46640422E0241B1243F8221242A6F3
:10511300AC82AD8322E9F87900740468600A740AEA
:10512300686005740368700109020EEE74F6120AD2
:105133007C8A828B837420F0A3A37401F01212572C
:105143008A088B09AE08AF09EE4F60108E828F83F9
:105153007401F09003A3E07003124EC8EEFAEFFB64
:10516300024D4EC082C0839003B97401F0E9A2E3FB
:1051730050037403F0E9A2E15004E0D2E2F00242EA
:10518300C774F6120A7C79007C008A088B097808B8
:10519300120D37F8FF07B751B551B551B551B55198
:1051A300AE51B251B751AB510C80097C0480050C50
:1051B30080F67C089003B9E05C6003098003EC602F
:1051C3000109024D4E74F6120A7C8A828B83E070C9
:1051D30012A3124D45600C8A828B831250F3122264
:1051E3004D80047A007B00024D4E74F5120A7C74E4
:1051F300F3120FBA8A088B09ECFEEDFF750A12EA67
:105203004509700579000252BC900356E0650870A9
:1052130004A3E065097014121467EAFCEBFD124F56
:10522300C07005750A018003750A00851882851907
:1052330083E4F0041211D8E508F0A3E5091252C380
:1052430012121BE9602774031211D8AA82AB8312CE
:105253001203E964017016750A0174031211D8ACC4
:1052630082AD83124FC06021750A00801C741265E1
:105273000A70169003A2E06402700EEEFCEFFDAA22
:1052830008AB09121233E970DFEEFCEFFDAA08AB9D
:105293000912152DE9F8740A687005750A0180175B
:1052A30074A0687012EEFCEFFDAA08AB0912153961
:1052B300AA08AB0912154BA90A740D025C9F74026C
:1052C3001252C7221252CB221242A6AA82AB8322C7
:1052D30074F7120A7CEAFEEBFF8E828F83A3A3A3EB
:1052E300A3A3A3A3A3E06015EE24151230C91231C2
:1052F3006C1214D3E964017004790180258E828FC6
:1053030083A3A3A3A3A3A3A3E06015EE24131230E6
:10531300C9125327FAA3E0FB1214D3E9640160D93D
:1053230079008013123C16A3A3A3A3A3A3A3A3A34F
:10533300E022741F120F567F01020CF174F0120A5F
:105343007C74FD120FBA8A088B09ECFEEDFF890B02
:1053530074131211D8E0F50C750A0174011211D8F7
:1053630074041257EE6048E50C601DEA2417F582B9
:10537300EB125A0D1257DC8A828B83E0D2E7F0EAF4
:105383002414F582EB1241CB1254C2EB124DAF74CD
:1053930003125D30EE88828983A3A3F0EF888289AC
:1053A30083A3A3123CC0123CC7121251E9F50AA908
:1053B3000A74030254AF74EC120A7C74F5120FBA28
:1053C3008A0A8B0B890C8C0E8D0F741F1211D8E077
:1053D300F50D74201211D8E0F510A3E0F5117E014C
:1053E300EE1211D8740AF0E97007E50DC333240AED
:1053F300F012559470030254961255A97409F0A340
:10540300E50CC43354E0450D1255BBE50C702D7CFF
:10541300008023ECC333F8E433F9E51028F8E511F1
:1054230039F9888289831254A3888289831233F6D7
:10543300F0A30EAF830CECC3950D40D7E5082417FA
:10544300F582E509124E89121467E508241AF582DC
:10545300E509124D1974031211D8AC82AD83AA0A5F
:10546300AB0B121209E96019E5082416F582E50968
:1054730012549D1211D8A882A983E5082418124D4D
:1054830089850882850983125D2CAA08AB0912124B
:1054930051E9FEEEF9740B02558C124E8D74032202
:1054A300E08E828F83F0A3AE82AF8322120F567FEA
:1054B30008020CF1123F6EF9EA2400E439FB22EAF8
:1054C300240BF5822274EE120A7C8A0C8B0D890E52
:1054D3008C088D0974121211D8E0F50F7413121190
:1054E300D8125575900517124D456077E50FC333F4
:1054F300F8E433F9E8240EFAE93400FB1219E98AD7
:10550300108B11AE10AF11EE4F60588E828F8374E3
:10551300D4F0A3A3E50CF0A3E50D12557DE50EF041
:10552300AC08AD09EE2405FAEF1257F7EE240D127D
:1055330030C9E50FF0850A08850B09750A0078085C
:10554300120F25E50FC333FCE433FDEE240EFAEF0F
:1055530012556C120F56EEFAEFFB9005171257B661
:105563001223120245F6FAE5093400FB1219CB7433
:105573000322E0F50AA3E0F50B221255812212550E
:1055830085221241DFA3A3A322120F567F0C020C24
:10559300F1851882851983AA82AB831214BB8A080A
:1055A3008B09EA450922EA240BF582EB124DA9FE89
:1055B300A3E0FF8E828F8322F0A3AE82AF83AC0E73
:1055C300AD0FEEFAEFFB1255CD221220EB1255D49C
:1055D30022EE2408FEEF3400FF22E0FA8E828F834E
:1055E300A3A3E022FEA3E03400FF8E828F83E02298
:1055F300123F111255FA22E0FCA3E0FD2212317C86
:1056030012144F2274F6120A7CEAFEEBFF9003BADF
:10561300801388828983E06E7003A3E06F603A8809
:10562300828983A3A3124D4570E87A047B00121A82
:10563300618A088B09A808A909E849601C8882893E
:10564300831256639003BA1250F488828983A3A30A
:10565300124D1D9003BA124D90024D4E8A828B83D8
:10566300EEF0A3EFF02274F4120A7C7E009003BAEA
:1056730080070E88828983A3A3124D4570F4EEC37D
:1056830033FAE433FB125711607E7F009003BA8034
:1056930024888289831255F6EFC333FAE433FBE59A
:1056A300082AF582E5093BF583ECF0A3EDF00F88BA
:1056B300828983A3A3124D4570D79003AB122AB9F5
:1056C3007003A3E06978087019120F29EEF50A78C0
:1056D3000A120F2D7C777D0379009003AB12571CC0
:1056E300801A120F29EEF50A780A120F2D7C777DA6
:1056F3000379009003AB1250F41214E57403120FF4
:1057030056AA08AB09121A67121269023186121AD5
:10571300618A088B09EA45092212317C1214EB22B3
:10572300C082C08380128A828B83A3A3123F1F90FF
:1057330003BA124D90121A679003BA123E2F70E605
:105743000242C774F6120A7C900363123F4B900324
:10575300CE1257A5124D907ACE7B03795012213980
:105763009003CE122CD8FAEFFB1215459003CE12FC
:105773003F4B900519124D4560257A067B0012199F
:10578300E9EA4B601A8A828B8374D5F0A3A3E412EF
:1057930057CB041257DC9005191257B61223120285
:1057A3004D4E1257A922E0F8A3E0F9900363228E2D
:1057B300828F831257BA221257BE22E0F81257C4BF
:1057C30022A3E0F5838882221257CF221257D322D5
:1057D300F08A828B83A3A3A3221257CFA3EEF0A355
:1057E300EFF022F582EF124DA9F922124EC1EA4BD6
:1057F30022FAE5093400FB1220EB22124DC8A3A3C1
:10580300A3A3A3A3A32290267FE4932401F8E43463
:1058130000F97A027B002274F7120A7C7E0080046E
:10582300125DE30E12590740F77E00EE12584674DC
:10583300FEF0A30412585BE4F00EEEC3940340EBB6
:1058430002533A75F003A4F8A9F074BC28F8740362
:1058530039F988828983A32212585F22F0888289CA
:10586300832274F7120A7C7F0080010F90267CE468
:1058730093F8EFC3985026EF1259F36A7003A3E02D
:105883006B70E8125D906C7003A3E06D600A74FFA7
:105893006C700374FF6D70D31258FE80047A007B22
:1058A3000002533A74F6120A7C7CFF7DFF7AFE7B7A
:1058B300FF12150FEA4B70407508008036E5087536
:1058C300F017A4F8A9F0741028F5827409125A0588
:1058D300600C740F28F5827409125A057013740151
:1058E30028FE740939FF8E828F83125A12EEFAEF63
:1058F300FB050812596D40C5024D4E740128FA7418
:105903000939FB2290267CE493F8EEC3982274F7BE
:10591300120A7CEAFEEBFFEE4F601012593174FE5F
:10592300F0A304125D3614F0A304F002533A7C177B
:105933007D0079001219D78E828F832274F7120AA1
:105943007CEAFEEBFF7508008018E50875F017A4E4
:10595300F8A9F0125D9B7003A3E06F6003125DEB87
:10596300050812596D40E302533A90267CE493F8FC
:10597300E508C3982274F6120A7C12150F8A088B65
:1059830009A808A909E849600AE8240DFAE93400DE
:10599300FB80047A007B00024D4E74F4120A7C8A69
:1059A3000A8B0BECFEEDFF750800750900802EE5F0
:1059B3000975F017A4F8A9F0125DD6601EE5091267
:1059C30059F3650A7004A3E0650B700375080AEECA
:1059D300FCEFFD125C9260034308A0050990267C4E
:1059E300E493F8E509C3985004E50860C2022CD09B
:1059F30075F017A4F8A9F01259FE22740128F58254
:105A0300740939F583E022F582EF123F14E4221280
:105A1300317C1213472212585FA3A3A3A3A3A3A30A
:105A2300A32274F2120A7C8A088B09ECFEEDFF7440
:105A33000E1211D8125575750C007C007D01801073
:105A43001219E3E50CF5F0EA84ACF0750C007D0067
:105A5300780079008003125BCF125C2B4003025A5B
:105A6300F1E8FAE9FBEA75F017A4FA85F00D75F091
:105A730017EBA4250D125C077003A3E0F460D712A3
:105A83005BE565087004A3E0650960CA125BE56E17
:105A93007003A3E06F60BF125BE5650A7004A3E0C7
:105AA300650B60B2E8FAE9FBEA75F017A4FA75F042
:105AB30017EBA4250DFB740F2AF5827409125BC63C
:105AC300509474016D050C608DE50CC39C4087E810
:105AD30075F017A4F8AAF075F017E9A42AF9740170
:105AE30028F582740939F5831250F4025BC37800F8
:105AF30079008003125BCF125C384003025BAAE893
:105B0300FAE9FBEA75F012A4FA85F00D125C17644A
:105B1300FE7003A3E0F460DC125C0D65087004A35F
:105B2300E0650960CF125C0D6E7003A3E06F60C483
