:020000040000FA
:06000000020AD00201F922
:0300130002021CCA
:03002B0002090BBC
:03003B000202714D
:0300530002012A7D
:1000830002018E0101FF01010503010F10FEFF5A5A
:10009300135A135A135A1310120A125A13EB21004C
:1000A300000000AF22000000000C0000000C000163
:1000B300060A1010000076150000000000002A1642
:1000C30000000000000000000000FF0AFF0000B86D
:1000D3001800000000F10000000000000000000014
:1000E3000000000000000000000000000000FFFF0F
:1000F30002000000000000000000000100010200F7
:100103005C05000000CF0564000202000002000548
:100113000207051E02051E0A0A03B80B02803E01F0
:1001230002130214020206C0E074F21204B9A2AF71
:10013300E433FED2AFE5A7FFE5A1F5085F541060F5
:1001430006121CA875A1EFE5085F54086008121C8D
:10015300AE75A1F7802BEFA2E0C0D0E508A2E09234
:10016300F0120A0D158182F05017906198E0F89013
:1001730007A0E0C398A2D265D0335002E8F075A17E
:10018300FEEEA2E092AF7F01020570C0E074F212AE
:1001930004B9A2AFE433FED2AF9061A4E0F8759B3B
:1001A30000E59158540860087591F7121CF0802AF5
:1001B300E59158541060087591EF121CF6801BE806
:1001C300A2E0C0D0E591A2E092F0120A0D1581825F
:1001D300F05007E0C2E0F0121E349061A3E0F8E5AE
:1001E300E9585404600E121E0A75E9FB906193E00E
:1001F300A2E640F2808BC0E074F21204B9A2AFE42D
:1002030033FED2AF9061A5E0F8E5BF585404600611
:1002130075BFFB121E4C020184C0E0C0D0E8C0E0F1
:10022300E9C0E0C082C083E5C1C0E090070CE0F8FC
:10023300748B28F58274063400F583D0E0F09007C0
:100243000BE0F8A3E0687006E59590070EF09007C1
:100253000CE004F0C394804002E4F0A374C6F0D031
:1002630083D082D0E0F9D0E0F8D0D0D0E032C0E043
:10027300C0D0E8C0E0C008C009C082C08390078F27
:10028300E0F8A3E0687008539AFBA374018026C2C8
:10029300E990078FE0F50874012508F0740F25082D
:1002A300F58274073400F583E0F5C190078FE0C34E
:1002B30094804002E4F0D083D082D009D00880A695
:1002C300C3E498F8E499F91203048026C3E49AFA84
:1002D300E49BFBE920E7E9120304E498F8E499F9C5
:1002E30022C3E498F8E499F9120304E498F8E49932
:1002F300F9C3E49AFAE49BFB22EB20E7CFE920E77A
:10030300E0B90010BB0008E88AF084F8AAF022E400
:10031300FBC8FA22EB70227B10C833C8C933C93338
:100323005007C39AC3DBF280069A50012ADBEAC85E
:1003330033F4C8C933F4C9FA2275F008E4C833C8E2
:10034300C933C933C99AC99B5004C92AC93BD5F0DB
:10035300ECFBC833F4C8E4C9FA22080808EAC0E091
:10036300EBC0E086F0E7A4FA180986F0E7A42AFABE
:10037300180986F0E7A42AFA180986F0E7A42AFAEE
:100383001986F0E7A4FBE5F02AFA190886F0E7A43A
:100393002BFBE5F03AFA190886F0E7A42BFBE5F00E
:1003A3003AFA18180986F0E7A4C5F02BFBE43AFAE9
:1003B3001908E7C5F0C6A426F6E5F03BFBE43AFAD4
:1003C3001886F0E7A4F6E5F00826F6E43B08F6E421
:1003D3003A08F6D0E0FBD0E0FA22E4CFC0E0E4CE66
:1003E300C0E0E4CDC0E0E4CCC0E075F020C3E63368
:1003F300F608E633F608E633F608E633F618181877
:10040300EC33FCED33FDEE33FEEF33FFC3EC970922
:10041300ED9709EE9709EF97191919400FFFEC971C
:10042300FC09ED97FD09EE97FE191906D5F0BEEC10
:10043300F709EDF709EEF709EFF7191919D0E0FC01
:10044300D0E0FDD0E0FED0E0FF222518C582C0E059
:10045300E51934FFC583C0E0E518C3958224F8107D
:10046300AF088583198582188008858319858218CA
:10047300D2AFCEF0A3E520F0A37808E608F0A3DE20
:10048300FAEFF0A3E58124FAF8E608F0A3E608F012
:10049300A3E608F0A30808E608F0A3E608F0A3150E
:1004A300811581D0E0FED0E0F8158115811581E832
:1004B300C0E0EEC0E022C0D02518C582C0E0E51937
:1004C30034FFC583C0E0E518C3958224F310AF0859
:1004D3008583198582188008858319858218D2AF90
:1004E300C8F0A3E9F0A3EAF0A3EBF0A37908E709C6
:1004F300F0A3D8FAECF0A3EDF0A3EEF0A3EFF0A392
:10050300D0E0F0A3D0E0F0A3D0E0F0A3E520F0A387
:10051300E5F0F0A322120B32B9000302055AE4906E
:100523000301785E790B8002F0A3D8FCD9FA900D11
:100533005EAA82AB8390008678A579018015E49347
:10054300A3AC82AD838A828B83F0A3AA82AB838C14
:10055300828D83D8E9D9E77582C7758384740412C1
:1005630008837582F27583207400120883851983CA
:10057300851882E0C0E0A3E0F9A3E0FAA3E0FBA3BF
:100583007808E0F608A3DFFAE0FCA3E0FDA3E0FEB1
:10059300A3E0FFA3E0C0E0A3E0C0E0A3E0F5D0A3A5
:1005A300E0F520A3E0A3F5F010AF08858319858259
:1005B300188008858319858218D2AFD082D083D062
:1005C300E0F8D0E03275F0108E1A8F1B85821F85FC
:1005D300831E851882851983E0CEA3E0CF851F8211
:1005E300851E83EBC9EAC8EDCBECCAC3E833C8E97F
:1005F30033C9EA33CAEB33CBC3EA9EF51DEB9FF550
:100603001CB35004AB1CAA1DEC33CCED33CDD5F099
:10061300DAAE1AAF1B22D083D082ECC0E0EDC0E08B
:10062300E493A3FCE493A3FDED4C600D1206F1ECFF
:1006330024FFFCED34FFFD80EFE493A3FCE493A3DC
:10064300FDED4C600D12078EEC24FFFCED34FFFD35
:1006530080EFD0E0FDD0E0FCE493A3C0E0E493C0DE
:10066300E022851983851882E0A3FEE0A3F52078B4
:1006730008E0A3F608DFFAE0A3FFE0A3C0E0E0A3ED
:10068300C0E0E0A3C0E0E0A3C0E0E0A3C0E010AF9F
:10069300088582188583198008858218858319D275
:1006A300AFD083D082020889D083D082E9C0E0E44E
:1006B30093A3C386F0C5F095F0F908E493A386F0FD
:1006C300C5F095F0700BE493A3C3994005E904804A
:1006D30002A3E475F002A42582F582E5F03583F5E3
:1006E30083D0E0F9E493A3C0E0E493C0E022C0E048
:1006F300C3E49396087401939618400FE4936670CD
:100703000808740193661870007019A3A3C3E493D7
:1007130096087401939618A3A3400DD0E0D0E0D0BF
:10072300E0020655A3A3A3A3A3A3D0E022740480ED
:100733000474028000CCC0E0EDC0E0E518C39CCC9B
:10074300AD1950011D10AF068C188D1980068C1839
:100753008D19D2AF120805D0E0FDD0E0FC2274025F
:100763008000CCC0E0EDC0E0E518C39CCCAD1950CF
:10077300011D10AF068C188D1980068C188D19D2A7
:10078300AF1207E3D0E0FDD0E0FC22C0E0C0F08868
:10079300F0E4936670080874019366187000A8F07B
:1007A300A3A3700BD0F0D0E0D0E0D0E0020655A3B5
:1007B300A3D0F0D0E022D083D082CCC0E0E493A3D6
:1007C30060061208261470FAE493A3600612095512
:1007D3001470FAD0E0FCE493A3C0E0E493C0E022F9
:1007E300CAC0E0E493A3C582CCC582C583CDC583CB
:1007F300F0A3C582CCC582C583CDC583DAE5D0E03D
:10080300CA22CAC0E0E0A3C582CCC582C583CDC5D8
:1008130083F0A3C582CCC582C583CDC583DAE6D078
:10082300E0CA22C0E0E493A3D39C5010E493A3C393
:100833009C400AD0E0D0E0D0E00207D6A3A3A3D027
:10084300E022C008C3E096F50808A3E09642080832
:10085300A3E096420808A3E09645087001D3D008A8
:10086300227009080808226016181818C6C333C670
:1008730008C633C608C633C608C633C6D5E0EA225F
:10088300C09FF59FE473D09F22D083D082C09FE4A2
:1008930093C0E0740193C0E0740293F59F2225187E
:1008A300F58210AF08F518400215198008F51840B5
:1008B300021519D2AF851983227404800A74038048
:1008C30006740280027401C0E0F4041208A1D0E0AF
:1008D300120B0D22BB0102E722C082C08389828AE8
:1008E30083BB0003E08002E493D083D08222C0D094
:1008F300251810AF08F518500205198008F518508F
:10090300020519D2AFD0D022C0E0C0D0E8C0E0E5E4
:10091300A8D2AFC2C7A2E792AFD0E0F8D0D0D0E060
:10092300326016080808C6C313C618C613C618C60D
:1009330013C618C613C6D5E0EA22C3E0C696F60866
:10094300A3E0C696F608A3E0C696F608A3E0C6960B
:10095300F622C0E0E493A36C7009D0E0D0E0D0E0CD
:100963000207D6A3A3D0E022251810AF08F518403C
:100973000215198008F51840021519D2AF22E7664F
:1009830070100809E766700A0809E7667004080929
:10099300E76622C3E09608A3E09608A3E09608A3BF
:1009A300E096A2D265D03322E066701008A3E06619
:1009B300700A08A3E066700408A3E06622C3E09609
:1009C300F008A3E096F008A3E096F008A3E096F001
:1009D30022E026F008A3E036F008A3E036F008A3EF
:1009E300E036F022E627F60809E637F60809E63787
:1009F300F60809E637F622E026F608A3E036F608FD
:100A0300A3E036F608A3E036F622C0E0E8C0E0E54E
:100A13008124FCF8E6A2E7D0E0F8D0E022700422BB
:100A2300600D18C6C333C608C633C6D5E0F4182212
:100A3300E657F60809E657F60809E657F60809E601
:100A430057F622E056F608A3E056F608A3E056F65A
:100A530008A3E056F622E056F008A3E056F008A3F8
:100A6300E056F008A3E056F022E647F60809E64709
:100A7300F60809E647F60809E647F622E4C396F6C0
:100A830008E496F608E496F608E496F622C3E79699
:100A93000809E7960809E7960809E79622C6F4C607
:100AA30008C6F4C608C6F4C608C6F4C622600D0814
:100AB300C6A2E713C618C613C6D5E0F322C3E09651
:100AC30008A3E09608A3E09608A3E0962275D00059
:100AD30075814075180175190300020518E0F608C1
:100AE300A3E0F608A3E0F608A3E0F622600C08C62C
:100AF300C313C618C613C6D5E0F422E6F008A3E66E
:100B0300F008A3E6F008A3E6F022CAC0E0E6F0A3EB
:100B130008DAFAD0E0FA22E0FAA3E0FBA3E0FCA3B0
:100B2300E0FD22EAF0A3EBF0A3ECF0A3EDF022E565
:100B3300C754F84401F5C77901222518F582E43535
:100B430019F58322C2AF75D69F0200002212088CCA
:100B530000E30212088C34E40212088C52E40212FD
:100B6300088C0B250012088C1D250012088C6F259C
:100B73000012088CD0250012088C5A260012088C0B
:100B8300FE260012088C52270012088C6B270012D5
:100B9300088C91270012088CCC270012088C10288F
:100BA3000012088C37280012088C88280012088C41
:100BB30038290012088CF0290012088CB82A001278
:100BC300088C782B0012088CBC2B0012088CE12BAC
:100BD3000012088C242C0012088C712C0012088C33
:100BE300E72D0012088C6D2E0012088C8B2E00123C
:100BF300088CB52E0012088CCF2E0012088CDE2E26
:100C03000012088CE92E0012088CA92F0012088C00
:100C130002300012088CC4300012088CCC30001251
:100C2300088C60310012088CCC310012088CF7322A
:100C33000012088C1C330012088CA1330012088C9C
:100C430030340012088C88340012088C4C350012A2
:100C5300088C6B350012088C7A360012088C8C369F
:100C63000012088CF6360012088C4B380012088CE0
:100C73007D380012088C09390012088C42390012A1
:100C8300088C8E390012088CA13A0012088CC53CDE
:100C93000012088CD03C0012088CDB3C0012088C3C
:100CA300E63C0012088CF03C0012088CFB3C00125E
:100CB300088C153D0012088C1F3D0012088C293D3D
:100CC3000012088C343D0012088C5C3D0012088C25
:100CD300B73D0012088CC13D0012088CE53D00129F
:100CE300088C093E0012088C673E0012088CAB3E4C
:100CF3000012088CC73E0012088C3E3F0012088C7D
:100D0300763F0012088CC23F0012088C1F4000126D
:100D1300088CD9400012088CBD420012088C16437F
:100D23000012088C46440012088C6C440012088C94
:100D3300E6450012088C71490012088C434B0012DF
:100D4300088C0C4D0012088CB94D0012088C2D4FE5
:100D53000012088CCC4F0012088C11500012088C22
:100D63007B500012088C8A500012088C0A53001220
:100D7300088CB3540012088C20550012088CFF55C0
:100D83000012088C22570012088C8A580012088C13
:100D9300A9580012088CFE580012088C035A00123E
:100DA300088C2B5A0012088C835A0012088C625B41
:100DB3000012088CA65B0012088CF15B0012088CF1
:100DC3005C5C0012088CA15D0012088C055E0012A9
:100DD300088C535F0012088CBA610012088CEB6117
:100DE3000012088CA3630012088CF8630012088CAD
:100DF300FC640012088C99650012088CF2650012DD
:100E0300088CA5660012088C47670012088CE767F8
:100E13000012088C8C680012088C81810112088CE6
:100E2300C0810112088C07840112088C51840112BD
:100E3300088C6C850112088CD4850112088C0986F4
:100E43000112088C7D870112088C008A0112088C1C
:100E5300298B0112088CDC8B0112088C3894011247
:100E6300088CCD940112088CB4970112088CAD98AC
:100E73000112088C1B990112088C619A0112088CCB
:100E8300409B0112088C259D0112088C369F01128C
:100E9300088C8E9F0112088C60A00112088C8EA012
:100EA3000112088C4BA10112088C22A20112088C9A
:100EB300E9A20112088C8DA30112088CB6A30112BA
:100EC300088CD8A30112088C2EA60112088C06A741
:100ED3000112088C4AA70112088CB2A70112088CD0
:100EE3006AA80112088C9CA80112088CE0A80112C0
:100EF300088C16A90112088C62A90112088CB7A9E3
:100F03000112088CBCA90112088C0FAA0112088CCB
:100F130034AA0112088C43AB0112088CA7AB01124F
:100F2300088C17AC0112088CA3AC0112088C70AFAB
:100F33000112088C54B00112088CD7B10112088C2D
:100F43000DB40112088CBBB40112088C6BB50112ED
:100F5300088CACB70112088C4FB80112088C96B8F4
:100F63000112088C42BA0112088C56BA0112088C7D
:100F730060BA0112088C88BA0112088C94BA011263
:100F8300088CB3BA0112088CD3BC0112088C22BEA0
:100F93000112088C66BE0112088C0EBF0112088C68
:100FA300F1BF0112088C9CC00112088CE8C1011228
:100FB300088CE6C20112088C8CC30112088C2DC464
:100FC3000112088C44C40112088C7BC40112088CE2
:100FD30085C40112088C90C40112088CAEC401129E
:100FE300088CF2C40112088C4FC50112088C74C519
:100FF3000112088C8EC50112088C1AC60112088CC6
:1010030037C70112088C93C70112088C7AC80112E2
:10101300088CA1C80112088C15C90112088C90C94B
:101023000112088C94CA0112088C8ACB0112088C15
:1010330039CC0112088C4CCD0112088CE8CD011279
:10104300088C6ACE0112088C48CF0112088C80CF1D
:101053000112088CD8CF0112088CA1D00112088C80
:10106300C2D00112088C49D10112088C6DD1011232
:10107300088C8FD10112088CD8D10112088CEED3C1
:101083000112088CD1D40112088C82D50112088C6C
:10109300B8D70112088C08D80112088C48D801125D
:1010A300088C8AD80112088CE6D80112088C14D94E
:1010B3000112088C38D90112088C8BD90112088CC3
:1010C300B9D90112088CF2D90112088C47DA01123E
:1010D300088CADDA0112088C17DC0112088C3ADE99
:1010E3000112088CA7DE0112088CD0DE0112088CD5
:1010F3005BDF0112088CC2DF0112088C0DE00112C4
:10110300088C31E00112088C55E00112088CB0E024
:101113000112088CCBE00112088C84E10112088CC7
:10112300C09B0412088CFF9B0412088C7880021267
:10113300088CBE800212088C9E810212088CA08249
:101143000212088CA3830212088C2F850212088CCA
:101153008D850212088C4A860212088C6887021257
:10116300088CD9870212088C15880212088C6388B0
:101173000212088C6D880212088CB1880212088C46
:101183000D890212088CA8890212088C258A021282
:10119300088CF48A0212088C8D8B0212088CAD8B9A
:1011A3000212088CE38B0212088C148C0212088C36
:1011B300D58C0212088CE58C0212088C398D021230
:1011C300088C548D0212088C668D0212088C6F8D68
:1011D3000212088CC98D0212088C258E0212088C0B
:1011E300718E0212088C8C8E0212088CBD8E021234
:1011F300088CDA8E0212088CE68E0212088C5A9042
:101203000212088C73900212088CDA900212088C76
:10121300ED900212088CFB900212088CAF9102121F
:10122300088C93920212088C99930212088C2394CF
:101233000212088C2D940212088C9A940212088CC4
:10124300B1940212088CE3940212088C1C950212CA
:10125300088C46950212088CA7950212088CC79534
:101263000212088CE5950212088C2B960212088C48
:1012730051970212088C9E970212088CCD97021286
:10128300088C43980212088C6B980212088CA4985D
:101293000212088CB2980212088C0A990212088C66
:1012A30059990212088C98990212088CC899021253
:1012B300088CF4990212088CFF990212088C1D9A6B
:1012C3000212088CDF9A0212088CE99A0212088C27
:1012D300249B0212088C3A9B0212088C8F9B0212E9
:1012E300088CA39B0212088CA09C0212088CB39C4E
:1012F3000212088CC89C0212088C6A9D0212088C88
:10130300ED9D0212088CAB9E0212088CB69E02124F
:10131300088CE29F0212088CFE9F0212088C50A0D8
:101323000212088C8FA00212088CA4A00212088C4F
:1013330006A10212088C95A10212088CE0A10212E8
:10134300088C31A40212088CAFA40212088C24A5C5
:101353000212088C46A70212088C5EA70212088CA0
:1013630061A70212088C6DA70212088C81A70212D2
:10137300088C89A70212088CBCA70212088C6CA8DF
:101383000212088CE2A80212088C55A90212088CDA
:1013930009AA0212088CBEAA0212088CDDAA021244
:1013A300088C7DAB0212088C89AB0212088CB4AB9B
:1013B3000212088CB7AB0212088C21AC0212088C03
:1013C30049AD0212088C21AE0212088CACAE021297
:1013D300088CC5AF0212088C82B00212088CBBB015
:1013E3000212088CECB00212088CAAB10212088C0B
:1013F300DAB10212088CB5B20212088C4EB3021293
:10140300088CD9B30212088C8AB40212088C0DB569
:101413000212088C3FB50212088C80B50212088CA8
:101423006AB20312088CCFB20312088C07B30312FB
:10143300088C56B30312088C78B50312088C5BB77B
:101443000312088CB9BA0312088CEEBA0312088C83
:1014530010BB0312088C75BB0312088CABBB0312C1
:10146300088CCEBB0312088CFBBB0312088C57BC41
:101473000312088C58A60312088CD9A60312088CF1
:101483000FA70312088C76A70312088CE9A803128E
:10149300088C05A90312088C4AA90312088CD8A941
:1014A3000312088C31AA0312088C65AB0312088C53
:1014B30033AC0312088CABAC0312088C27AD0312B8
:1014C300088C69AD0312088CAAAD0312088CDEAE3A
:1014D3000312088CDCAF0312088C07B00312088CCC
:1014E30052B00312088C99B00312088C2BB103126B
:1014F300088CE4B10312088C267D0012088C377D1A
:101503000012088C5A7D0012088C667D0012088C2C
:10151300817D0012088CC77D0012088CF27D0012B9
:10152300088C0F7E0012088C637E0012088CDC7E10
:101533000012088C057F0012088CA47F0012088C0F
:10154300C77F0012088CC1900412088CD290041239
:10155300088C23910412088C68910412088C12924F
:101563000412088C16990412088C1A8F0412088C22
:101573009DD60212088CC8C60312088C6FC70312CB
:10158300088C8FC70312088CB6C70312088CCAC70E
:101593000312088C22C80312088C52C80312088C49
:1015A300D3C90312088C79CA0312088C5BCB0312CC
:1015B300088CACCB0312088CEFCB0312088C32CC13
:1015C3000312088C98CC0312088CB9CC0312088C34
:1015D3005DE20212088C6DCD0312088CE1CD03127B
:1015E300088C8FCF0312088C69D00312088CC3D0E8
:1015F3000312088CA98B0412088CCA8B0412088C62
:10160300FB8C0412088C258D0412088CDD950412C2
:10161300088C5D960412088C68960412088C9196C7
:101623000412088C1B9A0312088C1E9A0312088C4E
:10163300D89A0312088C039B0312088C4A9B03124B
:10164300088C6F9B0312088C909B0312088CC49B1D
:101653000312088CFD9B0312088C269D0312088C31
:101663005D9D0312088C7D9D0312088C189E031246
:10167300088CDD9E0312088C149F0312088C89A02A
:101683000312088C2CA10312088C25A20312088CC8
:101693004EA20312088CA2A20312088C68A30312A1
:1016A300088C96A30312088C2BA50312088CACA5F7
:1016B3000312088CDFA50312088CA3BC0312088C49
:1016C300ADBC0312088CF9BC0312088C67BD03126E
:1016D300088C88BD0312088C9FBD0312088C4FBE73
:1016E3000312088CE3C00312088CECC00312088CAD
:1016F3003FC10312088C68C10312088CC7C10312CF
:10170300088C58C20312088C9AC20312088CE4C2D4
:101713000312088C43C30312088C6FC30312088C93
:10172300FFC30312088C46C40312088C84C403123B
:10173300088CB8C40312088CCAC40312088CDCC416
:101743000312088C1EC50312088C27C50312088CCC
:10175300E0C50312088C20C60312088C49C6031285
:10176300088CD3DE0312088CB6DF0312088CD0DF9B
:101773000312088CE1DF0312088CF6E10312088CD4
:1017830015E20312088C77890412088CAD890412C0
:10179300088CF6890412088C468B0412088CD868CE
:1017A3000012088C176A0012088C536A0012088C06
:1017B300126C0012088C3B6C0012088CCE6E001267
:1017C300088C126F0012088C9B700012088C337106
:1017D3000012088C9B710012088C3C720012088C5A
:1017E3007E720012088CBE720012088C49740012BB
:1017F300088CB9750012088CDE770012088C0C78FF
:101803000012088C33780012088C3C780012088C84
:1018130097780012088C2A790012088C487C0012F1
:10182300088CC97C0012088C329D0412088C489DD8
:101833000412088C4BF30312088C5EF30312088C1A
:10184300FBF30312088C36F40312088C51F40312D1
:10185300088C76F40312088CBBF40312088CECF4A6
:101863000312088C1DF50312088CA3F60312088CCF
:10187300AF940412088CEC940412088C2E95041275
:10188300088C3E950412088CD3950412088C848D21
:101893000312088CF08D0312088C248F0312088C1A
:1018A300F78F0312088C86930312088C6695031234
:1018B300088C63960312088C4F970312088CCE98FA
:1018C3000312088CF5980312088C00800312088C0D
:1018D30045800312088C2E810312088CC7810312E2
:1018E300088C11820312088C6E820312088CC78243
:1018F3000312088CF9820312088CF7830312088CF5
:101903005B840312088C76840312088CC58403124B
:10191300088CDB840312088CE8840312088C1C8572
:101923000312088C35850312088C44850312088C36
:10193300CC850312088C26860312088C7486031246
:10194300088C96860312088C0D890312088C3B8938
:101953000312088CCB890312088C408A0312088C6B
:10196300458A0312088C818A0312088CE08A0312C9
:10197300088C808B0312088CA58B0312088CAF8B09
:101983000312088CB28B0312088C3B8C0312088C55
:10199300568C0312088C698C0312088C958C0312E5
:1019A300088CD08C0312088CD38C0312088CDE8C29
:1019B3000312088C1A8D0312088C2D8D0312088CC8
:1019C300548D0312088C739B0412088C8B9B041296
:1019D300088CDFF70212088C2EF80212088CD0F95B
:1019E3000212088C8CFB0212088CD4FB0212088CA6
:1019F300BCFC0212088CEDFD0212088C0FFE0212D1
:101A0300088C6BFE0212088CEFFE0212088CBEE1FA
:101A13000112088CDFE10112088C5CE20112088CD0
:101A2300E1E20112088C5DE30112088CC6E30112A6
:101A3300088C12E40112088C91E40112088C23E54E
:101A43000112088CAFE50112088CF1E50112088C34
:101A53003AEA0112088CBAEB0112088CF9EB011275
:101A6300088CE0EC0112088CE3EC0112088C97ED72
:101A73000112088CCCEE0112088CB7F00112088C0D
:101A830037F30112088CF0F30112088C0DF50112E3
:101A9300088C64F80112088C74F80112088CD5F9CB
:101AA3000112088C61FA0112088C95FB0112088C53
:101AB30086FC0112088C08FD0112088C79E40212DD
:101AC300088C33E50212088CA5E50212088CB4E5F4
:101AD3000212088C2EE60212088C9DE60212088C74
:101AE300A4E70212088CCDE70212088C6DE80212FB
:101AF300088CBBE80212088C2BE90212088CE4EB79
:101B03000212088CBBEC0212088C28ED0212088C1E
:101B1300A5EE0212088C59EF0212088C07F002128C
:101B2300088C62F00212088CCDF00212088CCDF101
:101B33000212088CA7F30212088CBAF40212088C62
:101B430053F50212088CC5F50212088C8BF60212AB
:101B5300088C7E9D0412088C809D0412088C2187BA
:101B63000412088C52870412088C0C880412088C07
:101B730072880412088CE3880412088C53850412BB
:101B8300088C23FF0212088C34FF0212088CD4FF46
:101B93000212088C628D0412088C708D0412088C5A
:101BA300EEFF0212088CA99A0412088CB99A041247
:101BB300088CD19A0412088C199B0412088C14986F
:101BC3000412088C99980412088CFD980412088C4E
:101BD300FBFF0112088C7AFC0312088C8FFC0312A2
:101BE300088C7DFD0312088C1DFE0312088C83FEF6
:101BF3000312088CA7FE0312088CB0F60312088C9C
:101C0300BEF60312088C38F70312088C10F803127F
:101C1300088C9BF90312088C66820412088CB48228
:101C23000412088C51830412088CFC830412088C60
:101C330014840412088C90840412088CA684041261
:101C4300088CB9840412088C18DA0312088C6DDA34
:101C53000312088C69DC0312088C9BDC0312088CCA
:101C6300BDDC0312088CD6DC0312088CEFDC0312F4
:101C7300088CF9DD0312088C94DE0312088C299278
:101C83000412088C4E920412088C5E920412088C83
:101C930091920412088CC2920412088CF7920412D7
:101CA300088C59930412088C68930412088C72935D
:101CB3000412088CEAF90312088C10FA0312088C38
:101CC3004DFA0312088C5CFA0312088C7BFA031298
:101CD300088CE3FA0312088CECFA0312088C4BFB12
:101CE3000312088C6FFB0312088C2EFC0312088C62
:101CF3003BFC0312088C4CFC0312088C939C0412CB
:101D0300088CB09C0412088C4CE80312088CAAE9D6
:101D13000312088CB7E90312088CCAE90312088C72
:101D2300E9E90312088CFFE90312088C13EA031292
:101D3300088C96EA0312088CF9EA0312088C80EBEC
:101D43000312088CDEEB0312088CEEEB0312088CF3
:101D5300109A0412088C349A0412088C5C9A0412A8
:101D6300088C849A0412088C00800412088C278043
:101D73000412088C48800412088CAD800412088C6D
:101D8300A0FD0112088CB9FD0112088CC5FD0112DA
:101D9300088CD9FD0112088CF7FD0112088C01FE95
:101DA3000112088C0BFE0112088C1EFE0112088C16
:101DB3006FFE0112088CA8FE0112088CD7FE0112D7
:101DC300088C25FF0112088C74FF0112088C8FFF09
:101DD3000112088C99FF0112088CAAFF0112088CCA
:101DE300F0FF0112088C229B0412088CD7D0031237
:101DF300088C03D10312088C1FD10312088C32D133
:101E03000312088C48D10312088CB4D10312088C36
:101E1300E7D10312088C16D60312088C3CD70312A1
:101E2300088C6FD70312088CBBD70312088CF4D825
:101E33000312088C1CD90312088C31D90312088CA5
:101E430041D90312088C85D90312088CDAD90312FD
:101E5300088CEAD90312088C7C930412088C97939C
:101E63000412088CC0930412088CDA930412088CB1
:101E7300FF930412088C1E940412088C36940412E7
:101E8300088C64940412088C7E940412088C4F9C72
:101E93000412088CCBEF0312088CD2EF0312088CC8
:101EA300DEF00312088C0EF10312088C34F10312D6
:101EB300088C57F10312088C79F10312088CB3F1E3
:101EC3000312088C19F20312088C52F20312088CC5
:101ED3009EF20312088CCBF20312088CEBF203126E
:101EE300088CF5FE0312088C0DFF0312088CF3FF18
:101EF3000312088CF6FF0312088C01970412088C56
:101F030073970412088CB1970412088CF297041289
:101F1300088CFDEB0312088C1CEC0312088C6BEC91
:101F23000312088C87EC0312088CB8EC0312088C9C
:101F3300C8EC0312088CD5EC0312088CE2EC0312F4
:101F4300088CCEED0312088C0CEE0312088C16EEEF
:101F53000312088C26EF0312088C31EF0312088C4E
:101F630043EF0312088C4CEF0312088C56EF031255
:101F7300088C6EE30312088C8EE70312088C9CE72F
:101F83000312088C099C0412088C059D0412088C0A
:101F9300CF9C0412088CD87F0012088C529D041227
:101FA300088CF1D50212088C37D40212088CE7D1C1
:101FB3000212088C6ED10212088C15D10212088C01
:101FC300A5D00212088C7CD00212088C5CCE0212BF
:101FD300088C28CE0212088CF5CD0212088CD9CDBC
:101FE3000212088CE8CC0212088CA0CC0212088CD6
:101FF300EBCA0212088C6BCA0212088C68CA02125E
:10200300088C68C90212088C36C90212088C73C87E
:102013000212088C9EC60212088C54C60212088C47
:1020230026C60212088C10E10212088CBBDE0212D3
:10203300088C5BDE0212088C13DE0212088C85DD2D
:102043000212088C23C60212088C10C60212088CD6
:10205300BBC50212088CAAC50212088C78DD0212D5
:10206300088CA0C40212088C36C40212088CE4C384
:102073000212088C85C30212088C72DA0212088CD1
:1020830045CD0312088C54C30212088C1CC00212E3
:10209300088CDCBF0212088CD0BF0212088C30BF40
:1020A3000212088C70BE0212088CF2BB0212088C5A
:1020B30083B90212088C41B90212088C15B80212B6
:1020C300088CCAB70212088C09B70212088CDCB656
:1020D3000212088C1FB60212088CEFB50212088C8C
:1020E300D4D70212088CB5B50212088C7290040082
:1020F300000080FBE4730001363601010001020198
:1021030000010301000104010606050200000701A6
:1021130000340801000F090401010D0100FF0E083E
:10212300000017020000190100FF1A0100011B0142
:1021330000FE1C0100081D0200001F010001200118
:102143000001210200002301000F240200002601E8
:10215300000127010008280200FF2A0100072B01C4
:1021630002402C0100002D0100012E0100012F016E
:1021730000FF30010B1C310800003A0100083B014D
:10218300000F2F01000003027102300160021102EF
:1021930070020102020202028002100261023A008E
:1021A30041006302730272026202430200021302DD
:1021B30038000002000204021202000200020002C0
:1021C300000204020402370037003C02440200020A
:1021D300390000020002650200023502810200029A
:1021E30005028202830200020300710030016000D5
:1021F30011007000310220035004800010006100C0
:1022030000001400630073007200620043000000CA
:10221300130006000000000004001200000000008C
:102223000000000004000400370037003C024400B3
:102233000000000000000000650000003500810080
:102243000000050000008300000003047104020481
:102253006004110470040204020401040204100463
:1022630061040004140463047304720462044304E9
:10227300000413040604000400040404120400040C
:10228300000400040004510464000004000400047A
:10229300440400040004000400046504000435043D
:1022A3008104640005040004830400040103710332
:1022B30001030103010301030103220302030103D9
:1022C30010030003000300030003000300030003E3
:1022D3004203000324030603000300030403120361
:1022E300250323032503230304030403000300033B
:1022F30000034403000300032303000365032100D9
:1023030035038103000305030003000300030101F8
:1023130071010101010111010101310101010101FA
:102323008001100161013B0014006301730172011C
:10233300620143010001130106013D01350004015F
:102343001201000100010001000104010401330135
:1023530033013C01440132013600000100016501F3
:1023630000013500810100010501820183010001A3
:1023730036000100060000000F000000000000000E
:1023830000000000000003FFFF00000403FFFF0044
:1023930000FFFF0FF4010005C40403200001000047
:1023A3000B000000000000000003010F0000F81AFA
:1023B3001300741A0100F81A02002C1A0300321ACF
:1023C3000400381A05003E1A06004A1A1100681A5A
:1023D30014006E1A15005C1AFFFF000001620E065E
:1023E300920E088C0E0B9E0E10DE0D02680E0580F9
:1023F3000E076E0E0C440E0D560EFF000003EAF599
:10240300E5D5D5C5B5A59595858575756565555589
:102413004545353525251515056A129A127012762C
:1024230012941288128212A012A612AC12B8127C55
:102433001264125E1200160F00000B150B0200024D
:10244300220F320000065A136C13721334127813DE
:102453002E123A126E116811A411AA119E1156116F
:10246300BA13D813DE13C013CC13C61330301618A7
:102473001920231A1C1E300C0E020B040B0A07082A
:10248300000F00383C3E363B3B352B432C30301796
:10249300181921301B1D1F300001191618161615A7
:1024A30023030000034948424D1817250502AE13C4
:1024B3007E13841390138A138E12B212D213BE1298
:1024C300C4120204020101010109027A118011748C
:1024D30011B0110000000000008611981100BE0425
:1024E3000A0E00150004007F00E8030C002800001A
:1024F300000000090308100C0A0308090004000186
:10250300FF1E1E0C05040F08C082C0838A828B83C2
:10251300E0D2E7F012197E0236D8C082C083790078
:102523001229D7125700C082C08390033412494B3B
:10253300D083D082C3E09CA3E09D500C125F31FA9C
:10254300A3E012254E6001090236D8FBEA75F00BB1
:10255300A4FAA8F075F00BEBA428FB900336E02A4D
:10256300F8A3E03B8882F583E0540F2274F712044A
:102573004D89081229D7122A7DACF075F00BE9A416
:102583002CF9900336E028FEA3E039FF74016508B7
:1025930060067402650870208A828B83122A69128E
:1025A300390374026508701B122928122AB07013AC
:1025B3008E828F83E4F0800BEA2403FCEB122A4B18
:1025C300122A57EEFAEFFB120B6202385F74F41211
:1025D300044D12685F79008E828F83E06076890AEA
:1025E300890B8065E50A75F00BA4FAA8F075F00B6A
:1025F300E50B12255B7046E50A75F00BA4F8AAF00B
:1026030075F00BE50B122A8F8E828F83E08508828B
:10261300850983122B71850882850983A3123903E7
:10262300EE2403FCEF122A541233921252EBAA083F
:10263300AB09120B627901900334124CFAE50A24B8
:1026430001F50AE50B3400F50B122930E50A9AE58A
:102653000B9B4090024F2874F512044DEAFEEBFFEA
:10266300740B120B3D1236EE750A01EC4D602BEC28
:1026730012687BED1257001238FA7901120B6EE5DE
:10268300084509606F850882850983A31268697903
:1026930002AA08AB09120B6E805AE5084509602BA4
:1026A300125868123F39123393122A9A700CEEFAB9
:1026B300EFFB120B74E9F50A80CBEE2403FA12291F
:1026C300D270317903EEFAEFFB80CA8E828F83A337
:1026D300E064FE7003A3E0F4700BEE24030A0A0A1D
:1026E3001229D2700CEEFAEFFB120B74E9F50A8093
:1026F30003750A00A90A7F0302066574F712044DE5
:1027030090033412386FEA4B602FEA75F00BA4FA8A
:10271300A8F075F00BEBA428FBEAFEEBFF1217926F
:1027230090033612386F900336124B3F6012EEFC63
:10273300EFFD79001216CC8007900336E4F0A3F086
:1027430002385F9003341242A9C3EE98EF9922C076
:1027530082C083EC4D6005121F0C80097C087D004C
:1027630079001216CC0236D874F612044D7900EAB9
:102773004B601878008808125BA0EB125F2D600491
:102783007901780808E8C3940840EA02315374F7E2
:1027930012044D74F312096BECFEEDFF851882856C
:1027A3001983E4F004120B3DEAF0A3EB12507474A6
:1027B30003120B3DAC82AD83EEFAEFFB120B86EEF8
:1027C300FAEFFB120B8C02385A74F712044D74F3B0
:1027D30012096BECFEEDFF851882851983E4F0EA9C
:1027E300FCEBFD7403120B3D122B6A7401120B3DBB
:1027F3001238F68E828F8312390374FE6870037465
:10280300FF69600479018002790002385A74F71273
:10281300044DEAFEEBFF12286E70141228798E82A3
:102823008F83E0F4F88A828B83E058F0120B62A95D
:102833000802385F74F712044DEAFEEBFF750800D7
:102843008E828F83E0602212286E701D1228798A8F
:10285300828B83E08F838E82F8E058700CE0F88AD5
:10286300828B83E048F0120B6280C4120B68E9F597
:10287300087401650822126874122A811229C3FAA6
:10288300A3E039FB2274F412044D8A088B097C00FF
:102893007D00122928122A571229E8126866790046
:1028A300850882850983A3E064FE7003A3E0F460D6
:1028B300717E007F008062EEFAEF12254E6057EEC4
:1028C300FAEFFBEA75F00BA4FAA8F075F00BEBA492
:1028D30028FB900336E02AF50AA3E03BF50B8508B5
:1028E30082850983A3124FC2850A82850B83A3E0E5
:1028F3006A7003A3E06B701EE50A2403FAE50B126A
:1029030029D3700AE50A2403FCE50B122A54122981
:10291300DC790112586F1232B5122930EE9AEF9B0F
:102923004095024F28EA24030A0A0AEB2290033453
:10293300125451C32274F312044D8A088B098A82FC
:102943008B83A31268691229D7126866750C00126B
:1029530029281229D370547E007F0080491229B59B
:10296300FAA3E0398A82F583E0540F60361229B561
:10297300F50AA3E039F50BE50A2403FCE50B122A5B
:102983005E3400FB121F06E964017017850A828515
:102993000B83A3125512A31239031229DC750C0100
:1029A30012586F1232B512274640B2A90C7F0502A6
:1029B3000665EEF8EFF9E875F00BA4F81229C322C7
:1029C300AAF075F00BE9A42AF9900336E02822EF68
:1029D300122AAA2212687AEB221229E812339CEEF9
:1029E300F0A3EFF022E50812687BE5092274F512E3
:1029F300044DEAFEEBFF8E828F83A31268697C008D
:102A03007D00EE24030A0A0AEF122A57EEFAEFFBBF
:102A1300120B68E9F50A7401650A702912687412C9
:102A23002A7DAAF075F00BE9122A8F850882F583B7
:102A3300122A69122A9A700DE5082403FCE509128B
:102A43002A4B122A570226F73400FDEE2403FAEF2D
:102A530022122A5E3400FB120B86223400FDE508A5
:102A63002403FAE50922A3122A6E22122A7222E013
:102A7300F8A3E0F98E828F83A322122A81223400E5
:102A8300F5831242ADE875F00BA4F8221229C9F5BB
:102A930008A3E039F50922E8F0A3E9F0E5082403E7
:102AA300FAE509122AAA22122AB06401223400FB91
:102AB300120B8CE92274F312044D74E612096B12A3
:102AC300685F750C01750800750900750A00750BC0
:102AD30000851882851983E4F0EE2403FCEF3400AB
:102AE300FD7403120B3D122B6AE964017023740B0E
:102AF300120B3D1238FA7401120B3D124FC67003CC
:102B0300A3E06960518518828519838582088583CE
:102B130009740D120B3DE4122B71740E120B3D124E
:102B23003903740D120B3DAA82AB83120BAAE9641D
:102B330001700B740D120B3D85820A85830B780A95
:102B43001208C4AC08AD09EEFAEFFB120B7A74025B
:102B53001208F1E9F50CEEFAEFFB120BA4A90C74C1
:102B63001A1208F10229B0122E5B120BB02212388E
:102B73006A1242A922C082C08378007900800312BE
:102B83002C68122930E89AE99B5029E8FAE9FBEA14
:102B930075F00BA4FAACF075F00BEBA42CFB9003CF
:102BA30036E02AFCA3E03B8C82F583E0540F70CF20
:102BB3007900800279010236D8C082C0839024E66E
:102BC3001242FFEC75F012A4FCA8F075F012EDA40C
:102BD30028FD79FF7A067B081216CC0236D874F7E3
:102BE30012044DE9FEEAFF7A007B00780079008049
:102BF30028E8FCE9FDEC75F012A4FC85F00875F0FB
:102C030012EDA4250812309BC39E400AE0FCEFC3DB
:102C13009C400312318A122C6812308F40D3023841
:102C23005FC082C083780079008003122C68122C65
:102C33005C501F12309FF470F2E875F012A4F8AAEA
:102C4300F075F012E9A42AF9740628FA740839FB1E
:102C530080047A007B000236D89024E6123158C3F0
:102C6300E89AE99B22E8240108E93400F92274F088
:102C730012044D74F312096B8A0A8B0B8C0C8D0DA5
:102C83008908EC450D6016AA0CAB0D120BFE8A0EDB
:102C93008B0FAE0EAF0FEE4F6003022D2F120BD42E
:102CA3008A0E8B0FA80EA90FE8FEE9FFE849607CA6
:102CB3009024F4122DAF6022740365086006740437
:102CC300650870167A047903120BCE9024F4122D42
:102CD300C640077A007B00022DAC9024F2122DAF80
:102CE300601B74016508600674026508700F7A0240
:102CF3007901120BCE9024F2122DC650D68518827C
:102D03008519837401F0120B3D1252EBAC0CAD0D1F
:102D13007403120B3D122E54740B120B3D1236E545
:102D2300123CB6E41252D31210AE8004EE4F606828
:102D3300780074FF2508C39404500278048E828FB0
:102D4300831252EB8E828F83A3A3A3A3E508F0E83B
:102D53008E828F83A3A3A3A3A31252F31202FCE8D0
:102D63008E828F83A3A3A3A3A3A3A3A3123A9A74CC
:102D730001123A9AA3F0EE24101256FDE4F0A312C6
:102D83003548A3F0123392E4F0908142120B1AEE0D
:102D9300240C1256FD120B26122DB44005900D6221
:102DA300E4F0120F88EEFAEFFB0242B31254074924
:102DB300227A047900120BCE9024E6125F13EA986C
:102DC300EB9922122DDF7583247582E6E493C39871
:102DD300F8A3E49399F9C3EA98EB9922E493F8747E
:102DE3000193F92274F212044D74F312096B8A08E9
:102DF3008B09ECFEEDFF750A00EEFAEFFB120BFEFA
:102E03008A0C8B0DA80CA90DE849603E8882898342
:102E1300E065087004A3E06509602F88828983A3B5
:102E2300A3A3A3E0C39405502112571685188285E6
:102E330019837401F0120B3D12571AEEFCEFFD7467
:102E430003120B3D122E54750A01A90A740D024D8B
:102E5300B1122E5B120BBC22AA82AB83120B8685A6
:102E63001882851983AA82AB832274F612044D1249
:102E73002EA9600FA3A3A3A3E014C3940450047961
:102E8300018002790002315374F612044D122EA907
:102E9300600FA3A3A3A3E014C39402500479018099
:102EA300027900023153120BF88A828B83E5824543
:102EB300832274F612044D122EA9600BA3A3A3A3BD
:102EC300E07004790180027900023153C082C0832B
:102ED300EAFCEBFD7A007B000236D5C082C0837C1E
:102EE300007D000236D574F412044D74F312096B9D
:102EF300EAFEEBFF8C0A8D0BC3EC94F8ED94FF40D4
:102F030007EE4F7003022FA2750800750900802E8B
:102F13008518828519837401F01232DD120B3D127C
:102F230032EB60137403120B3DAC82AD83EEFAEF08
:102F3300FB121F06E97049E508240112313B902476
:102F4300E6E412619BE50898E509995052E5087596
:102F5300F012A4F8AAF075F012E509A42AF9125F99
:102F63004660D4EE4F70A974FF650A700474FF6560
:102F73000B60C41232CD650A7004A3E0650B70B711
:102F8300E50875F012A4F508A8F075F012E509A498
:102F930028F50974062508FA74083509FB80047AB4
:102FA300007B00024F2374F412044D74F312096B77
:102FB300750800120BFE8A0A8B0BAE0AAF0BEE4F9D
:102FC300602A8518828519837401123864F8A3E096
:102FD300F9740B120B3D12397E120B9E7C127D008D
:102FE30079FFEEFAEFFB1216CC750801122DB450DF
:102FF30009900D627401F0120F88A908024F23741F
:10300300F712044DE9FE74FE6A700374FF6B7800D7
:10301300790070058052122C6812308F504AE8FCF8
:10302300E9FDEC75F012A4FCAFF075F012EDA42FDE
:1030330012309BF460E0E8FCE9FDEC75F012A4FCAF
:1030430075F012EDA42FFD74062CF58274083DF57E
:1030530083E06A7003A3E06B70BC800912309F1495
:10306300C394044017122C68122C5C5018EE70ECB9
:1030730012309F64016005E0640370E91232BEFA06
:10308300A3E0FB80047AFE7BFF02385F9024E61204
:103093004303C3E89CE99D221231BF22E8FAE9FB0E
:1030A300EA75F012A4FAACF075F012EBA42CFB74E1
:1030B3000A2AF58274083BF583E022120C100236CB
:1030C300D8C082C083790180F274F012044D8A0A59
:1030D3008B0B7A047901120BCE8A0C8B0DEA450D0A
:1030E300603EEAC333FAEB33FB1217928A088B096B
:1030F300AE08AF09EE4F60237AFE7BFF120C167405
:10310300FE6A700374FF6B601B8508828509831256
:10311300386FE508240212313B80E1750C0080040E
:103123007E007F00850A82850B83E50CF0EEFAEFC3
:10313300FB0242B8E5082407F508E5093400F50960
:10314300229024E6124303C3EA9CEB9D221208F16A
:103153007F02020665E493FA740193FB22C082C0E6
:10316300837A007B0080041912318A123144501093
:103173001231A9C3940550F0E970EC123193800425
:103183007A007B000236D8EA24010AEB3400FB22E2
:10319300EA75F012A4FA75F012EBA428FB74062A60
:1031A300FA74083BFB22EAFCEBFDEC75F012A4FC7D
:1031B300A8F075F012EDA4281231BF22FD740A2C79
:1031C300F58274083DF583E02274F712044D74F31D
:1031D30012096B7E007F00023271E50875F017A4B7
:1031E300F8A9F01261AEFAA3E0FBEEF8EFF9E87587
:1031F300F012A4F8ACF075F012E9A42C1232CC6AE8
:103203007003A3E06B603FE50875F017A4F8AAF01C
:10321300EA1261ADF8A3E0F97401120B3DE06870A6
:1032230003A3E0696020E50875F017A4F8EAF974D0
:103233008228FC740939FD7403120B3DAA82AB8307
:10324300121F06E96014E50875F017A4F8A9F074D5
:103253008028FA740939FB1210BA05089024F9E49E
:1032630093F8E508C39850030231DD1232B5902478
:10327300E61264F45039EEF8EFF91232BEF470033B
:10328300A3E0F460E68518828519837401F0EEF8F3
:10329300EFF9E875F012A4F875F012E9A42AF9120F
:1032A30032DD120B3D1232EB60C175080080AD02B6
:1032B300385AEE24010EEF3400FF22E875F012A411
:1032C300F8AAF075F012E9A42AF91232D122740691
:1032D30028F582740839F583E022740828F582748E
:1032E30008391242A7740B22E8F0A3E912398612B7
:1032F3000BB6E922C082C08390033D747AF0A374B5
:103303000EF090033F7474F0A3740EF090034374B3
:1033130094F0A3740CF00236D874F712044DEAFE4D
:10332300EBFF900377E06408601BE0640460168E93
:10333300828F83E0540364017048123392123DAECE
:10334300E06406703D8E828F83A3A3E064FE700366
:10335300A3E0F4602D8E828F83A3A31238F690032B
:1033630068E0687003A3E069700BEE2415F582EF43
:10337300125F2D6008120F28E9F5088008120F2E3E
:1033830080F67508C2EEFAEFFB121798022832EEA8
:1033930012339722240BF582EF3400F5832274F461
:1033A30012044D8A088B098A828B83E0F8A3E0FA22
:1033B300E82AFAE43400FB1217928A0A8B0BAE0A4E
:1033C300AF0BEE4F6060850882850983E0FC7D00CA
:1033D30079001216CC8E828F83A3A3126869120F11
:1033E3006A8E828F83A3A3A3A312386F8508828575
:1033F3000983E0F8EE28F8EF34001238FE850882DE
:10340300850983A3E0C0E01256FAD0E0F0120F7CE6
:10341300EE240E1256FDE9124F19E0C0E0EE24111E
:103423001256FDD0E0F0EEFAEFFB024F2874F412CF
:10343300044D74EB12096B8A088B098C0A8D0BE916
:10344300FE900377E064046005E06408700479C2C9
:10345300802EA37808120AFEEE90037E1236DF1246
:103463000AFE7405120B3DE9F07404120B3D74015E
:10347300F07407120B3DE4F0900377740212367375
:103483007415024F2574F612044D74EB12096BEA9E
:10349300FEEBFF124B3C600302352C7A077B0012D4
:1034A300179290033912386F124B3C60788E828FDB
:1034B30083120B1A90033A123DB1120B2612672D99
:1034C300C0E0123538D0E0F0EE2405FAEF3400FB0B
:1034D3008A088B098A82F583E0C0E0123533D0E095
:1034E300123548E0C0E0123533A3D0E01238E312BE
:1034F3000B1A851882851983120B2688828983E02B
:10350300C0E07405120B3DD0E0F085088285098385
:10351300E0C0E07404120B3DD0E0F07407120B3DE1
:1035230012367280067910800279017415023150C7
:10353300123538A322900339E0FAA3E0F5838A8297
:10354300A3A3A3A322123CBE22C082C083124B3C7E
:10355300600D90033912543F900339E4F0A3F01245
:103563000E9812105A0236D874F012044D74EB12EE
:10357300096BECFEEDFF89087425120B3D780C12E4
:103583000AE07429120B3DE0F9742A120B3DE0FCAA
:10359300742B120B3DE0FD740F697005740F6C60A2
:1035A3001290062AE06402700579C102366DE9C300
:1035B3009C40F6900378780C120AFEE50890037E8F
:1035C300F0E990037CF0ECA3F0ED90037FF074FF3F
:1035D3006A700374FF6B701D900DFCE0F47003A31D
:1035E300E0F470051216E4800C900DFC123837E8F5
:1035F300F0A3E98007900375EAF0A3EBF0EE4F60C8
:1036030017EEFAEFFB12111AE96401700BEEFCEFEF
:10361300FD7A897B03121F0C900368E4F0A3F090FA
:10362300036BF0A3F0900388F090062AE064027025
:103633000890037C740FF0A3F09003777405F014E3
:10364300120B3DE4F0900378120B1A85188285194A
:1036530083120B2690037EE0C0E07405120B3DD06D
:10366300E0F07407120B3D12367274150242B5E492
:10367300123986121F3C22C082C083900338E07047
:1036830003121A62120C5E804CC082C0839003380E
:10369300E0900D617004E4F0802D7401F090033824
:1036A300E0F460237C41E0C394415002E0FCECF879
:1036B300E0C398F0EC75F0E8A4CCA8F075F003A48F
:1036C30028FD7A8012430B7A617B0D7941121F2406
:1036D3008003120C04D083D0820208891238EE785A
:1036E30008221236E922122A72A322E0F508A3E087
:1036F300F5092274F512044D74E212096B851882E0
:10370300851983ECF0A3EDF0EAFEEBFF8908742939
:10371300120B3DE0F509742C120B3DE0F50A900302
:1037230077E064046005E06408700579C202382814
:10373300742A120B3DE064FE7003A3E0F470057974
:10374300C302382890037774031239827950121F09
:1037530024742A120B3DAA82AB83794B121F248552
:103763001882851983123837123903E50890036AE2
:10377300F0742A120B3D123830123903E509900315
:103783006212383E74CE55094480C0E07412120BA5
:103793003DD0E0F07401250A900388F0740F120BFA
:1037A3003D7402F0742A120B3D1238F67407120BA3
:1037B3003DE8F0A3E91238757410120B3D1239037A
:1037C3007405120B3DE508F0741B120B3DE4F090F9
:1037D300037D740FF07A7D7B037954121F249003C9
:1037E3007C740FF07A7C7B037947121F2490037C4F
:1037F300E0C3940F50237405120B3DE0C0E0740244
:10380300120B3DD0E0F07404120B3D7401F004126E
:103813000B3DAA82AB83121F487405120B3DAA828B
:10382300AB83121F2A741E1208F10226F91242A951
:1038330090036B221242A990037522F0EEFCEFFD78
:103843007A897B03121F0C2274F712044DEB900349
:103853007FF0120E868005740D1208F17F010206B7
:103863006512386AA3E0221238E3A322EAF0A3EB3D
:10387300F0221238E9F8A3E0F92274F712044D7428
:10388300F812096BEAFEEBFF7900900377E0640816
:10389300704485188285198374FDF0A374FFF012B8
:1038A3000F647402120B3D12386F7405120B3DE462
:1038B30012386AE0C0E07404120B3DD0E01238DE27
:1038C300C0E07406120B3DD0E0F07407120B3DE428
:1038D300123982120FA6740802385C1238E3E02210
:1038E300F08E828F83221238EEE022F085188285D3
:1038F3001983221242A922E0F8A3E0F9EE123397CA
:10390300E8F0A3E9F022C082C0839003497424F055
:10391300A3740DF09003EF7400F0A37410F0900300
:103923004D745AF0A3740DF090034F7424F0A374F4
:103933000DF09003517460F0A3740DF00236D87447
:10394300F412044D74F912096B8A088B098C0A8DE1
:103953000B8518828519837808120AFE7404120BEA
:103963003DE9F07405120B3DE4F07406120B3DE4DF
:10397300123982120C467407024F25E8F0A3E912AC
:103983003986221238EEAA82AB832274F412044DD4
:103993008A088B098A828B83125872EE4F70030256
:1039A3003A97900312124B3F60158A828B83A3A32D
:1039B300E0F9EEFAEFFB900313123DB11220F78EFC
:1039C300828F83A3A3A3A3A3A3A3A3A3E0640270EF
:1039D300718E828F83A3A3A3A3A3A3E054027003D6
:1039E300023A69850882850983A3A3E064E96076C6
:1039F3008E828F83A3A3A3A3A3A3A3A3A3A3E070F4
:103A030014900DF4E0048E828F83A3A3A3A3A3A336
:103A1300A3A3A3A3F08E828F83A3A3A3A3A3A3A390
:103A2300A3A3A3E014123A9A7404F0900DF5125272
:103A3300C5E8F0A3E91263918B0BEA450B700312FF
:103A43005D648E828F83A3A3A3A3A3A3A3A3A3E0F5
:103A5300640260128E828F83A3A3A3A3A3A3A3A351
:103A6300A3E06406702E8E828F83A3A3A3A3A3A3D4
:103A7300E0A2E0501F850882850983A3A3E0F9EE45
:103A8300FAEFFB121FD88E828F83A3A3A3A3A3A352
:103A9300E054FEF0024F28123CBEA3A3A32274EC11
:103AA30012044D74DD12096BEAFEEBFF8C088D09DD
:103AB3007437120B3D780C120AE0750A0074051274
:103AC3000B3DAC82AD8312202C7412120B3DE070BF
:103AD300087415120B3DE060207405120B3DE0A243
:103AE300E6501E8E828F83A3A3A3A3A3A3A3A3A3A2
:103AF300124FC2120FDCE960087903121EF4023C74
:103B0300A47405120B3DE0540C64047005750B019D
:103B13008003750B00E0A2E55019750A01E50BA2BD
:103B2300E04010126870124FBE121FE4E96004797E
:103B33000480C87405120B3DE0A2E65022740612FD
:103B43000B3DE0540370187405120B3DE0540C64F4
:103B53000C600CE0540C640860057510018003755B
:103B630010007405120B3DE05403F8740268700CE6
:103B7300126870124FBE120B50023CA4740168709D
:103B83003AE510A2E05003123CAC7405120B3DA8B9
:103B930082A9837403120B3DE8F0A3E912429D85C9
:103BA3001882851983123CB6E0C0E07402120B3D03
:103BB300D0E01239821220C8023CA4E86003023C20
:103BC300A490035FE0640170108E828F83A3A3A38C
:103BD300A3A3A3E07003023B327422120B3D7402D1
:103BE30012429D741A120B3D123903E510A2E050E4
:103BF300087405120B3D123CACE50BA2E0506AEED3
:103C0300240FF582EF125F2DC0E07417120B3DD025
:103C1300E0F0900314124B3F7003023CA4120F6AAE
:103C23008A128B13A812A913741A120B3DE0687041
:103C330003A3E069706B780C1208BC780A1208C8F9
:103C430078081208C4A910740C120B3DAC82AD8322
:103C53007421120B3DAA82AB83900314123DAE1262
:103C630020F774071208F18038780C1208BC780A20
:103C73001208C878081208C4900375120734EE249A
:103C830012F582EF125C577423120B3DAC82AD83A5
:103C9300740E120B3DAA82AB83121FCC7409120857
:103CA300F174231208F102635C12687012544D120E
:103CB300202622E8F0A3E9123CBE22125D9AA3A3B8
:103CC300A32274F712044D12193602385F74F712E7
:103CD300044D12193C02385F74F712044D1219484F
:103CE30002385FC082C0831219420236D874F712B9
:103CF300044D12194E02385F74F712044D74091201
:103D03000B3DE0F50878081208C812195A7401022D
:103D1300385CC082C0831219660236D8C082C08361
:103D230012196C0236D874F712044D121972023844
:103D33005F74F712044DEAFEEBFF8908740165080E
:103D430070147900120D9C902504E493FC7900EE25
:103D5300FAEFFB120D1202385F74F412044D74F97A
:103D630012096BE9FE8A088B098C0A8D0B741312F6
:103D73000B3D124FC290058F124B3F6027EE851803
:103D830082851983F07401120B3D7808120AFEEA4A
:103D9300F8EBF97405120B3D12397E90058F123D35
:103DA300AE1220F7023979FB90034BE0F8A3E0F55C
:103DB30083888222C082C0831219A80236D874F77E
:103DC30012044D900D64E0F97E00800B125F1954CC
:103DD3000D64017001190E123FBB5003E970ED022F
:103DE300385F74F712044D900D65E0F97E00800B87
:103DF300125F19548D64817001190E123FBB500379
:103E0300E970ED02385F74F212044D890BE975F025
:103E130006A4240CF508E5F012313F8A0CE50825C9
:103E23000CFAE5093400FB1217928A0C8B0DAE0CC9
:103E3300AF0DEE4F6027AC08AD0979001216CC1216
:103E43003392E50BF0EE2508F8EF3509F98E828FF2
:103E530083A3A3A3A3A3A3A3A3A3123903EEFAEFFC
:103E6300FB024DB474F612044DEAFEEBFF120CEEA6
:103E7300900D63E0F8E9C3984009900345124FC2DF
:103E8300120CF4EE2402F8EF1255C29003471254B9
:103E93007C900347E004F0EEFAEFFB120CFA85087E
:103EA30082850983E0025A6DC082C0837900900342
:103EB30045800109124FC28A828B83E58245837054
:103EC300F20236D874F712044DEAFEEBFFEE4F60B0
:103ED30056900345124B3F604E888289837A007B5C
:103EE30000EE65827003EF6583600FAA82AB8312D5
:103EF3003F2DE5824583602F80E7900345123F39CC
:103F0300687002EF698E828F8370081238F690030F
:103F130045800312636E123903EEFAEFFB12209809
:103F2300EEFAEFFB12179802385F123F312212426A
:103F3300AD88828983221242A9EE22C082C0839077
:103F43000345800488828983124B3F600B888289F2
:103F53008312494BEC4D70EC8A828B83E4F0A3F01F
:103F6300E849600688828983800390034512386F8D
:103F73000236D874F712044D90034580048A828B6D
:103F830083123FB64B60257E0080010E123FBB506B
:103F9300ECEE75F006A4FCADF0EA2CFCEB3DFDEC79
:103FA3002410F582ED12400B70E180047A007B004F
:103FB30002385F125451EA22124014EEC39822745D
:103FC300F712044D7D0080010D124010EDC398508F
:103FD30034ED75F006A4FEA8F0E8FFEA2EFEEB3FF1
:103FE300FFEE2410F582EF12400B70DCED75F00646
:103FF300A4FEE8FFEA2EFAEB3FFBEA2411F582EB7D
:10400300125F2D4CF002385F125F3969221240149F
:104013002212687AEB3400F583E0F82274F6120476
:104023004D120E147A007B008025EAF8EBF9E8754F
:10403300F006A4F8ACF075F006E9A42C125426128D
:10404300673BA3E412551CF0A31267411268B890B2
:1040530024EE122DBE40D37A007B00801C8A088B8D
:104063000974037808120A20124EE0A374FEF0A329
:1040730004125305A3E41268B89024F81240BE401A
:10408300DC7A007B00801D8A088B09740378081290
:104093000A2074A8125BA1740C1263F374FEF0A3DC
:1040A300041268B89024FE1240BE40DB902502E45F
:1040B30093900353F01240C8023153E493F8C3EAD8
:1040C30098EB9400227CE87D037A107B009003C276
:1040D300E0F91218522274F012044D74F512096BB0
:1040E3008A088B09890A8C0BE9A2E050147508FC35
:1040F3007509FFA2E15005D2E402419BD2E30241DC
:104103009B124DA07003A3E0697005790002426819
:10411300AC0A7902AA08AB09120DF0E960EDE50AD1
:10412300F50C780C1208C879027CFE7DFFAA08AB57
:1041330009124B1B1208F1E96003024266E50AC249
:10414300E5F50A9003B5E07051E50AA2E6404B7429
:1041530003120B3DAC82AD83AA08AB09120B92E9A3
:10416300703212443C8A0C8B0DA80CA90DE8FEE9B1
:10417300FFE8496025EE24020A0AEF122AB0601A0A
:10418300EE2402FCEF3400FD7403120B3DAA82AB54
:1041930083121F0CE50AD2E5F50A900348E0F50CFB
:1041A300900368E0F50EA3E0F50F780E1208C47DC6
:1041B300017C00900348E0F9AA0EAB0F120DA8741E
:1041C300021208F1E9F8900348E004F0E860030202
:1041D3004266E50AA2E55004740E80027406C0E04C
:1041E3007401120B3DD0E01258838A0E8B0FAE0E72
:1041F300AF0FEE4F606912428612429D8882898317
:104203007401F07478550AA3126880E50C12688073
:10421300A3E508F0E509124275E4F0E50AA2E550CA
:104223000F7403120B3DAC82AD83E8240612426C7B
:104233008E828F83A3A374FDF0A374FFF0E50B605C
:1042430015902505E493F8E50BC3985009EE241364
:104253001256FDE50BF0EEFAEFFB120C34800679F3
:1042630010800279C7740B8049FAE93400FB121FEE
:104273000C2288828983A3A3A3A31242812212550D
:10428300F5A322EE24171233997401F0120F64EE92
:10429300241A123399EAF0A3EB22F0126874340063
:1042A3001242A722F5831242AD22E0F8A3E0F922DD
:1042B300740D1208F17F0802066574F612044D7A34
:1042C300007B10125D7160089003D47401F08029A3
:1042D30090062DE06401900DF27006E0FC790180F8
:1042E30004E0FC79037A007B00120D129024EC1297
:1042F30042FF7A007B1012430D0231531243032213
:10430300E493FC740193FD227B009003C2E0F91255
:10431300184C2274EC12044D8A088B098C0C8D0DF9
:10432300890E7414120B3D124CFA7416120B3DE0F5
:10433300F510A3E0F511120FDCE960077AFF7BFFAC
:1043430002443990062AE06402600302442C790097
:10435300AA08AB09120DF6A90E120DEA8A128B13E5
:10436300AE12AF13EE4F70030244148E828F83A3F9
:10437300A3A3A3A3E064018E828F83A3A370691216
:104383004FC28E828F83A3A3A3A3A3A3E054186079
:1043930043902503E4938E828F83A3A3A3A3F0EA20
:1043A300650C7003EB650D6014EA650A7003EB6539
:1043B3000B600AEA65107003EB6511701F78101229
:1043C30008C4AC0AAD0BAA0CAB0D1210D8740212C0
:1043D30008F18008900367125D5BA3F074FE6A70B6
:1043E3000374FF6B601D804EA3A3A3E064036029E5
:1043F3008E828F83A3A3A3A3A3E0640470057AFE34
:104403000243418E828F83A3A3A3A3A3E06402701C
:10441300089003B4E06402701012443C8B0BEA452D
:104423000B6006AA08AB09800DAA08AB09900349E3
:10443300123DAE1220F702635C900375124B2112FA
:10444300109C2274F712044DEAFEEBFF120BE6E90F
:10445300700AEEFAEFFB120BF2E96006EEFAEFFBDD
:1044630080047AFE7BFF02385F74F012044D8A0ADF
:104473008B0B8C0E8D0F8909750800120FDCE979FF
:104483000060030245E3AA0AAB0B120DF6A9091259
:104493000DEA8A0C8B0DAE0CAF0DEE4F60198E82B8
:1044A3008F83A3A3A3A3A3E0640270559003B4E096
:1044B300640270030245E1AA0AAB0B90034F123D5D
:1044C300AE1220F7120BF88A0C8B0DA80CA90DE87D
:1044D3004970030245E188828983A3A3A3A3A3E0D0
:1044E300A2E040030245E1750C01A2E150687901A5
:1044F300AC0AAD0BAA0EAB0F120D42E97064024574
:10450300E18E828F83A3A3A3A3A3E0640370057545
:104513000C0280528E828F83A3A3A3A3A3E0640122
:1045230060030245E190037512494B8E828F83121B
:1045330049378A0C8B0DA80CA90DE84960D190244A
:10454300FCE493FA88828983E0C39A50C2A3E060B3
:10455300030245E180B988828983A3A3A3A3A3D2DD
:10456300E1F0EE4F603A8E828F83A3A3A3A3A3A3AC
:10457300E05418602B7508018E828F83A3A3120762
:1045830034750CFE750DFF780C1208C47900AC0A63
:10459300AD0BAA0EAB0F120E0874041208F1803E85
:1045A300900368E0650E7004A3E0650F7014902516
:1045B30004E493FCA909AA0AAB0B120D12750801B6
:1045C300801CA90CAC0AAD0BAA0EAB0F120D42E96D
:1045D300700C750801A909AA0AAB0B120D9CA90856
:1045E3000242B874EA12044D74F012096B8A0C8B00
:1045F3000D8C088D097426120B3DE0F514A3E0F52C
:10460300157512069003F5124B3F60239003751244
:10461300494BAA08AB091210C68A108B11EA45113F
:10462300600D8A828B83A3E07005790002491FE540
:104633000C241DF50EE50D3400F50F850E82124B8B
:104643002BF51388828983A3A3A3E0FA8882898345
:10465300A3A3A3A3E0F9EA2400FEE439FFAA08AB6D
:1046630009120DA2850E82850F83124969E029F58F
:104673000BE50AA2E5500375120E7487550A7017ED
:104683007418550A6418600FE50C2417F582E50DBC
:10469300125F2D651260077901121EF4808C530A94
:1046A30078C3EE94F8EF94FF501D7900EEFAEFFB18
:1046B300124929601288828983A3A3A3A3A3A3E039
:1046C3005418600302462D78081208C47D0012496D
:1046D3005C1208F1E9F8740368700302462DE86080
:1046E300030247987418550A700302484DE50AD22D
:1046F300E0F50AA2E45004D2E1F50AA90A124FBB7D
:10470300124929605388828983A3A3A3A3A3A3E0A7
:104713005418604488828983A3A3A3A3A3E06401FC
:104723007036E5104511603090037512494B88824D
:1047330089831249378A0E8B0FA80EA90FE84960A7
:104743001788828983A3E0600F851082851183A374
:10475300125A78500302462DE50AF50E780E120818
:10476300C812494F1208F1E9702B7C007D008514B3
:104773008285158374FFF0A3F0850C82850D83A3D6
:10478300A3A3A3A3A3A3A3E06003124940A90B120D
:104793004FBB121960851482851583E0F47003A35F
:1047A300E0F460399003B4E06402700302462D1212
:1047B3004CEBE0FAA3E0123DAA1220F7EA65087079
:1047C30003EB6509600302462DEEFAEF123DAA12D0
:1047D30020F7851482851583EAF0A3EBF07808129D
:1047E30008C47D0112495C1208F1A90AEEFAEFFB35
:1047F300120DF68A088B09A808A909900368E068D6
:104803007003A3E0696003024910EEFAEFFB120B99
:10481300F88A088B09A808A909E849606E88828983
:1048230083A3A3A3A3E06401600D88828983A3A368
:10483300A3A3E064027054851882851983AC82AD0A
:1048430083EEFAEFFB120B928055900361E0600F49
:10485300E50AF50E780E1208C812494F1208F1E561
:104863000AF50E780E1208C879027CFE7DFFEEFA77
:10487300EFFB124B1B1208F1E96003024798851402
:104883008285158374FFF0A30247DF120F64EAFCED
:10489300EBFD851882851983AA82AB83121F0C85D1
:1048A3000C82850D83A3A3A3A3A3A3A3A3E0640105
:1048B300700F1249407408120B3DAA82AB83121F7A
:1048C3000C124AF51257044430F50878081208C848
:1048D3007401120B3D85820885830978081208C488
:1048E300740B120B3D85820885830978081208C46E
:1048F300E513F50878081208C87900EEFCEFFD12FD
:104903004FBB120D3C74061208F102462D124AF5F4
:10491300125700124969E50BF0120F7C741012084C
:10492300F17F0E020665120DEA8A0E8B0FA80EA9FF
:104933000FE84922A3A31254511210C622E50C24F6
:1049430015F582E50D12339C1252DF227901AC0872
:10495300AD09125446124B1B22AC0BA91312544639
:10496300120DA874022212570CA3A3A3A32274F05E
:1049730012044D74F012096B8A0C8B0DECFAEDFBEB
:10498300750F089003F5124B3F6014125A718A8217
:104993008B83E58245836007A3E07003024AF0122C
:1049A3004AF53400124B2BF50B88828983124AFE99
:1049B300E0FBEC2400FEE43BFF88828983A3A3127F
:1049C3004AFEA3A3E0FBECF508E43BF509888289E2
:1049D30083A3A3A3A3A3A3A3E0F50EE50AA2E45034
:1049E30003750F10A2E550067408250FF50F748F99
:1049F300550A700FE50C2417F582E50D125F2D653E
:104A03000F60087901121EF4024AF0530A7078000D
:104A1300E50AA2E45022124AF5125F2D2408FCA3F2
:104A2300E03400FD7408120B3DAA82AB83121F0C05
:104A33007808E50AC2E4F50AE50AA2E55028124A15
:104A4300F5125F2D28F8A3E03400F9E82408FCE907
:104A53003400FD851882851983AA82AB83121F0C4B
:104A6300E50AC2E5F50AAC0EA90BEEFAEFFB120D4F
:104A7300AEE9F87403686075900368E06E7003A391
:104A8300E06F605EE87054E50AF50F780F1208C80E
:104A9300124B0C1208F1E97054780A1208C8740119
:104AA300120B3D85820C85830D780C1208C4740BA0
:104AB300120B3D85820C85830D780C1208C4E50B1F
:104AC300F50A780A1208C8A90EAC08AD09EEFAEF88
:104AD300FB120D3C74061208F18012740468700D09
:104AE30080B7780A1208C8124B0C1208F17410022E
:104AF30042B5E50C241DF582E50D22A3A3A3E0FC3A
:104B030088828983A3A3A3A3227901124CF21233CF
:104B13009C124B21124B1B22120D66740122E0FCE6
:104B2300A3E0FDAA08AB0922F583123F31A3E0F508
:104B33000A88828983A3A3E0229003391254AD2209
:104B430074E812044D74F512096BEAFEEBFF8C084E
:104B53008D0989147423120B3DE0F50F7424120B95
:104B63003DE0F512A3E0F5137426120B3DE0F516B4
:104B7300A3E0F5177428120B3DE0F50EA90F120DF3
:104B8300B48A108B117401120B3D7408F0E50EA268
:104B9300E450037410F0E50EA2E55004E02408F09D
:104BA300851882851983AA82AB83120FC48A0C8B62
:104BB3000DEA450D7003024CD2EA2417F582EB127D
:104BC3004CE4120F64E50C241AF582E50D1257002C
:104BD30012386F7403120B3DAC82AD83AA10AB1174
:104BE300120B92E9601D124CDC7403120B3DA88278
:104BF300A983E50C2418F582E50D125700E8F0A30C
:104C0300E98024E50EA2E4501FE5106E7003E51160
:104C13006F7015124CDCE50C2418F582E50D125764
:104C230000E512F0A3E513F0124CEB124CFA850ADF
:104C330082F5837402F0A3E50E124D02E50FF0EE48
:104C4300850A82850B83A3A3A3F0EF850A82850BD4
:104C530083A3A3A3A3124D02A3A3A3E508F0E5092D
:104C6300850A82850B83A3A3A3A3A3A3F0AA10ABF6
:104C730011120DA2E92514850A82850B83A3A3A330
:104C8300A3A3A3A3F0750800E50EA2E45011AC1290
:104C9300AD13E50A2408FAE50B12426E750808E520
:104CA3000EA2E55014AC16AD17E50A2508F8E50B7E
:104CB3003400F9E8240812426C850C82850D83A325
:104CC300A3E510F0A3E511F0AA0CAB0D120C34749C
:104CD3000B1208F17F10020665E50C2416F582E538
:104CE3000D12339C7401F022124CF212339C22E514
:104CF3000C12687BE50D22E0F50AA3E0F50B22F028
:104D0300850A82850B83A3A32274F212044D8A08B9
:104D13008B09ECFEEDFF890A7900124DA07003A305
:104D2300E069700479018073750B01900368E06595
:104D3300087004A3E06509601F750B00780B120867
:104D4300C8A90AEEFCEFFDAA08AB091210187401FA
:104D53001208F1E9F50B80417900EEFAEFFB120D31
:104D6300EAEA4B602B8A828B83A3A3A3A3A3A3E0CA
:104D73005418601C7508FE7509FF78081208C48A68
:104D8300828B83A3A31207341266901208F1800961
:104D93007901EEFAEFFB120CC4A90B8014120DF685
:104DA3008A0C8B0DA80CA90D900368E068221208E9
:104DB300F17F0602066574F412044D7508F0750957
:104DC3000A7A101263988B0BEA450B70031240C8E2
:104DD300900353E014F0700C902502E49390035376
:104DE300F0120E027E007F00806C850882850983A5
:104DF300A3A3A3A3E06059F46056E5082404F58255
:104E0300E509125D557049850882850983A3A3A32B
:104E1300A3A3E064037019790285088285098312CC
:104E2300494B850882850983A3A3124FC2120D4201
:104E3300850882850983A3A3A3A3A3E0640160106B
:104E430085088285098374FEF0A304124F12E4F0EF
:104E53001232B51231379024F01264F4408C7E0084
:104E63007F008039120F0A8E088F097403780812A5
:104E73000A2074682508FC740C3509FD7A4E7B0DF5
:104E8300120EF8EA4B70DD8E088F0974037808124E
:104E93000A20124EE012673BE4F01232B59024F878
:104EA300E493F8C3EE98EF9400501B8E088F0974B7
:104EB300037808120A20124EE8E82407F582E91263
:104EC3005D5570D680A17E007F00800A124EF3608C
:104ED3000214F01232B51264F140F18048124EE828
:104EE300888289832274682508F8740C3509F922AD
:104EF300EEF8EFF9E875F006A4F8AAF075F006E904
:104F0300A42AF9740828F582740C39F583E0221277
:104F13004F19A3A3A322F0850882850983A3A322A3
:104F2300740D1208F17F0402066574F712044D74C0
:104F3300E112096BECFEEDFF750800EE4F60728A1B
:104F4300828B83E0241C125D86124B3F60638A824E
:104F53008B83124FC2851882851983AC82AD83EA95
:104F6300241BF582EB125C57EA241CF582EB124FEB
:104F7300BE120F4C740B120B3D124FC67003A3E00D
:104F830069702E7402120B3DE064017024741D12CB
:104F93000B3D123DAEE064017017741D120B3D1200
:104FA3003DB0A3A3E0F88E828F83E0687003750899
:104FB30001A908741F02385C124CF23400F5831205
:104FC300545122122A6EE0682274F412044DE970DF
:104FD30024790090034D123DAE1220F78A0A8B0B01
:104FE300AE0AAF0B74FE6E700374FF6F701A9024D9
:104FF300FFE4936013790190034D123DAE1220F745
:105003008A0A8B0BAE0AAF0B120F8802342974F68F
:1050130012044D74F312096B1216E48A088B09AE5D
:1050230008AF09900368E06E7003A3E06F60E912B4
:105033000F70EA6E7002EB6F60DEEEFAEFFB120F99
:10504300DCE970D4EE4F60D0851882851983E4F0D3
:1050530004120B3DEEF0A3EF125074E970BA74FE24
:105063006E700374FF6F60B0EEFAEFFB740D0231E4
:1050730050123986120BAA22C082C083120F8802F3
:1050830036D87F0A02066574F212044DEAFEEBFF7E
:105093008C0A8D0B8908740E120B3DE0F50974FC24
:1050A3006E700374FF6F70057900024DB4790012BE
:1050B3000DF68A0C8B0DAE0CAF0D900368E06E708D
:1050C30003A3E06F7006E509A2E650DCA9091265A7
:1050D3007E706179007AFE7BFF12657E70567418CC
:1050E300550970030251C1780079008003122C68BE
:1050F3009024F0122C5F40030251C1E8FAE9FBEA65
:1051030075F007A4FAACF075F007EBA42CFB74F66A
:105113002AF582740A3BF583E0541870D0E875F0E1
:1051230007A4F8AAF075F007E9A42AF974F028F89F
:10513300740A39F988828983A3A3A3A3A3A3E054A0
:105143001860097418550970030250AB888289836B
:10515300EEF0A3EFF074FE650A700474FF650B6054
:10516300031252E588828983A3A3A3A3A3A3E5091A
:10517300F0A2E0500D88828983A3A3A3A3A3A3D2A3
:10518300E2F07401650888828983A3A3A3A3A370B3
:10519300387401125305E054186028902503E493F2
:1051A30088828983A3A3A3A31252D31210C68B0DA3
:1051B300EA450D60030250AB78007900803979022B
:1051C3000250AD900367E080D7E0640170030250A2
:1051D300AB88828983A3A3A3A3A3A3E05418600786
:1051E300902503E4938004900366E0124275E5087A
:1051F300F00250AB122C689024F9E493FAC3E89AB6
:10520300E9940040030250AB7A007B00804BEAFC38
:10521300EBFDEC75F007A4FCAEF075F007EDA42EE2
:10522300FD74F22CF582740A3DF583125872E8FC82
:10523300E9FDEC75F017A4FC85F00975F017EDA4F2
:105243002509FD74802CF58274093DF583E06E70A9
:1052530003A3E06F609E12318A9024F0123147401D
:10526300AD1242FFEC6A7002ED6B7088E875F017BF
:10527300A4F8AAF075F017E9A42AF9748028FE743B
:105283000939FF7C177D007900EEFAEFFB1216CC8B
:105293008E828F831252EB9003751252C5A3A3A380
:1052A300A3A3A3E8F0A3E91252CB7401F0EE240EFA
:1052B3001256FD74011252F31202FC1256FAE8025E
:1052C30051F31236E9A3A322F0EE240F12339922ED
:1052D300F01252DCAA0AAB0B22900375E0FCA3E0A8
:1052E300FD2288828983A3A3E50AF0A3E50BF022BC
:1052F300F09024FCE4932401F8E43400F97A027B6F
:105303000022124281A32274ED12044D8A088B09F4
:10531300890E12542F400579050254041219AEAABE
:1053230008AB091255019024EE125407650A700365
:10533300E9650B70077AFE7BFF1255019024EE128C
:105343005F0CE50B99400302540212540C6012E502
:105353000A75F006A4F875F006E50B1254571217F8
:1053630098E50E6018E50A75F006A4F8AAF075F042
:1053730006E50B125483701A7901025404E50A7589
:10538300F006A4F8AAF075F006E50B125464E4F0F5
:10539300A3F0E50A75F006A4F8AAF075F006E50B8C
:1053A300125424A312571A88828983A3AA82AB8337
:1053B3001254728A828B83E0604112540C603C8EDB
:1053C300108F1175120078101208C0E50EC333FC5C
:1053D300E433FDE50A75F006A4F50AA8F075F006B6
:1053E300E50BA428F50B740C250AF582740C350B18
:1053F300124FC01216C074031208F17900800279AB
:1054030007026594122DDFE822E50A75F006A4F879
:10541300AAF075F006E50B12545FF8A3E0F9E8492A
:1054230022A42A1255B888828983A322ECFEEDFFB9
:105433009024FAE493F8E9C39822F58312545112A5
:10544300179822E50C12687BE50D3400F583E0FA2A
:10545300A3E0FB2212545FFAA3E0FB22125464E0A0
:1054630022A42AF9740C28F582740C39F58322E5F9
:105473000EF0900DF312547C22E088828983F0228F
:105483001255DCF50CE93400F50DE50EC333FAE4EF
:1054930033FB121792850C82850D83EAF0A3EBF0A0
:1054A300850C82850D831254AD221242ADE8492248
:1054B30074F412044DECFEEDFF740C120B3D123824
:1054C300F688088909125501AC0AAD0BECF8EDF921
:1054D3009024EE1255095021E875F006A4F8AAF0BD
:1054E30075F006E9125424E08E828F8312551C1244
:1054F3005512123903790080027904024F28120DE4
:10550300788A0A8B0B22123158C3EC9AED9B221234
:1055130042A9850882850983221255F12274F61265
:10552300044D7E007F008028EEF8EFF9E875F00661
:10553300A4F8ACF075F006E9A42CF9740A28F582F6
:10554300740C12619F6A7003A3E06B60571232B54B
:105553001264F140D31264EC7002E96F704674FE7A
:105563006A700374FF6B703C7E007F00800312320D
:10557300B51264F1502E124EF370F3EEF8EFF9E822
:1055830075F006A4F81255AE1255E360171255CA0A
:10559300F8E91255C2888212543D85088285098331
:1055A300E4F0A3F0EEFAEFFB02315375F006E912D3
:1055B30055B622A42AF9740828F8740C39F9223450
:1055C30000F98808890922EEF8EFF9E875F006A4D6
:1055D300F875F006E91255DC221255B6E8240422C8
:1055E300A3A374FE1255EE1254AD22F0A304125578
:1055F300F522F088828983A3A3A3A32274F612045D
:105603004DEA241DF582EB125704F9604BEA241D81
:10561300F582EB125F2D2402FCA3E03400FD12544B
:105623003340030256ED780080298C828D83E0F5A8
:1056330008A3E0FFE5082400E43FF509E833FEE4AE
:1056430033FF74502EF582740C3FF58312571A12F0
:1056530056F008E8C39940D28A828B83A3A3A3A3FD
:10566300A3A3A3A3A312494B900368E06C7003A305
:10567300E06D700F7C507D0C1229D7124FBE120DB6
:105683006C8067EA2411F582EB125F2D605CFC7479
:10569300FF2CF075080178081208C87508507509C1
:1056A3000C78081208C4E9F50878081208C8EA2437
:1056B30012F582EB125F2DF50878081208C8EA2468
:1056C30015F582EB125700120734ECF91229D712A1
:1056D30049488A828B83A3A3A3A3A3A3A3A3A3124F
:1056E3004FC2120D8474071208F1023153EC2402E5
:1056F3000C0CED3400FD22EE240DF582EF12339CE9
:105703002212339C12570CE022E0F8A3E0F58388C1
:1057130082A32288828983E508F0A3E509F0227435
:10572300EA12044D74FD12096B8A148B158C0E8DCD
:105733000F890D7419120B3D125872741B120B3D15
:10574300E0F511741C120B3DE0F50C741D120B3DBA
:10575300124CFA741F120B3DE0F5106008E50CC300
:1057630033240480027402C0E07401120B3DD0E0C4
:105773001258838A088B09EA450970030258638A21
:10578300828B83A3A3E514F0A3E515126387E50ECB
:10579300F0A3E50FF0EA2413F582EB125700E50DB1
:1057A300F0EA2414F582EB125700E511F0EA24170E
:1057B300F582EB125F2D64017040120F6A8A0E8B23
:1057C3000FA80EA90F850882850983A3A3A3A3E0CD
:1057D300687003A3E0696022EE4F6011E508241AA4
:1057E300F582E509125700EEF0A3EF800CE50824DB
:1057F30017F582E509125700E4F01258681258723F
:105803008E828F837405F0A3E5107004E50C804845
:105813007401250C12587C7A008028850A82850B36
:1058230083E0125878850A82850B83A3E08E828FEA
:1058330083F0E50A2402F50AE50B3400F50BA30E09
:10584300AF830AEAC3950C40D2120F6AEA12587862
:10585300120F6AEB8E828F83F0AA08AB09120C3405
:1058630074030249211229E812339C22900334E085
:10587300FEA3E0FF228E828F83F0A3AE82AF83224A
:10588300123986120FC422C082C083E9C333FCE4F9
:1058930033FDEA2CFAEB3DFBEA24FEF582EB34FF01
:1058A300124FC00236D874F212044D89098A0A12C3
:1058B300542F40047900804075080080020508E5F4
:1058C30008C39509502AE508C333F8E433F9EE28F1
:1058D300F582EF39F583C082C083120F6A8A0C8B7D
:1058E3000DD083D082E0650C7004A3E0650D70CD0C
:1058F300E50A650870BE7901024DB474F012044DD7
:1059030074F312096B8A088B098C0A8D0B890C7549
:105913000D00120FDCE979006003025A00AA08ABFC
:1059230009120DF6A90C120DEA8A0E8B0FAE0EAFFB
:105933000FEE4F70030259FE8E828F83A3A3A3A39E
:10594300A3A3E0A2E240030259FE120F6AEA650A2A
:105953007003EB650B7011780D1208C8E4F50EF5B2
:105963000F780E1208C48044AA0AAB0B120BECE9A1
:10597300640170688518828519837404F0740112B8
:105983000B3D1252EB851882851983AA82AB8312D1
:105993000BAAE964017045750D01780D1208C8E47E
:1059A300F50EF50F780E1208C4750D00780D120868
:1059B300C8780D1208C87408120B3D85820E8583C2
:1059C3000F780E1208C4902505E493F9AC0AAD0BC9
:1059D300AA08AB09120D8474071208F18E828F8313
:1059E300A3A3A3A3A3A3E0A2E1400D8E828F83A36D
:1059F300A3A3A3A3A3C2E2F0750D01A90D0242B3B1
:105A030074F612044DE9FE7900120DF6EEF9120D4B
:105A1300EA8A088B09A808A909E84960061268C23E
:105A2300F98002790402315374F612044D7E079013
:105A3300035CE07034125A718A088B09A808A9091B
:105A4300E8496025900361E0640188828983A3A308
:105A5300700B125A78888289835001A3A3E0F9124C
:105A630010E4E9FEEE70027E07EEF90231531252A2
:105A7300DC1210C622E0FA88828983A3E0C39A224B
:105A830074EE12044DEAFEEBFF890A8C0C8D0B7445
:105A930012120B3D1236EE125B4D125436505189E1
:105AA3000E750F007403780E120A20746E250EF51E
:105AB30082740C350FF583E0F8E50CC398502DE59F
:105AC3000B602475110074037810120A2074682582
:105AD30010F8740C3511F988828983A3A3A3A3A3B7
:105AE300A3E50C125B57F07900025085790380F926
:105AF30079007AFE7BFF125B4DE4936510700479A5
:105B03000280E6E50B60E0890E750F007403780EE2
:105B1300120A207468250EF8740C350FF9888289EF
:105B230083A3EEF0A3EF125B57125305E50C124269
:105B33007D74FF126741E50AF0900366E08882896D
